:100000000010002011020000991500009915000051
:100010009915000099150000991500009915000028
:100020009915000099150000991500009915000018
:100030009915000014BD00009915000099150000E5
:1000400099150000991500009915000099150000F8
:1000500099150000991500009915000099150000E8
:1000600099150000991500009915000099150000D8
:1000700099150000991500009915000099150000C8
:1000800099150000991500009915000099150000B8
:1000900099150000991500009915000099150000A8
:1000A0009915000099150000991500009915000098
:1000B0009915000099150000991500009915000088
:1000C0009915000099150000991500009915000078
:1000D0009915000099150000991500009915000068
:1000E0009915000099150000991500009915000058
:1000F0009915000099150000991500009915000048
:100100009915000099150000991500009915000037
:100110009915000099150000991500009915000027
:100120009915000099150000991500009915000017
:100130009915000010B5054C237833B9044B13B161
:10014000044800E000BF0123237010BDA81C00205C
:1001500000000000ECBD000008B5034B1BB10349D3
:10016000034800E000BF08BD00000000AC1C0020F8
:10017000ECBD0000A3F5803A704700BF174B002B81
:1001800008BF134B9D46FFF7F5FF00218B460F4636
:100190001348144A121A01F056FB0E4B002B00D0E4
:1001A00098470D4B002B00D09847002000210400F9
:1001B0000D000D48002802D00C4800E000BF00F000
:1001C000FFFA2000290000F067FA00F0E5FA00BF0E
:1001D00000000800000000000000000000100020E7
:1001E0001C120020D81C00200000000000000000AD
:1001F00005490A681318054883428CBF4FF0FF3247
:100200000B601046704700BF0010002000800120E6
:1002100008B500F02DF8124B12498B4212D3002082
:10022000114B12498B4218D3FFF7A8FF186850F8FA
:100230002240586840F82240013298688242F5D343
:100240000C33EAE70022F8E71C6844F82200013288
:100250005C68A242F8D30833E4E70022F8E700BF65
:10026000F4BD000000BE000000BE000000BE0000A3
:100270006FF00100104B114A10B59A60D3F8882036
:100280000F4942F47002C3F8882001F5005210664D
:1002900041F2FF7050660220C3F8D000BFF34F8FC9
:1002A000BFF36F8F08244FF440330648C0F88041F5
:1002B000D36004600B6110BD00ED00E000000000A1
:1002C0000080004400E100E041F67132034BDA6344
:1002D000012203F50053DA60704700BF00000350AD
:1002E00041F671320121044BDA6303F50052D1600B
:1002F0000022DA63704700BF0000035010B50446C7
:1003000068B161B10023074A8360C0E90023C3617B
:1003100001F054F92046BDE8104001F0AAB92120AF
:1003200010BD00BF0000024310B5044668B161B1C2
:100330000023074A8360C0E90023C36101F03EF94E
:100340002046BDE8104001F094B9212010BD00BF47
:100350000000034370B50E461546044686B0D0B182
:10036000C9B1C2B100230D4A8360C0E90023C36153
:1003700001AB039301230493094B03A9059301F0F7
:1003800013F9204601F075F918B9019B3360029BFF
:100390002B6006B070BD2120FBE700BF00000443C6
:1003A000080000201FB5044698B191B100230A4A05
:1003B0008360C0E90023C361012301910293074BCD
:1003C00001A9039301F0F0F8204601F052F904B0BE
:1003D00010BD2120FBE700BF0000084304000020FF
:1003E00010B5044601F0D9F8024B1C6001F0D9F8B1
:1003F000002010BDC41C002010B501F0CEF8034B46
:100400001C6801F0CEF8204610BD00BFC41C0020BF
:1004100013B5002301241A4619461846009400F02B
:10042000CBF8002300941A461946184600F0F4F859
:100430000248FFF7D5FF002002B010BD04100020D5
:1004400008B5134BA8220021184601F0FCF903223D
:100450000346026142610F4803F1A80298614FF41C
:100460008061DA61002219629A625A62DA62186661
:1004700003F595605866996607491A67DA665A6700
:1004800011F8010998540132102AF9D108BD00BFB2
:1004900000140020101B0000281B00002DE9F84F5D
:1004A000DFF87C80824698F80030894616460BB902
:1004B000FFF7C6FF182707FB0A873D6FD7F86CB018
:1004C0005D452BD9BC6E796E641BB44228BF34469F
:1004D00048462944224601F0A9F9BB6E2544AB42A7
:1004E00008BF0025A144361BABEB0502964228BF8E
:1004F000164656B1182303FB0A83596E3246294427
:10050000484601F093F93444354424B1182000FBE7
:100510000A88C8F870502046BDE8F88F0024E3E749
:100520000014002070B5182400FB0445144B164637
:100530001D4404FB0033DC6A012C0ED0022C18D0C1
:10054000E4B9284601F016F9864204D83246284616
:1005500001F019F93446204670BD284601F00AF929
:100560008642344628BF04462846224601F00BF94D
:10057000F1E72846BDE8704001F021B90024EAE720
:100580000014002037B50B4B0C461B782BB9CDE976
:100590000002FFF755FFDDE90002EFF311854FF090
:1005A000200181F311882146FFF7BCFF85F31188F4
:1005B00003B030BD001400202DE9F041154C1E465B
:1005C00023780546884617460BB9FFF739FF022DF9
:1005D0001DD8EFF3118C4FF0200181F3118865B124
:1005E000182005FB000344F80380E218002357603D
:1005F00000FB0542166293625362182000FB05441B
:10060000069BE3628CF311880020BDE8F0814FF077
:10061000FF30FAE7001400202DE9F843144E1F467E
:1006200033780546894690460BB9FFF709FF022D3E
:100630001BD8EFF311824FF0200181F3118855B1DF
:100640001824002304FB0564C4F86090C4F8648097
:10065000A7662367E366182000FB0565089B6B67A8
:1006600082F311880020BDE8F8834FF0FF30FAE7ED
:10067000001400204FF4005382B00193019B5A1ED6
:100680000192002BFAD1034A136923F0040313618A
:1006900030BFF9E700ED00E070B54FF0FF348CB0EB
:1006A0002022002104A801F0CEF80194FFF7B0FE4B
:1006B00000F0ABFF04A800F0EFFF03AA02A904A812
:1006C000CDE90244FFF746FEDDE90212274800F0BB
:1006D0009BF801A904A8FFF765FE0199244800F0E2
:1006E00093F8019B23F07F4323F0FF0323B92148B4
:1006F00000F010F9FFF7BEFF1F4D2048EC682146BF
:1007000000F082F8019B24F07F4423F07F43A34252
:1007100001D31B48ECE71B4E33681B68013301D043
:100720001948E5E704A800F0B7FF294604A8FFF739
:10073000E5FD04460146154800F066F884B9FFF768
:10074000C3FD04221249306801F0DAF9FFF7C8FD51
:10075000294604A8FFF7E8FD01460E4800F054F8CA
:1007600004A800F0A3FF00F052FFC3E7D1BB0000D4
:1007700010BC000028BC00002C1B00006ABC00005C
:100780008ABC000010100020B4BC0000D8BC0000DF
:100790000CBD0000F0BC000008B5074B044613B1C7
:1007A000002100E000BF054B1868836A03B1984739
:1007B000204600F0AFFF00BF0000000054BD000065
:1007C00070B50D4D00260D4C641BA410A64209D136
:1007D0000B4D00260B4C01F085F9641BA410A642BA
:1007E00005D170BD55F8043B01369847EEE755F842
:1007F000043B01369847F2E714120020141200203F
:1008000014120020181200200FB40A4B13B51C68F4
:1008100024B1A36913B9204600F046FA05AB049A47
:10082000A1682046019300F0DDFB02B0BDE8104056
:1008300004B070471410002070B50E46054618B17C
:1008400083690BB900F030FAAB69AC6813B928467C
:1008500000F02AFA2C4B9C4220D16C68636EDB07B7
:1008600005D4A389980502D4A06D01F02AF8A389C4
:1008700019071DD52369DBB1013EA36816F8011FD6
:10088000013BA36039BB002B38DA22460A212846F7
:1008900000F048F8013011D00A2511E01B4B9C42B2
:1008A00001D1AC68DAE71A4B9C4208BFEC68D5E787
:1008B0002146284600F088F80028DDD04FF0FF35AB
:1008C000636EDA0705D4A3899B0502D4A06D00F0FE
:1008D000F9FF284670BD002B04DAA2699A4206DCB3
:1008E0000A2904D023685A1C22601970C5E72246E1
:1008F000284600F017F80130BFD1DFE723680A254A
:100900005A1C22601D70DBE778BD000098BD000016
:1009100058BD0000024B01461868FFF78DBF00BFAD
:1009200014100020F8B50E461446054618B1836928
:100930000BB900F0B9F9214B9C422BD16C68A3692B
:10094000A360A3891A072FD523696BB32369F6B275
:1009500020683746C01A6369834204DC2146284672
:1009600000F024F930BBA3680130013BA360236889
:100970005A1C22601E706369834204D0A389DB077E
:1009800006D50A2E04D12146284600F00FF988B971
:100990003846F8BD0A4B9C4201D1AC68CFE7094B01
:1009A0009C4208BFEC68CAE72146284600F00CF8D4
:1009B0000028CBD04FF0FF37EAE700BF78BD00003A
:1009C00098BD000058BD0000324B70B51D6806464A
:1009D0000C4625B1AB6913B9284600F065F92E4BDA
:1009E0009C420FD16C68A389B4F90C2019072CD450
:1009F000DD0611D40923336042F040034FF0FF308D
:100A0000A3813EE0254B9C4201D1AC68EBE7244B2F
:100A10009C4208BFEC68E6E7580712D5616B41B10C
:100A200004F14403994202D0304600F0FBF9002360
:100A30006363A38923F02403A381002363602369F4
:100A40002360A38943F00803A38123694BB9A389D9
:100A500003F42073B3F5007F03D02146304600F045
:100A6000A1F9A089B4F90C2010F001030AD00023E9
:100A7000A36063695B42A361236943B910F08000FE
:100A8000BAD170BD810758BF6369A360F4E7002045
:100A9000F7E700BF1410002078BD000098BD0000EB
:100AA00058BD00008A892DE9F041054610070C4623
:100AB00058D44B68002B05DC0B6C002B02DC0020AB
:100AC000BDE8F081E66A002EF9D0002312F48052CE
:100AD0002F682B6032D0606DA3895A0705D56368F3
:100AE000C01A636B0BB1236CC01A00230246E66A7E
:100AF0002846216AB047431CA38906D129681D29CD
:100B00002CD8294ACA40D60728D50022D9046260C9
:100B10002269226004D5421C01D12B6803B96065AB
:100B2000616B2F600029CAD004F14403994202D0BE
:100B3000284600F077F900206063C1E7216A0123AD
:100B40002846B047411CC7D12B68002BC4D01D2BB1
:100B500001D0162B01D12F60B1E7A38943F04003E8
:100B6000A381ADE70F69002FA9D093070E680F602E
:100B70000CBF4B690023A6EB07088B60B8F1000F90
:100B80009DDD43463A46216A2846A66AB0470028BA
:100B900006DCA3894FF0FF3043F04003A3818FE7C9
:100BA0000744A8EB0008E9E70100402038B50B69CD
:100BB00005460C4613B90025284638BD18B183698F
:100BC0000BB900F071F8144B9C421BD16C68B4F95E
:100BD0000C30002BEFD0626ED00704D4990502D4FC
:100BE000A06D00F06EFE28462146FFF75BFF636EA6
:100BF0000546DA07E0D4A3899B05DDD4A06D00F09B
:100C000061FED9E7054B9C4201D1AC68DFE7044B9C
:100C10009C4208BFEC68DAE778BD000098BD000090
:100C200058BD0000002310B5044683608181194639
:100C30004366C28108228361C0E90033C0E90433FE
:100C40005C3000F000FE054B24626362044BA3623B
:100C5000044BE362044B236310BD00BF431A000042
:100C6000651A00009D1A0000C11A0000014900F039
:100C700008BE00BFAD0B0000014800F022BE00BF5F
:100C8000D51C0020014800F01DBE00BFD51C00206F
:100C9000014800F016BE00BFD61C0020014800F03D
:100CA00011BE00BFD61C002010B50446FFF7F0FFB0
:100CB000A3691BB1BDE81040FFF7F0BFC4E91233D0
:100CC00023652046124B134A1B68A262A34204BF4D
:100CD0000123A36100F020F86060204600F01CF8BA
:100CE000A060204600F018F800220421E06060684F
:100CF000FFF798FF01220921A068FFF793FF022266
:100D00001221E068FFF78EFF0123A361D2E700BF45
:100D100054BD00006D0C0000F8B50746FFF7ACFFAE
:100D20001E4B1E68B36913B93046FFF7BDFF483646
:100D3000D6E90134013B03D533680BB33668F7E7D6
:100D4000B4F90C50D5B9164B04F158006566E36050
:100D500000F0B6FDFFF796FF0822294604F15C007B
:100D60002560A561C4E90155C4E9045500F06BFD97
:100D7000C4E90D55C4E912552046F8BD6834D9E7D9
:100D80000421384600F067FD044630600028D5D1C4
:100D9000FFF778FF0C233B60EEE700BF54BD000077
:100DA0000100FFFF8B8973B59D0706460C4607D5EA
:100DB00004F14703236023610123636102B070BD26
:100DC00001AB6A4600F07FFD00990546304600F011
:100DD00095F848B9B4F90C309A05EFD423F0030321
:100DE00043F00203A381E3E70D4BB362A3892060C4
:100DF00043F080032061A381009B6361019B5BB191
:100E0000B4F90E10304600F087FB28B1A38923F017
:100E1000030343F00103A381A0890543A581CDE726
:100E20006D0C000037B5002943D051F8043C0C1F6D
:100E30000190002BB8BFE41800F090FB1E4A019807
:100E4000136833B96360146003B0BDE8304000F04C
:100E50008BBBA34208D9256861198B4201BF196871
:100E60005B6849192160EDE71A465B680BB1A34244
:100E7000FAD911685518A5420BD124682144541899
:100E80001160A342E0D11C685B682144536011608B
:100E9000DAE702D90C230360D6E7256861198B4293
:100EA00002BF19685B684919636008BF216054601C
:100EB000CAE703B030BD00BFC81C002070B50E4E9D
:100EC0000C460546316811B900F0E2FA306021465F
:100ED000284600F0DDFA431C0AD0C41C24F00304A9
:100EE000A04207D0211A284600F0D2FA013001D1E1
:100EF0004FF0FF34204670BDCC1C00202DE9F0419E
:100F0000CD1C074625F0030508350C2D38BF0C25F0
:100F1000002D01DBA94205D90C2300263B60304699
:100F2000BDE8F0812E4E00F019FB33681C4634BB3F
:100F300029463846FFF7C2FF431C04464DD13468AA
:100F40002646002E40D123683146384604EB03087C
:100F500000F09EFA80453AD12168033538466D1A73
:100F600025F0030508350C2D38BF0C252946FFF761
:100F7000A5FF01302BD023682B4423600EE02268AC
:100F8000521B1ED40B2A16D96119A342256018BF23
:100F90005960636808BF316062514B6004F10B0611
:100FA000384600F0E1FA231D26F00706F21AB6D003
:100FB0009B1BA350B3E76268A3420CBF32605A6028
:100FC000ECE723466468B2E734467668B9E70C2359
:100FD00038463B6000F0C8FAA1E72560DEE700BFB5
:100FE000C81C00202DE9F04F0D469DB014469846D0
:100FF000064618B183690BB9FFF756FE894B9D422F
:101000001BD175686B6ED90705D4AB899A0502D4DC
:10101000A86D00F056FCAB891B0701D52B69EBB915
:1010200029463046FFF7D0FCC0B16B6EDC070ED509
:101030004FF0FF301DB0BDE8F08F7B4B9D4201D1DA
:10104000B568DFE7794B9D4208BFF568DAE7AB8901
:101050009805EDD4A86D00F035FCE9E70023CDF844
:101060000C804FF00109DFF8C881099320238DF827
:10107000293030238DF82A3023469A4613F8012B65
:101080000AB1252AF9D1BAEB040B0BD05B462246F4
:101090002946304600F053FC013000F0AA80099A3E
:1010A0005A4409929AF80030002B00F0A2800023E5
:1010B0004FF0FF320AF1010A049307938DF8533081
:1010C0001A93CDE9052354460522594814F8011B0B
:1010D00000F0FAFC049AD8B9D10644BF20238DF859
:1010E0005330130744BF2B238DF853309AF8003048
:1010F0002A2B15D0079A544600204FF00A0C21469F
:1011000011F8013B303B092B4ED9B0B1079214E0E6
:10111000A0EB0803A24609FA03F313430493D2E7B2
:10112000039B191D1B68002B0391BBBF5B4242F060
:10113000020207930793B8BF049223782E2B0CD199
:1011400063782A2B35D1039B02341A1D1B68002BB0
:101150000392B8BF4FF0FF330593DFF8E4A00322FA
:101160002178504600F0B0FC40B14023A0EB0A00CB
:10117000013403FA00F0049B0343049314F8011BA9
:1011800006222C488DF8281000F09EFC00283FD045
:10119000294B1BBB039B073323F00703083303933F
:1011A000099B3B44099367E70CFB02320C46012084
:1011B000A5E7002301344FF00A0C19460593204699
:1011C00010F8012B303A092A03D9002BC5D005911C
:1011D000C3E70CFB012104460123F0E703AB2A46D9
:1011E00004A930460093154B00E000BF0746781C69
:1011F000D6D16B6ED90705D4AB899A0502D4A86DF8
:1012000000F060FBAB895B063FF512AF099811E770
:1012100003AB2A4604A930460093084B00F012F8AD
:10122000E4E700BF78BD000098BD000058BD000095
:10123000B8BD0000C2BD0000000000003F19000062
:10124000BEBD00002DE9FF470F7E914680460C464B
:10125000782F9A460C9D01F1430207D8622F0AD8D5
:10126000002F00F0D880582F00F0A38004F1420531
:1012700084F842703AE0A7F16303152BF6D801A178
:1012800051F823F0DD120000F11200006D12000091
:101290006D1200006D1200006D120000F1120000CE
:1012A0006D1200006D1200006D1200006D12000042
:1012B000FD13000021130000DF1300006D12000079
:1012C0006D1200001F1400006D12000021130000B9
:1012D0006D1200006D120000E71300002B681A1D4C
:1012E0001B682A6004F1420584F842300123A3E020
:1012F00020682968060601F104030AD50E682B60F0
:10130000002E03DA2D23764284F843305E480A2308
:1013100019E00E6810F0400F2B6018BF36B2EFE7EF
:101320002B682068191D2960010601D51E6802E09E
:101330004606FBD51E886F2F53480CBF08230A238F
:10134000002184F843106568002DA560A2BF2168C4
:1013500021F0040121600EB9002D4DD01546B6FBD9
:10136000F3F103FB1167C75D05F8017D37460E46B3
:10137000BB42F4D9082B0BD12368DE0708D52369BB
:1013800061689942DEBF302305F8013C05F1FF3565
:10139000521B22614B4603AA21464046CDF800A0CD
:1013A00000F0DFFA01304CD14FF0FF3004B0BDE85F
:1013B000F087354881F845702968236851F8046B37
:1013C00029601D0614D5DF0744BF43F020032360C6
:1013D0001EB9236823F0200323601023B0E723689D
:1013E00043F0200323607823284884F84530E3E75E
:1013F000590648BFB6B2E6E71546BBE72B68266834
:10140000181D6169286035061B6801D5196002E066
:101410007006FBD51980002315462361BAE72B68B7
:1014200000211A1D2A601D686268284600F04CFBE6
:1014300008B1401B606063682361002384F8433077
:10144000A8E723692A4649464046D0470130ABD039
:1014500023689B0713D4E068039B9842B8BF1846E3
:10146000A4E70123324649464046D04701309BD08D
:101470000135E36803995B1AAB42F2DCEBE7002528
:1014800004F11906F5E700BFC9BD0000DABD000090
:1014900038B50023054D044608462B60FEF7A8FE2C
:1014A000431C02D12B6803B1236038BDD01C00203F
:1014B00038B50446064D0846114600222A601A46F1
:1014C00000F040F9431C02D12B6803B1236038BD02
:1014D000D01C002038B50023054D044608462B607B
:1014E00000F016F9431C02D12B6803B1236038BD0C
:1014F000D01C002038B50023064D0446084611468E
:101500002B6000F008F9431C02D12B6803B1236063
:1015100038BD00BFD01C002038B50023054D04465F
:1015200008462B6000F0FCF8431C02D12B6803B185
:10153000236038BDD01C002038B50446064D08464F
:10154000114600222A601A4600F0ECF8431C02D132
:101550002B6803B1236038BDD01C0020014800F087
:10156000B0B900BFD41C0020014800F0ABB900BFE7
:10157000D41C002038B50446064D0846114600220A
:101580002A601A4600F0D0F8431C02D12B6803B140
:10159000236038BDD01C0020FEE7EFF3108072B648
:1015A000704700B962B67047836813B981607047AD
:1015B0005B685A68012AFBD159607047C369032BE5
:1015C0009FBF00EB83020133D160C3617047C369E1
:1015D000042B15D84FF09842116CC902FCD5043386
:1015E0009B0013650168103B116041680C3011606D
:1015F00050F8041C034411604FF09842984200D107
:10160000704750F8041B1160F8E700207047002075
:101610007047B0F5802F24D010D8B0F5003F22D00D
:1016200006D828B3B0F5803F14BF0120482070478A
:10163000B0F5403F14BF01202C207047B0F5302F8B
:1016400013D008D8B0F5E02F11D0B0F5202F14BF7B
:10165000012010207047B0F57F0F14BF0120062035
:1016600070474B2070472A20704711207047212077
:10167000704708B570B1FFF7AAFF4FF098435A6C56
:10168000D202FCD5586D10F4702004D0BDE808409B
:10169000FFF7BFBF212008BD08B528B120220021D7
:1016A00000F0D1F8002008BD2120FCE708B1FFF7C9
:1016B000F3BF2120704707B530B9CDE90012FEF71E
:1016C0009BFEDDE9001230B1436823B1006803B02E
:1016D0005DF804EB1847232003B05DF804FB30B538
:1016E0001C4685B058B9CDE90012FEF785FEDDE94C
:1016F000001204B903AC20B9232005B030BD03B9F2
:1017000003AC8568002DF7D023460068A847F4E7AE
:1017100000207047FEE74FF4005300204B607047F5
:10172000012070470020704707B5002001AB0190F1
:10173000FFF7D5FF0198002808BF4FF0FF3003B036
:101740005DF804FB10B514460020FFF7B4FF2046F7
:1017500010BD10B500201C4600F05AF8002820608B
:101760000CBF1B20002010BD08B50020FEF70AFFAB
:10177000002008BD0369C26893429CBF80681B18A3
:10178000013B981A70472DE9F843D0E902940546C9
:10179000A9EB04084068904520440F46144404D93E
:1017A00000F044F8EC60BDE8F8834246A4EB09047D
:1017B00000F03CF82246686807EB0801F0E72DE9E5
:1017C000F8430646894617464FF00008C568346955
:1017D000B368A54228BFE418013C621B5C1BBC42F5
:1017E00028BF3C46944228BF1446706849462844A6
:1017F000224600F01BF8B3682544AB4208BF002521
:101800003F1BA044A144F560E1D14046BDE8F88308
:1018100010B50B46EFF311844FF0200181F31188CE
:101820001946FEF73BFE84F3118810BD0A44431E9F
:10183000914200D1704710B511F8014B914203F865
:10184000014FF9D110BD02440346934200D17047C5
:1018500003F8011BF9E770B568224D1E0E4655438B
:1018600005F17401FFF74AFB044640B1002105F180
:101870006802C0E900160C30A060FFF7E4FF2046C4
:1018800070BD2DE9F8430646884600F1480400275C
:10189000D4E90195B9F1010905D52468002CF7D1E7
:1018A0003846BDE8F883AB89012B07D9B5F90E306E
:1018B000013303D029463046C04707436835E9E77E
:1018C00070477047704770B50E46B1F90E1096B06C
:1018D000144600291D4608DAB6F90C3000222A60A9
:1018E0001A0610D44FF480630EE06A46FFF702FE3A
:1018F0000028F1DB019A02F47042A2F500535A422B
:101900005A412A60EEE740230020236016B070BDE4
:101910009368013B002B936010B408DA9469A342EA
:1019200001DB0A2903D15DF8044BFEF7FBBF136806
:10193000581C1060084619705DF8044B7047F8B5E4
:1019400006460F461446D518AC4201D1002007E0E8
:101950003A4614F8011B3046FFF7DAFF431CF3D177
:10196000F8BD2DE9F047164699468A6807460B6987
:101970000C46DDF820809342B8BF1346336091F8DF
:1019800043200AB1013333602368990642BF3368AC
:1019900002333360256815F0060506D104F1190AF3
:1019A000E36832689B1AAB4229DC94F84320131E8B
:1019B000226818BF012392062ED404F1430249463F
:1019C0003846C047013021D023681A3454F80E5CE1
:1019D00003F0060332680026042B54F8123C08BFBB
:1019E000AD1A54F80A2C14BF002525EAE575934278
:1019F000C4BF9B1AED18B5421AD1002008E001239C
:101A0000524649463846C047013003D14FF0FF30B7
:101A1000BDE8F0870135C3E7E1185A1C30200233D6
:101A2000224481F8430094F8451082F84310C4E73B
:101A30000123224649463846C0470130E6D00136E8
:101A4000D9E710B50C46B1F90E10FFF793FD002849
:101A5000ABBF636DA3891B1823F48053ACBF6365D0
:101A6000A38110BD2DE9F0411F468B8905460C4628
:101A7000DB05164605D502230022B1F90E10FFF74B
:101A80005BFDA3893246B4F90E10284623F4805337
:101A9000A3813B46BDE8F041FFF70ABD10B50C46F7
:101AA000B1F90E10FFF748FD431CA38915BF60650F
:101AB00023F4805343F48053A38118BFA38110BD46
:101AC000B1F90E10FFF706BDC9B2024410B590423D
:101AD000034601D1002303E01C7801308C42F6D18B
:101AE000184610BDF8B500BFF8BC08BC9E4670474C
:101AF000F8B500BFF8BC08BC9E4670470000000067
:101B000001B40248844601BC604700BFA511002013
:101B10005465726D696E616C000000000000005435
:101B2000545220524547474553000000EB17A65E2C
:101B30009DA0000000A000001002010001010000B3
:101B40004BBA1D5BC14009AF521663883FD5105593
:101B5000BA93458CCEC8760F2D535D942E3EB44C6F
:101B600080FC90CB6FA6BE877BE092F9636AF13967
:101B700085C8911A8B1DF9B5C9512841DC7E687D55
:101B800045D0C48B46745505C0D255C1525C252939
:101B900000CC7F9C5C094041AB36C284DD7C49ECC3
:101BA000E20AE82EA93AD0F3D5E328416744DCF0F5
:101BB0001B5BB809A06247DCC2E66EC0DA3C626D0E
:101BC000822AD08574627442BA9D3B2ACB2E01468C
:101BD0000918937122432F856CFE3BF25497F987C5
:101BE000A81299CB66A3AD187B6B3A2FF9595FC643
:101BF00029CD09681705807A16CAB5170AAB48D3EC
:101C00006F48406A1D9AE925412BA605B652DFF1BF
:101C10005DC0C5EC9327740706639391DB7039367A
:101C2000634ACF0188A77A5690922C5F4EE82E68BF
:101C3000B9D764720625230DA46DA2DC875D727E80
:101C40003480F4A80C929B32C4C3690B620A3C90A6
:101C50000E7F68A079593D70BF473F252C72EBD1AC
:101C6000893E14DA23A3F71FC12735F56E504D02C4
:101C7000629B6F623B9A7F504854DD05A3E46C3E43
:101C800035673D2F1BBE141A5758DDC04BFB3E4431
:101C90007ABE295E773C291AA3C30751E1FCA0D282
:101CA000C97014D4DB54494F58D9BD4ED09E4BB89F
:101CB000DE7C2B652B297995B718D817088BA5A73B
:101CC00084FCD4DD6D40710F9FABDF35308B3BB4AE
:101CD000AE28AC01311142A4141D55653F3F615A35
:101CE0002B561D1A0C5497BB3AA4B0299D39ABB39F
:101CF00036F86FAB849E273ACD1C0FCB131FDE2C1A
:101D0000EF17FAD015F457E4BB47E8730B6DEB54AB
:101D10006296D0B19EA5310179CAE7D7C6EFCAE76E
:101D2000197511E8D4727EFFC3FBBE3A2A6B5FF3CC
:101D30003D68CB655CB863ADA8AB066CC89431A4B4
:101D400008B66C5B63824C69B6F4B6A5421CBB173F
:101D500014ECECD3884C0EBE77492D2D3C867E7F4B
:101D600051F3B5CF30B444CF78823D987295BED64A
:101D70003B30106E9316625FC377B1EBCBB85D6BEF
:101D800077CACB801F777683F9CA5FC3A10B16CBC6
:101D9000C00A75B4253424EC7878BC23E202F269D9
:101DA000E539026B673B9FD8ABB8E77F0ED5BB1F09
:101DB0005C3CAF138E7B31E1D8C356BE9A57D9A590
:101DC0002B3470D18BAFDA258F8EF962265604B38F
:101DD0008FA120A3FCD45EF2CDDE5B8681A5FDAC95
:101DE000BBDEC2F49FFBA99563A7282797413F66F6
:101DF0003DBF8B1E9FF9D65A184ECDAD784027DDDA
:101E0000D81A1097208EC14F293E34407A71AD40C8
:101E10006436568AF598470484E5167DF61F592ADC
:101E2000D3D022BBC6D9EB0680434803662828F7E7
:101E30008312353113D995138ECB05E0115C0FF564
:101E4000326655F30ED0B896C3419A7B411D659911
:101E5000535B3C947E447B1AED88BD2C09EEE83739
:101E60006DBDE620F515A77E82466C027D38F9B57A
:101E700068E5953BF3866EF887245FA15386B5A18C
:101E8000F3830A6AD852F7194B75DA51393DE86085
:101E9000AC75AA0AC51D4AE8A49D2DA66DC6B8BB9F
:101EA000604EB0E34D561C3C1EC3383E0D492ABB64
:101EB00000EBCFE0A7FDA543FE720D205CF7EDEC33
:101EC00032E89A27509C6D2373DF37314FFF65430B
:101ED000615DD4F3D022DFC2EE3EF1282E70946112
:101EE000FC004789E78BDE75110541E019BBBAACF0
:101EF0001E826447FC660FC511DBDC31803A750435
:101F0000B53813590F1D7DBFBBB690F01CE11FFA09
:101F1000519FBFA385B5579BAD5718081ED4BC86EB
:101F2000408EDD2E7DE993D920C77A8B2F73ADAB20
:101F3000777275CD4065B4B133089F47BB9B8AF07B
:101F40000F093BFB3B9CD5B3E5AE7747BDBAF6A97D
:101F500005ABBF7BA34DF4B196FC3315AA0A47F33A
:101F6000910D3C33781249E3F48CCF99A0BD257BC9
:101F7000B939DB1495A746C9FD72763D5043AD29AA
:101F80004E92E2FE8A4DCF381E909D6F62B37E7DE9
:101F900063B467649A444920A2698E309DC38E86DB
:101FA0009A79701780E14E8E0D201855893FA6D67C
:101FB0004ABA9F8436FC1214D5FE828624D7CC0000
:101FC000BB69E39C78054750ABE3E72E252964C045
:101FD000D6100C369534EA79EF689C88980911A6DA
:101FE000C296F9457973D9D88D8D0961AFD66A4407
:101FF0002EA59EBCCDC703C880CAC71EED54628DF6
:1020000077C79D1205D41834BE43EB2479B66FAC64
:10201000D954E30F041F30A336B8C2DD18AC63D324
:10202000EFF388369D5F239691D94D857E62EDE270
:10203000F5B2C34594176766969FA99090C6808DA8
:10204000C1BFD93282829BA364BDB5C0D019BAA4E6
:10205000355811C7A26AEF0D92A40B76354B3B059C
:102060007ADECA3546E28E877C9C767B202D58C668
:102070008856CF209F325283FE6650EA8C4C031361
:1020800064397CF6716CBE770C66E34FDC7B14AD73
:10209000C14AC8B183D2C0B1CE5B1F1630E1492717
:1020A000839E3D667E678E1A201981C80BDB7245C0
:1020B0008D9CB807736C80566AEB164BA86D1F6831
:1020C00056E2FD03C4A8517679F0AD0CE9CD15E3D5
:1020D000DECB11EE3E0F44AE73CD98899E6DBF529C
:1020E000524F3F008CF0A275C8BD04E4EADA343CDC
:1020F00038B5CAB1F0B6551F85FCF0EADD80ACA555
:1021000015211756C72733B12CD0C4752A0AA84FFA
:102110006F1B17576FD2D93E2E46BDD7D38FA4E37E
:102120007342644331A98AC9858C8E74FBCC560FE7
:1021300074EA9C6B1FE33A3A51A89EEBADB189B9A2
:1021400089DDB7ED149BA30BCA83171F736638E7AD
:102150009AAEE729BEF1A84D77B4F06526F6D9E925
:10216000E9543EE0BEFAFDC6988D75B6A1C3733F33
:1021700073BCFC9728DBC145F9BE36CC3D832B4AA6
:10218000C6544B4E107347603AA90E3FED58EEDF30
:102190001DAB5899599C94775D5572512E8B8B7756
:1021A000A947A57E962B61A909AFE6C7FFEA54D2DD
:1021B000AAF0503216DAB68D117974BCB08BBD73AB
:1021C000CA3CC315306219D6F9452468002130880D
:1021D000139C1A3613DF546B4F7ADBB4E804AC8ED1
:1021E00071FA9654D3526FF7C007C638E5A1324052
:1021F0006B0DB0E3745E590B59BD395BAFE58722B7
:1022000096BE0582033A661AC1D55DC95522D8D952
:102210006FC722AF17A7F5E0116AE434B74AF84652
:1022200089DA569AC02544A44386E6BA827FFB45E4
:10223000DBEB2F3292061A1E448266A70BABE543F6
:10224000EFA7A429337FDF19B2E0CD1581C482C87E
:1022500050154458A157660429202AE265F2A1A826
:1022600014FDC340075FE9098252551D3042756570
:102270005787AD8EB1E2FA30ACC0F7540FDC406A3C
:10228000FBF6BAF819A0B777A0D974EDE492AE299D
:102290003E2CEFEFBD57F8D6DB60B2DEAC59EF3520
:1022A000D3338C4EF2FDE69B2F8D9175F93C757FF3
:1022B0001ECE4CD2EDB7922B35087E5A7C203E655F
:1022C0000279304315F41B4D3AE702AE8AF51050FF
:1022D00000D9EAF4C23E76837166CF737C6E7AEEE3
:1022E000D8FF626079EB3F8BD624104C49504DC823
:1022F000FBE759ABCF223DF5C946EB9D5D5B93BF34
:10230000AECB5F90C6C1BE5A9BB09935C303E166A0
:10231000A2CEB6B91AE1DA78AEAE6C0E1EF55DB596
:10232000B053AF13864A47783CE05B08FA9F67D505
:1023300003B0C53E7BF973C39ED14D6528D77A495A
:102340008166554C29CF712C829B47DF1CC0A9E5C3
:10235000D379080057F54492746F07E57DC02EDFEE
:10236000B664EA6E3206B777E82EA840D0A21C68A1
:10237000F05FD81CFB422BAEA6C2507DE0A69B6549
:102380002F53A55B42810CB2095A4F61B01F94E3F1
:10239000EF1AE74BD2F285FA21857C5FAD2885CF15
:1023A000AEE19CB78521901875B0611487A3C2F681
:1023B0008A31080A8D36038C10B9536EB030F37130
:1023C000D4BA82E1F5F8F9EE610C7A9807254F1638
:1023D00051C824EBCE24D20C4140719B523768780F
:1023E0008B2F4A0F92D70019777A545E31698DDAB4
:1023F000605B6A50B60985B6C72B50D8C052B56627
:10240000E1001B468B36EF85F64B2289D0856C2781
:102410005183AA60A5864F646875134EA563C35A9D
:10242000BB0981277ADE23CACEB081F764199D3FAC
:10243000D67D31C8E4F8B29248F7A331D76334B3FC
:10244000B3018EB9016BA2116FA5FB855936216BC3
:102450004A4B0B1CF1E641C7E32C8EA7CE770D7AD1
:102460001A5E567CBE38E1965E8BDE821B9F515C05
:1024700053786DD10B14C65E32C85F8DA66FFDA96F
:102480002259DFBE24C6939C291B687358375B848E
:10249000D040887CD1CF9484899DBDD382BE4B44EB
:1024A000699433680B089DE0A5469010C436505BD4
:1024B0008E9F97BC54E9F98D08A99C5D6DDE0236AC
:1024C000695B3153B34C115C3055DC9C4AF6615169
:1024D0007D25A71506D78DE701729DAE1A9CE1F206
:1024E000C845CFBF4996C02E970B9778F4DC6BBADE
:1024F000EFAF6B72947670A7A599E01806309AA09A
:10250000A9E403D8FFD377A0FADC9D285A8471C0D0
:10251000DFA9A85DCD96AA5D7415AAC58A3608F60E
:10252000347390C84B5FC784A703DB6F11B1E562BA
:102530009E817AA8D3D2B3CDE3D42F80CDE4386B7B
:10254000F7B9E38AA00989601B362E1798A4404981
:10255000932547A0AB9D22390DD811AEBA83650FE4
:102560004848F75341B32DB33B5D4B709BBE804C45
:10257000BF12CA69CA7E27B1A60C5035E24795AE94
:10258000142D8798F516B31F27FC4329FECC882D00
:10259000B8570D4BE993334005FE96E5391E871C6D
:1025A00096BDE76DEC280DF1E4F96437688BFBA666
:1025B0009B7CE30E856A80A3EA495AF411AFEF4988
:1025C000A68C3F17145446F3A59388D96091A6D2E0
:1025D0007F55FCA326192B78A46FEEF7E010ED1AB7
:1025E0003AB1E0693A47CBB1B2B20B3249F538F4AF
:1025F000143E742BBC6614CDC1956C5B25740B9096
:102600007EC5C539F031D96B89D08044C2F90A97AB
:10261000BAEE343483B00254BC7665167AC3BC3F3C
:102620005A965B3C8DA743E72DD4342D59D5B3255D
:10263000E651E99B169AA8A9CC1DA0E68514B80C12
:10264000B7221EEB54156B67AAD6EF1BE46137FE69
:10265000A64A186D8496D325033E55DDD87D0D2DF1
:1026600028A788E5C17371BB167FB1720AE08E643A
:10267000AA38821D336D06025370F25D3F801C3410
:10268000DC3FF5484CC28A3FFA23A8E6E9C259A8C4
:10269000391E6F02BDE9CE1E06EC090DF623021DA0
:1026A0007E45EFB72F7B69FEA88D83160877E4FF80
:1026B000E427E41C5F76DA941FEA3F3A69C7C44E08
:1026C0005045E4C140AC87ACD01C42BA3E67F838F4
:1026D000AD7459A7AFD449A52CEFC473FE07468546
:1026E0004C4608C4E728AD87BBEE3113D692574A53
:1026F00004A8237B248B94796564EBEE5FC1A4125C
:1027000005A4EFAC6B685E4994C49AAB3610BB75F8
:10271000B97130BB8DEBF42425D9569E5C1CD0CE0C
:10272000FCF4D7A3C25D416067F6D604EB4E3013CC
:10273000972689CEAD792EBC38F89365D0A722585C
:10274000A5F8C74DDC5C3958F9949273FB3EADEBAC
:10275000071487E437A609D5FD2D3C82DF54A0D2AB
:1027600026EA4AEFD3737FCC3FEAD5D4435F08AB68
:10277000031180A5FFC768178BB5D2E303569254A7
:10278000D03F24560546D8A1CE84D44A9DA9B5BAD7
:1027900066F2D09F574E3C908BF1BF22AF02DC21F6
:1027A000C0E340659D7F7B144C34FD486B1B9A88C9
:1027B000560F46628BB1465BAD8208125BDB488EDA
:1027C000B7C14224E210CDF5DA7AA2D93C114CAE61
:1027D00035703DDC12758F9938C5C3F7F2EECC6BBE
:1027E000A11A8B7C7DDC18CBF3449268923F6A047B
:1027F000E90386BBEC21A418758A3718ACEFFFFB00
:102800005BD1457399A0FF9A7385E3742D399BD5ED
:10281000906C6755A801A60C98DFDE9D95462BD5D8
:10282000991E204E8457C638591AE63B09AC8B577F
:1028300048AAE13FD88801DCDC3CA780951213EC64
:10284000FFDDBF791D3C6AF1E15BFD898985DA779F
:1028500072A9F0444B53A3DABA7CDAAF66094BC8CD
:10286000B1C498F562688047BB6E30E83613285BC8
:10287000F6646E5F8297C22CCE6244D1F4A9E35510
:102880003D995CB84B902E1BB3F401BE5AB09FB675
:102890001EA09D938E5BF15B503A4187C7226EFD6F
:1028A000BE0F66C54F0996D14EB6F156D8B4F93C65
:1028B000AC0F249CC25917CBF154483676FA9137A5
:1028C0005630292FBA654EF0FB95121334660FB8B7
:1028D0002F9C1B8A9295770A66E401A38E4FFE9A7D
:1028E000592EC54CDFC6EB7BAA1C380D9858919821
:1028F0009D132D0D146601150171BCD0B7C4693F3D
:10290000EE6749DC8E4B20260353EAC1F0F80D092F
:102910002C630B3C96166413B57F5C92D2D2A8E66A
:102920004D3C7E64F4B3A71208E726118219399B47
:102930001B52122B3B2F4B786B41286F073B072B09
:102940009793C1A21D6B0A68B79DD1630829D873FC
:1029500049C48ACCD00D39EA3ED706C48979F8F744
:102960000A7779CA3171FA73D5FEB22EA79144D293
:1029700069E1909BC5CE9244CB7EC57F4B92E859CE
:102980004E7B8F76024E3CE25C12EC4DBC0BE94173
:10299000E35E7E1648C14981BE181C2DA6E085ABBA
:1029A0008E95077FD8F05E0BA668D81F1088AB4EB7
:1029B000B39444D1712E744E4926B4B0B51EDC5B7D
:1029C0003B8889F9661C57E76CB75C63F27A4A303A
:1029D0000FF7963594BB6F02A1AA380C3F28CB9114
:1029E000D668772320DB91F40296F56A5574A1949A
:1029F000DB7DABC063790746BFDF5B8F849E18E049
:102A000013CE753C440A7ADA6C070800917F7F9BED
:102A100023774527E47D7919856BC9AA180A209682
:102A20007EE156390CDC400E89BFF748135D146215
:102A30005E95EFC6FA38FE3A7871489762DFD8099A
:102A4000BF9E0235ADC473A298E7498F9D2B4CC839
:102A50002DD6C8F73E4D4F1B32728BF9DED0977ED4
:102A60009259C320FCE090145479555F3ABA370E5E
:102A7000613356A47FF20433F6EF2EAA59B02840F2
:102A8000B220B666824FC2908DDB9EF982228CA95D
:102A9000CB4AB474EBB84855D7EE236A823C5C79D4
:102AA000C76235FFE30B5B3B514021E5BEA8A2ABFB
:102AB000C8C12276ADF39C23336D2DEFC284C2B51D
:102AC0005C5F48EC6D92A8144859C3B5E8BB48A1B7
:102AD000FF3308FABCA670F6FDE640977E846B6E65
:102AE000C1B085F906DFA5749FC90B7010D05733AC
:102AF000A8C01609635E1F5C18B603F7CC70ADE47E
:102B000005429772B312128EBCA0E7D1CC796FC880
:102B100091F03B451DB27AD6CAA4D76F5AAF12CEF8
:102B2000CD68D18FAFDF7602C15106F9FB9B1661EC
:102B3000BBB1326520E3B4F3A539B91035B72DD256
:102B40005B9432AD0A9FCD1643E2B849027C63E63E
:102B50001825B4B62F17D9D2BCD36A4DE28ADCE768
:102B600017D6D15FD660267AE27BCE4301C1CD8AEB
:102B700049E7D6B3402406687F11F91C1A6F21CDAE
:102B8000D54D583F796B2C223732ECA5D76CD196B6
:102B9000A2F2D1C15A11A6A296A425B6F4ADE411B1
:102BA00083201FA2B67FEE089573C570AD74ACE4A8
:102BB0004EA9C1ACEEF75E1B0F88E0C4AE1C2B70B3
:102BC00005DB60A08E67EECBB3C3177BF88EB51024
:102BD0007BF66AA7EAA7A70EC620B0A2489856358A
:102BE000C3F698E42A0E3C4EB0C32A5E76034B45EA
:102BF000ACBBEF9A08FB050A8ABE21074A60D9D50B
:102C0000575F34BD25541B720604C37D8E674B622B
:102C10009CC0A6E40DFDB9DEF3168104F4AB324886
:102C20006FB030E5F42F1D821DB8B7E04BFD73097E
:102C3000E9B911EB75C100EBDF1917089E38C7F72A
:102C400099415ED8A3680F68050837579CC96B4740
:102C5000E23E0BBC070552F73C3891F187F230B6E3
:102C60000B8D54C7C7B8AC2E057623EDD33C757DCC
:102C700063846AB4C8300AA45BED6827C39F70B34D
:102C8000B7657C2638A76B40CB5F55A02E89B36D06
:102C90002CF22C2BAA32A3B5DA6AAF02E583F689AF
:102CA000038938ED9D9F96BA6411EEAC55A65A780B
:102CB0003FAA9BE7198B51E614674413AC9109A313
:102CC000DC37D0D716483A84F6F85AD7D22F1B7380
:102CD00038810AAA98F4C5CB1F019190B516EB492B
:102CE0009ED30734EE539BC0AE309A721AE07CFD3F
:102CF00090BAC20EB6DC6DB78360C05FC27C868DB1
:102D0000A9BFF58F92B540F1D392B62799B5DA47AE
:102D1000EA91BF4E2885C71F218795CFC1B0CD55F9
:102D200098CD2B53B2744F579787DB711BD77D0F0C
:102D3000B7C157A709E0EF9B0D355DA19FFA24E2CB
:102D40005251BFBD1CB0EED8374F2D910D014CE252
:102D5000D07387A6133B197905D48CCFCF91081F68
:102D6000AC639AD7152778C72F0F1EE019783D99C5
:102D70008468EC4253DF70EF0AC53EF7D8735136D2
:102D8000C3A1CA7152E944F52E483BB8F0E819A92D
:102D9000C705EE60AA2CB3CDFC6EA2222AA01A6C45
:102DA000431F058427A0C49D0772B215293B95B423
:102DB000A6B95775BFFDBAAFF968BEC03FFEC25392
:102DC0006B021DD949BC0684E9AA7E894F50EA04EA
:102DD000881ADECA7E74FBB38D731477DEB1AF3D03
:102DE000F3694023E81330C14501D96B87AB8D6986
:102DF000178AE0CC72925A9FE6B11FCBE57A249AEB
:102E000009BAE01E97E721FF5BEFC7196ABEA06A07
:102E100048380EFDF4F59585CBE463673C2234DB3E
:102E20009E9B81688173A80A52B000EA120BD0AE53
:102E30002A27E5DACB845A28B4994B17B5A4B54FA5
:102E40009E472EA55E4D3A80396EAF0346B961BDEF
:102E50004643E8D622D69D52831DA3D2D8DC0CB0BF
:102E6000E3938FE11E2600D42FAF6F3E3E8E7E8A05
:102E7000CCA2B6BE0EB38CD041FC2778A05B2CB19F
:102E8000C2466B45061429F8E9374ADF83F8C34E7A
:102E9000552F2508698D8E3AADBDEEB39857455A2A
:102EA000EAF9C7BA402B443CBF73B62B00CF34BD00
:102EB000CE218A3E7BCFA9EDC2022029BA4313D985
:102EC000891D0C3F6AFDCFCA520BB8FA60E5320E7D
:102ED0002DB43D90A0EAA22DF1633BC5752BD7839D
:102EE0006DEDADD6FC036E52627FA1338ACC0C929D
:102EF00042E8384A62286C71F573D70D51BAE8225E
:102F0000C3D3761E2F4E3B0417CF37D4A75EE9FB01
:102F1000E16786ACB55E1DE02C423D896E888EE689
:102F2000C845299076FE8252C7D333AD443ED6556C
:102F3000BF94BC2D8D24B34AD486224D3C2C3B97A4
:102F4000ABDBA600B3BD0BCB075459782AC28B73F9
:102F5000CF2986FECA95FF525D3129ECBD61FF4E37
:102F6000C0F2794590020A5F6FA607C6D0B8E1BDEE
:102F7000D269C9CF42207170F4609C0C3062F0C9F4
:102F8000285FFECCC47CC4DFDC2035B2998F538827
:102F90002ECEAD477F18A0EAF0D20BE56C8417A7C0
:102FA000B498FFE0BE63858662A26EFB9D74BCBCD4
:102FB000A5D5363E8B1C409501C3667200F1A1B6C3
:102FC00041796DB55EA544572B46750B1DA3E10CE9
:102FD0009EE10726DCDC7F04405D86533D7A686D08
:102FE000B33CDC19D04F59F5FD247BB379F66B7BEC
:102FF000E0B2EE06F45E8EFF00823A93807E4A11C4
:10300000F9D84E924E4F74C9DFE4460BD6651509C8
:10301000E14E7BCF9680F3D0200E0DD366438C8992
:103020001F050DD832DC5C8D688C934BC7BC3DB05E
:103030003B31201AE92EA793A2FE044B215DCF7DE0
:10304000A592FF4AC7F7D70EF94A8ED8798E5DB799
:10305000F882F4145C4AC1B98E17E0F981B91805F9
:10306000AC85DC68389C438BF44F5D4AC728DC3064
:103070008300E346DE64CF95728384425B2033AEE7
:103080002CE29836006C8CEDC4FB2F6D4A9662E5FD
:103090000B1798CDDB55B1DC2E992C221C6FD53443
:1030A0006E725346B06AED46203D8E9549EAB3896B
:1030B000E6178E9D727C7EE517E529333C866E0F00
:1030C000997E5B5EE442F87D996AE8B3ED508184B5
:1030D00014476556ACA1F6C213F9AE59E02D1F4E48
:1030E000059B497CE6798E91D0072AEF61616EB726
:1030F000F36AE8E76690D9864563D749E837E86A16
:1031000041D5BDDBA96906EAE8B6C33DA35D28E663
:103110005D242515B00BB1B9C0464BBD894894025A
:10312000E300F81DE92025A7EA999BF371C850C177
:10313000E9907E0EEE81008ADFB8486761B546717E
:1031400037FE4EE0B1115B50E50BD91DB339548009
:1031500066FBAA8EF368A6950DD0526589B736AD89
:10316000A1CD50DBC18CCBD62DE9B0FA08844CEB55
:10317000F9FACC24C4565F139E8D965DF00A32BDD9
:10318000CAD18895195C6CE68B9F7D0D26FC96AEA6
:103190004DBBE2CBE92838420C7BE2B568FEE7364E
:1031A0002E8468C174DEBEABA33145273E71A18673
:1031B000F70DA0EF48615C7949C4D1F87F699B8A1B
:1031C000D5A297CA37D40398A941D942BB6004E974
:1031D0009C3B91937D0B297CA17A2F4B824BF27300
:1031E000F0F8ACFF396CDE581AC0DAF9150C4583DB
:1031F0002EB31B09D1ABE2440786A6937A32D29252
:10320000362E1CEC594989C2AEC53E7DEAF20A371A
:103210004A06DF4A8743035CD80F984568E30BF3FF
:103220000A3758EA8D5E29315A2889315B3254B702
:103230006B7EB98A10A7F27389A929EC394DB1C503
:103240009E4E1B0DBF9E0C6FB77AF7C3B59EC77815
:10325000DB18FBB995866D94E9880482C46DEE2C69
:10326000130C9C22E9898FD8A0D4C7C5E2D570EB96
:1032700025D71007C943B39B7F0296823A83ECA8F7
:1032800009D30CE1F77DAF8E5B067E2182024456A6
:103290006C6D7376ADC1486297AF944E6305811231
:1032A0009C3BA5420410B259EF43C82E9ACEA73AD0
:1032B0004A97DEF31A7C9806E91C8E1D2B34605762
:1032C000CC1EDF5FE82C822E3AB59AC91ACCBBF728
:1032D0004F4B4706A9B9F6173AFDBE58E602C71389
:1032E0009408C0C417AB39F3F01436B251D6C8FEF7
:1032F0004F85FB5004BE94814B2926F142D470A324
:10330000CB15BAF91C0BBFF26EDBD75297E944A577
:103310005708DFC08FB75948D96B509267FCA93066
:10332000F06B5A41E741D5A064A594D7E8563D66B5
:10333000A06E4585AF58963349B6590D5FABA5B71A
:10334000E140186C4394081A25D019164379265188
:103350002701CB2FCA0DAA909FA48C118D852C120A
:10336000A702C4434370953649064AB167AAE8AB41
:10337000AB6650032E7ACD3E481B30BA5922912FAE
:1033800073E1610F3471DE7B92F0DECBAFBF3E7B29
:10339000DC02A4E78EC34B373425B688752ED6BD24
:1033A000A62A1AC6D20968FB1ED806C5854B70E14D
:1033B000F21D34B105A60EB840D680185C1CB96A5F
:1033C00075DA5A8884CF2935676FF3B9FD6029070C
:1033D000361D68CC705121D9E127036CA51FAC5272
:1033E0001F0BC2B3351F79112D030B27D3A2976092
:1033F0005F2FFCE6DDCFF6ED9D22EDB74539B9B87C
:10340000263F8A2E308F4A97794ED7CC08F2A2A158
:10341000744E9FDB480909FD59E1E2E860D8690D67
:10342000A2957BD4A00316A8AB26DFB147681CDEAB
:10343000761329E380FF2458850184C6737482596A
:10344000BC6544E1B6B7A6422B1C83EEFC35E7779A
:10345000CC908A021502F827E9A95E94E4D96FFF9F
:1034600032D2A8F3B6917A5159E6CEF80A64A31C79
:103470002515737F0FB5D9CD5D55DC2E4070F74112
:103480007B587AD7BF2F33442D4538F843A9B53739
:103490001F7836289A8C79B5B444C328C17720C7E1
:1034A000C79F5E1BBD34053B07B9B45D1FD3A25B4C
:1034B0002DB167D82E448AC2ACB9F5F64370D50059
:1034C00040E4E4C2BD0B5E70928D2924078A6739FF
:1034D0006195C9E71773869138459E7D551D9EAE4F
:1034E00066628D54B10CE8B19BC8E557848ECC5C04
:1034F000CBBE1FFDCED25E939D79D30D36102F2704
:1035000000855884CFEEE580AC5E0FF8D3E903A8C0
:10351000020E7F5AB5D0583E72FB79B34AA60F8689
:1035200062BC05DED18219FF8C16D897381EDC608C
:103530006E1BB836BAB128905A1C166D576FDC9BBB
:1035400024C6994AA8D2044EA7423FC34C2156C56F
:103550002573F350713C53C158152C58B7EFFEB387
:10356000D77B4CF0261990F6CC51D98E918CD84847
:10357000B927E5172D4FC11AFDED08F60D762A077C
:103580001B375832B98FEA7DBB59C92CC5E901F602
:103590006F4508797BFFCAA8A80BEB2B78AA3FD10F
:1035A000780CB00D3A965AECC7EC00B273A0EA4121
:1035B00022A933529A65E48DC02D0F8465D8EE712F
:1035C0001DC4C1C318726955FEAFDD8396A7583676
:1035D000B1BC2899216F69B117836CCE0A3FF924D9
:1035E0009D8D03DDA4A716E0E3D4A54D88E6D6BAE9
:1035F00095B571DB085138CBF9675E9C9B5DE67D24
:10360000B6010E538856ACED36FA262462FE8AFCCB
:1036100004F6FD14175065A6A8EF609E3CDAB34F80
:10362000DF268CB3453EEB1BC0B96083875AD8A612
:103630008D48E7206D51A8C663546F2FAD21D01E71
:10364000EA7AF984764A5FB55B7AF7E4BE8950CFAF
:10365000BA41C391EAE0C27D55E3C800BA01381708
:1036600048A4F41841DC8B7177D19FE2C37B9609A3
:1036700026A68DD5BA1B336040EA3E9C0CE182BF82
:1036800082CFB7C0FE4C73ECA1CAA4AA555FDAEE94
:10369000E203D348450D7E7DA67937A8C36AFE4173
:1036A000E01F96672459FE6FC2BB992FA1E9456AB6
:1036B0002D801CEE4CF46942F4B1B0D1B01FBBFDBB
:1036C0000E94346CCE7CE37674F6C65F68FE16C149
:1036D00024DDCAE8AE36B0D95EA92B613EDB65EACF
:1036E00073143704A163CE84BCDFCDE155BFDAB8D3
:1036F00040BEF42771B8B3D2F227E297B56721052F
:10370000467A546DF2C75359B32F14FDC8D30E84B3
:1037100082615A19D558EC1B946B42C682EA9AF121
:103720000BF04C4169FF3E6ED57A3BEA80E5C5DD82
:103730002D0074C17F19B2D67981D097FC23EACFCE
:103740001D140CC492C7F54D430BB8B03136624519
:10375000E48888E1EFC6E24000EDA9E86B736AC433
:1037600062FE792A99056E45397EA239F8428A812E
:10377000C27486BAE3E9F8A48C4584DC095BF7AD32
:103780003DB20A5CA9203D40C79D8368E874BBE355
:10379000A4D8F9BFAD543DE03A5CF1CD007E513C78
:1037A0003C57379A63D974DCF5429798E5315869EC
:1037B000E6A46BDFB9ACB0EA34A9D6E6BD8E319091
:1037C000DDD33F7E1B76BEDE07DE0C4FBA5DFCF517
:1037D00042A6E48AFC3FAA54556155272B0828418C
:1037E000F4D45BD35AF9ADEA1F98330AED23CD75B3
:1037F000CF33BFBC2D6D64C6BD8243B62144D5E92D
:103800008F100A6AC22202DEFCD0DD90A25520ACE5
:103810005FA3C0F97A75932C39276F1ADD728F4A2E
:1038200010D6101769ADFA52EBB851B7596648E295
:103830005A907D7FA997DC492BB96416EAA7E21D4F
:103840003FE96DC367F0718F04FBF392FB5A0CF2F2
:103850009A75115A3EC23BB94717A2C01333482884
:103860002F39E9B7F0741E2C0212AEEAF60AC58AA7
:10387000E3A58CBF741BC41C6775BA02C59B446F5B
:10388000E858A7050FF540CECADF427906A6C04F1B
:10389000A5A23951BE373DC891C0BF445BEA9C1711
:1038A000504D8EED43DB4DE24FD4BC026469A32A38
:1038B0008CFEFC9555D29B02A6AEB2439CCC0C0666
:1038C000284CACDC13C6C302D22B898D196666DB8B
:1038D000EF10D06206238C675D2C4F8F90350DB3AF
:1038E000B1C5A6E09B4AA934FDF9B7FF758F4DED30
:1038F00067FF4FC30B8B6741F2B313CBFD4C5847A7
:10390000C64029A9FCBABA18CFEEC95F8715717BEA
:103910000540A0C0E23D447F78D856E9DB9B60C8F3
:10392000ED3F24DA989367AD62F656FB6904809107
:10393000A3872DA675DA9C227DBBB16762D8E912F8
:10394000EB541BC968C2A2C0FAACB2D5A2210B507D
:10395000FC779F571B2BFF70EC9BBF5432F4627BAC
:103960003FDBA45FABE02769BD36BF39BFCA4FBF9D
:103970002C2856B788B469BE95AFE59E34B1F3558F
:10398000B4A71BB5135EF91EB75A5B04F50BCF4401
:103990001C8A15344A1B84EE29FC3294F22C643CB8
:1039A000B59F4BD1BF8B8065EB44E0FE193206E535
:1039B000905C02628A1FEFEE21E5895E62124199F6
:1039C0006DD924D70F0FAD7F2957845A8F37FF4801
:1039D000057C531EDC3B1110F0C388F6370D609454
:1039E0006B8519DE2B466EF9031A729FAB26F40A1B
:1039F0000A2013F173544864C8B903F1D03F5091C1
:103A000059431159D5A88EF61482B2216B09CAB850
:103A1000B28DB951BBC84D749DD4CAAD3DD7B3D09A
:103A20002CA7470CC8E2191961F0FFFCD7AACB4BB1
:103A300038606242B47A083926AD883FBB378015BA
:103A4000E1D9B974056B8716D685F73D80AC514A2C
:103A5000D1E54DFAB82C456DA292C5DD87AF9837F8
:103A6000CE59F1F25A798FBDD672ED828908815F05
:103A70003C035D419EFD5A24615E2B789DB9C4E4F0
:103A8000F723601D73AF33F344BE140D259A5361C1
:103A90002FC396872A8073AAC4D4B713FB914FF51E
:103AA000FDEA7FE50D41D3436F5A13D898C0DE6A13
:103AB0007689286E0AAD98F14C6A1A0706714ECBCA
:103AC000B4E0C5C21D4F6311D68FD51DDC4BBEEFD0
:103AD000F22C8AA580E4D43C280B48D4D4E447A82F
:103AE000245434DC96A1490E60EC1692B657F2C20B
:103AF000EF1FE5106087DB87750A182F56AE3A6E08
:103B000013B7151492363FF5F23B3E5CA34778C4D9
:103B1000045736D64596385C31FA74E0E57CC22409
:103B200030733C9784C6C51F015F4A3D5412CCCD0B
:103B3000F7DFDC7ADBCA45144FA7F732ED5F04727A
:103B4000BB270E64E312ABF5F171CF02BD90D8C173
:103B5000F1C068B409429F806410278AF08C92B942
:103B6000309B2A508FB51C5416AAC0DB0FB31034FB
:103B7000975D67C4D817F1921E21CD12CEDBA8E95C
:103B800019842D1E9F907CE4965DB4175B7F7BCCDF
:103B90007E2882BF5F9432698B1A8985B8BEDC6843
:103BA000FC0115146C3ECDB8B0B8193F460F3197E3
:103BB0004A6A7D63DCB657F22D05D6BC5D20881BB2
:103BC0005C884DA0128428D48627C9C5CB0FC02B92
:103BD00066CF42DC367DA11323828ED9F8B305452A
:103BE000EFC7F346BBC550380BF1B5B7774FF47646
:103BF000FD76AB351651375F80BD345871C3781BE5
:103C00008022821C8B1C64DA06BF33DBFDB9E89787
:103C1000985F1995A50EA63F0F23D2FEDAEEC7C90D
:103C2000FE9A0638EE32C5C4AFFA66C97057B09036
:103C3000A6E65A687E2A3BAD7637A6AF9F593D234C
:103C40008B253C3B599EAE73A0D8568102EC851C57
:103C5000A50A26C308A1F5695EA0E556DF73BA7010
:103C6000DB9E80D76284496545542496A4F56B7128
:103C700060C5A4BB2E66F73D16C25213B51842F6B6
:103C80003C1855CEC322046408506B19BBC32F1CCB
:103C90006F6B7728F2AD0C9520E411392D8532BE7B
:103CA000CC9BCAAE7669EB1C68EB30771F79E97C58
:103CB000B6C6A656131852842209AA0679B8ABB71D
:103CC000CEC7F98CD86ABBFE0DA7D54F9DF01C9FBF
:103CD000161E8E3116365C6350AB2C058F74282E61
:103CE000147BFBF24CEAFCB0B1744D196E7287ACD8
:103CF00044A225D06781A70BA27535C0B9D153E87E
:103D0000A2EE21CF43EC81678B2B7747712156A51B
:103D100094A4ECCBECD4A70B932BB4FD85CF20D28D
:103D2000EC4978B652D62BCC6B5328018004590449
:103D3000730C7E519A7B1903DEA448B8751BFAAF49
:103D40005B4653E3262EDA1C2AE62EAF35E1941C9F
:103D500020769A552B93381823FB1E270BD01E650F
:103D6000D1604D4F24FE0A69656EE63335A8963C56
:103D7000BE99C67EBE592D151282852D97C885B075
:103D80002E07BC6AE7EF80070FCC4A2233C11870B8
:103D9000BE52BBAA4E964EFD2D49B187FE084D6D11
:103DA0009647358D7CD29CE1C010E739CCA1A54F58
:103DB00021DFD703A6DCA3731B1BEE798AD0B6DD07
:103DC00017C321A920E899477BDAED5EA0FC2352B6
:103DD000BF2208DE99DA0AEEC1FE25D94A4F886A69
:103DE000D44E0209C5FFA8C817655F2291FD7F2840
:103DF00083EFE8ABC458DCCF0873064947FAAD48F7
:103E00006636CD26F4EDD5D6CAF74C975180C598C5
:103E1000156DDFC9009C01F4E4B833D4CA32E4B7AD
:103E200043AA160625EC0C7B16F00F6E8AEBF447BE
:103E3000856C274D8D4E42A4A04963945941F98465
:103E40002BFE505006B2AFD4CA15231B9D2F1FD294
:103E5000DBD8CC033495CE7C637E29119FA90A0957
:103E6000BEB5268BC7B350C7C0E3B890A811F68C77
:103E700061B8CF86FAD92CE9D66C25B547EE739197
:103E8000BDAC5C569164D78B8CD94BEC867F0923F3
:103E9000EDCCC9981C57F5E8844438E97D0A9ADAD4
:103EA0007C60B64F327EA50302E207A815B9C9802F
:103EB0002799DCFB541B7FC5CF658CBA489F7624BD
:103EC000034B1280150A6F88C7A5854D93310F8962
:103ED000D071543685C13D9254A26368D33F331CE0
:103EE000C17C0E51EFA759F4F26ABA7CEF28C6BE26
:103EF0006CEFEFEC1728348C86247A9F7145812A69
:103F000034B8B83A46DBDB0F3FD7C636439BA80A26
:103F1000C01E5043DF7B60E1B08A4E62986330116F
:103F2000C73C4859F16814A81669B10CA0DC74B3F9
:103F3000F6490C868FECDE6039079AA3F21E1F6BE0
:103F400049F529A95E21825459F3B3019DEF75917A
:103F500090CC4B0808950A14E364EE9D8656C07B0E
:103F6000DE909089CC3B2DBA780491308B19E4B562
:103F7000BC1500D0F1C13A6768471028D69A7CDB9F
:103F80007B65F8755D750064E64BDFDB4D963AA204
:103F90001100EE163F68ED601818CFAEF56FC7D868
:103FA000E16308556AFE1E9F3CFD2D490E81AA1D46
:103FB000F8E5028DA86EA03A5F28C6629569DED941
:103FC000A582E925BF7CA319CB776149985012F8E7
:103FD000F6418FF5ACB133DB6FAE5985204BC97B11
:103FE0001354941873BFC40F31482F6E84530900C3
:103FF000293D5AE21489FFD2E4B0F0F20C5FA089A7
:10400000EB299EAB3D9A955FEBE782FF3D3AA89E78
:1040100003D1A16816CF84F4BD568A8AFE245E9C23
:10402000E46745B7B6FCF6A5C5AB392769585A12FF
:1040300073825AA9E35E00AA0C8CCF042223E3BF4B
:10404000C743AC1F61E49F6234D828E222FDEDB182
:1040500067E48F8B15F804570E95AE58813D6B17AA
:104060004A80A243977A9791E59A5C2D69EC95A2D4
:104070003D3E275CAC5D17B8C8E0C538117393B7F7
:1040800016AEA1F53ED2A70BEBAF9947F6421D3411
:10409000246A21D199A7B00B442EF5D5C2DA494E36
:1040A000B91088CDE1717B83B6EB5D3A44D3BCE7B0
:1040B000B79BFF9101FB819BFCB907D9E672F3EE38
:1040C000C04A5BCA9E3C92FBA67E11D48C94AB4E38
:1040D000BFC739CAA5E6BA3C20780ABCA63E8DB552
:1040E00056471F22E9AAE7BB69E4F4B0339D7B2B56
:1040F000518296C3A5BA0034802BDA05005236915E
:104100008E5F511EE731CAC7D6F43F82C7274E479C
:104110003B22977933BBC840EA658FE07F6652A89F
:104120006EEEBE56FC166C61FBD71D5DAEC9A7FDD9
:10413000E4D97C510750E6FF98805DB52C7520FED0
:10414000EA59157E802A1F8323F5A213582DF3E127
:10415000A1A65EEDC05C464E55BE2E709B680D0656
:10416000341FA2E57B73676FBC501647BA49CFD4A2
:1041700042BBE456540C54ED6DE9B9FBEFED1BC0A6
:104180003E4AF51544381FD188C0AE944E8624911E
:104190007D259E2E76484606545E21A314FF9C7A08
:1041A0001F9E5119C35DF0D4777E67104FFF771EB5
:1041B0003E959C74627C947132570D66C08DC3DD50
:1041C0006FBFEC3584A777539D75E5078DE934C93A
:1041D0003735A7F8F8313BB8FEB7A4F673F6217F60
:1041E000245042DB22AB5A1C0D1402A3D6E3E58710
:1041F000C4F4DF1436ED579FD990D3A976B34B1B87
:10420000B23AD34F37A197A67FF2D22CB81F7CEBDE
:104210007412A4C07E5D0C459B779190B14D2CC467
:104220008E9D9653E7E59B6C95EBDC2D2ABB3126E2
:10423000D035A81272A803CAB57172B3BB116692C9
:10424000AA672A3A3555C459E54E129D72784D47F2
:10425000A9DA8E5951343561EC2206673625A9A6B4
:1042600071FDA20E1C187E114FB13915689B2CA54B
:10427000558C03465441B49757839D0B807C1A6B31
:10428000A6F471EA7820A2C3F1A064B4C6BAFFDC38
:10429000031C3D43408C3EA8524CAA0CA24E84778E
:1042A000E1D7F6FC37E917758A168731D91BDA860C
:1042B00083FB47F63C1D1443ADB24C5333980F6358
:1042C00011E67F7B4438D71866E19F45A02EA74CA6
:1042D000EC27D8F604D7730DE0E133B470E17D70BC
:1042E00053B98BE572BB653540507B695CD4D19D79
:1042F00033AB1C9D12D7F6D123E26E79A45B6C1907
:10430000C210915A9FA79D038C342FBC9839929765
:104310003177780DE4C14321731225037B7AFBA426
:1043200070323F539989E3D4CE8DF14E07B4AA265B
:10433000DF502B5C4CFCB0D1653F51A6DC8A43506A
:10434000FBD31E8EA6488A650578523F3DBC9BAACA
:104350004A422FA22057F6920D4281B452A47B7696
:10436000ABC11A7A369EE751ECDFB32020DF9DA760
:10437000DE1F3860B65E5F97AA0041EBC8D86EDBDF
:10438000AA60CA55C109AEBB428C8B4EB05166AB18
:10439000BC5662D612E8DC29BAC12F0947E581393B
:1043A00011B8951AC87CB281AAA937CF30B5F009E7
:1043B000952684F29AED744211AF637E986743C5E7
:1043C00059B4112FF9A0BA81EF3C06ADE7D0D095D2
:1043D000BDF54F3F23E3055A6394C13625019CF395
:1043E0000A05F6D4E62DA8A5E8D1E51CA364C617F6
:1043F0007926346330DEF637434347D884FEBBE882
:10440000029A8B195A6F5ADEEE8E7A6FDBC7782DBF
:104410009B88D414E71507BB1C5ED75F343ED1FEE2
:10442000E2F1D782363DD32F478F9716B07CCE3D31
:10443000297B3312431552ABBAA12AB55094A0FB85
:10444000FFD4E3198993132E710470AFDCA81C13F9
:104450007589C73759D80FE5B238C24F1822E91B02
:10446000FEEFA9FDD2EBFFA201F2874FFDAEBD75B5
:1044700014BA7AC54756D093636E5E6383A8091B4E
:10448000232F6FA6E389301E98F125CECDABCF1D2B
:10449000C87EC3F3770D0600BF00CCC4BB149CA23A
:1044A000561C072EF2C66579F4D178E329D7642922
:1044B000AD4D91D59F377533C0B1A393B79CEEE650
:1044C000D21551BFBE08A95F0E099F743ACE7D94E4
:1044D0003FB78E31346DF11354AA135324F0747026
:1044E000DC0D06B90ED7D4A14598CDA3334E405963
:1044F00099407785E2B2AD226E4521968A26CDCFCE
:1045000067E723C285048E16591C3183F6984C1632
:1045100004DB5495C0C97E0B9124D210973EA4238E
:1045200006833671D71EBD7073AC593440FDC42765
:104530008CB0326EFC0D651B857F6437DDAA274683
:104540000FCA2CE518500BC8972B8777FE4436020C
:1045500042BE63C9FD97ACDE09A821DD0328A0A5F2
:10456000FFBED372B14ED147ED41E9CEFC039F436C
:10457000D8CCFF85EE0703A45D562439977202005C
:104580005FEDC0AF4C62C874BE2ECA650E0A2DF72F
:10459000D38D25EF3FC3846F32FEB9F345E2B39468
:1045A000A17C78DECD78AA7470478B7CCAD76FD493
:1045B0008986DAB756EC2A44FBB15F7956E9E83CC4
:1045C000F5F33B0774DCBB8B901952CA856E93ECF4
:1045D000D96FBE6096F5732E915A8DB01878A9F9EF
:1045E000969F34EBE2F95D1170278BDF772110473E
:1045F00015DF2B0AEC937942B0F457A8B4BAB3A2F2
:104600003EEF96F4792F5123FBA5DD4C643C7EC828
:104610003BAF8C1A5FF9B601899710163016A0C906
:10462000AE1DB2547F2D2E315DDFFEA7E383E6D2AF
:10463000CCC1CBB7EBDD4E1A61355DA9C6D2B2C293
:104640001BD5E035F999A663999BACAF388BDD8714
:104650000A52C13F8F1F99AAFB9E9274D3F6E8B00D
:1046600035A0AC23FDE9957CBD6AAAD0239971C51C
:10467000339BF24A0859A1236FA6FD0C57B0324F65
:10468000BAE4EB3FA4C3BD57C219EEF451EDEFD627
:1046900098F2DD6B316B4D2FB5E64BE991A05B785D
:1046A0005FFD7C5BD7BFBE35524B9A0CEF7E100C82
:1046B000BF285714633FF71BC2F9287F93DE4E9142
:1046C000F50F2B9BACE6BF5AFD39C694FB34B040C6
:1046D00061DE5D5013E6057D3725A45D030E7C7811
:1046E0000ED2E7D653E746C97FBD0F0CB1F0036C7D
:1046F0002F3E7C72B2EB5422E54DBFFB06488C91F5
:10470000ACA7EC63417990AFE84F6774FF2B93C07F
:10471000FDFB132FD69D6D269B5CA37A1EAAE59305
:10472000AAEC96E15A372035D5DE9D018996BE2F39
:104730007B9D09A961282BE9DCACD68A557943DA3F
:10474000FE7E99FC19532F57E987EE2C2554D4612E
:104750008071BD1B7EF58668B7F30E5F93F52A0B5B
:10476000AE312214AADB70397C96E579C6349A57AB
:104770001376AB0CF7CA4674BA21784DD70BC3B980
:104780006BF941A2E2B534D561C41473AF9B940FA9
:10479000A4EB1E7398DF769CA91A34FA8BBD707552
:1047A000F66C9C98BFAC97896E3BF7A6515C512A7A
:1047B0002BD97F18896E4731AB8CA0D4C8C1BA5BA6
:1047C000F45C7A075051C8CC8C90611BB098099C5E
:1047D000B1380F8EAC0920F095D33CC133D2B76904
:1047E000EE626F73C996CFF447BAA4C8F3890DFC83
:1047F000B337EBF8016729FAD122E07F85E4C3BF24
:10480000F7D5252944EE2563137A0FEAFE6ED5010C
:104810002FCE912412291983B9FBF9376A5413FF5B
:104820007B1FAC5C083D7AB80F6A73E662013D6796
:104830006EF50EE23C373EB1C10D5D32E2EFF38022
:10484000FAAD48EE024368D32286F2C125401869CA
:10485000EB43575ABC21ACCB39268D08B8933C7931
:104860005D1AC8482C408CCCDFD5C35C65B3CB77D0
:10487000263F77DDA04DBEB9BC77D5086F51DF521A
:1048800064FADAA03787D74CE889F38B3FECF7AFAF
:10489000A063103EB6E9BA0DF595915FEA58DCF9D0
:1048A00037E60ED587016250C5C16229FFF7385D32
:1048B0001AB1902FC0B4DAE17E1BA1D1BF82C274BD
:1048C000FFFFA3BBA0BFD3C92CBB30407E429805DD
:1048D000A45F16D98096E5775D154F243D9D2ADDAE
:1048E0005618A051511309E1CAF99E2F777B2D6DFF
:1048F0006E6CAE1B0A13F91C880CAEEF79070C9591
:10490000C84392B8051C7C9B30A2065EBA094BB71F
:10491000B914DAC62DBA58B1D2F83FD3595EAE33C6
:10492000ECDE7848CBC9D93FD1AEB01A20A871408F
:104930007B6DC8A5328B82A1BEE0CE5D3DCFB83E77
:104940003ED0C5D2B24BE0804CDB69AA295CA120E5
:10495000245D6AEB03B1E758C210EFAEE31E3C9250
:10496000565DFFABBF31B4399564CD11926E6705CA
:1049700025F3D84E3B6E326173730160A725567FD5
:104980002767E6154267AD8121FD503F1B9C17FC50
:10499000419CBD723178C7F66ECDFB6372B6962F1F
:1049A000451ACFF7AF94266C1256B117A85EB328FC
:1049B0007EA607717D64CBB161B3C8068CC0D08080
:1049C0000B72F5EFB1E031944E7F675270D2411F08
:1049D000D3E16BBACD47858B3852FA778F0E9E4D57
:1049E000D233D177BE765D31E76CBEE07EF6C6BCD1
:1049F00038C55D2593FAA1FBB329F16C7EAC69EA59
:104A0000C8ECE66F41EDE9C514DC92DD761C982018
:104A10009A4F8C1189AE9B80087B4A6B28AEAD1DE6
:104A200076BE225FCB0190D1AFEBECA06A56A2C656
:104A300089ED4D71FB9F9BDAFF69260D0682077495
:104A4000559F1BB6FA6C7A5BCE785DE841753BC02A
:104A5000AABAA8CE33C1F4A9E711A297F475336DB1
:104A600016695D8E08101011A9C894D95B2A8FAE03
:104A7000A2E5AF26E0C360005ED30FABAB1040EB06
:104A80003B4026FDC78D425C18A203630FB25B1545
:104A9000729877152F1233744569615F11135E4B5D
:104AA0001DF56FD6BC5EA7183DF364C64C03EF3806
:104AB000D304BF4FAC1B45012FFF06C6433E5990A0
:104AC00082B060115499CDFC35A1D5356281BB22ED
:104AD000DFDD682C7CE30F8BA3CCB99B2A1E040876
:104AE000A00467F857CC87CBA7C251AE306044A072
:104AF000F2775BE5301722E39997DE5C97E4E427D1
:104B00007586FFD3A3929C992DEDD8A2E7CB2C01FB
:104B1000379406F0A70C3C72B05F524EEC0C3FCFBE
:104B20008FAFE17FFD0699093B50F6FFB796DB8119
:104B30009AC7157A591563D793A8A2F6C06233B104
:104B4000974C58B03E1F94FAC9BED1001023CA73C7
:104B500018F7D5FAE11ECBD99F9EE818E23D15A9BA
:104B6000D9A808E9FB82DF8C5BC5DD4B5C5367C9C4
:104B70001526692505AC7CD5363F2B313CC62CD893
:104B8000823CB705EB6B10DC558548198F8EF2F629
:104B900097B979DD33A8876DD9D37A44797432AA6D
:104BA000F7F70BED5057A4206D50BBD6CD3E522EDB
:104BB00004DC18340C2FB5E2351895423156FA93BF
:104BC00096E052938BD6314D5618B1FC6885FEC4E1
:104BD0004FE10CA57AD73ED296A2D0FF863C7679DB
:104BE0005209C3C36E107806CE5FB29DF46D288C57
:104BF0006295F6C05E77B5A9EB47AD1E1AFCC1CF32
:104C0000E4D2780152B212EA410D0EEF5C4A1E7FE7
:104C100038997589BB36FD24B5551C51840B2B255D
:104C200085A2079A9E4F4233796E3AD74644BF8891
:104C3000AEB57F5C8820D3D1E6842FFA548CA88F40
:104C40003A84503C6B5E06035C338EBDFF2E4D08EC
:104C5000413CB992F6154B0AC3132E172F96C05A32
:104C6000CE32EF64C59612706022BFBD3F3751B29D
:104C7000E0402DC1E5A9D04124BE266DD2A2CDFFD2
:104C8000EB15A33E581C81E4067549712BFEC82D17
:104C90005587F953916DBD57CBA5ABA299878A74FF
:104CA00037B2B279E9206CDC17BA7C06F5F15B25E6
:104CB000211ED921349AB39DECDEA65049418A6465
:104CC00052574E059FAC9A5883FE40F1B82B1635CB
:104CD0006D3A18E43CA14148F59DD86D19A4DE3D1C
:104CE0005E120E7C6292489FF9F920A0B206E2950E
:104CF00010BFE73B0486E34CC71C03FBA1A15DD5B5
:104D0000CE46E95DEE29949FA5B3766068056E9264
:104D100006A8FC51C3DEE00EBF48748F5CA2176189
:104D200014376179116F1EE25245567D23E6D54056
:104D30006D671E55694C05D3002D696D7A4BE012E5
:104D4000BF8FB0FC84D8240A83C7EA0FD4B443725F
:104D50009E8C6343FBBEF2C8CEF4D4E047B6EE4867
:104D6000958B49E48686F4F8D8840FAFF95BA810D8
:104D70007D6A20E27FCD7C20950F35BBA49149113F
:104D800055434135E93FBAD727EEDF18DF4A7AC7E6
:104D90008EAEEAFB564A279BF3EE9421C86A432E57
:104DA000D08BA6B200F774D99572931819AA29F27C
:104DB000BD32186F605E319C4CCDDB32786ACB54CB
:104DC0002FD5F89CB32239A85CCEB2F705DAB69C91
:104DD000656A85A493B70CD8A99A59F7B768E1CD4D
:104DE000BE30E1FC1FEE99DC74DEA5AC6E642622B9
:104DF000720FBD69A1B05B7F42AB81741D63B95F67
:104E0000DEE5963652B44CBB83CDC37414151B47F4
:104E1000EA21F9F2900381AEFDC2C7EC694276F354
:104E20009D89F0F08A2732B55C12D3BEAA658768E7
:104E30000CC5F6D4870CCFDBCC3A3119AE6CCAB0B6
:104E4000D88548675C7D173BAAE93A90E5406E72C9
:104E5000EBCF0046CE42B076017810E68BC6449286
:104E6000DB1F86E5D9E00EFAD879493A39AD2B59DE
:104E7000AFE69BCF0C54F6CCAAE15B76D2C7040810
:104E80004D5E1771283B1443F52DBAE3D0185095A9
:104E90006025CC1567E1D859D96F8B34DA53DBB470
:104EA000F049DE1F64D7B9CAC7460921E4529515F7
:104EB0008686A8BB03227748FB665C1E5D20AF0B8D
:104EC00065CCABC08A67DFD82C594892F049ADF960
:104ED000058AFCC5AF2455323A9F8EF8EFF187FE64
:104EE0007F5B1048453932A8FEC8FD9A3462F9E864
:104EF000302257A3A97454FAFBE2961E52D646E517
:104F0000A7A47ED745B8DBC11C2DAD03C951C1375D
:104F1000259D69237B7261EA4CC1EFA485FF54286B
:104F20000C84098D475E31F25B7E61B272530BF7E0
:104F300024B7F47DC28554C3D701D737D2C9D16E07
:104F4000AD8885CE86F6A78ED4AA0E1D23B6F05F57
:104F5000AEAEFFD870F2DC0C694FD810CAD6C902C9
:104F60006A9DE3F53A6D624C60F2A618116C69EA2D
:104F7000F94ECB69810F9B04FC52C3B34791DFB458
:104F8000F3859F4E553AABEB0C101908AB23AD7D62
:104F90006A5420AE31BD9D5552905C39F445C0E64F
:104FA000061F59675E00B99B277E5A58060ADB79AF
:104FB0005DD587706A7BFECB94F25F0ECA495F7D38
:104FC0009E535731F023D07D574F199E76DBC00298
:104FD00063F38113F48E1551732D6A63FE838FF38F
:104FE00099818C1DE7F3CD8221CF9895696FB70D1C
:104FF0008A4D05BD4CC9714B2E8CFA43BD8CBE0742
:105000008A42D0538C1AB39E01051B5C6FE071CDB0
:10501000CAD5230E10CB1FD7828BFC1BEA52ADFCE6
:1050200055D584ABE59AAF2FE61A96D78D3DE004AF
:10503000CC314F5A1216FD63331CF983BEE6F7DEFE
:10504000FF3BAF43D520450DD80DFA9C1CDB9C2EB1
:1050500076721C426AACC62F051E33671C0AD477D1
:10506000B1FD883A10230170B90807A638A3B77FAD
:10507000B6CEEA82A88CBA4D3049B72D752034E0FF
:10508000875D7955736332FCBCB196A3ACFA6FD3DC
:10509000AE6EBD779B4573E7C066F8366E75724A93
:1050A000D7BC57CBF787FED3C79B2E9A58552AC635
:1050B0006DEB7D24FF9711C64605F4F93764F96B53
:1050C00040E371910A682E9F385CC48FB94F3A9BB8
:1050D000B15C8094EB5F4A1E8ED92641128C7564B8
:1050E000F87E5A50F2C3CDCEED6FCCBC50821A512F
:1050F000D32B4A7B74C13EE3296F334D2EA88B38E6
:10510000652B9AD17D6F0D9B616C59D1C8E7ACF1CD
:10511000A75F88F69BA38476E8B776941360B5B052
:10512000A89D222B3BD4D3C9EABA2B0809EC0FB5B2
:10513000CCA236975C9679ABB2D9168FF5C351499C
:10514000511B9B02AE3E9E2B04E7267BCA47BBF653
:10515000DEB91167A91437C71AE120C900BA6EC3B6
:105160007C7B5865CAAF45F705666BE32956E26656
:105170005302C7E5797484302AF51975B2D96BFBEF
:1051800004A170CFD9439ED4E549358B1CAD5301A2
:105190002486191056103E9E3CF65D3065C04C9C2E
:1051A0002E31E05B7C311537B681A4D88E8198947E
:1051B000F2F599C7F04ACB439722360592F740F5AE
:1051C0001BA91ADB18F628E0BA5AF260767D87A18F
:1051D000A4FD7693793CEAA5D51E50855B105C3919
:1051E000DB5ABA9565F2606AB95155873416D31CFB
:1051F000FB30F1944C92DE9FB07D86805E5EB8C439
:10520000D5C7D95BE50F5C2497260619F5E3C2766E
:10521000EE5870F165BB5C93319222D4851FAB3C94
:10522000844A030833732DDB725E2BCDD1FDC6D6C5
:105230009CE7AA870D383A3CA277C14B1A189F3FCA
:10524000C7FE7B749F63F03502E78D0945BC12DE13
:1052500090933B9CFBC4FA9CB5EA7904CBDA52DD0F
:10526000F2F190CC9CAF16CD42B80625D40C0511B6
:1052700063A0FF87BF3B3F484084C959366282EE36
:105280004A28F0B0BB6F311C5DE98905F56396EEE5
:1052900023DEC815299F5F479B7BA2242AAE82612B
:1052A00045AF3900210A60A6E68051214E92746F05
:1052B000DAAF1B2B0751CE28BD1B2671DB93E0D93B
:1052C000C6D38D2B70BDFA9806681B6739CE6B1755
:1052D0001C7386E44F9EB1810869BEBD5475165794
:1052E000A783F55A362AD5CCC45EC29DB6815DA58A
:1052F000E55180B095E20B563D15A8C9FC6A6430B3
:105300008239CA1B0108BC043EE82BCBB7170E1626
:10531000712DD20260B395BB88AF2353B2F36EF404
:10532000883231C9A6487C9F98C8EB0E9F8E3260A8
:105330009736F84856BA80A4BE500046BAE5F8023F
:10534000452A1C90C89570B70A5C7A38F1B7976EF9
:10535000DE6C3F33632A97163700771D04F99A6E87
:10536000735C33C9A5FBD4847542DC51EBAC638913
:10537000D0438ABF5949D450A17207FBC7CD975B70
:10538000038F0237E23472263381FCCE0724B2E168
:105390003511E4FC9AC9813D49404CB0C8C6A2FE13
:1053A000C81365483BDB73E12F46BB6BA6851EF631
:1053B0006BEA310280411FD2E13B0988DCA579917B
:1053C000CB6B206AFA2A4FEE6F47DBFE2594376ECF
:1053D00074E819ACFB07BD3FB40E1A3809390FCF7A
:1053E000BAB70053FD96717A986FE180BD5B69D0C2
:1053F000FB3CC2119DC5AAFE6ED5E71E4CDB21FB0E
:10540000C56314DFEFF0C70A24BD6D8310BFF7B387
:10541000C22FB9702F93879FE953A5B663B345B8E0
:10542000CB165716E3999573C92E1C332534FE41CC
:10543000DFB081A7C5E7BD77E350535F76E57A1A01
:10544000C8E37274E63C0E84D49A2880434CBC1B9B
:10545000883221BD99910F30CF6D3CE3DCB7FD7AE6
:10546000931B3A5D9163C00257B58C5602C97A6BA3
:105470007103ABCB71967E36892933D16232C982F2
:10548000C37334DDCCC61273B27D59E04091B44988
:10549000ABC743A8073B2968236E52C5107CF3F0C5
:1054A00047BC5FD88828AB456A5BBD8A0B2C0F5779
:1054B000EAD6FC12F401C693BFF705BC8CE6CA1706
:1054C00014567B5E157939018DCAF191FC33664B18
:1054D000F5F3CE6057B69458DA03D9C894835220B6
:1054E0009FF6A0C020E5FDAFACDAEEB23F436723E4
:1054F000867B6E4B7E28EBEA82B790792B58BC0CEA
:105500006664FDA9959B15FD7BF5D04F537BBE05C9
:10551000FC51C374C2155EB9463CA5DBC336464494
:10552000153FF417027B68F3265C51FC5E8488BF4C
:10553000958AE3AFC4A724FD7EA63C741D4A46DAD3
:10554000DC588D34329702739DE7B1614C7F5BF676
:105550004C60AABED3399C754A941487E39DB12749
:1055600056AB0EB7E33C4638C486CE2892D101151F
:10557000D04EEF35165E3154566ED22BE9A81BFE85
:1055800042C66F16A8B3ABE26721E4505BB27387E3
:10559000097D6099EEECEA350E0AB3A75F719DAA0A
:1055A0009CF7DC1289939E35E1F6E125A70E8F2248
:1055B000A447B52A1308D2E51EABA2946F9F55E904
:1055C00040352596504A4B31E1755F1D8620664E69
:1055D000B4C875EC33E738CD06F7B289CDC80C8E68
:1055E0001AA8D5FAC988B2E17AB91CC5775A8612C9
:1055F00022905CD3EC3B8E30ACCD87071B769F09A5
:10560000CB7923BE39319F777CE27281D2009EF63E
:10561000B9A2E344CDA8F8B9BF08A54A02FF266F96
:105620004945E3006381761C8BE8485E46E6B3C1DA
:105630003C5C489EC3B4CF7F6D38C3A0A7FE58E53D
:105640001FC0959030803D4EA22DFBFB778D9302BD
:105650006CD39F8A02D3568D7893B8142DF5B33A44
:105660006FF52F815C9E0C6EE990D9BBD9933E08F3
:10567000C20E6420ACD188F0BFCD6477254D5AB8F6
:105680009629852330CDEA9B613EFBD978FAEE4915
:1056900079254A907489DA22738ABE62A77958B252
:1056A0006C682CB3B65DA1C957D04D18301066A3F5
:1056B0006CC20AFBC03E49B02D92ACBEC41D5FD285
:1056C00006F6EB9F6D62AE746403D9BE695928B2C9
:1056D000D920F910EA301683E4DB738A36135014AC
:1056E000BF488A50462DA08661EF524BA017D8C103
:1056F000FBDFBB330A06F02423972CBF47B37D841E
:10570000E6F58EC4543889285393962B47992A99E5
:10571000F16CAA6913FA1DBBA31D59545B2CDEEB77
:1057200045B199E80A7AE87CB6560338C8FE48F9CC
:10573000A928EEE3493C9FE0FC1FE4C4CB25212FC0
:1057400076A30D01589990BE5BECEF757B58ECA9E0
:105750003604D02658CA9A7CB81053738C89A7098E
:10576000ED7A17259C223FC2A9782983B6E3B1CDF3
:1057700007DB44ED91969464706DABF9FDC73D8BEA
:10578000BCE68F93B6B541575B6AB7126346566164
:10579000343EEFCB11C3208992A5E7E558B6983780
:1057A00072D93A03B6DE0082813F560F922649A88D
:1057B00092496E9767B7360C4744852152FF488D52
:1057C00029A3557E32AA177A5E0DC58AC0A38CE143
:1057D0004D4207E99701C1003789375B011670D246
:1057E0003C07BDAE0610C62B82C8C083205BAF3815
:1057F000297A96F5543EA1B7D508989FB8261AAADB
:10580000B561E9152F45DD5303128562B2EF60BD26
:10581000D87E28F35779A86835D09B1D8F3372F650
:1058200061FB67A051A600EFA0782719BEE15240A6
:105830003F5AA0A976744BDFF61E7B61F02E9B06C3
:10584000DA9385E30001FB85EEB4CCD9614F4F19A3
:105850003748D97D4A2191B15A74167D688DB06060
:10586000C602E5F54927C0C8DC599A11F07818AC92
:10587000E574F5EC8758D00F54C482B654D7F38A38
:1058800046348BE99D0F7D919CC7FC57735EA4162F
:10589000B634A49D129AB0D9280A740F00EDE95CC1
:1058A000DC9288399B8038702CB9854EE81852FC00
:1058B00008A7EE795BA6448C402F0B3E391A19C21B
:1058C0003128A4273B547958E3D0014931C80CF35F
:1058D000F703D9127032DC40BC7AAA16FEBC708085
:1058E0007D648577BF935419B744F22BD8D2C795FE
:1058F000AF877FEEBBB37D04F24DF11BF929F609AA
:10590000C6BAEF84B315AB30E26D84C25138671A62
:10591000A27297418A45B91D4B235ECBA8F16A4913
:105920009E874216E121D5A19CFDD280C9D5955A0A
:105930004374644B710B5A5280FA1C735E6C09F10C
:10594000839281074486E5BA488CEA2E670E6695F5
:10595000CFAE90A681EC94C9A774B13FD131CF9559
:105960008D80999C6E1C3EA6005DE799FA560F311A
:1059700051DF14766BF6225EB47A4BA0D472A0BDD0
:1059800079FDA4D17D24EE1A862C21A5F1640A5854
:10599000808A99BF15B5018A30B1E284EF0597E29C
:1059A00098CACBCEC1DEA147097CEB21A85874AFC1
:1059B0001F4445ABA3D65A5713709602346D172E69
:1059C000043B499324B954BBE459F8ACE2A5013D2A
:1059D0005486DA0C3B39DBA44A52B5AF601DC96767
:1059E0001B84CE5F44F28107A461A76B1318673D47
:1059F000D9AF009240BC5A9EFB42A765EA5C851075
:105A000020AA47E7745C5CFD8C536592509023306C
:105A1000CB4AC2756A57E1B0EF11234FA9F19678CE
:105A200023DB35755A43EEC8EC3449B6856AC83174
:105A3000488799224ABAF49DEBC41FF17D34E1FEF8
:105A4000786D2A98DDABB7DC5ACA61769EFAD5B775
:105A50006C2FB41D03FC50908786163DA33D4DFF6F
:105A6000C6E803880B5B7E5F84E296EC62C56972D0
:105A7000AF0BB78DABA03AE842B9D459B92713EDB3
:105A8000B9EE8DF77A6C811B5AA1BEA04829634AF2
:105A900005232CF1052AD37A8EC11774E29ED25EBB
:105AA0001B99B55D920365C05C24600EEE108FF704
:105AB0000B8ADA789BE4C0092F484FADB342AA5B4A
:105AC00046C78EF84D72614508D544840EF0BDED91
:105AD000F9F9E0F7EC621B7F8DC17F6B2412BC19D2
