:020000040800F2
:1000000000100020B9020008591200085912000817
:100010005912000859120008591200085912000814
:100020005912000859120008591200085912000804
:100030005912000874750108591200085912000875
:1000400059120008591200085912000859120008E4
:1000500059120008591200085912000859120008D4
:1000600059120008591200085912000859120008C4
:1000700059120008591200085912000859120008B4
:1000800059120008591200085912000859120008A4
:100090005912000859120008591200085912000894
:1000A0005912000859120008591200085912000884
:1000B0005912000859120008591200085912000874
:1000C0005912000859120008591200085912000864
:1000D0005912000859120008591200085912000854
:1000E0005912000859120008591200085912000844
:1000F0005912000859120008591200085912000834
:100100005912000859120008591200085912000823
:100110005912000859120008591200085912000813
:100120005912000859120008591200085912000803
:1001300059120008591200085912000859120008F3
:1001400059120008591200085912000859120008E3
:1001500059120008591200085912000859120008D3
:1001600059120008591200085912000859120008C3
:100170000348044B834202D0034B03B11847704736
:10018000201900202019002000000000064B07491C
:10019000C91A891048BF0131491003D0044B0BB173
:1001A00001481847704700BF20190020201900207F
:1001B0000000000010B5064C237843B9FFF7D8FFC4
:1001C000044B13B10448AFF300800123237010BD2A
:1001D000841A002000000000E875010808B5054BEE
:1001E0001BB105490548AFF30080BDE80840FFF7A3
:1001F000CDBF00BF0000000020190020E8750108F5
:10020000A3F5803A704700BF174B002B08BF134B74
:100210009D46FFF7F5FF00218B460F461348144A11
:10022000121A01F0C6F90E4B002B00D098470D4B67
:10023000002B00D098470020002104000D000D483D
:10024000002802D00C48AFF3008000F0D7FB20005C
:10025000290000F089FA00F001FB00BF000008004F
:100260000000000000000000001000202019002005
:10027000881A002000000000000000000346054A24
:100280000549106803448B428CBF4FF0FF30136068
:10029000704700BF00100020000001200348044AFE
:1002A0000449121A921000F0D8BF00BF1C7F010849
:1002B0001C7F0108881A002008B500F02FF8FFF70E
:1002C000EDFF124B12498B4212D30020114B124901
:1002D0008B4218D3FFF798FF186850F822405868EF
:1002E00040F82240013298688242F5D30C33EAE7A5
:1002F0000022F8E71C6844F8220001325C68A24240
:10030000F8D30833E4E70022F8E700BFF0750108EE
:10031000FC750108FC750108FC7501084FF480416B
:100320004FF0FF30114B124A10B59A60D3F8882075
:1003300042F47002C3F888200E4A91660E4901F516
:10034000005210660D4850660220C3F8D000BFF37B
:100350004F8FBFF36F8F01244FF440330848C0F82C
:100360008041D36004600B6110BD00BF00ED00E070
:100370000000000800900050008000447FFF7F01D3
:1003800000E100E008B5B0B14FF480620B4B9A6613
:1003900000F088FF4FF098435A6CD202FCD54FF41E
:1003A0008062586D064B10F470209A6604D0BDE848
:1003B000084000F098BF212008BD00BF0090005009
:1003C00000A0005010B5044668B161B10023074A8F
:1003D0008360C0E90023C36100F05BFF2046BDE8F5
:1003E0001040FFF7CFBF212010BD00BF0000024327
:1003F00010B5044668B161B10023074A8360C0E9C3
:100400000023C36100F045FF2046BDE81040FFF720
:10041000B9BF212010BD00BF0000034370B50E46D8
:100420001546044686B0D0B1C9B1C2B100230D4A09
:100430008360C0E90023C36101AB039301230493EC
:10044000094B03A9059300F01AFF2046FFF79AFF16
:1004500018B9019B3360029B2B6006B070BD212050
:10046000FBE700BF00000443080000201FB504465E
:1004700098B191B100230A4A8360C0E90023C361A7
:10048000012301910293074B01A9039300F0F7FEAA
:100490002046FFF777FF04B010BD2120FBE700BF27
:1004A000000008430400002010B5044600F0E0FE00
:1004B000024B1C6000F0E0FE002010BD3819002047
:1004C00010B500F0D5FE034B1C6800F0D5FE2046A9
:1004D00010BD00BF3819002013B5002301241A46AF
:1004E00019461846009400F0CBF8002300941A46F1
:1004F0001946184600F0F6F80248FFF7D5FF00202D
:1005000002B010BD0410002008B5124BA822002133
:10051000184601F04EF803220346026142610E487C
:100520000E4A98614FF48061DA61002219629A6282
:100530005A62DA6218660A485866996609491A6763
:10054000DA665A6711F8010D98540132102AF9D170
:1005500008BD00BF781800206174010878140020DD
:10056000781000207A7401082DE9F84FDFF88080B8
:10057000824698F800308946532B164601D0FFF783
:10058000C3FF182707FB0A873D6FD7F86CB05D459E
:100590002BD9BC6E796E641BB44228BF34464846E2
:1005A0002944224601F010F8BB6E2544AB4208BF37
:1005B0000025A144361BABEB050B5E4528BF5E460C
:1005C00056B1182303FB0A83596E32462944484624
:1005D00000F0FAFF3444354424B1182303FB0A88A1
:1005E000C8F870502046BDE8F88F0024E3E700BF4C
:1005F00078180020F8B5182700FB0775124B0E4637
:100600001D4407FB0033DB6A1446012B0AD0022B82
:1006100014D023B9284600F0FEFE844208D90024F5
:100620002046F8BD284600F0F6FE844228BF044666
:1006300022463146284600F0F7FEF1E72846BDE89D
:10064000F84000F00CBF00BF78180020F8B50B4B45
:1006500004461B780D46532B164601D0FFF754FF76
:10066000EFF311874FF0200181F3118832462946BC
:100670002046FFF7BFFF87F31188F8BD78180020E8
:100680002DE9F041164C1E4623780546532B88462B
:10069000174601D0FFF738FF022D1DD8EFF3118C5C
:1006A0004FF0200181F3118865B1182005FB00038C
:1006B00044F80380E2180023576000FB05421662ED
:1006C00093625362182303FB0544069BE3628CF399
:1006D00011880020BDE8F0814FF0FF30FAE700BF3D
:1006E000781800202DE9F843154E1F46337805464B
:1006F000532B8946904601D0FFF706FF022D1BD8E9
:10070000EFF311824FF0200181F3118855B11824C5
:10071000002304FB0564C4F86090C4F86480A766F5
:100720002367E366182303FB0566089B736782F360
:1007300011880020BDE8F8834FF0FF30FAE700BFD2
:10074000781800204FF4005382B00193019B5A1E89
:100750000192002BFAD1034A136923F004031361B9
:1007600030BFF9E700ED00E0F0B58DB000212022A8
:1007700004A800F01EFF4FF0FF344FF480322C4BE2
:1007800001945A664FF480629A66FFF7A5FE00F066
:10079000A6FD04A800F0D5FD03AA02A904A8CDE98E
:1007A0000244FFF73BFEDDE90212224800F00CF99B
:1007B000214D01A904A8FFF759FE01991F4800F037
:1007C00003F9EC681E48214600F0FEF8019B24F076
:1007D0007F4423F07F43A34204D31A4800F006F974
:1007E000FFF7B0FF184F194E3B681B68B34201D1A9
:1007F0001748F3E704A800F0A4FD294604A8FFF772
:10080000E1FD04460146134800F0DEF84CB93B68B0
:1008100029461E6004A8FFF7EBFD01460E4800F0D4
:10082000D3F804A800F097FD00F05BFDD8E700BF07
:10083000009000507B740108A01A0008BA740108E7
:10084000D2740108F274010810100020EFBEADDE72
:100850001C750108407501085875010808B5064B5C
:10086000044613B10021AFF30080044B1B6803B1B1
:100870009847204600F09FFD00000000741A0020F9
:10088000002310B504468360818119464366C28106
:1008900008228361C0E90033C0E904335C3000F012
:1008A00088FE0D4B246263620C4BA3620C4BE36227
:1008B0000C4B23630C4B9C4206D003F1680294421C
:1008C00002D0D0339C4205D104F15800BDE810405D
:1008D00000F077BE10BD00BF6F1800089118000827
:1008E000C9180008ED1800083C190020024A034905
:1008F000034800F0EBBD00BF141000201F180008D3
:100900002410002041680C4B994210B5044601D0D8
:1009100000F085FFA168094B994202D0204600F003
:100920007EFFE168064B994204D02046BDE81040A6
:1009300000F075BF10BD00BF3C190020A4190020B5
:100940000C1A002010B50B4B04210B4C0B4A20460F
:100950001A600022FFF794FF04F1680001220921C8
:10096000FFF78EFF04F1D00002221221BDE81040F3
:10097000FFF786BF741A00203C190020ED0800081C
:10098000014800F01FBE00BF861A0020014800F099
:100990001ABE00BF861A002010B50446FFF7F0FF0C
:1009A000236A1BB1BDE81040FFF7F0BF044B236280
:1009B000044B1B68002BF5D1FFF7C4FFF2E700BF23
:1009C00005090008741A00200FB407B5064904ABE6
:1009D000086853F8042B8168019300F033F803B0E2
:1009E0005DF804EB04B0704720100020024B014674
:1009F000186800F089BD00BF2010002070B50D4DB3
:100A000000260D4C641BA410A64209D10B4D0026F4
:100A10000B4C01F025F8641BA410A64205D170BD53
:100A200055F8043B01369847EEE755F8043B01368C
:100A30009847F2E77010002070100020701000201E
:100A4000741000202DE9F04F0D469DB014469846D5
:100A5000064618B1036A0BB9FFF79EFF6B6ED90704
:100A600005D4AB899A0502D4A86D00F0ABFDAB8923
:100A70001B0701D52B699BB92946304600F0D4FAF3
:100A800070B16B6EDC0704D54FF0FF301DB0BDE8D0
:100A9000F08FAB899805F7D4A86D00F094FDF3E7CB
:100AA0000023CDF80C804FF00109DFF8B4810993E1
:100AB00020238DF8293030238DF82A3023469A469A
:100AC00013F8012B0AB1252AF9D1BAEB040B0BD08C
:100AD0005B4622462946304600F09AFD013000F080
:100AE000A780099A5A4409929AF80030002B00F026
:100AF0009F8000234FF0FF320AF1010A049307930D
:100B00008DF853301A93CDE90523544605225448F5
:100B100014F8011B00F08DFF049AD8B9D10644BF28
:100B200020238DF85330130744BF2B238DF8533007
:100B30009AF800302A2B15D0079A544600204FF01F
:100B40000A0C214611F8013B303B092B4BD9B0B1BF
:100B5000079214E0A0EB0803A24609FA03F313433B
:100B60000493D2E7039B191D1B68002B0391BBBFA5
:100B70005B4242F0020207930793B8BF04922378C6
:100B80002E2B0AD163782A2B32D1039B02341A1DF3
:100B90001B6843EAE37303920593DFF8D4A00322B2
:100BA0002178504600F045FF38B1A0EB0A00402202
:100BB000049B013482401343049314F8011B062262
:100BC00028488DF8281000F034FF00283FD0264B2D
:100BD0001BBB039B073323F0070308330393099BD5
:100BE0003B4409936AE70CFB02320C460120A8E75C
:100BF000002301344FF00A0C19460593204610F8E3
:100C0000012B303A092A03D9002BC6D00591C4E73D
:100C10000CFB012104460123F0E703AB2A4604A99B
:100C200030460093114BAFF300800746781CD6D1B5
:100C30006B6ED90705D4AB899A0502D4A86D00F074
:100C4000C2FCAB895B063FF51FAF09981EE703ABFB
:100C50002A4604A930460093044B00F0ADF8E4E7BF
:100C6000B4750108BE7501080000000011160008E7
:100C7000BA75010870B50F4E0C460546316811B9BA
:100C800000F07EFA30602146284600F079FA431CD5
:100C900003D14FF0FF34204670BDC41C24F0030480
:100CA000A042F8D0211A284600F06AFA0130F2D1A9
:100CB000EFE700BF781A00202DE9F843CD1C064667
:100CC00025F0030508350C2D38BF0C25002D01DB60
:100CD000A94204D90C2333600020BDE8F883DFF873
:100CE000D48000F095F9D8F800301C4644BB294662
:100CF0003046FFF7BFFF431C044658D1D8F80040E8
:100D00002746002F43D1002C4BD02368394630466C
:100D100004EB030900F034FA814542D121683046E2
:100D20006D1A2946FFF7A6FF01303AD023682B44FD
:100D30002360D8F800305A6862BBC8F800700FE032
:100D40002268521B20D40B2A17D96119A3422560AF
:100D500018BF5960636808BFC8F8001062514B6043
:100D6000304600F05BF904F10B00231D20F0070072
:100D7000C21A1CBF1B1AA350AFE76268A3420CBF84
:100D8000C8F800205A60EBE723466468AEE73C46AB
:100D90007F68B6E71A465B68A342FBD10023536025
:100DA000DEE70C233046336000F038F994E7056045
:100DB000D6E700BF7C1A00202DE9FF470F7E914641
:100DC00080460C46782F9A460C9E01F1430207D8C4
:100DD000622F0AD8002F00F0DD80582F00F0C3806A
:100DE00004F1420684F842703AE0A7F16303152B40
:100DF000F6D801A151F823F0510E0008650E000845
:100E0000E10D0008E10D0008E10D0008E10D00080A
:100E1000650E0008E10D0008E10D0008E10D000875
:100E2000E10D00087B0F0008F30E0008330F0008E7
:100E3000E10D0008E10D00089D0F0008E10D00081C
:100E4000F30E0008E10D0008E10D00083B0F00085B
:100E500033681A1D1B68326004F1420684F8423080
:100E60000123A8E031682368081D30601E0601D503
:100E70000D6803E05D06FBD5B1F90050002D6168F7
:100E800078DA2D200029A16084F843002DDA6D4224
:100E90005D480A231646B5FBF3F103FB1157C75D06
:100EA00006F8017D2F460D46BB42F4D9082B0BD125
:100EB0002368DF0708D5236961689942DEBF3023C4
:100EC00006F8013C06F1FF36921B22614B4603AA4D
:100ED00021464046CDF800A000F0ACFB01306FD1B8
:100EE0004FF0FF3004B0BDE8F08723F00403236027
:100EF000CDE721683368080653F8045B02D449063D
:100F000048BFADB26F2F33603F4814BF0A23082398
:100F1000002184F843106668002EA660BADB2168C1
:100F200021F004012160002DB4D1002EB2D116466B
:100F3000BCE7236843F02003236078273348236805
:100F400084F845701F06316851F8045B02D45F06CF
:100F500048BFADB23160D90744BF43F020032360DE
:100F60001DB11023D4E72848E9E7236823F02003C4
:100F70002360F6E724480A23CDE733682568181D67
:100F8000616930602E061B6801D5196002E06806B1
:100F9000FBD5198000231646236197E733680021AB
:100FA0001A1D32601E686268304600F042FD08B1CA
:100FB000801B606063682361002384F8433085E709
:100FC0002369324649464046D047013088D02368DD
:100FD0009B0714D4E068039B9842B8BF184681E78A
:100FE0000123324649464046D04701303FF478AFAE
:100FF0000135E36803995B1AAB42F1DCEAE70025AF
:1010000004F11906F5E700BFC5750108D67501089A
:10101000014800F0D7BA00BF851A0020014800F04F
:10102000D2BA00BF851A002038B5294B05460C46B8
:10103000186818B1036A0BB9FFF7AEFCB4F90C30AD
:10104000190722D4DA0607D409222A6043F04003A4
:101050004FF0FF30A38133E0580712D5616B41B1E7
:1010600004F14403994202D0284600F0ABF8002373
:101070006363A38923F02403A381002363602369AE
:101080002360A38943F00803A38123694BB9A38993
:1010900003F42073B3F5007F03D02146284600F007
:1010A0008CFCB4F90C3013F001020AD00022A260CB
:1010B00062695242A261226942B913F08000C5D12F
:1010C00038BD990758BF6269A260F4E70020F7E7CE
:1010D0002010002038B50023054D044608462B603B
:1010E00000F067F9431C02D12B6803B1236038BDBF
:1010F000801A002038B50023064D044608461146E4
:101100002B6000F059F9431C02D12B6803B1236016
:1011100038BD00BF801A002038B50023054D0446B5
:1011200008462B6000F04DF9431C02D12B6803B137
:10113000236038BD801A002038B50446064D0846A5
:10114000114600222A601A4600F03DF9431C02D1E4
:101150002B6803B1236038BD801A002038B50446DF
:10116000064D0846114600222A601A4600F02DF965
:10117000431C02D12B6803B1236038BD801A0020C4
:1011800038B50023054D044608462B60FFF776F876
:10119000431C02D12B6803B1236038BD801A0020A4
:1011A00038B50446064D0846114600222A601A4604
:1011B00000F019F9431C02D12B6803B1236038BD3C
:1011C000801A002038B50546002941D051F8043C6A
:1011D0000C1F002BB8BFE418FFF71AFF1D4A136855
:1011E00033B9636014602846BDE83840FFF716BF86
:1011F000A34208D9206821188B4201BF19685B6897
:1012000009182160EDE71A465B680BB1A342FAD9D1
:1012100011685018A0420BD1206801445018116089
:101220008342E0D118685B68084453601060DAE7D5
:1012300002D90C232B60D6E7206821188B4202BF0D
:1012400019685B680918636008BF21605460CAE7C9
:1012500038BD00BF7C1A0020FEE710B53AB100236C
:1012600050F8234041F8234001339A42F8D110BD91
:10127000EFF3108072B6704700B962B670478368AA
:1012800013B9816070475B685A68012AFBD15960C5
:101290007047C369032B9FBF00EB83020133D1600A
:1012A000C3617047C369042B14D84FF09842116C86
:1012B000C902FCD504339B0013650168103B116023
:1012C0004168116050F8081F11604FF098420344C4
:1012D000984200D1704750F8041F1160F8E70020D1
:1012E000704700207047B0F5802F22D010D8B0F59D
:1012F000003F20D007D818B3B0F5803F08BF482082
:1013000018BF01207047B0F5403F08BF2C20F7E719
:10131000B0F5302F11D007D8B0F5E02F0FD0B0F5D1
:10132000202F08BF1020EBE7B0F57F0F08BF062085
:10133000E6E74B2070472A20704711207047212094
:10134000704708B528B12022002100F032F90020B2
:1013500008BD2120FCE708B1FFF7F3BF212070474B
:1013600070B50C46154610B9FFF7AAF838B14368B6
:101370002BB12A462146BDE870400068184723205B
:1013800070BDF7B50D4616461C4648B103B901AC11
:1013900087685FB12346324629460068B84706E0B1
:1013A000FFF78EF804B901AC0028F1D1232003B077
:1013B000F0BD00207047FEE74FF4005300204B6063
:1013C0007047012070470020704707B5002001AB2F
:1013D0000190FFF7D6FF0198002808BF4FF0FF30BB
:1013E00003B05DF804FB10B514460020FFF7B8FF0A
:1013F000204610BD10B500201C4600F059F800280A
:1014000020600CBF1B20002010BD08B50020FFF796
:101410001DF9002008BD0369C26893429CBF816822
:101420005B18013B981A70472DE9F041D0E902841E
:101430000546A8EB04064068964220440F46144433
:1014400004D900F0C1F8EC60BDE8F0813246A4EBAD
:10145000080400F0B9F822466868B919F1E72DE9E7
:10146000F8430646894617464FF00008C5683369B9
:10147000B4689D4228BF1B19641BBC4228BF3C4670
:10148000013B5B1B9C4228BF1C46706849462844B0
:10149000224600F099F8B3682544AB4208BF002506
:1014A0003F1BA044A144F560E1D14046BDE8F8836C
:1014B00010B50B46EFF311844FF0200181F3118832
:1014C0001946FFF751F884F3118810BD2DE9F84350
:1014D0000746884614460026D4E90195B9F101096A
:1014E00005D52468002CF7D13046BDE8F883AB89D8
:1014F000012B07D9B5F90E30013303D02946384600
:10150000C04706436835E9E7036A70B505460E46ED
:1015100084680BB9FFF740FA636EDB0705D4A38933
:10152000980502D4A06D00F04DF8A389190702D5E3
:101530002369002B35D121462846FFF775FD80B37E
:101540004FF0FF35636EDA0705D4A3899B0502D4FB
:10155000A06D00F038F8284670BD002B15DB23681D
:101560005A1C22601970A36816F8011F013BA36082
:101570000029F2D1002B16DA22460A21284600F073
:10158000B9F90130DCD00A25DCE7A2699A4201DC16
:101590000A29E4D12246284600F0ACF90130E2D114
:1015A000CEE7013EDFE723685A1C22600A221A7048
:1015B000E9E702440346934200D1704703F8011B58
:1015C000F9E77047704770470A44431E914200D1C3
:1015D000704710B511F8014B914203F8014FF9D152
:1015E00010BD9368013B002B936010B408DA946936
:1015F000A34201DB0A2903D15DF8044B00F07AB95C
:101600001368581C1060084619705DF8044B704749
:10161000F8B506460F461446D518AC4201D1002055
:1016200007E03A4614F8011B3046FFF7DAFF431C87
:10163000F3D1F8BD2DE9F047164698468A6807466B
:101640000B690C46DDF820909342B8BF1346336017
:1016500091F843200AB1013333602368990642BFF1
:10166000336802333360256815F0060506D104F1AE
:10167000190AE36832689B1AAB422BDC94F84330BA
:101680002268003B18BF0123920630D404F14302C4
:1016900041463846C847013023D023681A3454F8ED
:1016A0000A2C03F00603042B0ABF54F80E5C002535
:1016B00033684FF0000608BFED1A54F8123C08BF1B
:1016C00025EAE5759342C4BF9B1AED18B5421AD1BD
:1016D000002008E00123524641463846C847013001
:1016E00003D14FF0FF30BDE8F0870135C1E7E118C5
:1016F0005A1C30200233224481F8430094F84510EC
:1017000082F84310C2E70123224641463846C847C3
:101710000130E6D00136D9E7B1F90C202DE9F041CE
:10172000170705460C4656D44B68002B02DC0B6CA1
:10173000002B3DDDE66A002E3AD0002312F48052E1
:101740002F68216A2B6025D0626DA389580705D5C3
:101750006368D21A636B0BB1236CD21A216A00231F
:10176000E66A2846B047411C24D000236360236901
:101770002360A389DA0400D56065616B2F60B9B17D
:1017800004F14403994202D02846FFF71BFD0023D1
:1017900063630DE001232846B047461C0246D4D1BE
:1017A0002B68002BD1D01D2B01D0162B2AD12F60F6
:1017B00000202EE02A68B4F90C3042B11D2A01D075
:1017C000162A21D10023636023692360D5E7626074
:1017D00022692260CEE70F69002FE9D093070E68D7
:1017E0000F600CBF4B690023A6EB07088B60B8F1B4
:1017F000000FDDDD43463A46216A2846A66AB04717
:10180000002808DCB4F90C3043F040034FF0FF30FF
:10181000A381BDE8F0810744A8EB0008E7E738B5ED
:101820000B6905460C4613B90025284638BD18B18A
:10183000036A0BB9FFF7B0F8B4F90C30002BF3D002
:10184000626ED00704D4990502D4A06DFFF7BAFEEA
:1018500028462146FFF760FF636E0546DA07E4D4A9
:10186000A3899B05E1D4A06DFFF7ADFEDDE710B5C0
:101870000C46B1F90E10FFF771FC0028ABBF636D89
:10188000A3891B1823F48053ACBF6365A38110BDEB
:101890002DE9F0411F468B8905460C46DB051646AF
:1018A00005D502230022B1F90E10FFF745FCA389EC
:1018B0003246B4F90E10284623F48053A3813B46E8
:1018C000BDE8F041FFF76CBC10B50C46B1F90E1045
:1018D000FFF732FC431CA38915BF606523F48053D6
:1018E00043F48053A38118BFA38110BDB1F90E103A
:1018F000FFF7F0BBF8B50E461446054618B1036A6B
:101900000BB9FFF749F8A369A360A3891A0701D5AA
:10191000236943B921462846FFF786FB18B14FF0EB
:10192000FF373846F8BD2368F6B222693746981A61
:101930006369834205DC21462846FFF770FF0028D3
:10194000EDD1A368013BA36023685A1C22601E707E
:10195000431C62699A4204D0A389DB07E1D50A2EB1
:10196000DFD121462846FFF75AFF0028D9D0D6E715
:1019700070B50C46B1F90E1096B0154600291E46FA
:101980000CDAA389002113F0800F14BF40234FF419
:101990008063002031602B6016B070BD6A46FFF78F
:1019A000A9FB0028EDDB019901F47041A1F500537A
:1019B000594259414FF48063EBE78B89F7B59D0796
:1019C00006460C4607D504F1470323602361012333
:1019D000636103B0F0BD01AB6A46FFF7C9FF009F2A
:1019E000054630463946FFF767F948B9B4F90C3077
:1019F0009A05EED423F0030343F00203A381E2E748
:101A0000A389206043F08003A381019BC4E90407FC
:101A10005BB1B4F90E103046FFF77EFB28B1A38905
:101A200023F0030343F00103A381A3891D43A58190
:101A3000CFE7C9B20346024410B59342184601D11C
:101A4000002003E0047801338C42F6D110BD000081
:101A50000000000000000000000000000000000086
:101A6000F8B500BFF8BC08BC9E467047F8B500BF8B
:101A7000F8BC08BC9E467047000000000000000053
:101A80000000000000000000000000000000000056
:101A90000000000000000000000000000000000046
:101AA000EB17A65EB95901001C590100050202029C
:101AB000010100001676D623D0710A00904FDFFF97
:101AC0000B7DD69A493A5B3155227732736BFF32E0
:101AD000C396CE81F0D7912DD216E55CB6A54667A8
:101AE0004EEDA09155134A7AA08AC7854281C03332
:101AF00029910D5E69C0502E02C55F82A2BCD173D0
:101B00002EF9F0C6000A5423822AA6D879FAB752D1
:101B1000F3DB244C92708446A2A5921CD8C6F64EE4
:101B20002BCD1D88179DB452E0FD9C111F6DE24125
:101B30008520FD95FFBC33E9827CDFC784E66E62B9
:101B400086463583014535BA5AEE496545A87AADD2
:101B5000A53749A2E17528365D6110184F6C558C88
:101B600056EDA0BDED923B2DDF98177CDF3C05C6FE
:101B70005565446EF937DFCC5217ADF3C4C3259CCD
:101B800054685E398E9AA33717043ACFFB2BBA41BB
:101B90001231601CE90203386476D12F770CF5B25C
:101BA000B979E07CB947AEA3C84DEF5EC7CB37E04B
:101BB000CB0F52E7F9823C3BF71358B3516BEB0163
:101BC0003D86D40EDB57A7B2ECC1E1618C2BC60574
:101BD00035A6335B5459314F77CAF5A4D51DBCC423
:101BE000708D4620532A4B817969A129CD22BB886B
:101BF0001210EEEF1EA1699B24BE2B51E76E71DD22
:101C0000AE527F463F4F5BCA2A742D30A030A6BC2F
:101C1000306A1DEBFCB3B7F9E997F61DE05BD338EA
:101C2000D1EBFDC15421EFF4462A652B23686FE107
:101C3000D010EB464C9D0FD36955EBD130E8F21034
:101C4000C404FD275A4070A9960A2460ADA03EF155
:101C5000045BBD270CA8F9D156CF72754C4DA1700D
:101C60009532FC30A624A286FED4497EFF6235F46C
:101C7000B89C7607806B7963A8549BF41C9B04BDC9
:101C800075F6B85E06E6F2FA659AD50A2595CE9FF6
:101C9000E7635AC53EE371F847EEB1777FA1D9DD1E
:101CA0008CABA8B03AC064617234E981369D714C46
:101CB00041902E055676D0657AF0F43522812D7547
:101CC0006306F284B8B4D5110B220E7367F7C29C79
:101CD0007F06667CB75719061BA8BF7AED0761BC63
:101CE000A581FF995CD6AABE7A12CB62DBEBBE4E11
:101CF000987A9604A938CEB531550E2605651A5B3B
:101D00008DEC7E3C8F3F906F3D620F5F8391411958
:101D10002DCDCD80F6F966C79E33FC321F21EE062D
:101D2000FB8E3582D42A1ABDF0B5F9427396124A59
:101D30002C81840224E66BCE51C8CF273CFB69C5B9
:101D40000FDE6C44DE8915C94A7113072A7B727451
:101D500026D81D2892D8C784E8983E1D1FFF565CE0
:101D6000F68B876F1706775CC56D44AFD02D31FCBD
:101D70003D9F377418956F4DD7568104A061CE5F93
:101D80008A518C7D68F04B18E17E65E271193673DB
:101D9000FD495285AFA1C511EA83F5CB57C3283F52
:101DA000D456A5896A307056646EE50A478F56A1ED
:101DB00035846F931BD7C8F69978426DFC7A8CB541
:101DC000A74ACF7F5CCCCF7961D929015A363D58DB
:101DD00003BECE008743BA520BA9EB01947D2F3886
:101DE000355DC193AB17A7F553C40D80DE699763CA
:101DF0002CC024AA1B5F68E507758BFCA845F8D9A1
:101E00002A2378899AB0B8325ACEBCF808F2B220A8
:101E1000FC27EC10FD7FE59626E631A5B414DB39EE
:101E20007FA9D17A64820E5F2C46E62395C15D6D51
:101E30008A35C9FAB65A09A8A129477896C488DF15
:101E4000C5DB4A5B83D771713C044ADB5DB11E3947
:101E500072625710296F81E94393B9573BB6F06717
:101E600052A283F23E5B0166D648EF9263C1DAE686
:101E700067EC55AE506385F64062559F4EA38C06C5
:101E8000C64697A4BB28C69234D963DFA9C8E2022C
:101E90001C5D2EFCA49E647B88C463685BA7B89617
:101EA000123F52D379970B8323B71A0087C51801C5
:101EB00042601119F8A8B441068F011AA5B787BC72
:101EC0009778584909E67D1FD2BC5DC9FFEA9FBFDC
:101ED000545C0672157C97F9E07B6601763A23051F
:101EE000E3D6A772EEF318CB02029296FA093D6B85
:101EF00064A9E6AE20B89CE67A501131D276438AC6
:101F000041F7538D5F4393050DE3EF7BA5B9CCB843
:101F1000784304F5AA54DC3F56702299C442A78541
:101F2000C1ED351B8C0166F69A131F249D91A77095
:101F3000E760EE9134FCFE1620FA9FD0F19A9831BA
:101F40009627141111FDB81BBCF9DB1CFD649C0223
:101F5000DB3BD772891B3E9FA9207395A30899216B
:101F6000FE5E6AC66BFC48CCC675C0458A0688D83A
:101F70003EF60E42AE64642507C850D078DA7EB8CB
:101F800020BD01130EC59BD08BF380AC1C26E189CC
:101F9000B6A047B858912E4EE7A181DEDAB4F80E0C
:101FA000716BBF5D347A31721DF541670630F453B1
:101FB000E086C0E959F281D530BBE49FA88A76B2A9
:101FC000A6DA9500453F4E5EF85E1CB06EDB9FF0D2
:101FD000E3BA5669351E084AA4FF91F5B072A76EA0
:101FE00086E6C08FF72A0907F2B236FC862A8D14DE
:101FF000E05EF199F9C2AFBA561E0BA52222DD8A26
:102000000A40A4FC80EFD49E4D423E9EAB846BF010
:10201000093309EC2B9048C52A625116A34E93C888
:102020005670A8CECD21644D96C9AC081499DE6FC8
:10203000BAA0A81DF99B6001B7EA5A13C2836317BF
:10204000D75F1FD7CDA31D2B396B59821D1951D8CE
:102050008542D3E00D408621D89F47E899DDD6D848
:102060005B76495DBEF19BB592FE74459C0000A66F
:10207000CFE7FAC8F370C46357D27F9674A2D396A1
:1020800017F4C0F4306222A36B26E8A2948D3F02BD
:102090009F9BAB9B986479157D3CE66C5C61F65424
:1020A000C44F84973636DFB51CD850B2B05F90A0CD
:1020B0002589A9135E20B760ABAE105D74364B96D0
:1020C00054560A4C6644B31B4D1FB604A817A99575
:1020D000DE35ADF7C19E9632D500398BBFF283BC99
:1020E0001D73E2B0320C533F00BBEF33B4FB5E898B
:1020F00012863E71521AF0C06AC766589577021C64
:1021000087548B1B430A50BCBD7C61D37943DECA24
:10211000EF256DA0F58320D0B84E3468F7F1D4C810
:102120008B7E38A4F34E2B36AF0BCF5F4CCFBDEF79
:102130003B5A92C9C073D7B238B72496B8494C29D4
:1021400044A14CA5C3E98F7CB3126E8FD103F7A6CF
:10215000644D06EEE37B21C7766627BB1244D69911
:10216000E37419B580D4E30A2CE355DD409A2004CA
:10217000DC693F15209807E28845B198605D4E9F65
:10218000F79CF8812445057AB6D93D8A213153FD63
:102190005C76ABFC02731AECEE1950FBAF5F282B98
:1021A0000787FF726CB791522BB5B4B7DA356A1551
:1021B000E7BC79052FDB2127BFBE831A066D9EE59C
:1021C00003B36FFAD8FBC1906DB91FF0119F33377D
:1021D0000700D42CB42288D1ABCC13644D0FFF95EB
:1021E0009494F7DE95D215F7CA8951676EE288CCD0
:1021F0006BB93D305CD962621F1E0EB04D6820B4D1
:1022000085EB510F2DD1070C27FF057C0AE00E99B5
:10221000946648D88D46C7FEE02024A4F0A1BAD722
:102220001F9D519A3ED86731845F7A72C17106262C
:102230004B87CC243265FCE5FE941CA3C508EABF9D
:10224000080E37C4A859EFD95DE7FE430D81AF539F
:1022500010E184321A503F51B8D51E6D27B458E2B0
:102260001D51EB4131301210C9F3A4D85F7E6E12BC
:10227000229F4AD0AB02611BCAB2018F26ABD41891
:10228000FD0D29F5307149ED8CA2587B49444FE989
:102290008D6698CCA3B6DEFE0941F39D6D2F9A7032
:1022A000B800E70EC4351B300947CABAF9FA5AE13B
:1022B000B4CE0E4F70F51C4EB95366C253F71DF0E5
:1022C0004289BE60C10D672F0681183BABAED06D51
:1022D000FD26AF9CCAE33545CCD455D3B54087160F
:1022E000F2B6D9F7A7DC7BE77622BF7BACFD451DB4
:1022F000D147DF2949377B4C54DC29608477A23EE3
:102300009827069E1D49F582C3CE19825EB0D57B03
:1023100019C0E246A14DF4FC46C96194A51D6C416B
:10232000E05FF930C05065629329B7DD5546AA5E7B
:102330008962D53CD130E8C0C813C6A0BFD9EF062A
:10234000C19BF4A40F96EC0662BA4B9DEEF474D2D6
:10235000882C2970E77793AC67BC03484558215B0C
:10236000A411DA207E31899EA0BCA179FC731E7570
:10237000E10D94E0CD1529D9FDEBCA9A12D208EAF5
:102380005E35A989A39B15115EDDF20B5007C6814E
:1023900039E0F88AC2544CBEF18117E0488EC97703
:1023A0001EE2F194763AB03A24ABCD077F43557BD9
:1023B00087A5F1AF0AED0856B28A050F068B26E312
:1023C000EDDA08C6F9A9DB86550AB5E5580C5C18A4
:1023D000EB31F17644036104D599A4C08A61FD8B89
:1023E000583D988CC50F15665B0AB826373D061D0B
:1023F0001637A90A1AE9F687FA83ADF5FC0BF9E05E
:102400002697CE3499A58899927D999A3A855FE36B
:1024100066FB6C6933229CDE85EEECD32B8E8F320B
:10242000638359C2637A52EAE01E833C6F97C28885
:10243000C0BE58C7934C9959EC1FB1258173153C08
:10244000FF960DC84AA791DA27F3FFE3403DF67ED9
:102450009C0B555278A604003FE5B7A1ECCB38257C
:102460003E3B90F16BC9767D670670AD456414D52F
:102470006E4AB037CD0B71ABC63931683848FF0DA5
:10248000ADEC4564B280F1481D4FCDBBA285E90E8D
:10249000738799EA359B857F9C1EFAE8D3739685EE
:1024A000BFD4110B33487ACA8746D3D7C2D05867F6
:1024B000909FCC7E54BC3B90797AAEFCF32E8EADCF
:1024C000F98C9AF96C18FE31A6B146F0EBE77B5D0A
:1024D0002BC774E48747E95CF797FACDD835909617
:1024E000D9AC578EE960C956E957C42E587C9481FF
:1024F00049BFCBAFE2457322FE2F9F4FAE657B49AC
:10250000F648DF61F00948314EB02F71BDBA9766C9
:102510006B1922EB57CFED244453650636479919C2
:10252000CA751432FAE27F3A760E66EAE5A43FFFF6
:10253000FF7D3302E8570F0E742240EC9C40417738
:102540000EC746C7015566F294D14DD2AB0F51402C
:102550003538088493030DE27664201F267BE30E52
:10256000ACED6448DBE14C1DF652C17CAFF3502763
:10257000AA22379C15DA8552732D1BB2D016D3E2EE
:102580002271E31C3636DFABC88BEFBFEE8F6C4693
:102590007C3DAAAA67E0F57476CC3C693FB880F927
:1025A0005D9FC7D12F31B3DC70B6C819824B81E370
:1025B0000E1E49C3C12901B49D90A55BD58C0AB7F5
:1025C000719B0C752722B864C6415FAFA4C507F0A4
:1025D00021DD7478584F27164EF36F638F863C8346
:1025E000B2D4D73A4ABC5E3B05E106E0C1CD040057
:1025F000092ECE76A057F2F9F9C2C11B8AA2DACE13
:10260000F012BA2C568145E30F4B2D9F6A0077825A
:10261000D519481E333A7A9373246FB2CD6EF63EC5
:10262000D40DAE75FCE16B6BBA95E08C0CEEC03D41
:102630001FBAA6DCF6D0A2C5F604629C5F9790B5DF
:102640000C6E6FFD203AD8F846D1D661068B44C295
:10265000EAAAE8C87D5F2CEA1175CD3EFD6B0F96A6
:102660005D6D2E2BE6FE01030C5479FEBFF731673A
:10267000563448B11A3BF204AD84D9FBB30911BEFC
:10268000B0D58D6DFBC369F14CA1AC6699DB57B237
:102690009B4752B0685FA9600AA098E9C7A915E4F2
:1026A000B0CD210C15E4FFEC09B45C3D6F54E6E5B8
:1026B0005010C3FCD6A910868D3A54D5767A11579E
:1026C000CAED891B0F84767DBBB157BDD5C6BAE272
:1026D0006E1F5B3D2F4543DD1FC5D6B4E14D395E0E
:1026E000742540473495623CEAC3F7DD46DE1FE7B8
:1026F0000F5A964B9BF8AE352DB300A1538E7254F2
:1027000076B64682E4132B3ADEA2F88C1AEE826883
:102710007A08763DE944B706E9FC202A9FE72BF2C8
:1027200037C4B40A7273A426B0B9002704795E9541
:1027300039BCEF355FF76E628C08D662385B02E811
:102740002DA9481D07771203E4D71254068C7A3C52
:102750009E194B78DB2A1FF9CF06C3F13724F2D537
:10276000AB9684A7A3A60A5EFEE23EE7783A21CFA5
:10277000F558C3E4B2D06869CB0E08A6594169E7A1
:1027800047AFEE98DC3C29112AB98EF1CA8D6F98BB
:102790006ACA4DEE1C808F26887D6038C0DF932B7F
:1027A00016004F32F673AFCD81E6D80B402C8791DF
:1027B0004510A740E434330254F5B79B62581287A2
:1027C000244171037F2D91CE71095B1FF508E6E668
:1027D000B12BC7C22F4771796F27DBBDF8F567A70B
:1027E000315A39991E86989A770C4478CB2E4C979B
:1027F000CD7D64C6C5AA747D57A123AA01BB218CD7
:10280000F64A5A0A168E770876B6F686CFF8ABE106
:10281000C92226B823062CA0514A7AE03C21F4565E
:10282000A45DF44AD068B6DA69B762E89AFC93E826
:10283000150828DA1E86AA7B530F0E3CB74B2DEAEB
:102840007DCB385C4080492DC158B5B2A8AF2C185B
:102850008C1AA7CDF1349C80974B48C9CCFCFFBBA8
:10286000A120730761566AAC5DB30539C6B4117116
:102870008745FECC1E9461A2CBAC5B03794706274B
:10288000A1656996F42DE8DC48D24C7CDDBAE0B055
:102890005009D3CF1EFDEC5032E6EC4B1DDD8EA16E
:1028A0001F86DACDAE74F6A2C7AF386CDE16954837
:1028B0005A43A4DCE00CA00BA27417F10EF6FC58EE
:1028C000DF69182AAE5175BABB9CE9E7B7325BF2F3
:1028D000AB8E1EE81E28D83006D1ACC74393CAF38E
:1028E000DEBC8E52A83EC72B8651D661D1D9369315
:1028F000CF57710EF0EC967610E4697C616BAE5D9B
:102900007E270DEB68234192A1A2FC78073B41F39F
:10291000E39E37C372D59977B9F401C0E2DC385928
:10292000F32295AF48679E59AF9AC582340505CD0D
:1029300024C76A9463F0A08DD262CC8538F34F1D12
:10294000EA69BD5CC597DDD12CA31ED34564AB5DA0
:10295000723AA89DF8D14740F2A018DFB439CADA1C
:10296000FCFFAAA624C6CEAB83CB92461F52258D70
:10297000B777DCE0301D5943B14FDCC0003BE43A8F
:10298000C721B5F74FBC4BF0702EDC9930379F3222
:102990001785249F45B789D4F9C9E97E61758222DC
:1029A0001903A753890E6AF43A26B2D8EF27A2B7C3
:1029B0009BC49D5C73266D039BE0C2D9C285FB2A34
:1029C00038ACA19F22C81FD4204F9D58856D32C2BC
:1029D000F973D10AF5EA587C247B98232AF39443AF
:1029E0000CC6CCCE004CAA1456F7F8E9678CB42E6E
:1029F00066614E9E436A4B43AD9D94DEFF3BF610ED
:102A0000B9A380CEE7EC5A5ADA07EF85F4CEF2AEDE
:102A1000478ABB7C1DA781F489B30A22EAC038D853
:102A2000D81E3C8EE968F284597DCD407A474AD55C
:102A30002AD32D1B105ABA61A20828658150C0B84C
:102A400087F26A55F262BE1AB5C4FF27016C33E8FB
:102A5000FAD34DB30B9BDF09746AAB4768DA21A840
:102A60001968CFB6A93B883C1BC4C9F965B2E59586
:102A7000B52085EC11DB2DB03EFA1629C04A8F290E
:102A8000D5C6837CF590E2C2B2B8D688B69429D96F
:102A9000B079CAA0DC34AB1E24A3EE4051D8F85C58
:102AA0003696B70163684C55C733141790EA1B83F9
:102AB0003F290874BE6F7687910FEDB82B352577C7
:102AC0007D3D8EA92F2B26201C767B8FE9EC1400F0
:102AD0000D95594121530C2886C9BD1DE833923606
:102AE0003AB810A3C629A8A3D2C172EF592CF4C1D9
:102AF000E582F7EA4CD075AB26813A9692408893EE
:102B0000411E87E0220D6AA5B4A4B265ACA9631A80
:102B10005B6F04EE96F6606A2B91521010F926B89E
:102B2000D8E0BBB1253F20335A3D2FD8CD23DB92CF
:102B3000A44FAF1600AFCA23F9661299958F906D16
:102B4000BFCB9B9295618A09D6033C0EFFB417EE6A
:102B500095710ADC2BF2B4E8E524B477A2BBE2520B
:102B6000C2FC6A6F75291339259A730EB53930B9CD
:102B7000C9096D157A1B6B25210C723EB3B2FC9509
:102B80002AF6FBB45429326137F524D9DDD6261C48
:102B9000DDD9C3B27C5FA06D5DC27DC31B794527C3
:102BA0003719CDEA4C765F2F4E41FCB1BC4FA8F1EE
:102BB000DBFDBA22FE233F3379C45A8B7CFE5C0ACC
:102BC000684775487CB84FCCF97D3D2BE23F7F913B
:102BD00025C34D5822E9A8E67D0B0D2AAE8AE29363
:102BE000A040C9FA591273CD54D8CD40CAF83E99C5
:102BF0001445413B9C077373D0B478C38DF72DDC2B
:102C00002CE05A5150B3DB1216536A7EE80975570F
:102C100064C235434CF53F87F8A68956D3EF696EF9
:102C2000E5AC6B779C066A9B6B2E37C626395F979F
:102C3000FC0919C1E55A093F12DD2A59C79148FE1E
:102C4000EA31FA98C951E73E75C6348FB7A5535893
:102C50006389E59B9784A2A84CC37A77A3BD84615E
:102C600042F9282565A77E07EE7EA08AB7B3061F26
:102C7000003665DA073035863997B56CE3BD043820
:102C80005882FD5DBB7C2F674A65F5FC93A995A82A
:102C9000EF9252A35C3EB94BC440F048903668BBFB
:102CA0008BEF204FAED92B2D78CE20E6DC8C135F36
:102CB000C98901385BF55B11B5591CB04D7C2D32CB
:102CC0006348305F5D05315132E1A8630F76725D74
:102CD000DB48C51AA2749880432AB18619AB0EA1AD
:102CE00078D4A309524CABCF7818ABE86FB4DE654B
:102CF0007232C1C5563D10C9EF215C75BD5884CAFA
:102D0000CC53F15F1C2D2626E8D2246AF74A7DA712
:102D1000F414AF0AF9E3341354EC43EA816C70D332
:102D2000E7F24236EA6F99950AB3F9AF7C369B0415
:102D30008A1528FAB9B75B052BB31A90465B6D1D4F
:102D40004591206DD3FE2E6A9F12FDDF3A86FB82ED
:102D5000D3A202A644C8E994227E768029F6A4FD77
:102D600026856033632E88F3AEADE3A2D866D077B4
:102D700019710394D397061B5B580622F34EC99131
:102D8000DE4478E7DAC0B281D14F6FED670A443094
:102D900078D0955ECD37A0ACA0179A13BDB01BAE0E
:102DA000FDD4E8ED8746DBB0C7DAD510443AAF9BD7
:102DB00064520301FB01CABF14EDA8F975EAD3A957
:102DC0003B7F3BEA22D072B7D76617EDEDA770D1F3
:102DD0002190C6C758FD4C78634DD671FCDC7A91C2
:102DE0003DBDF57EA77E8BBEDE1681B570EDC8B702
:102DF00040025816033326930E77801AF7D6F3BD98
:102E00004F7B209F6CD46DAB0D73FFB4B00616D111
:102E1000C96E17CEC47C706F95417F5B640698D4F1
:102E2000B2291DCF10462D4D84D2C9B3F56D04D300
:102E30007FE4CBA77430424F6B2AA1707076E5F522
:102E40008E828F91F7AEF9D3C01E2E8A347D7A31EF
:102E500094C9D05CA746089578D55AF892AF4B7EB6
:102E60009F9918A9533211BDE8C88B865C0A60800F
:102E70006360F7082A96889D171E45D2BAA8943435
:102E80000CD0B367B9CFA8DC0D64E3A093E770BFA3
:102E900092F2D240A085D49CF13002974565F3F0C0
:102EA000AE9BD8376FD3451417CADF2752E24BFCCD
:102EB000543E86B64CE1F2E4812FFC8B2828B10108
:102EC000D6D61DDE476A918619BEA00B8AC19F6DBA
:102ED000C6545C43E015CEE2A6ECF95A649A16D5C6
:102EE00004356E597787682C55DF83787A7E43B82E
:102EF00059FEA047D28B535729D19E0FAEEEF13F1A
:102F00007E1B5F9D42895B71A0CF94480071FF7C5E
:102F1000096FE27E54E29C90EFA6585F0AA4DFA5F9
:102F2000C75E0B28AA28BE177C2C7C05AACAAA4B10
:102F30007D987A6DA74074FCFC2A4ADCEBE3A0ADD7
:102F40008F4100E0AEB2DCFD00225B94C830073553
:102F5000420E789F47CFB7436308A3E76F98A7F562
:102F6000B46F27CED2813563A12B04920A1BF83FA0
:102F70005568BFA7A069FDA761B0C3C02131F3ECBC
:102F800016EF03B3A65B3D09AE9B4D74B542D072FC
:102F900083DA91C06D801739C09186F7B50B16386A
:102FA00053D56E43AD59B217136577964DE49C79AE
:102FB0003381B59164101BDEE395D9560290EAD2B5
:102FC0004B55B4F368B31FE2A6E1E715302C366722
:102FD0002A527F9460AE7E69724DCD4CD31E063D61
:102FE000BA8BBFB0241825A8ECAC9DCE586980627E
:102FF0005FE2190FFC2ADA77EB689F6A795CA15DC2
:10300000591F5369634D6D3AA32CCFEFFD3277C63C
:1030100092DD6B437F721640A55A45D725A139CB67
:10302000B665AC293F0122B129F806A55643679E33
:103030000D356C0681681CFA70204578341EC2126A
:10304000E22FB846F47BA1927E8289CB9E1FA4E634
:1030500074040BE2F233B590014EACAA49412AD870
:10306000D799C3E9AD18A2E81614E7311D30B8AB03
:10307000199DBBEA92D572204F315FD85FADDEB0AB
:10308000D7585566D6868733599F4B050DD8C68CC1
:1030900076403A5E7ED111160ED38C63ACBD9D4650
:1030A000139E5352D81E36A607B4091E913611C27C
:1030B000F11694A8DD609224137C6B4054C1026920
:1030C00093F1518D5B0C2F847A439BECF81A14FC1E
:1030D000A1FF79C89BFC7D2550DBF8557F1D358B02
:1030E000FA5D2F3E866954F303534BFEB648A4188D
:1030F0003DA0E0E7634CCDB450929C0ECCC5C14FCF
:1031000072155C51E2FAA265245A4473F28890D099
:10311000B1091685568A4372C17A8AA3FC822011AE
:1031200083E09CD85205A48CBDC63B9F43CEAB82A6
:10313000720BFD435FB57C2888D9BEEA73237D12EC
:103140008660F395103D08C4B3777F8B0F99FD72AD
:103150003376423A8B383D9C8F71D2E67F947C4A1D
:10316000403525A03B52BC785D395CB0BB10C0999E
:103170009AEB6F87A991D3A9174CF9F7F541416EE6
:10318000DB2D13321960C65AC0A39AD19CF6B566DE
:1031900082A922F98172D8AB84D295B143A8D9080B
:1031A000CF108A880DF22EC9B05BC1DDA177EF1A6E
:1031B00086CE8113A8C2A78B782782A12FC0F05991
:1031C00035ED1DA547E1FECD98A9735F95C7B19A6E
:1031D000FCAEE54C4729BC9CDE388C608439E9851F
:1031E000EBFC803AEABCAC17917CA1F0B5B7C856AD
:1031F00085C475EF2753737F53FE713482A5740124
:10320000C6CF90EE5437A63399AF7C53EFFEC1CAB8
:1032100009D268E08A1EE1B163C67F291A3F025BCA
:1032200027CD5A315936BDCBBEDFF39965A1D7F80A
:10323000A1C89D6F7A5B2607C4F983AF7E3B478F99
:103240002D56170A0C3051CA58FA669DD4C88F976C
:10325000A438122F3CA7819D6C23BB3A9D6E4D3D37
:10326000B9A76B862D5E8E46126B6B8CBFAB5B284D
:10327000F4454245701093CDDC94C15AC2993AACE2
:103280000678A8F0A51AC0B235037D7E889015286F
:103290008DE2B3781D33AFB6AD969190B9D5A30A40
:1032A000CFE827E3ABB67D04CD34D5F10A46434FD2
:1032B0000D8285BBF6BC2311949E534958B3D79A0F
:1032C000850F4C056FAB82F53A42F733103B425500
:1032D000D9923FA585F5BAE5A47BA449EEB97A5405
:1032E000DC4C118776821CC64A732829FF38723657
:1032F0006E43A90F481EE1DEBA9539EF41DEB0E515
:103300007BC3CCFFA9FC0E13C33AF91D762C904C5D
:1033100046EEF316B0E83702E74D32D43F7900D2DB
:1033200083A479A20E711B4B84496D23B408955E6A
:10333000E32188D97ADB72BAF57F91847B13542616
:103340005704E19EB1E531B938E3F150D273892ACF
:10335000BF14875411C6C70DF7A079D1BC5026BB46
:1033600064A7E3CD1EA7B05ADE2D69F232F8E1E181
:1033700069ECBA19A016C243BA46EA409276E278DE
:10338000DD6D429ECCBDE8D1C34DAEF076288C5A9F
:103390007DA402E484EB60A1C380BE38BA9C9C315A
:1033A0000778BCBFFE0FF41532FF69BDCEC595008E
:1033B0008A2C85ECEF8EC153FC20C4CFC7A74ADC12
:1033C0001851436FF30794D9BC5C9CAAA4B75EFD67
:1033D0006CA2696B894547E3B578AA10F6521BAE1B
:1033E000224124E1ED3B22580689C7B86F2B960E87
:1033F000BA6923A7B6D87E3C497DDA4B1353A7B6EA
:1034000073065B9D6129989737D098A426158B8108
:10341000C4B5794FE8023479FB25F6560EDFC8E2D1
:10342000C776764CF91726815A5EB9123CAFCAF4BA
:10343000B3CF9285BA72FC66B35125A8F5B342EFBB
:103440009AFDAF38179C8E4FE656C0869763AEDB69
:10345000720EF15139453F9C76CC0EC6D50DB3BFE7
:103460005D95DE942B0CBC91BEDD0E256F5E73A5C1
:10347000CEED49F743F69E6099AFFE2F0581C25A03
:10348000FD2E6007E37CAB6D0C76E0C53994C22A53
:10349000E77FE393E9611ED8AC4BAB72C3DA0462F9
:1034A0005675C0A92719BC323FF579C954C57E3A73
:1034B000863A517D27626DF91BC2AE8159651BDBCF
:1034C000EB693638F5DEBD72A440F06E8A1B789742
:1034D000BFCC6340905C215B43FB96C1EB4DEC118C
:1034E000390516433CF1B05714493A501C7B62CC65
:1034F000B2B03AB930CB0C61A633FF0A9C259E4985
:10350000D5FB2C72782CF9BA4B1BC32775EA890DB1
:10351000C7B7C82E25C1601697505083C10AE6234D
:10352000B8C9C89371619E8E543FCFF9507EBE37A3
:103530006692D40948F7B611B6C904696D61D8140A
:103540009BB023D966EEB5CEC8E750B191B6F5571A
:1035500022F531792DA3FD38740C7C1CD88BB20870
:103560003A3DAFAE403CEF96AC8C98970D03AACD98
:103570003CA2B032F448EE64F49F62993043EF20ED
:103580007A88A5B39AFB782487628269FA5BB55181
:10359000ED937E88DA0B443F3D622EA2382FECF883
:1035A000A962E468628DD425E7221D23B16EA8F0DC
:1035B000D35756871030F1EEFDCA9C077F0635CCF5
:1035C0003891E1520A126C033D39CC008F8BE3A68F
:1035D000AF34C9A6752A48A7EC2C99308F9BFA4FB7
:1035E000F193556D7E30DECFEA4F9E9826C817D4F2
:1035F000B74FB32F8F07C7E323C761E8190B7D23AC
:10360000372EF1EA3ADA64FF0772116E1D83D24D4C
:103610007F0CCE696CE64E99981CD6C190F7F3FCEE
:10362000BF38796E09BB665E4A91809904FA48E317
:1036300053D60B3D172B8B05A96A32357A04EED38E
:10364000E1202DE2CD7390BC45A68AA5189FA15E0E
:10365000E26707BD90712D1AB3FCF0BB9424A3243C
:10366000ABD6D0552AE7F644F1B1D607E2FA088B7B
:103670002AC5D9287C84882A5321ACB9642146C53F
:10368000871B37599E50E7876E2F6A4AE88046505D
:103690005B11460CF4270BDD78A06EDFA0A5DBC222
:1036A00032692007E6C9DF203FA3EA2E7D75D419D1
:1036B0009CE01C9BAA255B2F2EFE7E24087A617E4F
:1036C0007B015E7D93359FB908233FBB063FFFCB4F
:1036D00070C3F7973F50D9EAB6111D66CC004E3D36
:1036E0008C31BD560A82D515B6C5740A35F616E674
:1036F0000DA928BE4B2A54E0806ABFB0430FC36BAC
:10370000F54D9EF5608FFB04EA7596FCA537179082
:10371000B62F25556190C0FC330545B6D20A100678
:10372000AF8F2C2C9C193A80ABF2B0E272BB17120F
:1037300097A48B66AED8F177101A08C81BA4A8E12D
:103740006904093D77CCEF2ED9D043BB8FA80E2357
:10375000AC2624D62A9CBB3E3AE7500254025ECBEC
:103760004C49506AC7F8686E9A8C49CE11CB371015
:10377000C8DCF4628D792CFF87A5C1DE8483E64E18
:10378000E40810D48BAA92D8808DFB9677DAA00635
:103790006F3F9A38089AF837F37112A7825313AB28
:1037A0001469854E41D07071106108B8CEC09EE595
:1037B000DD64F43DB37D2B936A7920B809748721C9
:1037C000B1FEC8256F0CC2BB9D7C7AF42E221B571C
:1037D00039CEB192275B2F6800F43A95D84ABFB230
:1037E000F86343F6112E1D848427BFF47972D4A5A3
:1037F0009B5FBE78E0FEF932250B05DB4EF41345E6
:103800001E4A65CB8FECD6620FA8E59AD5F70E2E2F
:10381000B3AF6591AA84B162675EC8DD9409FF7891
:103820004CCB4CC7AC22571826BF48489A10BE90C4
:10383000F931D9A9243C67DA87FE753811F59082F1
:10384000499828DC6388B0620BA6A355CD57314850
:10385000E5D0062F1B5AC9CFC6699B9D135DCD6964
:10386000275B98B01014E141A38C577BA57E4E04D2
:10387000AE4C4A94057104C13336468B8A0ACCEFAC
:103880000EDB18C8D082A0F4963ED47E6181147AF3
:10389000E23BACA1B5C91AB716189200B7653C7BDC
:1038A00018C2247F57002D7607F578BADFD37D0E36
:1038B000F645F55BBC4AD9210E1C7323A0FA06DE3F
:1038C00027DC18C59A4F35171F7C5339C8B7DB86DC
:1038D000BC4DC0AF9D55D0438415C37CEEA93F5865
:1038E000373A62E99BCCED8E50E1A6C37157503F49
:1038F000B8B41C147B7359362FFF13DC9F1990B991
:103900006F4DF92D1264022642808A606BCE423FD1
:103910001C81EC1CC81E16D502995DD0BBACB08DC5
:10392000E4773E5C0E674A423CE74DED74158E7FAE
:10393000E70309F14D6BAA00BC79118B14E6CFACFB
:10394000359638E4D3A5C33208D328C6C31C84A453
:103950008D956D1CA41CB49EA4BFDDDD02F623E88A
:10396000D174DBD06671937FE35E0E3B96F71D53F7
:10397000BB1634BF4E1EB7364ECA69EBC005826314
:10398000964DF71A6053F4F90E7D4D5B43E2BE6A23
:10399000606D2750BA24380078F65929041F7F3FFC
:1039A00030FA790DC2B44AB353269E76F9C68E0317
:1039B000C2AEF058356502BAF08F354DF2F075930E
:1039C000157A725ADDE85068379AEBD602F0710624
:1039D000C0EE44B59094DC21132AD5CBAA96B6BA92
:1039E000BCBFEF708B5F85BEB8A762A8BEFA148912
:1039F0000221D3AC4918CE5CF3D16187C61C4AF4CE
:103A00002789FB8EEA96B281B62DB7D52294942EE3
:103A10004200D1D6AFDCDCC50FC4644D70848C1479
:103A200053AB1E2773EC6891FFD678DEA8965E84B0
:103A300057FE1F46EE55C6A8C42082547AB9525785
:103A4000D325013E1DD37D5DBE84966FE0DBB3D4EC
:103A50009BE2055103C5F95CED34EBE660AAA522B3
:103A60008AF6583776397DF1BF5A41F99995BC0CE1
:103A7000D0B3E6C6566083D6B85AA44DDC8303861D
:103A8000CB2BB6241C3699E21D026302A8B811257F
:103A9000CA2D356460E0F7935DB41ACEE23811D3D5
:103AA000545D865F0FDC48D4271038847607E7D34F
:103AB000D5B57C2CC17A2F1E2730BD43EA302B7739
:103AC000FE9F5E6BEF4277D2274E5227298CA9C604
:103AD000174AB694112B60AB8C39C5D236DB63FC28
:103AE000AAE924D64514123F1CA38DD71498BC8F85
:103AF000D6F7E95D9BBF0D47B1AB95321090A5AEEF
:103B0000DADB6C56EB2B24E8141D7303A1DA135D8A
:103B100011387A88EF249DC5CEF7255C4ED28CE50E
:103B200070FF83392F275A744C4645043D1BE842E9
:103B3000BEECE889FE4F42F06810A57D34F6EC91AA
:103B4000BFA0613298833F76CF5B67CCD2E82A234F
:103B5000C73A712D7CAAED8C192A0A20943A0CB42C
:103B6000B2FAD26228B7CD598FC00359B919E353BD
:103B70005CAD9D0D051F08A11ACD4A9431EE93C48A
:103B80006077C8CB5FF4587F7C8B1AAEE10238AE09
:103B90001DFC4D04BB1B2F31E9A0ED354C35C0A0F9
:103BA00088DF4E4C14AFB0BE95EFDDB40540107405
:103BB000BE8EFE1855133CC6E0AC36F36D46891038
:103BC000FEBB323574629A2B35EBDC7A4E046F8F74
:103BD000CE61511E89D9EF7521D90FC6CA66C00BB7
:103BE00034B2975E3735444A74F2FA93E668EB963E
:103BF000DF40BC345ED6E28E289F0728FDBDCF5E35
:103C0000F263899A4DF339851A9E72252E77229B8D
:103C1000A2A42940FE91F218F3723D86D6DB443708
:103C200006DA89E8FCEAF245C44D06DB3C8D1B3D13
:103C3000A0C1A3BFF2C0C531C3FC3FBEBE73B9D99A
:103C40007D20EC1B7FEEDFCC61807AC267B21FA5BE
:103C50002779CA678CAE7553542D9228B6583FB257
:103C6000AE78625F64914E7C12D85EBA22A5971935
:103C7000287556F1F8FAE3C193818836921CFD6DE0
:103C800069E209E0C921785A228F77F533FABE62DA
:103C900047FE3D8AEE8F4E7976A3EF543672512956
:103CA0005D91BA7CE0FABBB1CC4F1CA144640B38E7
:103CB00042638EA709604B7B70C6283221804AEE92
:103CC00046E84F5E8D753AA2DA780D47D856A96B53
:103CD00058DE7C4AA79800D8F0010CB71911B2B28F
:103CE0007B9A6EC09C39A22E9CA8044FBA3A083D1C
:103CF000FD68AB45FB178D9365D9B37448882F8455
:103D00004105E94EA9AD71A9EE0221FF2376F255D6
:103D1000E632DF0E3635F794802EF130444481A62A
:103D200095F9055BEC4625F205FBE42A1FA2A9F2F2
:103D3000458159587859950EFFE2548FFD6CC8990A
:103D40002FD216FEBB7768674116378D94BF575C3C
:103D50004826F082FFCA68EBEF6EEB5DCA35802122
:103D60003F7857538860230BFC53289F33B04C7324
:103D70001AF5B0D4817659381000738C91A4F6B539
:103D800053B2461B437B838773DC7E2F86154FF12E
:103D90009D10911F2EE657FB886E04875F4A0749E6
:103DA00021F53DBBAB50D1A6BA7D0E7FE593B9DDC1
:103DB00027F1C9FB6B763EC8613E1C285C40CB02F4
:103DC000869BADF233784E8DCFA51ECC48792DEE73
:103DD000AABEBBAB05D96AEACE9BA011F6A18BB3F4
:103DE0008E24ED94953C0D9D36CCAE68CAED62678D
:103DF000669D57B4C4C80ED970CD4A084606CF4D4B
:103E0000707F1D0DC9C730193ADA1D464C213D7C23
:103E1000C466863A9E5144174B38DD67D1C232B929
:103E2000256D08A276AB76A321F2C89F5F71D3DD22
:103E3000EFBC1C90B514CDE5A7AAFDE97FE52C7277
:103E400073AED179B8B619711F8D25D2F6F49A4B9D
:103E5000D0CDCCB636D7823ED60453DE0A7D983A12
:103E6000FF499BF94E9AC9EBB25729E49701848F19
:103E7000B9A0DAEC5E2D24C98901FC079BB30D4380
:103E80003231193AA3E65F5FDC2E67EB283BEF4443
:103E90005B5E54B746D1BF1BE540DC3B8052A6EECB
:103EA000301D9B7D28A7F4521DC3AA35E96D064736
:103EB000E2F3D7A3F7D67093DAAC0F7CA5D6F3E084
:103EC00030B179D56C73BAEC9557F780DAAD6D6780
:103ED000BA7A98BF77129D8838E922307E8F109188
:103EE000F27FF0D02D8DC4E58DFDF08BD0B39B28F3
:103EF0007AB3B91ABA0402B0B1AC52700058B21C0D
:103F00009787BDA6C6E816C099443BC6D0F27C127E
:103F1000D1C8757AC3778C745D880483816BFE4841
:103F2000404CF4D8E1A9C0095C45362F746872662C
:103F30001629F0FF4EB6D42C3725E9DD58F204D10E
:103F4000B6E2B0BEEC1A64FB0132268060A2AEED90
:103F5000799FFE65C92260C36A8CAC7641363CEF1E
:103F6000CD152573706CCDF407DCF94F49F01A4676
:103F700013C7F49DEB3D73E0175665BF7A596D4842
:103F8000A0273231ABC3C838FAC6AB236170350BFA
:103F90005D48D7D9EE9B9756BE0B8B119AD1CF4275
:103FA000EF93FE7FD001EA579A8FCB0E0195E04B3D
:103FB00021D6492107CBB3324B5B2DC32558EA628A
:103FC00031392BF9A948CD117DDCAD1FD37A2F797A
:103FD000B2D63B472034C135DBD9DEEF53405C0914
:103FE000BB0B3F7646E6ADC46039DE3CDFCF0C1C30
:103FF00032B4AD99FFAB5DEE85D2828D677F885577
:1040000027DD30E8A5012DF692CC59362BD22E3083
:10401000F26C4910083E1F8E99FAC9BB1E409037BA
:1040200015D9D59A1BD705102A631D18198F517100
:10403000974EE5ECCB4196B37BBCDC2EDFCC8D27D5
:104040007FB850F0C270BFEA1B756F6D4E1105B698
:10405000C978048B815DE1445CF9F780A5456F7CEC
:10406000DC06DD840EBA6BCC27EE90B26C32F1CE5A
:10407000DF3A0778F5533E8A7F61B49BB356706D83
:10408000A0EF11F0451E55315ECCE95EC489D8CB56
:104090005156040895936C82E23D31CC42E7B994C5
:1040A0000AD9396BE64C29B312CC4A8C5064F72CF0
:1040B000D976B6185279960CA270B643DBD0AF2AE7
:1040C000C1AC2160FEDCBF2B5E78FB16B296F14DD1
:1040D0006F7ADF278DCEC7920FA3EAC8B8E7A5880D
:1040E00074AA5F3D5F79D01F3A1F9635D280A7CB67
:1040F00084C29B59401A9D9E263DACA8243C4C8E00
:104100007E3B1A3519E3C1093DDB70BF0315B612BA
:104110007B1A705A5B4E7BA37D34395EBD665AD4E0
:10412000CB45361E78A9E88F5A49F60DEE0B886FFD
:104130000A1FE4E07C53AA890F319852B56B28F02E
:10414000722F62B62997FBF91EF5427BF6AE0F314E
:10415000B66F0256FA5C1D3A0777A9793EC2E8604D
:104160008151C6287C8E7863E0820DC114EE23E66F
:10417000A9FE0C348757E656F650D0BDE9C86D81CC
:10418000ECBAD5C2181AEC0F1F8C21BC497224E975
:10419000BB00B5DAC1898E20FA64CEF5B01C696B1C
:1041A00046658D7FCEA8887AA765030BCAB6F6BF91
:1041B000006D70F9BAB0955B81F234F4D23598F0A5
:1041C00006AE9D8308A9FB27AC6CE38FDB1BEAC519
:1041D00052CBBD5A8CB9EF81C8CF5F86203541667E
:1041E0008B190C6943B2BCFF91A286F695A745D303
:1041F00052DC0AF4AB5ABC7532B7BD058D9C4F300A
:10420000EA88E46B142B47CA5F7C3D12E97C025CB0
:10421000E521074B7EDF6AD8E50750B33E401C001E
:104220004011D019535CCE5F8C776822CA2DF812EA
:10423000F0CAAA8C8540A9AB13A031FB801BF3F90F
:10424000CE1DDF91A1F9FAB509C660C2530748C671
:10425000167D3EBC40F04D893D9F769DBC2BB06BDA
:10426000CC36EE1D99F14F6204AC39C41E77DCB038
:1042700052E78068E0E0B475730B47C2048DC40D4B
:104280009A47546072213F04CAC9B5D3B85F362D2E
:104290004CB24F5D02F36DBB9BA1E4B0003041AF67
:1042A0001A9A2CC6DF3FFFDB73230F2D3FFAA74B73
:1042B00050FD754CEB6DBD9742020752A6601995F3
:1042C00091875154F63E79E8145D07048549C56D20
:1042D000E57ED0A2FE4631E5105CFA77DAEA39864F
:1042E000951F6D52BA3E7901957A90A9D4ACEEFB38
:1042F000C092D883DA9236479A20B51A7CF9E8D76B
:10430000B740CFCB4E702B879A7107111D0010A8B4
:10431000CFCB1F81AA71165C38486F8DEAB0BA31D5
:10432000D99B5EE612786876F31A8A2D1AC15B254E
:10433000B9E11AF6EDEE921C0DE9547B4C7B3E017F
:104340000C7D896F817E84A3118A5902E7A4B8E1AC
:1043500033A5B7042D7EDEF2D0AAA6AB88FF17CF17
:10436000EEBDA32C4CC66E3C15A12AAE8B5726FB86
:10437000D1EB26F3D0B7E3B39763AADE5C908A6CE7
:10438000483472EB766BADBDC8D51F24A2F0F0E9BE
:104390007E185139632B2CD8623AF1F7656D0C4CBD
:1043A0005178B578F64D215A5D9020C6BB2D3BD48F
:1043B0005E1D0A9C84F3E085EDC0D136293044D4DB
:1043C000F797186BEC2BD1643212ED74AF37C477CA
:1043D000F86A1D8AE7FBB0DA20944B71C7B3B53099
:1043E0007460D1A784B0DF0FB5F748A94CC34BBCAC
:1043F0007148C13CB840FE1688F762F5A501344704
:10440000534980A02FBFE2F7F10C14BBB0991852AA
:104410004A83E3D4B65EBAA0E628EE7AF1336EA6FC
:10442000929C0600134BE90FE92889EAC80323D0C0
:1044300056DA941B89AAF362E4C6C38E4B20264742
:104440000F27E0140257DB3065984D0A91CE4240A9
:104450002BDD29AC378A9526841E6FE515B2319A7B
:10446000EEA92A29BEC4BF30EC9AD8DBD90D4E592B
:1044700030D0FE55D5D6C5F85F3F0D9EBAF953F33F
:104480008DB5CAC1A53661CF8377112B9B2541A07D
:104490000B3261B01AFC11BF4D166BAA7E1D15912F
:1044A000BB1DE83D0A12080B2AB108CFBB208D14B2
:1044B0003BB774BA09172F301014037CA2D1A54B57
:1044C0003991549F8359BC76B3EAFD7A075B241473
:1044D0009DA403704A82A72BF50ACCB1CD7B437013
:1044E00070CDE3CA22222F1E2729697071446D20E6
:1044F00012C0B19913B88BA7A8F13E1B79AA6242EA
:1045000025680C6450E41DF0A32E8A75E9B0C7B18C
:10451000C74AC778D5DCD735E23D79FDDBDA903084
:10452000285283F03C1B6DA03DBFD4C8B034A3B863
:1045300074FDE379EB823D283C8EEDF8E2E0F8E88B
:10454000BF8B7C8C335813AAD87CA2602DE53B46E8
:10455000A14B43ABFF93F0BF6B3FC7790C2080307A
:10456000E309D747B41A52276A52269C98188C55EB
:10457000151BFA7B9AE25D2C63B368AF4D3ADB2DD5
:104580000CA51DB879FE618C2A46915C8EE92C91B0
:1045900009372E004A85BB87AD2DD82DFD0E63024D
:1045A00014E69F3BF733D14F4B65C161EE794CF672
:1045B0009279DC58C33F54F426100376AAA804610C
:1045C000220DACF1EE45E2BB910067E94AC166A25B
:1045D00018BD427B519F66F14213C7BD6CD268592A
:1045E000563B33E8903B6799C939636C317F354F4F
:1045F00019E59DFD8A4566DC868F19B8C0EB5387A7
:104600003FD6D3C548ECF11E9536331B13B463F285
:10461000B5C49679D248703B484FB49C9260DC1781
:104620000802B28A511AF77F16CB3DD3026E767A12
:10463000C887CE0688505B476B2E74CC912418181F
:1046400063F565DE2186839105B90BE859B3549271
:104650003CCB744E0494BBC8953993B1D50DCCEBCB
:1046600049CB6E0ACCC9E38747D5E1CCA90382A721
:10467000D5C9600A0529FEF9ABACD740E11FF70D9B
:104680008B0C4589925F6C88D234769415476F63A2
:10469000F3955EC7FB0318AD250B554D9B68335052
:1046A0004E97A50264A0468CA382BB1D2EF8493EFE
:1046B000CB06772DE1DFE2F812C5FC06ADBC867CA7
:1046C0000788E05D8FBBD61107CCA804A61DB3CB2D
:1046D000FC914A1FE68156025B8966D43DEEC1C754
:1046E0007232584D0CFEA7070AB4B693B131EC09EB
:1046F000126BA12B639EAE1A2F2FEDC42E9E434F3B
:10470000B1D296BADE4322EBBB7A7FAE5F18841437
:10471000DFF2A14EB6D5F09D2DC3F3E68D581FB440
:10472000075A015EF1C4CC306232DD0264648CE170
:10473000BF61CDAEFA5151AB239E2B62B3A1F7AB53
:10474000761C9B7C66DE55059E8B180A02238BAA7D
:10475000F0483320406ABC0B2AF42AEBCE0D24CC5F
:10476000ED071B53D375D555FD574D8134B5DE2D5F
:104770004AA1B1B317DC1597332952FC8E361C447D
:104780008532A36A432B7D42A388AF9D0096DB321E
:10479000B01A00D18733E2013F60653ED3484B1623
:1047A000F9EBC03F57B2F19B2733E316B3A4E4AB58
:1047B0002791A278D16BC9BF21BFFEF975CCA85251
:1047C0003FEF061F73ED65B5146041C79A6FFA0994
:1047D0004F2061CA89B1C991E0191C3431CF1882C8
:1047E0005BDA2C4C9DE9571389925963D3EC1A621A
:1047F000BA4F40A73833853A30A01B797891957528
:10480000E830FE790A4A8E796D002AFFCBE437A89A
:104810006F5395B139BC2EF24EF8752EEB18471A2E
:10482000D8ED03FAB5466A5D1AA61D3A8B91750E4E
:104830000593407C016142258A4976050F20D365A6
:10484000D2823854205CF62D98DC17F706CDFA6C2E
:104850003F2C9496B9542D283ECCD1DAC398B86B2E
:10486000807C4F72C05D8A0B5DF20333390C6D0F93
:10487000FCF85C3D6DE8CA3A9BC11F51262ECD0A5B
:10488000B2566F20F9EDFF9CAC44A2C9A8D16CA927
:10489000BE2B9F1FEBB99FFDC7F305F01B5FD660D2
:1048A000DB5CC01E386A74176F686E6F4A0EA7040F
:1048B000CA9AD5E10E908756587285F98F76716C39
:1048C0005D904602BDB4AB70A8AD3AA7790640F33F
:1048D000B922F89ACA35A66CE856D47698B681B152
:1048E000226E5A6203E5CAA964B7E4CFBAAE48EAB9
:1048F0009ABB9C8491E803D1CB84750C9DD2E8844B
:10490000AF45C5DD45467A275FD956B8B43B9E759D
:10491000DB1BBB8A4AF69623D27F82A07A9AF52CBB
:10492000EF8613CE0FFCC1DCC6F72AFBF425D7EEC9
:10493000279A8C164E1DE7B14409EC9AF1380AA566
:104940006729B06A6B97537748AED11F33551B4F19
:10495000503DEAEFC32C5C0C2B62482D8F128A5B12
:1049600042A02E8B11002749A8DA3A1849A11997BD
:10497000A020E4A84D9467098B192D1EAB7CE36041
:10498000E755D96B6594354D2AAF9A3210D6CA9047
:10499000F2AD3B8CEB7ABFB2BC8D8958111486C93D
:1049A000AD2244BEAC20A77D39C2434D54BC19375B
:1049B00020946175AD33FBDFEFC02096D9B8FAD2F1
:1049C000CE5FB2059759846625992C85F534A6BC2F
:1049D00082B07629908E66529F625D41C51B23414D
:1049E000D9D7B53A64B08022C256D0F557E3D7E2A2
:1049F000310FDA71DD221E0E0700A3D3CD31482B13
:104A0000841318DD34BE35ED40985B152A6B2C2FCE
:104A10002675A55D823B2DD4DF7C534578287AAA84
:104A2000CD63F5269FA2AD9CCFCDCB4B2D846D22BF
:104A3000F2E6BD3F13EFD669213AAE38AB840B1BCB
:104A4000F22EB7A650652D6FE0317805630E3C3627
:104A50006D53C73A955E2B28B7E13B8D3B74A77A1F
:104A6000D32A77308EDE5802A5DA2F624075871D73
:104A70004813DD7D335D749B1E49A76DDA9179D2B1
:104A80007F4AAE477D8EAA1B21520B8AE9CAD8D233
:104A9000E2B3D4FFDDB4C0862902D4C2EEB6D2D1CF
:104AA0009CCF3236986464D9974DB833CDE6DB603D
:104AB000081133C3F9AB9084A176C959150EBFA96B
:104AC0006C4A4E35B820DD6B0D06FDCD073B3DC170
:104AD00061EAB3A98C3BF0F1422D4B3D431E65E1E9
:104AE000CBD41BA857ABE6A71BC5275904994FFD8C
:104AF0009B1C2E10B64B2AF9DFEBF662F3A48C391F
:104B00005D039F3825AB4DD62D23E9ACA933D7E201
:104B1000E3CC7D0F39AC8F1ACE3CA127CB9196D92F
:104B2000AA45FAD08C022262F3508683EB21DF6221
:104B30006FB020880DAA2DD6B128A384A5683AAEFF
:104B40006B960373FF72C0D8A9ED84676C134FBADC
:104B5000BFC098559ACE955215EA26218D83A13370
:104B6000EC477CB5FFAA9F89C0FBE202F6F10C0975
:104B700024CC0C24164F904EEB81E3D71B1F918E53
:104B8000C8A781916D0B88F466BA946CA95A9E09E6
:104B90001ADE539FCAAB1AAB8E11C83E254E8EEA61
:104BA000D69E5C03B51B38038EA5F25B5B075E7671
:104BB000EA6CF9E3959C34470B837BC8DA53EC6AC3
:104BC00019A4890B13E0DC3B07DC69CC584167EA88
:104BD0002D07CC9E48981A0C5D0AD12F5321DF6B0C
:104BE000BFEAE4CBF7B834C2AF47E216FFFE23BBFF
:104BF00045AE513412B824BADC93C37F449A55B5FC
:104C0000EB4052530E41C7C86A9D067BA4D8814C25
:104C10007511D42FC27A48CF30D5D07ED5D8033D78
:104C200045FD88B552BB9EFB1C221AC7F6019F0B9F
:104C30002F49865704419A9DE24418087CDCCD4BED
:104C4000885CF4F570A48B211C42AD12D47D319C9C
:104C500099E7FE1C4283623568EA59B6FDCD08DB50
:104C6000CE2B86B0A5BDF5627260838EEC4B763C90
:104C70009A47DC683C494E4677C4A9384838B9BCE5
:104C80008F2221B107534F5F6551D74FD6235175FE
:104C90009C19E3375F35F4E27B266EA422C0303BDB
:104CA000F2A2C2EDBB36EB3E41670CE60D7ADE03A5
:104CB000D7A36E2CD349E27EF221DB20400C527A3E
:104CC0007A423E4A4B0BEBFA4E900D582518555B35
:104CD0003A09C5A937B3670DE47E76FD87E536FC52
:104CE0006537A1958989F1B46F9A7DC081191E7DC0
:104CF0000311E8EE2AC19538836320AC8096FBA9A6
:104D00007F1283215D1A489AE0C2F246D4E1BAF8D4
:104D1000BA37E0735539C1F61EDB5ABBB1E03FCB61
:104D2000960759485638F9BEED6A5D7F6A54EC58CB
:104D30006E3292A731ED9802DCC96125457121A13F
:104D400031D33CBB1C5C8FBEC89FABA2484C694EA4
:104D500075FD01458DB4D0266651A36E7ABFD4117E
:104D60001F85500BCE0768376685A0151D8EF35E34
:104D7000C15C1B9FB8A8BE957751FC2F811355FBD2
:104D80008A3B9237B51E0B7CC2FFE59F4AC2B581B4
:104D9000950F1FE2E6176E04139CF627AC7E3FAF1B
:104DA00059A80AA9B899544F08861C7F963D233FFD
:104DB000B275DA0FBEA36E966FE4ABD92A6213BF49
:104DC000E968B6644007C13E3993CCFE6616F2F03E
:104DD0007106779698005095244C72D104A18036C4
:104DE000A3A2C4BAC716D45BC9ABEEE893EA6A21A2
:104DF00006E2F03339493F615BF132353B605815CB
:104E00006E8331AEAB689343F14CB64624760B9E6D
:104E100070EC51704CF84E44CD3C2D1D34A8C0B7F9
:104E20007703B6AF8A04B42705742E1B97BC7A1D8E
:104E300018DEA4A22AE384A68DD0E50B49E2095925
:104E40008762206977E172D8A56871B35B4733E761
:104E5000541BE352ABC1DC39F13036E231EE47A6E8
:104E6000CB4136E8C684CC7BC36A10DDBFCFA8BA7D
:104E7000FF1649EC097E0F45FC411F1053FE87AF1A
:104E8000170BF7B0ABC208AC1571CE18E0EAF952B7
:104E9000DA8EF12DC4FBB6776929000F21F90E9641
:104EA000ACBD1B2A9674BE2C762EC102E68569B174
:104EB000F4D231881889579244CA3705EA5BFF3526
:104EC000EF19A724AA1C327AE6686874A92AF3F5B8
:104ED0002AD0B866EF40B0FC6DBB9B528A56503C5E
:104EE000646167874812B16050A87D7FC5DCCB66DE
:104EF00006BE9A8B0EF5EF304698958ECA3D5BF64E
:104F00004F548A6A670B8C5EBEAB681C8E645397E5
:104F100016F8900562E982641C8D5D784B7F2F4303
:104F2000FA161AE562B7EFD205956BD182B46E3DE1
:104F30005B8F9D25DEEDFBD9B32A9C298CE7AC0461
:104F4000C0D1DAE1A3AC04948BBD1AC956535DA954
:104F500068D3AB7C38F12A206D11BD68DECC4930B6
:104F6000D964EB7A84121AAEE0B494DB4F95F577EE
:104F7000FFE67DE9D6F37F6F37B805DB14986DAC9B
:104F80000CA3C09EDC34D981578C8603407553A88E
:104F90005E5F3B96271B69B2F51E63F8D77B98E5E9
:104FA000E283858FA74D5E1BA4E7945977CA6C8D69
:104FB000E75DC7390395CF5ED3A8B42659242B24C7
:104FC000221C2EE0A0FCB75FD126EC5D105EB0770E
:104FD000778DDB047134ED75C0FE4D3B83F5EB0836
:104FE00040E55A49047055FAB98811CAFB0E890682
:104FF000C4085A26A0EFC369FF1600C99AE3498284
:10500000B6CACF37ABD27CC11A7E7A607C2630D646
:10501000EE52CFC3AF6767EBDF72C1729F4D77C1AE
:1050200014EB582FB203159A9CCB94DE54F5091B50
:105030007CA062FC10CD2F3F716AE7CB475C5E6AB3
:1050400067A0985C00E661C33C1EA96C34BD4A0FA2
:105050004FA9C1866730B7384A0D178FA9D5421BB3
:105060000E2931265CDF403E2CDEF04BA8AFFAB6AD
:10507000222EA7FE606BDBD298E09501B43D716AE9
:10508000EFAF862E311AB5361304C50B584CECC65B
:105090008E51869BB7CEAC3787BF09D59893CE3655
:1050A00055CC8C8C9E12FC63F3A152FD14B5544F69
:1050B000508C7941E7988E2FF193A906908E46B1D6
:1050C000314F86476D0F12DDEAB493F0E8B459DA38
:1050D00018D6A5D052B5137E9DCF18031D3090155C
:1050E0002C8DAC2222778FC3E014BE9C89CE818F99
:1050F000165E96CCB25FC7C93DC227E42CEA455B79
:105100002D30D913FC480AB0F0770E14A65E7DD876
:10511000FB85B75DBD21ABCC31A8C89D2BCC462CFF
:105120009104179011F002A9EBF4EFAA743EEE532C
:105130003F75F6968CC1921815D3FA375174E4EB8B
:105140004447A9F0EB05A4271371BA199A96087E73
:10515000D6B7B5BAC95AAD3B2050B68E1F71E4B967
:10516000BE2F1AA0BABA578C34B6B306B05D79E335
:105170007E2E138CCFDC77E1E6338B44920A95299F
:10518000FD16B99DD41B9D591C1DFAED3EB3039924
:105190006D664A42C1C9E6912E6FD589F138AD28B6
:1051A000927C283EC2C6AFC2A5E68A6C987478A8E5
:1051B0007CDF1871080D2C4305DC6AC58689935085
:1051C00073F51223D88CBFA1A2EAAEE1ED36FA1F27
:1051D000933DB892623FD1ED2FF65A7E239C204C2E
:1051E000D596A49FFC50C773B079FEF4653DBADA3A
:1051F00066E30B8F581F31C49FE96F224F80C57340
:10520000A7C3C350CD0A8E545D519B2CB75609F6E7
:105210004123BDD559E46107EA5DF58204DD6B29C0
:1052200023943D7265FE1807B0C5DC552FC486B7C0
:10523000049C1FD292D21450C0F0702CCB20DD06FB
:10524000EEAB0CA32D18EF3449D44EA9D15DA016B6
:10525000A875B78891D90E677E64ABC6E7C4B03E27
:10526000D3F3E8E38F04C33E98528FAAB906C07EF9
:1052700015B57E4956C06C3AC958B27384E6D37FDF
:10528000EAF8F4053E2258D9EC3B2401A805712325
:10529000A577FE323F9ED92AA5224DCB35C6D3BE77
:1052A00028C4134A689AFAC33B21A8047D2BA5821F
:1052B000137CB1DC2128995419A2482A7FAA816263
:1052C000F14F2BAA0F42E804C0B0F0F4B33FAA6D2F
:1052D000753C3B8B0665ADB89DCB1C400177B18A10
:1052E0008B457DC77F4EDC04224DD3A2A594F3816C
:1052F0006B3EAC73560D9E2C45044389BBF270A7E0
:105300002118F460AE60FD765BDFA18C43C3E93900
:105310007BF8BF1CC6A939FEC32E8E2AE23E785DFB
:105320000E5088CBAB1719B25F1EDE29AE0B31438E
:1053300018761A03467CD32A3077A563902DEA9B12
:105340001E2FB27FE8781BDD32471E860D8934A7F9
:105350005AC23A55021EA25074156F99E977BD6082
:10536000DFEA89FEC76CF5CAC7286AD016B99D93D3
:105370007A010D5C342302253FBF73936E7B758CDD
:1053800007EAC3B619E62E12E66ED213C2F5BE8244
:10539000B46B4675E7307538CDA7B18DBC92B88235
:1053A000AA1FEF2B299994413D1F3E4A39D5E3D0DE
:1053B00047F5943AF0E6CB0B9A916F6E57216C0744
:1053C0008C2AF48CCB57EEE87F8324DF9A71937696
:1053D000C90DF7E10417189F4B2AF1416F1486524B
:1053E000719F13AA014D8BEF37DD25CE0EEE1C15F4
:1053F000E06D0BA198A16BDFB546CD2F5037A7A666
:10540000ADA611B627C890BE448754992CADC42CC4
:105410003CE40A56F5BD598B60BDBA497A7C785593
:10542000201E35413215B01494A244E7F9A758DD87
:105430009774836CB06652FFEB88F634D2804B8F42
:10544000E7EC17010B860A8612E53D5B1300E57950
:10545000020AD2B6E5A498ABF45746A865199BCCCE
:105460008D49D3B519C6FD2C56713560B61AB25D9B
:105470002C3935F67740724525C1926BC69928D2F2
:10548000CB7780C5B00749DEDB79440E39D33301D1
:10549000DA37244FE249A3F18963E9533C788FDE80
:1054A000360F8B77E7098F2EB9DD770CF5A9DE343F
:1054B00016AC8B7FABE2A28D2CDFB1BEFE321D524B
:1054C0009116D4182CBA23875AD28C54B403E47A98
:1054D000F676CD5E2F27DB7D7A031BBDF17AF4F9DA
:1054E0002BFCA8578C74A53174F5A1D6A5ECD50476
:1054F0003FDD445880B0DC34A6FF7ED761DF66CA4A
:105500001A981A8D53F9264825FF718C9185A2159A
:1055100099DFA39FD0EEE2FE95114077826EA9013C
:105520005815935B5E147DCDCA6A6F66D30DE10793
:105530007F4ABFAEEB9374396F3280614929CCCF7B
:1055400038C36A3378DE653BF095AAE40DA3345185
:10555000BC0DF6BBDFD02DBC7B17E937DB95C4470C
:10556000A6E5C470E67F3D48F6D9FA68B1ED8A8FAA
:105570006227BD8BFA6EC63CC9C92D99470AE366FE
:105580002320F7DCB3757223A61F415C5B755F3681
:105590004BE11E8970A8EC0209CC10608094C325F1
:1055A0000139875629883F98BF39BAEC54E4CCAB0F
:1055B000492AC29CE69313048E017013420C22AF59
:1055C00022DDEADF6F725F70EFC77E5B030D04D9E7
:1055D000AB842346DF2C50FF4338D40756368EE188
:1055E00058CEB848E42AA3AD48BE98D2CEC65DF6E0
:1055F0003A3403F2A238E3062AEA72F35A260FB1CC
:10560000F3D1DC73DE72A2FD101D77F3DA06347677
:105610007F5DC298C2C6B6D6F7D0000B646A62003E
:105620009BEBF0135D9D0AEE22F0FBED2F50082955
:10563000B51EE027F30F103D168C3B65448D230A01
:105640008465EEB71F2BADDABEF211E8B1E4530763
:105650001AC1BCB5F0A1E78912D554E461839282E6
:1056600016668A0A93C62CEA6E9CB67B957163BD5A
:10567000667E41F1664F17D1BBF65C1751401E7232
:105680007FCDA88D55244BA8A174536CE7F9AFF3D7
:1056900010F5FE5258E3E879E68A6D32003BCE55AC
:1056A0006CD071B1734461C0E97C52BE52A9C95635
:1056B0000DAC71448E5254150D3E86C7542C87058F
:1056C000F34ABB750A3031EA3D58783267B4671641
:1056D0007CA40D3E47D6E607E57E2A317DBBCCBFD4
:1056E000398FA20523CD9D30CD301F89038D95E8DC
:1056F00046EDD395B04B3577F7B519BF87A8D0EAFB
:10570000509F9EE00B40B759820CA99964C9544E32
:105710009E6B5CEF4FAC8B20C451C45E2B5FA8BA6C
:10572000DD1D441B83CFFD9D53366B2E8C45A4AFEE
:10573000AE528C6305C60E5087203415367A361C5F
:1057400094FC9ED0E1EE7D0948D39A4CF80777B8D7
:1057500075A9A0309B548016F54CB4B455938D5860
:10576000B389ABF102356A9820C4148A01DA358610
:10577000CADDC977959F827EA6725846DB5AC6A7B6
:10578000ACEB2725233D97E0A15D124B625789477B
:105790009856662C513947E27C35445E4FEBC96F11
:1057A0001201CA38F87914827A68651A232B0CB46E
:1057B000C1F71087C8DB3B7206F3B478BCD7DC3E78
:1057C000C9C9A127AD9199E92F3E033D35377A4CE0
:1057D00017F7E8F0549EF2E5286B21FD79BECC5610
:1057E0000D9FD544EDC9C939D54B6E4AD0D513C2EA
:1057F0001619DC2D1E880FDC4A09757F560D7B4378
:10580000B69ECA8991FE509A8AD63684B38AA87801
:1058100037B41A9BC26528236B8A64BC8F56656DAA
:1058200066BC94222E3391B85E7F8B27FEC25E89C0
:105830001773E34D2CB032B8CCA8DC79DE6FB2140C
:105840005F0714A990252F337D6E06525540F46AE8
:105850000CC1C66151D9D0AB064A95E52433434EFD
:10586000938342B7A28892FE30D899BFE437AEA5A1
:10587000B1A04A8552C26BA71404B56541E7FC5933
:10588000DA2F17D41F5070A91505771CA1EBB1DFD3
:10589000B0956F6802CC84594124E8214EF33BC88F
:1058A0004D1BABADE0CD066583422FDDAFF37348F2
:1058B000EEB2709C30822967A7B117D374B9EABBE6
:1058C000448E816A13080F71B462F0FD131910B28F
:1058D00044549E96AF82A483C3031FC72E2DB8F4F1
:1058E0006A2EA69523CED0CA0572FF4E92DCB7F77A
:1058F000E08D2ADE59E2407BDDC111C3EBA27F9A25
:105900006D2516C308BEE182C3AA93173EF0A070AE
:10591000654809CC4CE8E6DDF660D70435CA0F2DA2
:105920003064A0C8078A5B2EFC1B039F938BB9D100
:105930001EB18F633107547B607AB594C2850539F7
:105940007BE529E57CDD78156832199C655D29C207
:10595000A52673DD765CE0E69113ACED1EDA70A34C
:1059600019594D4CD4AA7C375AF1797527ADCC71B1
:10597000648D2F19E2523BE6B9555A4FE70AD5E339
:105980004B9F958EA574A361B3BF78676D16AE5417
:105990009FE1FCFEC507B62FA7080941A3ACCC5771
:1059A00040D0332DFF008B94675ADA6DFD2632818B
:1059B000C77C01C92F199A0501199A5A9337C78DC7
:1059C000670B986DCAFA4539F76BC8F0DA6CAFC34C
:1059D000B14BC5EE33C2EC87E7C35C3127275CB718
:1059E000ADDAD2B26838A278FA7047F97F2258AAA5
:1059F0000FD45E3DC80A6BAA468C6EF7CA943A2B48
:105A00009633314FCF5ACC0D1023CC12FE49714042
:105A1000E132B59F55FFF5F8D8F71F3497BB95F8DD
:105A2000FD8FB3A065A30B5F67B8E1AA534BB683A4
:105A30001C779E16B42F557D1FB0D79A797A86A20F
:105A4000ACC28530DEEEB8755CA09375E5D204DF9C
:105A50006EDD81D8D31929ADB65FD1018B32530DDC
:105A6000D9F11BEB364A43185D19EAA48E54306114
:105A7000C8371F539C50452998487E5AB2E0C3AAA4
:105A8000C728BC884BFA600AD3A3B474EF8ABE81DE
:105A900079AE811ACBB8D398280ED70288A33643A3
:105AA00008EDAB71AF7C672E48CDC1FF9EB1B178D8
:105AB000A28156883436410784A57AAF9CD4671AF0
:105AC0001229610924B93AA47A6E5D3F006EF7B1DC
:105AD000C5EF3DF1A8CE7C17501060B0C6F50D1B88
