:020000040800F2
:1000000000100020B9020008591200085912000817
:100010005912000859120008591200085912000814
:100020005912000859120008591200085912000804
:10003000591200083C7901085912000859120008A9
:1000400059120008591200085912000859120008E4
:1000500059120008591200085912000859120008D4
:1000600059120008591200085912000859120008C4
:1000700059120008591200085912000859120008B4
:1000800059120008591200085912000859120008A4
:100090005912000859120008591200085912000894
:1000A0005912000859120008591200085912000884
:1000B0005912000859120008591200085912000874
:1000C0005912000859120008591200085912000864
:1000D0005912000859120008591200085912000854
:1000E0005912000859120008591200085912000844
:1000F0005912000859120008591200085912000834
:100100005912000859120008591200085912000823
:100110005912000859120008591200085912000813
:100120005912000859120008591200085912000803
:1001300059120008591200085912000859120008F3
:1001400059120008591200085912000859120008E3
:1001500059120008591200085912000859120008D3
:1001600059120008591200085912000859120008C3
:100170000348044B834202D0034B03B11847704736
:10018000201900202019002000000000064B07491C
:10019000C91A891048BF0131491003D0044B0BB173
:1001A00001481847704700BF20190020201900207F
:1001B0000000000010B5064C237843B9FFF7D8FFC4
:1001C000044B13B10448AFF300800123237010BD2A
:1001D000841A002000000000B079010808B5054B22
:1001E0001BB105490548AFF30080BDE80840FFF7A3
:1001F000CDBF00BF0000000020190020B079010829
:10020000A3F5803A704700BF174B002B08BF134B74
:100210009D46FFF7F5FF00218B460F461348144A11
:10022000121A01F0C6F90E4B002B00D098470D4B67
:10023000002B00D098470020002104000D000D483D
:10024000002802D00C48AFF3008000F0D7FB20005C
:10025000290000F089FA00F001FB00BF000008004F
:100260000000000000000000001000202019002005
:10027000881A002000000000000000000346054A24
:100280000549106803448B428CBF4FF0FF30136068
:10029000704700BF00100020000004200348044AFB
:1002A0000449121A921000F0D8BF00BFE48201087E
:1002B000E4820108881A002008B500F02FF8FFF743
:1002C000EDFF124B12498B4212D30020114B124901
:1002D0008B4218D3FFF798FF186850F822405868EF
:1002E00040F82240013298688242F5D30C33EAE7A5
:1002F0000022F8E71C6844F8220001325C68A24240
:10030000F8D30833E4E70022F8E700BFB879010822
:10031000C4790108C4790108C47901084FF4804107
:100320004FF0FF30114B124A10B59A60D3F8882075
:1003300042F47002C3F888200E4A91660E4901F516
:10034000005210660D4850660220C3F8D000BFF37B
:100350004F8FBFF36F8F01244FF440330848C0F82C
:100360008041D36004600B6110BD00BF00ED00E070
:10037000000000080090005000800044F7FF3700A4
:1003800000E100E008B5B0B14FF480620B4B9A6613
:1003900000F088FF4FF098435A6CD202FCD54FF41E
:1003A0008062586D064B10F470209A6604D0BDE848
:1003B000084000F098BF212008BD00BF0090005009
:1003C00000A0005010B5044668B161B10023074A8F
:1003D0008360C0E90023C36100F05BFF2046BDE8F5
:1003E0001040FFF7CFBF212010BD00BF0000024327
:1003F00010B5044668B161B10023074A8360C0E9C3
:100400000023C36100F045FF2046BDE81040FFF720
:10041000B9BF212010BD00BF0000034370B50E46D8
:100420001546044686B0D0B1C9B1C2B100230D4A09
:100430008360C0E90023C36101AB039301230493EC
:10044000094B03A9059300F01AFF2046FFF79AFF16
:1004500018B9019B3360029B2B6006B070BD212050
:10046000FBE700BF00000443080000201FB504465E
:1004700098B191B100230A4A8360C0E90023C361A7
:10048000012301910293074B01A9039300F0F7FEAA
:100490002046FFF777FF04B010BD2120FBE700BF27
:1004A000000008430400002010B5044600F0E0FE00
:1004B000024B1C6000F0E0FE002010BD3819002047
:1004C00010B500F0D5FE034B1C6800F0D5FE2046A9
:1004D00010BD00BF3819002013B5002301241A46AF
:1004E00019461846009400F0CBF8002300941A46F1
:1004F0001946184600F0F6F80248FFF7D5FF00202D
:1005000002B010BD0410002008B5124BA822002133
:10051000184601F04EF803220346026142610E487C
:100520000E4A98614FF48061DA61002219629A6282
:100530005A62DA6218660A485866996609491A6763
:10054000DA665A6711F8010D98540132102AF9D170
:1005500008BD00BF78180020297801087814002011
:1005600078100020427801082DE9F84FDFF88080EC
:10057000824698F800308946532B164601D0FFF783
:10058000C3FF182707FB0A873D6FD7F86CB05D459E
:100590002BD9BC6E796E641BB44228BF34464846E2
:1005A0002944224601F010F8BB6E2544AB4208BF37
:1005B0000025A144361BABEB050B5E4528BF5E460C
:1005C00056B1182303FB0A83596E32462944484624
:1005D00000F0FAFF3444354424B1182303FB0A88A1
:1005E000C8F870502046BDE8F88F0024E3E700BF4C
:1005F00078180020F8B5182700FB0775124B0E4637
:100600001D4407FB0033DB6A1446012B0AD0022B82
:1006100014D023B9284600F0FEFE844208D90024F5
:100620002046F8BD284600F0F6FE844228BF044666
:1006300022463146284600F0F7FEF1E72846BDE89D
:10064000F84000F00CBF00BF78180020F8B50B4B45
:1006500004461B780D46532B164601D0FFF754FF76
:10066000EFF311874FF0200181F3118832462946BC
:100670002046FFF7BFFF87F31188F8BD78180020E8
:100680002DE9F041164C1E4623780546532B88462B
:10069000174601D0FFF738FF022D1DD8EFF3118C5C
:1006A0004FF0200181F3118865B1182005FB00038C
:1006B00044F80380E2180023576000FB05421662ED
:1006C00093625362182303FB0544069BE3628CF399
:1006D00011880020BDE8F0814FF0FF30FAE700BF3D
:1006E000781800202DE9F843154E1F46337805464B
:1006F000532B8946904601D0FFF706FF022D1BD8E9
:10070000EFF311824FF0200181F3118855B11824C5
:10071000002304FB0564C4F86090C4F86480A766F5
:100720002367E366182303FB0566089B736782F360
:1007300011880020BDE8F8834FF0FF30FAE700BFD2
:10074000781800204FF4005382B00193019B5A1E89
:100750000192002BFAD1034A136923F004031361B9
:1007600030BFF9E700ED00E0F0B58DB000212022A8
:1007700004A800F01EFF4FF0FF344FF480322C4BE2
:1007800001945A664FF480629A66FFF7A5FE00F066
:10079000A6FD04A800F0D5FD03AA02A904A8CDE98E
:1007A0000244FFF73BFEDDE90212224800F00CF99B
:1007B000214D01A904A8FFF759FE01991F4800F037
:1007C00003F9EC681E48214600F0FEF8019B24F076
:1007D0007F4423F07F43A34204D31A4800F006F974
:1007E000FFF7B0FF184F194E3B681B68B34201D1A9
:1007F0001748F3E704A800F0A4FD294604A8FFF772
:10080000E1FD04460146134800F0DEF84CB93B68B0
:1008100029461E6004A8FFF7EBFD01460E4800F0D4
:10082000D3F804A800F097FD00F05BFDD8E700BF07
:100830000090005043780108A01A0008827801084F
:100840009A780108BA78010810100020EFBEADDEDA
:10085000E4780108087901082079010808B5064BF9
:10086000044613B10021AFF30080044B1B6803B1B1
:100870009847204600F09FFD00000000741A0020F9
:10088000002310B504468360818119464366C28106
:1008900008228361C0E90033C0E904335C3000F012
:1008A00088FE0D4B246263620C4BA3620C4BE36227
:1008B0000C4B23630C4B9C4206D003F1680294421C
:1008C00002D0D0339C4205D104F15800BDE810405D
:1008D00000F077BE10BD00BF6F1800089118000827
:1008E000C9180008ED1800083C190020024A034905
:1008F000034800F0EBBD00BF141000201F180008D3
:100900002410002041680C4B994210B5044601D0D8
:1009100000F085FFA168094B994202D0204600F003
:100920007EFFE168064B994204D02046BDE81040A6
:1009300000F075BF10BD00BF3C190020A4190020B5
:100940000C1A002010B50B4B04210B4C0B4A20460F
:100950001A600022FFF794FF04F1680001220921C8
:10096000FFF78EFF04F1D00002221221BDE81040F3
:10097000FFF786BF741A00203C190020ED0800081C
:10098000014800F01FBE00BF861A0020014800F099
:100990001ABE00BF861A002010B50446FFF7F0FF0C
:1009A000236A1BB1BDE81040FFF7F0BF044B236280
:1009B000044B1B68002BF5D1FFF7C4FFF2E700BF23
:1009C00005090008741A00200FB407B5064904ABE6
:1009D000086853F8042B8168019300F033F803B0E2
:1009E0005DF804EB04B0704720100020024B014674
:1009F000186800F089BD00BF2010002070B50D4DB3
:100A000000260D4C641BA410A64209D10B4D0026F4
:100A10000B4C01F025F8641BA410A64205D170BD53
:100A200055F8043B01369847EEE755F8043B01368C
:100A30009847F2E77010002070100020701000201E
:100A4000741000202DE9F04F0D469DB014469846D5
:100A5000064618B1036A0BB9FFF79EFF6B6ED90704
:100A600005D4AB899A0502D4A86D00F0ABFDAB8923
:100A70001B0701D52B699BB92946304600F0D4FAF3
:100A800070B16B6EDC0704D54FF0FF301DB0BDE8D0
:100A9000F08FAB899805F7D4A86D00F094FDF3E7CB
:100AA0000023CDF80C804FF00109DFF8B4810993E1
:100AB00020238DF8293030238DF82A3023469A469A
:100AC00013F8012B0AB1252AF9D1BAEB040B0BD08C
:100AD0005B4622462946304600F09AFD013000F080
:100AE000A780099A5A4409929AF80030002B00F026
:100AF0009F8000234FF0FF320AF1010A049307930D
:100B00008DF853301A93CDE90523544605225448F5
:100B100014F8011B00F08DFF049AD8B9D10644BF28
:100B200020238DF85330130744BF2B238DF8533007
:100B30009AF800302A2B15D0079A544600204FF01F
:100B40000A0C214611F8013B303B092B4BD9B0B1BF
:100B5000079214E0A0EB0803A24609FA03F313433B
:100B60000493D2E7039B191D1B68002B0391BBBFA5
:100B70005B4242F0020207930793B8BF04922378C6
:100B80002E2B0AD163782A2B32D1039B02341A1DF3
:100B90001B6843EAE37303920593DFF8D4A00322B2
:100BA0002178504600F045FF38B1A0EB0A00402202
:100BB000049B013482401343049314F8011B062262
:100BC00028488DF8281000F034FF00283FD0264B2D
:100BD0001BBB039B073323F0070308330393099BD5
:100BE0003B4409936AE70CFB02320C460120A8E75C
:100BF000002301344FF00A0C19460593204610F8E3
:100C0000012B303A092A03D9002BC6D00591C4E73D
:100C10000CFB012104460123F0E703AB2A4604A99B
:100C200030460093114BAFF300800746781CD6D1B5
:100C30006B6ED90705D4AB899A0502D4A86D00F074
:100C4000C2FCAB895B063FF51FAF09981EE703ABFB
:100C50002A4604A930460093044B00F0ADF8E4E7BF
:100C60007C7901088679010800000000111600084F
:100C70008279010870B50F4E0C460546316811B9EE
:100C800000F07EFA30602146284600F079FA431CD5
:100C900003D14FF0FF34204670BDC41C24F0030480
:100CA000A042F8D0211A284600F06AFA0130F2D1A9
:100CB000EFE700BF781A00202DE9F843CD1C064667
:100CC00025F0030508350C2D38BF0C25002D01DB60
:100CD000A94204D90C2333600020BDE8F883DFF873
:100CE000D48000F095F9D8F800301C4644BB294662
:100CF0003046FFF7BFFF431C044658D1D8F80040E8
:100D00002746002F43D1002C4BD02368394630466C
:100D100004EB030900F034FA814542D121683046E2
:100D20006D1A2946FFF7A6FF01303AD023682B44FD
:100D30002360D8F800305A6862BBC8F800700FE032
:100D40002268521B20D40B2A17D96119A3422560AF
:100D500018BF5960636808BFC8F8001062514B6043
:100D6000304600F05BF904F10B00231D20F0070072
:100D7000C21A1CBF1B1AA350AFE76268A3420CBF84
:100D8000C8F800205A60EBE723466468AEE73C46AB
:100D90007F68B6E71A465B68A342FBD10023536025
:100DA000DEE70C233046336000F038F994E7056045
:100DB000D6E700BF7C1A00202DE9FF470F7E914641
:100DC00080460C46782F9A460C9E01F1430207D8C4
:100DD000622F0AD8002F00F0DD80582F00F0C3806A
:100DE00004F1420684F842703AE0A7F16303152B40
:100DF000F6D801A151F823F0510E0008650E000845
:100E0000E10D0008E10D0008E10D0008E10D00080A
:100E1000650E0008E10D0008E10D0008E10D000875
:100E2000E10D00087B0F0008F30E0008330F0008E7
:100E3000E10D0008E10D00089D0F0008E10D00081C
:100E4000F30E0008E10D0008E10D00083B0F00085B
:100E500033681A1D1B68326004F1420684F8423080
:100E60000123A8E031682368081D30601E0601D503
:100E70000D6803E05D06FBD5B1F90050002D6168F7
:100E800078DA2D200029A16084F843002DDA6D4224
:100E90005D480A231646B5FBF3F103FB1157C75D06
:100EA00006F8017D2F460D46BB42F4D9082B0BD125
:100EB0002368DF0708D5236961689942DEBF3023C4
:100EC00006F8013C06F1FF36921B22614B4603AA4D
:100ED00021464046CDF800A000F0ACFB01306FD1B8
:100EE0004FF0FF3004B0BDE8F08723F00403236027
:100EF000CDE721683368080653F8045B02D449063D
:100F000048BFADB26F2F33603F4814BF0A23082398
:100F1000002184F843106668002EA660BADB2168C1
:100F200021F004012160002DB4D1002EB2D116466B
:100F3000BCE7236843F02003236078273348236805
:100F400084F845701F06316851F8045B02D45F06CF
:100F500048BFADB23160D90744BF43F020032360DE
:100F60001DB11023D4E72848E9E7236823F02003C4
:100F70002360F6E724480A23CDE733682568181D67
:100F8000616930602E061B6801D5196002E06806B1
:100F9000FBD5198000231646236197E733680021AB
:100FA0001A1D32601E686268304600F042FD08B1CA
:100FB000801B606063682361002384F8433085E709
:100FC0002369324649464046D047013088D02368DD
:100FD0009B0714D4E068039B9842B8BF184681E78A
:100FE0000123324649464046D04701303FF478AFAE
:100FF0000135E36803995B1AAB42F1DCEAE70025AF
:1010000004F11906F5E700BF8D7901089E79010802
:10101000014800F0D7BA00BF851A0020014800F04F
:10102000D2BA00BF851A002038B5294B05460C46B8
:10103000186818B1036A0BB9FFF7AEFCB4F90C30AD
:10104000190722D4DA0607D409222A6043F04003A4
:101050004FF0FF30A38133E0580712D5616B41B1E7
:1010600004F14403994202D0284600F0ABF8002373
:101070006363A38923F02403A381002363602369AE
:101080002360A38943F00803A38123694BB9A38993
:1010900003F42073B3F5007F03D02146284600F007
:1010A0008CFCB4F90C3013F001020AD00022A260CB
:1010B00062695242A261226942B913F08000C5D12F
:1010C00038BD990758BF6269A260F4E70020F7E7CE
:1010D0002010002038B50023054D044608462B603B
:1010E00000F067F9431C02D12B6803B1236038BDBF
:1010F000801A002038B50023064D044608461146E4
:101100002B6000F059F9431C02D12B6803B1236016
:1011100038BD00BF801A002038B50023054D0446B5
:1011200008462B6000F04DF9431C02D12B6803B137
:10113000236038BD801A002038B50446064D0846A5
:10114000114600222A601A4600F03DF9431C02D1E4
:101150002B6803B1236038BD801A002038B50446DF
:10116000064D0846114600222A601A4600F02DF965
:10117000431C02D12B6803B1236038BD801A0020C4
:1011800038B50023054D044608462B60FFF776F876
:10119000431C02D12B6803B1236038BD801A0020A4
:1011A00038B50446064D0846114600222A601A4604
:1011B00000F019F9431C02D12B6803B1236038BD3C
:1011C000801A002038B50546002941D051F8043C6A
:1011D0000C1F002BB8BFE418FFF71AFF1D4A136855
:1011E00033B9636014602846BDE83840FFF716BF86
:1011F000A34208D9206821188B4201BF19685B6897
:1012000009182160EDE71A465B680BB1A342FAD9D1
:1012100011685018A0420BD1206801445018116089
:101220008342E0D118685B68084453601060DAE7D5
:1012300002D90C232B60D6E7206821188B4202BF0D
:1012400019685B680918636008BF21605460CAE7C9
:1012500038BD00BF7C1A0020FEE710B53AB100236C
:1012600050F8234041F8234001339A42F8D110BD91
:10127000EFF3108072B6704700B962B670478368AA
:1012800013B9816070475B685A68012AFBD15960C5
:101290007047C369032B9FBF00EB83020133D1600A
:1012A000C3617047C369042B14D84FF09842116C86
:1012B000C902FCD504339B0013650168103B116023
:1012C0004168116050F8081F11604FF098420344C4
:1012D000984200D1704750F8041F1160F8E70020D1
:1012E000704700207047B0F5802F22D010D8B0F59D
:1012F000003F20D007D818B3B0F5803F08BF482082
:1013000018BF01207047B0F5403F08BF2C20F7E719
:10131000B0F5302F11D007D8B0F5E02F0FD0B0F5D1
:10132000202F08BF1020EBE7B0F57F0F08BF062085
:10133000E6E74B2070472A20704711207047212094
:10134000704708B528B12022002100F032F90020B2
:1013500008BD2120FCE708B1FFF7F3BF212070474B
:1013600070B50C46154610B9FFF7AAF838B14368B6
:101370002BB12A462146BDE870400068184723205B
:1013800070BDF7B50D4616461C4648B103B901AC11
:1013900087685FB12346324629460068B84706E0B1
:1013A000FFF78EF804B901AC0028F1D1232003B077
:1013B000F0BD00207047FEE74FF4005300204B6063
:1013C0007047012070470020704707B5002001AB2F
:1013D0000190FFF7D6FF0198002808BF4FF0FF30BB
:1013E00003B05DF804FB10B514460020FFF7B8FF0A
:1013F000204610BD10B500201C4600F059F800280A
:1014000020600CBF1B20002010BD08B50020FFF796
:101410001DF9002008BD0369C26893429CBF816822
:101420005B18013B981A70472DE9F041D0E902841E
:101430000546A8EB04064068964220440F46144433
:1014400004D900F0C1F8EC60BDE8F0813246A4EBAD
:10145000080400F0B9F822466868B919F1E72DE9E7
:10146000F8430646894617464FF00008C5683369B9
:10147000B4689D4228BF1B19641BBC4228BF3C4670
:10148000013B5B1B9C4228BF1C46706849462844B0
:10149000224600F099F8B3682544AB4208BF002506
:1014A0003F1BA044A144F560E1D14046BDE8F8836C
:1014B00010B50B46EFF311844FF0200181F3118832
:1014C0001946FFF751F884F3118810BD2DE9F84350
:1014D0000746884614460026D4E90195B9F101096A
:1014E00005D52468002CF7D13046BDE8F883AB89D8
:1014F000012B07D9B5F90E30013303D02946384600
:10150000C04706436835E9E7036A70B505460E46ED
:1015100084680BB9FFF740FA636EDB0705D4A38933
:10152000980502D4A06D00F04DF8A389190702D5E3
:101530002369002B35D121462846FFF775FD80B37E
:101540004FF0FF35636EDA0705D4A3899B0502D4FB
:10155000A06D00F038F8284670BD002B15DB23681D
:101560005A1C22601970A36816F8011F013BA36082
:101570000029F2D1002B16DA22460A21284600F073
:10158000B9F90130DCD00A25DCE7A2699A4201DC16
:101590000A29E4D12246284600F0ACF90130E2D114
:1015A000CEE7013EDFE723685A1C22600A221A7048
:1015B000E9E702440346934200D1704703F8011B58
:1015C000F9E77047704770470A44431E914200D1C3
:1015D000704710B511F8014B914203F8014FF9D152
:1015E00010BD9368013B002B936010B408DA946936
:1015F000A34201DB0A2903D15DF8044B00F07AB95C
:101600001368581C1060084619705DF8044B704749
:10161000F8B506460F461446D518AC4201D1002055
:1016200007E03A4614F8011B3046FFF7DAFF431C87
:10163000F3D1F8BD2DE9F047164698468A6807466B
:101640000B690C46DDF820909342B8BF1346336017
:1016500091F843200AB1013333602368990642BFF1
:10166000336802333360256815F0060506D104F1AE
:10167000190AE36832689B1AAB422BDC94F84330BA
:101680002268003B18BF0123920630D404F14302C4
:1016900041463846C847013023D023681A3454F8ED
:1016A0000A2C03F00603042B0ABF54F80E5C002535
:1016B00033684FF0000608BFED1A54F8123C08BF1B
:1016C00025EAE5759342C4BF9B1AED18B5421AD1BD
:1016D000002008E00123524641463846C847013001
:1016E00003D14FF0FF30BDE8F0870135C1E7E118C5
:1016F0005A1C30200233224481F8430094F84510EC
:1017000082F84310C2E70123224641463846C847C3
:101710000130E6D00136D9E7B1F90C202DE9F041CE
:10172000170705460C4656D44B68002B02DC0B6CA1
:10173000002B3DDDE66A002E3AD0002312F48052E1
:101740002F68216A2B6025D0626DA389580705D5C3
:101750006368D21A636B0BB1236CD21A216A00231F
:10176000E66A2846B047411C24D000236360236901
:101770002360A389DA0400D56065616B2F60B9B17D
:1017800004F14403994202D02846FFF71BFD0023D1
:1017900063630DE001232846B047461C0246D4D1BE
:1017A0002B68002BD1D01D2B01D0162B2AD12F60F6
:1017B00000202EE02A68B4F90C3042B11D2A01D075
:1017C000162A21D10023636023692360D5E7626074
:1017D00022692260CEE70F69002FE9D093070E68D7
:1017E0000F600CBF4B690023A6EB07088B60B8F1B4
:1017F000000FDDDD43463A46216A2846A66AB04717
:10180000002808DCB4F90C3043F040034FF0FF30FF
:10181000A381BDE8F0810744A8EB0008E7E738B5ED
:101820000B6905460C4613B90025284638BD18B18A
:10183000036A0BB9FFF7B0F8B4F90C30002BF3D002
:10184000626ED00704D4990502D4A06DFFF7BAFEEA
:1018500028462146FFF760FF636E0546DA07E4D4A9
:10186000A3899B05E1D4A06DFFF7ADFEDDE710B5C0
:101870000C46B1F90E10FFF771FC0028ABBF636D89
:10188000A3891B1823F48053ACBF6365A38110BDEB
:101890002DE9F0411F468B8905460C46DB051646AF
:1018A00005D502230022B1F90E10FFF745FCA389EC
:1018B0003246B4F90E10284623F48053A3813B46E8
:1018C000BDE8F041FFF76CBC10B50C46B1F90E1045
:1018D000FFF732FC431CA38915BF606523F48053D6
:1018E00043F48053A38118BFA38110BDB1F90E103A
:1018F000FFF7F0BBF8B50E461446054618B1036A6B
:101900000BB9FFF749F8A369A360A3891A0701D5AA
:10191000236943B921462846FFF786FB18B14FF0EB
:10192000FF373846F8BD2368F6B222693746981A61
:101930006369834205DC21462846FFF770FF0028D3
:10194000EDD1A368013BA36023685A1C22601E707E
:10195000431C62699A4204D0A389DB07E1D50A2EB1
:10196000DFD121462846FFF75AFF0028D9D0D6E715
:1019700070B50C46B1F90E1096B0154600291E46FA
:101980000CDAA389002113F0800F14BF40234FF419
:101990008063002031602B6016B070BD6A46FFF78F
:1019A000A9FB0028EDDB019901F47041A1F500537A
:1019B000594259414FF48063EBE78B89F7B59D0796
:1019C00006460C4607D504F1470323602361012333
:1019D000636103B0F0BD01AB6A46FFF7C9FF009F2A
:1019E000054630463946FFF767F948B9B4F90C3077
:1019F0009A05EED423F0030343F00203A381E2E748
:101A0000A389206043F08003A381019BC4E90407FC
:101A10005BB1B4F90E103046FFF77EFB28B1A38905
:101A200023F0030343F00103A381A3891D43A58190
:101A3000CFE7C9B20346024410B59342184601D11C
:101A4000002003E0047801338C42F6D110BD000081
:101A50000000000000000000000000000000000086
:101A6000F8B500BFF8BC08BC9E467047F8B500BF8B
:101A7000F8BC08BC9E467047000000000000000053
:101A80000000000000000000000000000000000056
:101A90000000000000000000000000000000000046
:101AA000EB17A65E815D0100E45C01000502020304
:101AB0000101000073602115CA96DAD75338B63495
:101AC00020172BF41B7CB0BAFEF7A5CDE0DDCB00D0
:101AD0003AD38747D0391D58969E2D19412582C883
:101AE000E1D255EFFB448068810D0670BF83899673
:101AF000B0FA8B76CA599B852CF69A6E957D19D4CF
:101B0000557AAEC800C88176479E356A405F47BCAB
:101B10009EB51B04372894479848746438331A05D7
:101B200036637B960A9DE4AB0B39DE77FF9E4A2B2A
:101B30009FA7E94E1CA9CEBE26122C11C430E95F26
:101B4000D9C530BC0A20234D6C8CA2B5921301C4B8
:101B50006E642F5F8F5F62DDD6B2C9CAB087EFB8FF
:101B6000646CE9F42B98C133D148755C2F8DED8EF0
:101B7000CAD3D49335E185AF12BCE66786DA2FC0AD
:101B80009A8887A046CDA6CE658FF70026BF7BED4D
:101B9000419B51FA962A9B97767C00D99D5EA02E98
:101BA0007FBDDAA2D0A54DC303581FB47346D7E654
:101BB00055EA1E96E2C21A0741FBA4F5F9616425B5
:101BC000646EE93692A770D80E2B84AEF40F355DA3
:101BD000098B940FD1A7D116A69BFC9F5736CA86B6
:101BE0007B81E4900DEA503D6C30D92D5B2F067E51
:101BF000B54EF6072A8945D78576F7CEACBDDBFC16
:101C000081476AD36DC26250ADD3DA3EB587A55D18
:101C1000331F1BADBC3D3A75DB2AA51AED29A4B1D3
:101C2000C17BE90FBBF808452407C6DFA7BC78B421
:101C30003DF19B714B55821367179AC2372664CECC
:101C4000E9A292C8FD2387E6B1D6870644C12F37A3
:101C500016AA57BDF321B6E52C91F4C9F8622A5EA5
:101C6000CFBD268F312E9E4B25BBD3480BFEE00502
:101C70001D1044082BC947192E86497FBBB8C931AE
:101C800070BFC937815744DD8C1261D58DF381E86F
:101C900071D106DE3E7E91F67D3A0520C3932B047A
:101CA00046E62620E855FC20503B568A21617744C1
:101CB000F436FD2C203CE303B2C2F3BD4F47CC6D9C
:101CC000CB34237B19B308FA674904EBE696080E78
:101CD000B9DC5741B2BC153B490B02CC694947AF4F
:101CE000BBAC37C988907557FB17DCC19DEC6C40C5
:101CF000B0BAE7AE6EF76E7200B202D29BD6CCC914
:101D0000A527447763B4AEF16D55E4D4723EBA03AF
:101D100041E39EF2309CAC80B81441E274FE523D27
:101D2000EB8064DB52E767F8090C35243FF8856ADD
:101D3000B49D038A2F62C64FEF42243A84B387DBF7
:101D4000501AFAD9A0E827B003302C3354EFE2261A
:101D5000C6E2FBFA388F60D0C67DE0B9FDD74DD61C
:101D600072E15DAF2C81746802479C42CAD5D5DF11
:101D7000A446D1E328C2195077D8F06416E0AE7BB0
:101D80000652050620D01605312441A7C270DDD5C4
:101D9000E4FD34CD4D5B103AE1223A39FA29AAF636
:101DA0004FA4ABA0B5F8CBB47351F40DADBCD93E84
:101DB0005C27009C39CC72D3B75E42C0BED504CC40
:101DC0000D21B10E85611BA02BE1C469470A8ECDA0
:101DD000FA51CCEF2E9F6C00F8E8032297E0E7520F
:101DE00071D911CEB633449181F22031DBCC5671DA
:101DF000F7FD52964AF69FF4678011447CE182D643
:101E00007F285668FFB1DA23D028B3BD51A74FCA47
:101E1000EA3CA82DF346915792B8AF761944BDF02D
:101E2000FDD8BBAEE72FD857E65E048509723012A5
:101E3000E14F0F590F94FA6733A11611C6B9E1C1EA
:101E4000AE71B91A81A87ECD50EF0FC6CCDAA68349
:101E5000C9C31D57C6AEFB9A164E58A02194E71D64
:101E60009E884916EE5B1F3978D27AF4C9A66ECBEC
:101E7000D8E850299EB088EB451B806EF1FED2A6B3
:101E8000EAE11C789C93A80CD12D46CBDA10AE7DEC
:101E9000EEABC96538FFC34D1BAAD26ECBCF95B947
:101EA0008334ECD037BD263CA9323C39737DFE9E8D
:101EB0000814554035FD1B825B09C6A603DDCC0B1B
:101EC000602C8E9F5F0761F3BD710AB9BF76C805AC
:101ED000A97E559C414F901AB99117A72B35C57C07
:101EE00033B354609D389EB39C418D9FFBCF0694C5
:101EF000B59F3C0382A3395F690B7D1CBB70B4CCDA
:101F00008E91EA81F13D40A5DBB7AA30D1D6276D8D
:101F1000AD11608DA2525989361F1730DA663DDD4A
:101F2000FF6B428A97615B71FC16BAF548ABE4F32C
:101F300074BFE6DB3D137E68518E136206AC77B248
:101F40002577EF99B781F1B9C504F6B81638AFC750
:101F5000B11AA8F5CAE44B106D4108FB7CDCED0416
:101F60003ACCC966C165E3C3CAEFBAF3CA926392B9
:101F70007ADA10E5E3822CDCC72B5838D22F4D7962
:101F8000052458C7631A975151EC1E77820D91535F
:101F90003DF6D9941A9C62AEF261C6C0F2798945C9
:101FA0003BB6DF871CCF2D9CACB57CC390405E1444
:101FB000223001CA06098CACD11F5C76C80824897E
:101FC00027B8CADD27106B3491C6BDE8D9207BC77E
:101FD000970D8DE0BB9C76CB5C30A9363D30AA1ABC
:101FE0008B5A05A057AFE68361100CE1C65DB48043
:101FF0000B52328410580109E554684F003574CFF4
:10200000767703DC9C9C068EED3D5A2FA31932494E
:102010009F24F9F98E3DF08B4C7B8E61EC094F19B2
:10202000C62C7C2FE93088750CDD1C54DBE394E46E
:102030003F77A049D1AAFE87E02548D9C516AC78DC
:10204000841998109D97D7D5CBF03368FE7C331454
:10205000918922BF73C7C258D4105C2D9A7A5C62F2
:10206000DD3235823883E1C3B42BFB29FA5E921B43
:1020700039310ECDE9E2F7E4C62AB5AC4F77EFBDB2
:1020800024F89023F2BC6C76C02C7DCB33C6B754B9
:10209000962ECCC0458107F3C058FD3B3089DCB695
:1020A00075D71CC85FD0ABF6C3F9350588067F2904
:1020B0009F8CE000EEFFA8DF1599854D082F4A2C74
:1020C000CC3A1A7E3F3439BB7059BA1BF1D33FB4B6
:1020D00087877E8BA77E71ADF0DBEA35C2C7A88209
:1020E0000DF6F528A496AB638FAA8797EA2B855245
:1020F0002B613D527F5AA319A79A609367A917983D
:102100004353C300C6FFB050CB48A0F66DA4E4090A
:102110007DC7552B75503C834E993A9BCFBB08BF6A
:10212000A627725D6643A078246EAC7277BEF583F5
:10213000B8D77EDD190AFDE46333B79F346B039192
:1021400021FB8D399638A54A0C90A742185D42C2F2
:1021500026FE8D195C91A4AF318FE934B26BD1E5C5
:10216000035A4F1C138C56F6909045BC154C0D82AB
:10217000EEC66FC8218A33181BDE7903FE32C2C94E
:1021800076B8104C2B7A2F1D405BF2F3A553141236
:102190001E699ED6DCAAE14F759955AC943EF74175
:1021A0002A74D8ABB36A357210E9DA0DDE3CBA2B6B
:1021B0009DE6A71AFA4BF22B3D684E889B81A974C5
:1021C00089737983AF1177639AD796592C3D705CE8
:1021D000393D3520933D44AE1B95AEB094CA1337BC
:1021E00096F8022888AE01112674C1BA1B168F1FFB
:1021F0008AC49AC45993CAE63D0126F8E2E2CDAFFB
:102200001B7F68A2AB42F6644B30688CB650A6398F
:102210005B399A21852E34AC7E624FDB213BDE9800
:102220005E44CA6679B342B4BF409A8F573BA41943
:102230005BDDED7EAB7B3DA28C88A2E69006394A41
:1022400016B403F22CC432FBC4E9DAF28BBDCA54D3
:10225000EB05B0C30789F9D70A6216934EC2DF8136
:1022600016BE4AAEE596700123E0EA61E0263BC85F
:102270000BA89AEAE58976E6C4DBD45AA93D534512
:10228000BE078C5CBBAF8411965797F56B9C3DDA0B
:10229000A777313BD6F672A5B67CE9CCABFB6125BE
:1022A0000669818CE7998D2620BC4771C2A3FA91FB
:1022B0009A5DCE9F5F7F996C416F1B524180EE2AE1
:1022C000572027B6D403E0D9D395DD0A8E4EEA1302
:1022D000ED1B59E0D9D52C45CD060D541CCA8ACF2B
:1022E00049683AA71C8DB87BBD6C7226EC66022B40
:1022F000780269C425F2696947C6EA1F6F70C69FF4
:1023000066FA4C5B838AB99ECD3EF76E264B280A4F
:10231000D94624F7F67B6F4CA3A740AF141512B132
:10232000BAE408C6975B5DEBF875A9EB06E69CD2AC
:10233000064845BE6DF2E38EECD8F27FB88305F017
:10234000462CC1F0646CC29F8211A8C0C1B8B74DC1
:1023500053A61B4A90609200D21973225320A2BD4B
:10236000A02AAF874A3F7EC4CE54CCE5A794DFC3F2
:102370009F61007EDB15A5E05D370FCF940E92BB09
:10238000F818F1E53493C3567851CCCBB8CF0CEAAA
:10239000B0CF3DF14A6E3C8BE6B143844B61D48CA7
:1023A000A1401D4410A71D31212BC81460CDB9A632
:1023B00021EF05A4291156D2E04CDDDBF5888424F9
:1023C000610043D3185DD6A9215EE3D34C394C9EFE
:1023D000981897DEB61FB2B39E255547EFB89C09F3
:1023E0007E9C8976FF4E0D608155496EDE206D1E04
:1023F00023E892528FBFD80BD3EBA5F73006B1205C
:1024000070944BC7C3D6DA7084204473FDBF7288C2
:1024100010CE8E52EB825DE1D1B927CD921FF391A0
:102420001CF66CD903A59C8A6C243136212D9B4F58
:10243000BCFDA490C90B5A953DA710B7F9B6C9EFDA
:10244000DC4CE2E5E00ED53A2B98ACABA0FCBB1619
:102450001AB46B8D18E0E1AA27BFB162835DD7156E
:10246000D5B29C50B014CA220D1EF7D61941F2B055
:10247000227F0723192D32210BD8585D7F2A406512
:10248000DE8CF459124C1F23AEF564AA22A6A6AA2C
:102490008CFADFA2E3B39A54A1A9C9A83240BBF9D0
:1024A00026C4CF5511736FFCA6D7DA9C6B0A35BAD8
:1024B00099630C3DE9DCE1F8396628FB042D2A4CD0
:1024C000DDE879867D4E6EDF15DDA4F338B9B31BE8
:1024D0001D374F2FA21D75F010336129D999DC5A91
:1024E0000E9B21FB8B588459A153243E56E8F204DD
:1024F0000C0B8310E6710616146AB81DCA7F79F2B8
:10250000FB51380D1E413D0511F5D3F6EA4E1E2351
:10251000C45379D94A2EEE2CBA465C3A0279C58367
:1025200069073B86992579F553B2FC1B4589A17B48
:102530008506315A7FF20FCB986502BD1517BE167E
:102540008669AA4849FEA9BC1EB4932CE1D212A503
:1025500069DD59545678869BCA239FD015755D2C2A
:102560008CEBEA1F46427335E357E0E493DF0FA795
:10257000ED0991146B074F9F6A78B27726B268EB2A
:10258000B1119BB8F29CE908F8A9BCAAEAE5FC2CB9
:102590009CDC5779B26B9B8D12F7791AC9CAA9F1E5
:1025A0007D6B3A8F76D89D8CAE15097B3373BCDA80
:1025B000AD46EDFCA89EA60AFA5CA121E203557384
:1025C0006C92A694FFB7388A88F487F54CB9FB79EA
:1025D0009778DEF4A2B5125F8DD0AADBFCD1418FD3
:1025E000E243968AB70DFB10FB8DD36BD97112D1E4
:1025F000EBE6C5E2749A2F519F3EAEDFF16A05FA11
:1026000096B40FD27E26DB4534965DADE9ADD50B91
:102610009D37F20474A6D76189DC14F54687940AC5
:102620009725688A1CD893D9793E566D6B642282AF
:10263000C2720FDC7A58DF56A778B108B497A52B81
:10264000A51EE4CAD129F4E42A7920A0CB9B3B64DF
:10265000B10F8BEB245F2C63FD65ACA47274AC31BD
:10266000A1A527496864B74C81E1869EBCD5616C01
:102670005DE5FADADCA7360EE28A0FA7249867F048
:102680006BF23E5F248F2FEA2C4988CBAFEA7CA304
:10269000F69F3682AD309D3E5F58420B5C28120497
:1026A000D6205306D4BF7AA33A8B0E02DE3F71A622
:1026B000CBF183003A63D33ADCC43AACF6D06E90E7
:1026C0004F997A0808883813FAE0F45FEF0255FF53
:1026D0006CAAA876E77CE559393EDC7F2902FB61CC
:1026E000CD50C30BE0FF433363911C972881B505A0
:1026F000AB74CD6E518224D705122AF72D2BB7303B
:1027000068BFC6D9DA731FE4BE61CFDE073DE606B7
:102710009F203359B60704F912D6A404BDF2D7346A
:1027200077D7DEC640E3487A3BA7EBB3B0421A73D3
:1027300053B8976A58BAF27D27BAAC88A70445E423
:102740006DDC4FA70AE9650C77E9441B82AE4AFEAF
:1027500019E473C209420D3EBB75F645D146DC76DD
:10276000AC82380FEAAAA5FF6DAC87207BC9859B98
:10277000491E06D63AD7F56497BB7C68D5B9FB509D
:10278000D57C808E4CD5AF4C168F1699E8A0295178
:10279000D722C72ACF158DE2186D1C8135A9901359
:1027A000A90C5687DED28A8EBF4E26FE0ED16B163E
:1027B000D638E0ECFF3D776B9539413795C7A57367
:1027C0004572A4724C47891ADD5B096378FC1B19BA
:1027D000BB621DDD32FEF864459F2440E1A2EB534D
:1027E000F23ACDBEDE25EC5849652868B333CCFFFC
:1027F0003C99CF5FDC8D2BD1723ACE5FB53FDD9730
:102800005C7D94D7F98BADF691A0E62A7B46156CDA
:102810003CC3482974EEFE5F49D4D915B59EA36F19
:102820003F67CD7BB00241B6F9DD87449DAE2E31C6
:10283000B6DEC1A466B370DD1CBEDB2713228F0297
:102840008829A67E41A6953EBF2790DDED32590826
:10285000A9443650EBEBB5ED52F4C63F7AB77B6B2B
:102860005E469C01CF2FCC75ADDA4EE90FE9295BAE
:102870005F2A8A989166EF97201442F64EF700255A
:10288000A15A25BB268D99C1E8C38120ADD568EE3C
:10289000561BE982EBEDF41A9D3958ACEE411B92C0
:1028A0006EE962AFCA5EFC97C5295065BE5A1B4CE3
:1028B000DD0870D6D17F33E239FFA8F9A57258EA56
:1028C00086C73EDFF5D7642AED789D83CBBEC2E292
:1028D000F7FB2486F5090A90660B80951608FF0120
:1028E000ACD6A0C56958C9F6108BA6AC476609706E
:1028F0008DB60F42EB497D53A6A4952F720863C194
:10290000C3DD6F139FBF4765F7049182BBB39EACD5
:102910007C5A4B8C48C07DA11CD5C269F6E73A5C55
:10292000780FE58368EB9A71FBAD7BFAF117922E75
:102930005CDDE83F18C00DD8EFE1870078CD541D6D
:10294000FB76BC0A6C98ABBC5268138A20AAD90FDC
:10295000C18A8218A2C074E353C24BB3CC4D8257D4
:102960009C544B935BADCAE3954716D02ECE8A3A62
:10297000F9E7DF3B990719BCA639086839C5174341
:102980003A41C438F29AE3107A5F351C5783755088
:102990000748740CE655660D6CE78D1961078F5278
:1029A000A075173FA65EA0CB7556FE767EB3A7B185
:1029B000F58836B6DDB6EC9674E8400B3D7BF64103
:1029C000750837BB347491FDCA7299C329CFEA23C5
:1029D0000B1B9185063EC0028E164139879AFA1567
:1029E000FE80F8BC6B4F4002CDD4658782610C300D
:1029F000CA3B9CDB2A65863C80C5143003A0A087B7
:102A0000DEB23102B0B526268661EDC8A3DAAFB3D7
:102A1000007FE5581617E2C3EF51233AE2150A7911
:102A20000B141DEBF3F66C029E2EA004A1DE6FDFEB
:102A3000F07305480178248B544F38653617B7D5A5
:102A40008C0C89B3742D90A58EBAD6D5835C32F7E1
:102A500001E3EE89A0C9D690196A6E891D569F2D93
:102A6000E1B57103D4D89601B6562E9686D6E9C93B
:102A7000AFD770453DCE949E2D34750B708E017E80
:102A80000D373823BA1F8348214672114C45331540
:102A90008429787D7CCF4479D6E442A1812D3AE423
:102AA000BCF10CE054B7C9E7A3F014777D59C3E338
:102AB0001538276CDBA800C60B98C19EB7E2C5A9E4
:102AC0009D7544AECF866CB5E7F20B5E592C0ED5E2
:102AD00031969AB1794EC3DBD919F8DF8CAF7437D0
:102AE000EF0E8FD12CD31ABE948A9D8C4B66415821
:102AF000A43617B0E332069967BB3E0711EC3EEBF4
:102B00008B097F5EE2ED6364678DEE8F08E6D8F98E
:102B1000446A758BC202B09A0D7DD9BA2ED2C1A378
:102B2000726C33BF4D2053F55A73FBE89B73D7FD8E
:102B30009BAC1C4DCC2ACA8A4A59F98EEA053BF057
:102B4000CA8A46D0D265ED56DD0BA730A37B385735
:102B500016B7D4B9FE3065A89195E8E834265DBD76
:102B6000A53BDA7C8ADD44DAB1A49C63367D2D492D
:102B7000324BDC6D6EA87C899ED2D1E390D9812F37
:102B8000ECE62A0905B2C1428B6627C4E361BBC8E3
:102B9000E06279B2BD55190E469592C74A2B704B2B
:102BA00001FA6DD804119A9EC24786E3EDDDFC3729
:102BB0001730FB677B21FD4429D2D7401D68B8310F
:102BC00013C6C7D8E1E121409CA6604FA1E9C431FA
:102BD0004D0EE9FE658C889678D43176D20BD951AA
:102BE000C13D3B570CC958CDB9506AE272D221049D
:102BF00083C3A5514EF8CBE9AE0EA3757FDBA0AD24
:102C00004822B242BDBADD20434DD9DB7C4DE7C638
:102C1000837E2688DC1B5E6E20ADA9F26598CF57B7
:102C20007020D734132747E6AA0D504D5B38862510
:102C30003A4D1EF27A0524300C7AA5D05C470A5E24
:102C4000EE767052F5A5B5164D45FED6E0EC515A1C
:102C500040D9E88C7D4B5E3E91F4B135295A4876D7
:102C60006050F1EE77947A9B55FA5EB6AA94AD5F08
:102C70002C625CA6858F9ABF9D6EFC67F9C3D40257
:102C80004CD61B014F90D9D093EBA33467971F020A
:102C9000288BC261BDF099648BCFFA2309FF8507A9
:102CA00087E8950420FF82480C538FA8C251AFB229
:102CB000DEC04CF05570E66AD1DF9C632D9124563E
:102CC000BE79E33D739076E1DB85668684431C31F3
:102CD0005FC796C00C75B0CC77BADEC10FE165480E
:102CE00004260286DC77996BB0A375C982ACA47EFA
:102CF0008FED2CC760A123DE483C6467129234D369
:102D00001B702B171F06387059E2569C17A5192304
:102D100041C44A86B6610E8164656D200389DF95E2
:102D200021D73043C45B30DCC3FEDAD32E57BC3727
:102D300036B1EEF0CC26F5242432FE287CB4D056F1
:102D4000E6F8F6F83028339B8390022E6FC58B038C
:102D5000A0F16882BE7D4FEF4EA37886037535F9EA
:102D60003A688B8C4AA09E54FB2D21B9AC2451E8C3
:102D70007D6DF25D688CF158DC1908C8744547EE2A
:102D8000FC59E32B377768D8F979D6BB827300C634
:102D9000EDBF22FEA9AFD4CF23F9D85D882E43F72B
:102DA000494EDF1A6FAD089E277ABE5E3689AD4167
:102DB000F0251281136475031F782FC0CB7B89E146
:102DC000F73D5EC78BCEAFDF792FB080D9E70ABA67
:102DD0000A81F3985111ED1E9D302BC3F4D4188352
:102DE000F7CEE820016063A4FF67A19D7C4A9F5451
:102DF0003D592917ECCFA583D09F906EF474EB82D8
:102E0000653F8D54B7D3BDA27E575654BE5BE9E1F2
:102E100043B0DE69C22B29F4FF893828A5C984B7DD
:102E20002DA2124207BDB46E734849DC2F2060F515
:102E3000D24A341667CE36E7DA3CA32B3659547E95
:102E40000E2C1B539CF778B90CD0040E6E3010BFBB
:102E5000668B82047C34703A9350716571AE0ED4E7
:102E6000429869FF3095A9533762A909C63C85D0BD
:102E7000972929F0279FADCF9DFC68B55B60E6548C
:102E800080AAFFCB281F7EB4F6848BD4317123DA5D
:102E9000D6D55CE70FCA5A29525899AE0A73315AEF
:102EA000D2F97A4BDDE14139C9D39471AACAD189EB
:102EB0002384B043B08CF17AC4A808DA8CBBDF89D4
:102EC000F7B1245BC06E99615B7452C389F694C3F9
:102ED000722588EBC97F0C4E97DBE53DC3817527D2
:102EE000391E1481F4CD9F5A214F4386E604A8135E
:102EF000AEB3973E3172C5303C7D3F9A0A1A2430FA
:102F000036CF0E750B00B881549C1F5E5A0802B86C
:102F1000A7D96E086BBE3FE408B9D3DCFD6BACBC2F
:102F20000EC8AC6394D4F681DB9B07830CFD9B4EEB
:102F300086ECC9EB260BF3A2B1C9C38D9FD48042A6
:102F4000178F24F6AFFA8C02DECDD0F7E0601FE3D6
:102F5000D4B814E2B90C74E5A00EC7B1DFE2AC3707
:102F6000861A90DF7EDBB3BD2204D9874E25EA5F47
:102F70003347115568BD7DF0A29FB34F13207C2FBE
:102F800026812B3E27BC591F6B7B86B9CA464F9AB8
:102F90005237E20E3D627272C4233CD93F777DFA0C
:102FA0008644E8659AC806A265F5554E3C1B786ACA
:102FB000284C57BFA893EB2F406F61A18EC3F279C5
:102FC0005DA47CC3716D87FE42B0D3AB54E26D72D9
:102FD0005E776E12FE042733753215121A28D44A12
:102FE000C1305999C8A87D9AE10BC93CEC5A9F366B
:102FF0005488A193A1DFF0A32DE6A6D0EBA3F9ACF2
:10300000D870487FC36975DF5249D2804896DCF199
:10301000AEF7B81C55355C6B720654279EA9118B10
:10302000FBEF3A3D59E9C2D6DCBF3D90FF4FD914C2
:10303000A2E0513CEA204151394B1E002E4D248D17
:103040008124E67C1231A3E48D6C2F5CFF4718725B
:10305000AC31C8458331347B626C7E7FDD55EBEE4D
:10306000C5723F0A0706A52E931874D814EF2DAC2D
:103070003B03AD2BD913F92A3E2775105F1C05C8F9
:10308000E175817FAA9457A461F5B108E9BB70F896
:10309000D26456EB8E7CB61F5EA3B4140EA7B7F7AE
:1030A000B2EAEE595EABB222494494A572AD9C845B
:1030B0001ECD39F0E6A1FDDF6D28B7718F005A18DB
:1030C0002AFC7776B818F18E2D465139109ACFFE2A
:1030D0000677224135641B279DDD9F20D7F57C1E96
:1030E000B6E2C21330E854082C4E727C28BB534E13
:1030F0006BCC728E2C1F335751FC22B588B29FCEF9
:103100007DCF8CB31EA48FC94D20AB94DB291690C4
:10311000908E218C74B7ABE29BE5887592E433DA2C
:10312000FEFB1C5EA872C37FB9C7AE4E838B8F12A5
:10313000BA654DD7BAEEC645B6C3FF914A2B50F2D9
:103140003F263223DD4D6CED39DF35045D06D66256
:10315000AC8647516C14BE7BCFFA9F0B3AF01AF045
:103160008CE14C10882CF8E93119E99061CE866821
:103170003BB9D1F695DAB2660BF48D4BE2A3C0D021
:10318000B2202FDC6040359DD930A1436132F6FA80
:10319000C15B1DA31BF9B9A9813BDBC29FBD99701F
:1031A00056ACD78F47A38A4348964F3C1F3E7213B5
:1031B0003800DD2F2925807DAD2328D42B7EFF29E3
:1031C00044E5BD33C09DEDCFCE76811A7AFBE11781
:1031D0004EAD650E476B0E6DE7D5705C643136EA17
:1031E0001276FD7073597B3E4F29C8A74AC65342D9
:1031F00068CF3E023306392CDE1E07F99ACD14B78C
:10320000B3C69490E80D6CA1B9F31E35236A71EA38
:10321000548188111C1DEC7C67F640A8C4E44C392D
:1032200006BFDB2F3115D307F4051DB6FA7D32D466
:10323000B697E57CFFC6BE350D3A24C5EE2C7EEA76
:10324000C820FC20EE63395A9FCAAEB6457357B00A
:103250004CA8DCFC21A22222B3833228FA3BB42BF7
:1032600040EA0E6361AD21FFB334CA03CA04B480DF
:103270002B8162E8D98D2767F116FEBD702D38527B
:1032800002DC6BBD9E2D7BDC9177D1CFD12B4B50D7
:10329000DC9FCD5D44C10E7A64B5C0470EE3413C6E
:1032A000331BC672E0EE4AC322E29F553C1A436BC1
:1032B0006C03CBBF3275749AC6D6C8D55F89C5BFBB
:1032C0009A31E4C3976FDC5B6A0F6E78608EC60E2E
:1032D000243EA6F8D0F678BC525CBCBF201F5D43EC
:1032E000D4825C81876B3738FE6A74659A0C1DE066
:1032F000082D4F937920D35E2A5FA1805DC3D41738
:103300009F99B33926767F19D960C367453EDE544D
:103310000B212659E73F1AFB9A51FD7D2CC7D55347
:103320003BBAFDE5C853C02E4DF84363EFB7EF83BA
:10333000FC7C803AE7BDB3E3B0B3166E8D7C923C63
:10334000F9E9B5F0B6D3908F1091DC70F7E146043F
:10335000D8DFC3F01BC55B056B080052D967EBA132
:103360005663A7C339A950F0B0366737A5759AB729
:10337000F2446AFE5E01C36C59EFCBA9BEAE6A7E11
:1033800044F4C5BAA947C036EC62AF1A1B2478EDE5
:103390003D6F58809BB6953F5E009D640A49BB6BAC
:1033A0000292E70A6E0DAE5B60EFEB142B027140E8
:1033B0000CEE50ABD25D03AA457601EB4855669CF6
:1033C00027D9EE07466453D12516DA6A898FA76894
:1033D000ED66E5801C4F0B6507A4BBB9B911B9A612
:1033E000E7E061830C3C576E85E2E3B6111BBA9FA0
:1033F000C810A8E7149736BF4E91C96EA54D43B9C2
:10340000379DCDE649E8212B0B2DF0DF2F694C3697
:103410004F768CABC992C9D085C421CEF9A7A785B8
:10342000ABB241F85A77E6BB34904C94F94D0E5B41
:103430009A6AD7B20036C66EA89940D7576473CE41
:10344000A4F31F3C7DAB7EC1F957CCF72F286F5CEE
:10345000FA73074EBBFDFB67BD5CEC5302F9F173D9
:103460001F3D66B9BC92D21E8BB8AC1A297E70265D
:10347000DF873767B7079CD0D959A9EEA341A03A97
:10348000592B62AC0B882B95812E151B34006CA137
:10349000FA2DDD3E0138B2975B2CB02EF0363A2182
:1034A000B197CDC4D017278DDA8466340A7E78BDF3
:1034B00095372AA05752755DCE7A6650C4BB130269
:1034C000D5E61A6130D79778F0B2ED1AB77D9DEE48
:1034D00034422BBC781E80757BF3F180EC99FCCCD8
:1034E0008EEE8D29E28E225DB155679747F9F1ED99
:1034F00099B29DC20B726FE80F615644CD2968D412
:103500008B62E8E6BADA3FD6CCECBF041C4A07C9A6
:103510006DD2E67FFE62B588798EBB6F1BF0A889FD
:10352000A6ABF79F0A6FE06D733A84C1CA6E71A4AF
:1035300076A7CE337E585BA24590AF9ABBC6D4091E
:10354000F276EE5DEAD6A56607D8C9BAE584BEA7CD
:10355000D0A2650F90E111A001787B07E93ACD1F59
:103560008752ACFF9E46CEA06B6F8C6BB4C58C357A
:103570006E3242A4FF9D8F89CD583C7B3F1190BD98
:103580008B1BB05F49C10163803F399703293DD54B
:103590003301C7DF710EBACB660F058E98961E3FBA
:1035A000D297B7870C3523BFAD62333215E5E331CF
:1035B000BCE71A1AF52A816F9EB845307ECFF63ED9
:1035C000FD847F4C719E81723FB379928D1B26B42E
:1035D0003F825515EF4BDE3D37F5330923CA50A521
:1035E00071869F0302F350CDFDC19D7D63191DBC03
:1035F00081C51DD82F799D855D19B7153B6512339F
:10360000EEA88FE0886813609FF5DF6F073AD01847
:10361000423D63FF6EF45716F38FE22A84875B3EC8
:1036200047CAA1B80AA0C2288101051F95EC224310
:103630005304E6E73F7FE915E06A80EF80BB695CF1
:1036400037B9FCD82A9F2E4054008A6496DE00F9D0
:103650004AAF0E48E1B191393A790FEF92EC3175EA
:10366000BF9CC15F0AEDCDFE7131C809DFC61908E4
:1036700030A67A562A0CEC84AF9E048CC929DD351D
:10368000312A92A002F5EF9B12C9270669420CD796
:10369000A31EFB74A258DD371B15639BB65A763CFC
:1036A0009751DC7ABFDDEFB83FDA86E58AF052D277
:1036B000F739FCFE11439DF673D6453B7A464BCB5A
:1036C000B653B9FEBD928A3C7EC1F5146D54E4F642
:1036D000CCEC0895B3471EFBBBB3A15BA1E866D158
:1036E0003B1FE24491ECDDFC0CBD666817AFFBC4E8
:1036F0008A6DE73DF1E1094FAF0ABA8C3867459D05
:103700003A6518F7928409E398C652C9EE324D25FE
:103710009FA09C8757B6E145C92C31CE3042B27C80
:10372000DDC80B79CBCAFD2B88DA49F5A5282EB068
:10373000C0C09F253DE04BFB983F425F56B5A74870
:103740004799CD8072302C974941B6F4E1404089C9
:10375000129A5FFB89A531C254A983FC906464B8B6
:10376000614623FE8DA82BADA71F3FF5EA0D8CFC0B
:10377000A33E72149857633437F9802C3792A032E5
:1037800068FCF044CE154065031C6FEB77AF64C353
:1037900056613C775615C5941EF11FA8CD2E132AED
:1037A0009CEC838A95B5586083585DA15787CDA05E
:1037B000461BA2D0810A7919B14DA321E56EB5123D
:1037C000384BDF501A51204B31DBC39355598B2EA8
:1037D0009B5105B5EC80B849C89AAE212877612184
:1037E000CB06B4A491CF754D3662023C64DCA1D601
:1037F0004D9BD16503C9D7E1634F69F571F1000AAB
:1038000081D6CBD30211FE30B6D936ADBF564CD6D9
:10381000F4ADEE33B09FA7FA6C74DE4E10CB758A10
:103820006DF804A9943832D363699D3A9E9CD1E423
:10383000E68EBD38DA823394027F97371DD0501060
:10384000F350F27D537B09AD2783D84497E1C32D14
:103850004AF948060E18AFCA18D5CE6EDB348085FB
:10386000B3E8BA511114A8F1783129814B4C036F98
:10387000DFD258E6DAA477155F5C557FACAD96AF22
:103880002A4BB52C3BB61C063E494A50F3BEF4B752
:10389000C6D2639196D36048F3B0C4941A38A32477
:1038A00081CF493BA4EFEEEAF4A49D1A9805B3B882
:1038B00081331B1B5A761B8A8C9AA585F802AD5062
:1038C00096D6411370787B9E06D68728E2C1B9A6AA
:1038D00001FCABB654369F5B24421A86C079D416DD
:1038E0004F549A835E93EC4F5EB2E848CD2279B490
:1038F0005A0502193FE13B6BB6F48FC5D2212CA9C2
:10390000A88C047093E3F0AEEDD65B7BB0D9ECD914
:10391000FF00F7E178640B7A966C4C9EC59C12F818
:10392000470EE9AE50BD2BA53515BC35D8E8340699
:10393000FDB0C1D2928ECD32EB0FFECEE6118036B5
:10394000621BD80D85F0F1545ABE42DAA142AA3A60
:103950000D301DBBE63E68ECE463754797C218CE98
:10396000ED7322383D96ADB91029ECAE6D9536E475
:103970009EB77F51C6045C5C86CD2B815BA8FD930E
:10398000B57E2455E02A70CA479F3261089926B651
:10399000EA165C5EA8EDA6BDE93B0AC737B02BD896
:1039A000B4ECD38FBFBB1E7F88F80063D03777AEEF
:1039B00050B502B524699598BD43218524766FAE34
:1039C00089BA7435A03581D651486891450607EB10
:1039D000FB643E8CF51285FDF99C22915692EBEB2F
:1039E00044DDAA5E360329167256DE7CD8BFE47A1F
:1039F000E221232B2374454A258277FB6F701A1C22
:103A0000156CF2C5504CD7A2ABF3FD221E2A3D0720
:103A100044E176434438224CD03211200BBE05B726
:103A20005D788A1F69E2C277155A84B6D55F814BEB
:103A300085333D29B6143D7D92D7D4577F8DD08BE9
:103A400047D9C257B66CF78B85E55372B273F24112
:103A5000FE77793BCE9CE2A1F1ACED9F5DEA18ECDC
:103A60005BD2A933B6C7BE92A90477451E67241955
:103A7000D18B307F25A78F6415440CE8649AA096FB
:103A8000902E40D2F91D345CE9ACF5CAEC80218659
:103A9000C02FBBCA050E84FE9A16FADCAA3DD7E9F0
:103AA00024C8BD7FA98C4569ED2B2DBD200A388C1B
:103AB000EC9634049A8C5F3116AF8869056BFF531E
:103AC00051EC984FB60D4AB23E61B99C1432765E05
:103AD0005498FFB6DF34044F0571A2A0B35CBFC198
:103AE0005CDBC0535495B6DC949596B8BBF62615AE
:103AF000AFA10ADCA401B47AB88ECCEAA52584690A
:103B0000E079B6540383E4DC5C3EF3A63174AC6721
:103B1000A74A8BA5C86972EB8173E7278B97534639
:103B200063A4AB5978A4844F05294F01517F15DC5C
:103B3000989CE324D0EC3A6356A7A6F220F30859E8
:103B40005D393B2EB0AF61D642EB50C75B26BC2C33
:103B500022375A1896022F3C2A4B77E968AE3A0A68
:103B6000199E3EC884D69473A97FD4E30DB7F39B06
:103B7000F3070328ECF73F285E5D6A844E6F43B578
:103B800057C436624134DE06E2C41CF8FDBAB7C839
:103B9000ED120FE35F7DEB6CEFE1A7ED3366C22F13
:103BA000992953DDF78C70725EC9DF44980700C60F
:103BB000BB917128ADA0B0A6C4C6E83A44D7C4D121
:103BC000790A461489D4E38F0C084ED40D8BC32B8D
:103BD000ABBA7C23208EF3D8D7F93621A67472793C
:103BE000D265BBB03160858FF656F8F0D8DB1E9CED
:103BF000C5DEE7E320612E93094FEA5AAD2A25E896
:103C0000854C6163AD0487B42218ACFEB351EA075A
:103C10007484C1631D977DAC9E81645A4FD6CA24BB
:103C2000608994BD201D6DD45D36C2097E6BCB4F7B
:103C3000E502BDB329F493EE8BEAC1EABB005CC296
:103C400013CEABA5729839C2EA5218149660C066BA
:103C500072DF6C6F9E74F5340F1D357293FACA1AB9
:103C600030D745620A9A4B0E75518229281DC75CD0
:103C7000AE2D92493A343816117BB6E487F9623F8B
:103C8000727F110C41B70E53004FF07976657B932C
:103C9000557678AED5773A58DB5938587F8ED22989
:103CA000940F7C3152ACCAB219966F8E4125C57EF5
:103CB00037644789CD6E17E1B7B91547CB63737683
:103CC000F41F0FBC3581DFCCCACE27C85FFF0707C2
:103CD00053BEDC9DF50B2A4B0A6FF2DB6849B575C4
:103CE000E82D80146E47322A516A8B23BE0541C6E7
:103CF0006104E8EFE1129FF3AB4F518B8A104B2B1D
:103D0000A94029D2C8C25293266252BA8AD6A66C5A
:103D1000F5F46F889E54F6EB4EB27A0F69A304F463
:103D20002D099668DA657A8A2E8C1630A49F499000
:103D3000F629A4C3D0F423425EDDE3F67C9D5D0743
:103D4000543D26CF90EF5FC747739C56B0C98ACBCE
:103D5000AE7EDE41163D32D4F309CD6A162910B489
:103D6000963C91ACD732138C03E508844445A529D1
:103D700096DDBB3EE1DCF3EB2111D781F97890FEB3
:103D8000CC0831564DC71F011AE0D7ABCB9AE010D3
:103D90005A9C4F3A1F3618227F90CAC67529C9E32C
:103DA0009855A97EAE4B85D4180B1E9CEB5ED63F72
:103DB000D4DC52D60140C79B57E121B4ADA69D6427
:103DC00026DB3E112AC1269394F9F5F6C82C7622FB
:103DD000B64978E614D87DD13906DBAF1C5B463C8A
:103DE000AEE0629A7F1B78AE04D277B802B8A642E2
:103DF00064844C36D49C179C71785306E65B12A3FE
:103E0000573F2445E23696E9FC41C25EBB43C1AC54
:103E1000DB59D0A5B2E5E8DD9AB336D66A1E441167
:103E200065EF49E94CA14B2B2A64773971830D5911
:103E3000A3CCEE51153B43BED6CC33AC0C876469A2
:103E4000FE70B06D9B7208233F52356DC8B2552588
:103E5000B46B18BA09CE780328ED792619D646E551
:103E60006E985F1B53FA3B1E75CCF173DC0DB25F8D
:103E700030D0F4CBBAB500C35936E2B6F4D6E2D6A8
:103E80007AD50F7FF547117904E8D7B828830EEF6C
:103E9000BCCFD395FD6D9430AB0825BAEF19A7A41C
:103EA00091F251919FF1C8F4A22DDF57EB879A7AD6
:103EB000C643A1EA9BD729D5C01A22FABE4A40EED2
:103EC00063482E8EF9F11B544FB757014BC19F44E5
:103ED000F6423CEA04618056E0BC1953932DEF9DF5
:103EE000C7F5B95DE633796A16773429D5F6A4F0BB
:103EF000CD0A0DBFEF74A274A9DDF1E9CDF2C1DEE8
:103F000030C4525759CA3CAABFAA092F8247E6F0CB
:103F10003DD0DC6A6511DE6875CA19230BBA27B279
:103F200021083D5672387BBD2B4979E56B840A2008
:103F3000F5388BCF8BB7425DF7520BCC26BC927F06
:103F40006C0F9FFD3D6B83D7B25AFABC5BD9249BA3
:103F500049B4DACAAF9E4FC8F48D5B49BC560A9388
:103F6000E304E088A23EA061A5B48337D451311F99
:103F700072111E7AB1C7EF0C3ACE0D521AADD05164
:103F8000083CCEAE6FA73B34E0FD6EAE155E37B693
:103F9000A710B10DDE9F75CE35C4DBBC5D198EABAD
:103FA0003C46AC43DE20626A6546250DC55B501178
:103FB000E43E6DF6E7E8C60D9C5C2A90DD3297B9C9
:103FC000572A916987E7BB520F4970F757CFD82C12
:103FD0008D86B5F7F32C4F3C678B84FB16267B5FF1
:103FE000A069EBD25D595A92C6B1BED1C66509230C
:103FF00006FE75CB9CD015AE497B4C3433048D3E08
:10400000B308920CFF3518FAB8C09CBA68DBE4C953
:1040100017BF23144C7216F6FF527ADE0BA77A4DA7
:104020004E80227D2734A24B3A57ECC8FEFC014556
:1040300059DCF99F55EBB322557E7C8C43BFAE0013
:1040400054C62F9F7F896AC7B0CD99794F139ED7E9
:10405000B9D60D61750F3D16DB2B2AEDAE7D6211D1
:104060005F5369CAE0A069B94AE0ED210BE4F24C64
:10407000D731C09BDA10A7305C73C2DD78F70EB37E
:10408000C04DE2108AA3D320293F327D0444436E01
:104090004DB1739B95BEBF5D1ACDE6BA46CD834C3C
:1040A0004234D93D175AEE1AD32E5948D292A5E17F
:1040B000928512FF4AC893A8FCC5E76A37EC2E9F89
:1040C000B9AF16F00F75363CEDA5434E8B3F3074FB
:1040D000CF10B6FF6423A407186FC756C801406409
:1040E000D1CD9DC32364A755A9AEAB7E4878F8A86F
:1040F000BE11DD8E2D3D73BABC42A95C6700BC5277
:104100005049C137DA1FA4F0F2B91A60ADDF58C9BF
:10411000F9DB742BCF2326C05D9FB53FC2B745693D
:10412000087217865F8AEBC29F268C33D0D01806A0
:104130009B6DFD620EF3828A132285D944DB7AE5FA
:1041400041BAC1E35C131AE08CB3C24D4FC843615E
:10415000382C98B0F6799B2AF043C44AB2F208F39F
:10416000B4A279656FE1ACDAFFFC9F2848C33193B4
:104170001F0D62A6CB1F244D55FF5BD703E152C62E
:10418000D9ECACE47E7F24E75B30CD8B0C1B90F543
:10419000FD6A867B464B6C622999D561FB9BD908E9
:1041A0002529D5700BCA1BB650873BA0EA83D74C94
:1041B000D9A9AA67E8B6CAA9F0FC1FC6FF142851FE
:1041C000ABBCF8ACD7D4472DCFD74F766AC5A36127
:1041D000259FCC6F57CF84F84B6D4D68C02AE559A9
:1041E000A8D7C107AE9A80A719B4DF8F4D71E50C2F
:1041F0006823EC6F563D0A1AB5763136CF36245A0D
:10420000D432B62BDAF99E175FF3066EAFE1AE97A4
:10421000CB0C193F828B0D894308D92347687E98C0
:1042200031A647506B1DCA94630B9A9791C6E874E8
:10423000F290231A62ADFE585F2DA7FBA82C0376DF
:104240007F14ACE42B46118C8F0D8540254392984A
:10425000F6F5EC53B02B8EC5F5714BEE01047042B0
:10426000DE7AEDB513021B0AE9297E197D0D3BE9C3
:1042700046C286547C8D53C7C82E52A0F1FDB09A19
:10428000EF2ED645F00F8E126BD04BF1C7E3A57819
:104290007756D3ADACF98EBF71526D517885F77EEC
:1042A000B06E8FDD5C868E2E075A2E0A6B6BBCBCFF
:1042B00082E9DA9A52576BF285A5B799C37E174502
:1042C000715F334F3A9B9C8B234A3091A327F1793E
:1042D0009BB370C46B49290A9B76299324246EA74B
:1042E000CE8CE75C7B252ECB1EF8497D68D84DED42
:1042F00040D477E4FD2376051D574A4FF422440C41
:104300009AB5B5ACACE247DCE2279F07AE1B813F14
:104310001FA3D3AC3F6466834F399011324F95820F
:1043200069B2D2617E3CE896FA0CFBC139FB48B019
:104330008367431C3CE67D8FE65A1DFD2F5372F0C8
:104340007CB2A03083A31FA0D776F82AF3FD1257C2
:10435000F0ED5B608DC464A0E6DB41477A7EE7D672
:1043600019800C1F064199AE3C1BE2D8495E0355EB
:104370004F3E111109009D3691B5DF50D27E10F6E7
:10438000A276774C558B2E01106385F980DBC977B7
:1043900070DBC08E66135CDCB6555AF60CC4A3A362
:1043A00068E7AC6B978DF172CB3BDCACD885080825
:1043B00006C96CF5471CCA4B2B999EE571DFFB8142
:1043C00036E0DA3A91CB251E2E97A252993ABE4F8B
:1043D000742F5482C72C9F4F87ADD21FD95E6A8A33
:1043E0006942FAD1B9B5176312E62E2D05C68EAC17
:1043F0002F7E36343C10333157A601D95D7FEBB8A0
:104400003EFFDF0451C119051C9FA4C9159CA75C80
:10441000FCF6EF6BDA85150DBA752706A130EFAF04
:104420008F462ED64D3C6A8333B94C107179E85DC6
:104430007763CB86DCE1DDC349E5842B1DABC92B5B
:1044400080227F7ADC5B3D22D41279F8DEE89097F7
:10445000BA135ECA1811505A251D949E8A46685890
:104460007E6F885D54BE066DCBA3B13CACF2748DFB
:10447000ADDAA101AAD319D59FB3FA82A8400A9157
:1044800067963AD3F1E6215A46930F3F15540C49EB
:1044900008148B0DDF8603CF8341BB1D9017FA9262
:1044A0007D9DB462C3207D656E7CD1804F3A1750EC
:1044B000CDCCD18416C51B9382B1F23742F8992630
:1044C0000B52FF01E3B1E79D3D89F205D00FD924DE
:1044D00062F849478190AB7831CDC37637C794EA0B
:1044E0002A669E0774D7D7CE7D52D9A4CC2936A090
:1044F00005B5CBEEDFC3DB60AA328A18C2DCDC353F
:10450000C9516F971815E3B5C5FCDFAB59AAE0ECAC
:104510002FE4F73EB492860D65F549362E4D852081
:1045200032D0B6E5F01AF72276D9B6603725573083
:1045300085F3180995147D95159C0DD83A2D674281
:104540002AA4FF1321F2A85D2FBBC05B1087254A68
:1045500051FAA096ABDB368693EFC7EBC2CFBA9E7B
:1045600050A2393CBD181BECAD589F1C38CDC28100
:10457000515E8EB961476C2A6A386A6D6FF1979601
:10458000F9306132AD45D83EDA055730B611912089
:104590004CA7FBB50004692D503DA9EF76C0D3268A
:1045A000F21438C812C5D813C016E4E7767383191D
:1045B0003E3591D0FCBCD74EC6FC4D2840DC0B29C3
:1045C000284EF999F727453D4FF3B62143958F5A69
:1045D000D3E78B038207EC39C1252922008837E114
:1045E000B6AC1456951463B6EEDCBD23426D35A50A
:1045F000A5141094244B36D0A9907C36C9B783D02B
:1046000097A96ADFF830E221DF4BC65220B7F28566
:10461000D173C9E5FA28478A1BAB43B4B58F407202
:1046200008D02732A6E151B3E338D243974F46561C
:10463000B29D00AB78236DF991AE8DEA29F0081C8C
:1046400020BDCE3D1D524A12B36095A3169A559DCA
:1046500028D64E36C6F3658BC4B5DFB805142202E2
:10466000E02DA3D28FE02A218661BCC1B584D92771
:104670006EAB8A49FAABA06533A7F06905D2918683
:10468000630B3F2A16CCE310F9E43CC8197E8B116A
:104690001846D20ED91261B3032C0F7C2CA86934B2
:1046A000C8AD58734F7158FD0394E1112515F96E8B
:1046B0005916200E3421CD82D291287A21361E1629
:1046C000CE4AB1A0D69A64CD86EB58CD7F58EE7114
:1046D0007135C3F0BEE1989C70FA66EE06830F3F19
:1046E000EE5AEACD40B6DDB0E825D5B4DDCECABC81
:1046F0000B3CC29E1846DFE67F1F5179E5A8A9084A
:10470000F0A20363F1AEE8465D318B6D7318D4D827
:10471000067C2955CE1A19ADBD783E4717E1A3F4A2
:1047200045F5B0BDE7F4E13F332B7A8D5F73918B94
:1047300090CEF51DE61504DA360AD340DCD591CDCE
:10474000CB7011C8D799BE5B6BD74CAA112270BE33
:10475000632A5CB3ADFDC6DE17CF6D147BFA4A6ADF
:10476000A633495B5F367A3C43D1D9EB2C31EDB9A6
:1047700039B77C2749ABD764405B0B55197A5A3659
:104780009447C7397C6144701B502D1AA00879F0FA
:10479000273CB01C8A0AF65274333D8F3744A2047A
:1047A0007626CB03A808B8832961EEFCF795EC9A2E
:1047B0001AD9012472B2ED12414F70E7375F261B00
:1047C00030EBB3C91FB11A2C05F92F55F4C0B34B08
:1047D00018B0031125782AF38B116B77C092ED4541
:1047E00039A97D51182D7E8839D0342281BB88ECBF
:1047F0008987414CCAE86434173C3DBB111CD33057
:1048000073E6905B0754537006C955562EC2584F35
:104810008832239F36D9343CD61520C3E47E368DAA
:1048200059BAAE37A3AB5CFFE26F1378E372593B22
:1048300077DF191CAF9AC367FF5D077A14FBAF16C9
:10484000A7C1F326440C0CE98EDD6D8A8C799EEBB2
:104850005055DC028AAA679C5731D6DF274D0934B0
:10486000FF707F8A4F87C91679C609646A519539E6
:104870005BEE9C8CF6FBCB98276E3BA9DEF141C02A
:104880008363B33576A12CCDEDB023CA89064B7571
:10489000BAF9AA0FDC15810A8DAB8B3BB2789697DB
:1048A000AD1554B44144115CC6B4C2C346609FE523
:1048B000F02C5A00E8C356E9E2E176BEF75C468682
:1048C000EDA73BE8ACB97C50B316B261E5F2DCA8C9
:1048D000C98CCBE9615C9B8F9443E516E799019005
:1048E0002247828F9F3F75EC556EB6BCDDE6A8BFB0
:1048F0005A1B77E29799CB4B22A3E2712F8407FDD5
:104900007F4A42CAB9187145690883BC74899E0AF6
:10491000A9B6A3D46A912EBA8C9279C74AEB20B576
:10492000DB938D281DE169116C1C49E141132C5565
:104930007908AE245200A646A8F7EE52319EFC86B6
:10494000EBFEC94808B728C3F59DD070387FF4370F
:104950000327BD933BD31B8060DCA66606565889AF
:1049600068AEEE3C0687A03A5932418E7F1B59E370
:1049700081396DB3D1B9DD31394B2FA2AF0C19B2EA
:1049800041407677856013D79D2F8B6C340B800761
:1049900032EE1350AE5844AE9C6311A2E7512EDDA7
:1049A000A28788D24892FF414E0B0AEE07CECCCEAA
:1049B00082A311D93DEE3B94CB3AEB9341F54E3FA8
:1049C000262AB544E93EB045F911127CBF7B2EABD7
:1049D000207788B72A82AF604CB813BDD5AAA658F5
:1049E00001F06849272A631E3136DCD201106A348F
:1049F00077043DC4A21AE02FEBA9E06D267406C629
:104A0000016E38198DE4BE4B6D79C86B6F52D711AA
:104A10006B30F200B4933AB1C3E90BAC5804009B7D
:104A200016D6AB2F8BB8D47A79CEA4A5A1DA90A9EB
:104A300056A0EBE9B455227AB8C78DECF8F39ED7AF
:104A4000162C3CD1F7F276037FC31DE46643F7656D
:104A500047D4BF9C5D99252FAD053177AA69847E27
:104A60001089C9FC65D3D7D58859E252A272982D16
:104A70005FAEB6948A87845AFA353AC8B1FB3CF6E1
:104A80003308BA79544B97527DD932AF213F461E35
:104A90005F362FDD0D4D475A58114EBD3A2A66EB51
:104AA000D059053B96E19AA03E90B6AB600E543CBF
:104AB000721F8B8E536A9A34C96D74C1E9C75DAA9F
:104AC000DFA837B24B4CD345A97F3415F55CDB4CDE
:104AD000DC62A569F6445DE7EF6A32BDD5204596F4
:104AE000213EB1D4F75E730776C8F5BF34E62F0ACE
:104AF0009767A31BCD9AC9FDB4EA688B3B7FB63894
:104B0000E653264F8A5F7A967633716CBD71BE3557
:104B1000871E47AB9C16B9D67CA7ED3E77C0ED3615
:104B20006BBDC541F240D0804241751B0CDC2E7834
:104B3000069F39C7160473F326DA1536CF7318F4B7
:104B4000665BB3977B849CA59E0049F9FD6694370C
:104B5000D49ABC1466665E3D111A2D1B56742AF950
:104B60002DC54F756B36D2304A67F04D5A04899E79
:104B7000E06DB837F03B2E61ADEAEE77999391087E
:104B80009BF34D6BE5CB1B694F320F9AC893CF1641
:104B90005D4FA427CAECCD52EA908AE92BBD7E2155
:104BA000FCCA5755DF4498237A0AE8FFADC0DEAD52
:104BB00019DC02EBB5CDA61E51253B27C4523F5848
:104BC000D7FA0608005CC680199E4937A71FE26A1B
:104BD0005070CE3EBDA68641907B56C4E1CFB33126
:104BE0007CA87D13E7597B310CB43F98D74DACA21C
:104BF0004D670C7558F1734FDB0D3D97AA73D0AB21
:104C00008F6F6407C380B6B145EAA2A7A81B08242A
:104C10003807B9CF8929276C328CE7BD7C365941DA
:104C200003CB4F9B1F1C283C315788A9D049DF3844
:104C30006F70F3A5CF13D6EE20165C2642E7C1179E
:104C4000B7ABEE9DC8DBAB87975679187F46DF047C
:104C50003089132C4E0232B0CC8C7474EDD2F42F08
:104C6000F40FD617497900777C43E640ACF35966D8
:104C7000BC18E086503E10EB30A3E7555CF1520EB5
:104C800073B7E964EF223D80C69C454E90B74474EB
:104C90001F2546A0B4B8F054B83130A112B0118D20
:104CA000FD1C7D24CE67126D6BD1811E760B0164D5
:104CB00068C811097387E881D445A7346BC03DCF1C
:104CC000AC83A227B129EA998D9868EDFD8A0492F8
:104CD00038B74D5973E0E7EE408E6E28E46FA0962A
:104CE00090BBA21F63847F2E6F074879A403A05353
:104CF0005BD5FB0A1170AD706BCB18C15436A09117
:104D00005F33D82C7877CD122E760E45EB46E559D9
:104D1000266E86D886BB619E6EFA82E73AAE05BCE7
:104D200004E7908C66397D837374688DED7D74FB28
:104D3000B0819DED4F5478A91CC91C276ED6A8AA36
:104D4000B6B8C6A4CFCD5D9C129FED35520FAC42D4
:104D5000626DFDA3662E48155D5CFA760387B55833
:104D600001D054F781F656D0A700C043951389AD02
:104D70002025A695490A2F443931A8646A092E1FB7
:104D8000E5B2BBBE32B62694DA394E3D3A3DB6AEF8
:104D90002E0374ABDF46DA827C15DD6C32CA8A5D85
:104DA000D9356A3EDF424901CF0E428D751F569BB1
:104DB0009177959BF83E2504F8FD938BA2D1080BC3
:104DC000A0FD38ED929E4D5CEFC1666A210514CDC1
:104DD000479C18DDFCC51D22E84A473DC12A9A239D
:104DE0007CDD49394EB32F72BBAD8540D1CECF7536
:104DF00061C60821793D786E22FC85C9960E4E2148
:104E000065F7F82AACB2C6599465DD186F1DD898BD
:104E1000D161BAE5B09282384D28770D4B0152F836
:104E200059956849CAEC587119D2246F1C55C4C7EA
:104E3000CEE776E72F1FE9AD0CB2CEFCF10CFA07F6
:104E4000670758FD08770104E1A18002E5E9769A39
:104E50004C991A3BC9657890D14923131882B43113
:104E600079E868E15BE8B089B84A753B43904876D9
:104E7000A0871ADE2177DD80445A177093B7DF8D43
:104E8000E1AB19F8EE880A3C84DBDBE7E206500E62
:104E9000900CDA70C0CA7D9E2BE521EF17301FFB06
:104EA000ED38E9744BFDFCCA9E85161E754A139FAA
:104EB000E97D9227197CF6AEA8C07FC6053ED9A130
:104EC000F69D7EF949F642FDA70A9F7FC577554FAB
:104ED000F2AFD557F69D9CD19C5D2B34229EEE29D6
:104EE00072ACF5F3E041D94E4FA3376D80672BB21A
:104EF0008FB88B0858CC593382A302969EBF1F608F
:104F00005C09922221E19EB10B87BD76D12BCF8027
:104F100098DFF7D33736F48B7F350A2A51F39BB9E4
:104F20009E1DE12BA59839D5023357259F383ED2D7
:104F3000096CB0F14A3969166EA507464B12227901
:104F4000BA44CE9E84A7484A6D3B5E8E888B5950EA
:104F50005F4DAA7FA55912432A266399EB7E4E9E88
:104F600001900BD5D854A9F13978D941C994BD0223
:104F700035B788C621ED2D02C1B9145A2AD3AA7CAF
:104F80005CBBBFA76E1CED5FE5F23D7A0E41F2C13E
:104F9000E8E10359005E3DEEF53042E10F375F4D29
:104FA000789611FE1E6D68602F7447671478AE50B6
:104FB000DB5C81F4720A56D2923FFA445E9ADB16A9
:104FC000E451E1CCEB8D47EB2F8CF154D15F4E6572
:104FD00069ED1E03709D87B7E0E9915FA860AF613E
:104FE0005B355EDE5739C83BA0AA99E57103DB8AC1
:104FF000444AFE9B9D9D7500F2D106F6A70A7CF0FF
:10500000909529DB6BACBEB59E7469C4EB939E632F
:10501000B6D178F64C712A2D3C6224E2D6C39CDAD4
:1050200098BF6D11CADFBFAEEE323639A8B707CED2
:105030003A1EB56FE9FA9EBE94CBEC22D93EA1E1AF
:10504000F8CA2F12683A4A6CF1DACD2B8EDB16A41F
:10505000B2DEEBE40BB64D8AF46DCB5558C8137E27
:105060002C01E0F1F1AA23CF9BDBCEDD9DCC4E8B52
:10507000580BFDDE5A28E9666F4C2C2411F5DF2908
:105080000CE7F04017F74EF79BAC12E07B7A78956F
:10509000020F8E29B1A7C2A252BB380085715E3FB4
:1050A000242A9AEE2C50E4915D7BCBEE02C2D25FB3
:1050B000D3AB64B750D25BECAF02E3091FD84FE02B
:1050C0002D3216F33585E0909B3EAE8FE1E44C4ED9
:1050D00086C05B5458B1D6963F14EFAC51F7DA0353
:1050E0009B7F69FAE36E53192852BDCEFAD0D5588A
:1050F0001C719A022866AC97FA9BF3627205E6E58A
:10510000524F88B901066BECA9B76F8DB48D8193AE
:105110009D812C5A5DAC5308FA1328F22A73D943A7
:10512000E8E458DFCCCA914B060A1503CD87312538
:1051300096B3A89F2DA5F64767C9AD233F5802ED4A
:1051400098FE2489AD93B8CD64235E9C54BA3ACDC1
:105150008EC2E67C8978A132F1F294C0BBC2AD72F6
:105160007FBDF7A807B36D971EDE0D5979BFB665F1
:1051700073D6B6B3E448D3ADAAEBD2B35944628236
:1051800060BB9CC18DA4449241EEA379EBDBD14678
:10519000F2A4EEE8F7F89AB2954EABA96EC4B354F8
:1051A00080257461D9435717CB00C91A40288186DE
:1051B0000BDFF2EF4C37381434A99AE88B322A040B
:1051C000AEFDCFF01813A7A4541755D458BED781FD
:1051D000BD5FB505C4CCFFBB5775FF84BE68F197B2
:1051E0007775E8CF7358DBF6E915C6B698B50EE2C9
:1051F000E9658C00688FB637A2BB7024F735969CA2
:10520000F6EA43372D22464A594008FD36FA522E17
:105210007FAC1CE4862594C47BEC6162FBCFB5D2E5
:1052200009A133950E9C0B5A50DBAB1322A44C9B67
:105230007071988CACAECF38B0F21C28A481CADA59
:105240004A52E09D57A10F28FE8D89F88BC45B6DF3
:105250003EF5E6F4F8E1D1389AED98EB96CF1CF6DE
:1052600063E94FDE0BFEA63A425CF60BF9A994AE59
:105270006CA22F2F141233CC68201D3D92B4E0A6EF
:105280007D0C72FF18D791701AE52B339E71218F18
:10529000B22A4B9C360D0518D2A4789C053197375D
:1052A0006E2DF2E43237FE6CF1BE0A7AE2FF36A6CA
:1052B00036C0BFE681976D2E08EE9DF62A361DA8F2
:1052C0000A095C55499E32FBFFBA25F77E99DECC70
:1052D000E30D25F2B017168647A682797858A37F8A
:1052E000B95737003D756D1398F184C513AB0B7238
:1052F00022D20C32995602BABC8BF07F8828B1E7D3
:1053000020D3DFB2AE7BB3863A19D23882A3685677
:10531000F4E9E11CAD199F72805E5096DA2C2845A5
:10532000CBFD3380F2DBB6C1B4C102FD7F814055B5
:10533000D8C2667985C00B2D54AC4D16E5E718A090
:105340001FF5CDC7FF891F2289583C2F909940EB4C
:10535000D330303D49AFBF8C5DDCDFE10E7AA082F7
:1053600077DC636405E2FD38A57EE37119B00616AB
:10537000628A9AD088F71859C65E7C5B619D6C1E64
:105380007142F0D02411DAC11078850A9F2C5DFD9E
:10539000F339752E86B01802975F0854F4FFFF2981
:1053A000BBDEBF4FC579ECBFACC7F04FD05BBBB025
:1053B000C1F5A675A4C786064174BFEB8248B5C384
:1053C000F30F6D9D1087498015941E1DA45A9DC72B
:1053D00022C9036ACD5D312671C55DAAA4AE3363CF
:1053E000CC0D6E10EA32B755127F98D0768E52DA15
:1053F0002BE381C7797BF93B2953674B7903A3568C
:10540000E491E6E6896160A3C747BDBC9339A9581A
:1054100015BB874E919633DCF713688072C0B8E6EF
:10542000DFD61A80F6C36AC803FC66697F7004F58C
:10543000F4627FA7BDD031A74378A9A5995750DD65
:105440007736FF0EDB9CE08D2ABCB76B8E656968F2
:105450000679C90D899E742EE756243532D6E61F8B
:10546000528843AC2FF3D28AC30EE133A3BD7BB481
:10547000E4FAC0B3853E653F3052B029ECA2BEA02D
:10548000D719A8D0A054730C482E1BE41A7EFF95A0
:105490004185906270097D28669A119D370F3C7195
:1054A000296F3194AEE0100C43F1FD532AA7F106A9
:1054B0007CF0D153A44BE06C888A6F6EA22906243D
:1054C000D4EDB757FDB0260A799B2218ED19B4A484
:1054D000211ADE34539DA0C6633C88319BE1EAF774
:1054E000CF525179016F3DD129E4113690C9959D74
:1054F000DA220B747B59A9778A9339937718E6E5FA
:10550000F6AA25BB4AEBDB2FC65E98AEC6E33D94F8
:1055100057C22E5BC32C4B7069852A451DE310AE24
:105520004AD61484D8943D764E7753B8DEBE4139BE
:105530004FE3F2676ED8849CC51D54F54E1A115C7A
:10554000BE79B89800F3495714C88DBE0F1E7AC8AB
:1055500023FE916D48FBC3A79C467F9892355F7EE2
:10556000B88F96958A4E6024CEC775A939BF14218D
:105570007DA8947BCF28AD11A6A965DBA60A876814
:1055800058CBCA549CB5B424715435FE681BF759E6
:105590000535AC371398FAA76D2F1E2739CA2A682C
:1055A000D7E00BEB2F09E47D55EC8277A00A344459
:1055B00057B8B47359E33E324705D45B867AC58841
:1055C000D6151896A8DE7D9A234E3A3008BA6DADEE
:1055D000F5E0975C7B2E99D8786A59639B2C58D854
:1055E0007ECC8E680742631439986893A87472362B
:1055F0004456E60940D4FE91354504BB173083423A
:10560000712805D4648358F1A0544AEA6A4F89B2DC
:10561000DDA035FD77407A52DE9B20F1BF89C0B511
:105620007C80A9D1B4E56362DD6390045796844A17
:1056300067F19BF5045E3F94AD254399C734DAF6D4
:1056400013EBF96AF81FF8697C2EEDC170463A1623
:1056500077963286855C52388C78FD4971CCD95466
:10566000A5FB4E540AA759722C26F63BF349E237A4
:10567000B1CDE57C55D8B2F553D799023D36DC3033
:105680007B358713E03F42EB865F4E0BC5E1D44587
:1056900025AED57124D772FE3A99EA489D170EECD3
:1056A000A373354F910F597200D6E2B95795C8656B
:1056B00039F09BD2A3BF80D433415C3EF870ABF687
:1056C0004DC11321C89AE855B1466720C49EDC90AD
:1056D000D9E17EAE43BE45FB91AB836A6D288ECA8D
:1056E0003DA94AAFB61F13BD5B254987EF3910F6B8
:1056F000E6F4691EEA359286EC6EB4B66D70EB4244
:10570000E443DC987C5721C6E5E2F216DD89DF36FA
:105710000360268DFB376C353832EB80C0ACE82552
:1057200091AF489DC9E9CCB44C000C5C032169944D
:1057300025387EA4DEA1913D9A35C36D5F87A01EFA
:105740008E0DADBC1A7687E5FEBC5A999CB1E38EEE
:10575000FE75F5DC71708459F245336877985B22E9
:10576000390AB9F935738D118FA973FF5C5068D66A
:105770006358853AD1490AE232A05049A50CE007A6
:1057800093E48DC8F93F056A1FC739B043577AE1E2
:105790003720221100C1D15E16B45B0976F60947A5
:1057A00078CD519E4212BB1BB4D599E5D2F5B469B0
:1057B000C925CD3D684F4C83FD4702B96B750E611D
:1057C0007A8056177158F3296DFFF3FBFF6C446123
:1057D000EB8A70B8967C566A3676861B846C484590
:1057E00055715D0C9BEDB10DB27F9188427F594B95
:1057F000EE594E68AEDB348CCFC3042C21AD883714
:105800009EC5387A5BE2030B3B58599586D2391F07
:105810006EFA0EB007252ED67EB436DE12E9CEFE25
:10582000E7548A28B9721BE367C598302843A73824
:10583000A1CB27E03FCD904946E13BDACB20921F38
:10584000A9B8249D7C9FBBC4D43ED9C430F136AFE7
:10585000D7769CC24536BC16F32C4FD6940201E095
:10586000D9FAABC889FFB8FDE45A6C97758210FF6E
:1058700064272805874A579A27F063616EB3A5C14C
:10588000C13D0FAF297195EBBEF208BEF5737E6C7A
:105890008404DA2706506E3E13A742E589DE3AA556
:1058A000B77962089A91463889EFEAA60D68F0F751
:1058B00064C19756FF2091CB038D0F70A3F89A1DFA
:1058C00060C17A8F22027C48E0F85438D4DC9DB164
:1058D0007AD27A26CC29AF41823F6787C56AD547FD
:1058E0008C9B85E3FB5659E88DD1CE8D7D59F328ED
:1058F0006815E99F6A0125B3D25A2A115F0FD26950
:1059000083F25E3FEA1980A3ACFFBE88F613B17143
:10591000107A842DED8FAC9EE5484834DA1A7BA7C7
:10592000834A67BA6FBC70546F20FA2508555F88A8
:105930005913B6885C0E4BE5A7FFB9814C5E69E749
:10594000ED4455485671F4C77964B7ED33F3C0039D
:1059500061EBEBF72FE7368B1178E5F516FEE18E5C
:10596000CE89FE9C9DF370B5D2C44B930E0765950E
:1059700060349A3ADE8DAE990D7CAAF8EFF6B9380C
:105980003432B07520782388A2782A1AF8126E6B08
:1059900027D7573EDC9EFBF9BB9860EE6F4CB52BCA
:1059A000C91B5BFA5F54473626B485058842BF128F
:1059B000643C5FBF959EF02A7261E866147F7B8924
:1059C000A897283DA25DBC3448F01F9C761A054F6D
:1059D000376E353C3062C9288944E58F6F4BB05033
:1059E00020CEBC826425A0B8C35C44EC18DB8A617D
:1059F000A9B7DB3E66581D1189F33F052BFE885C75
:105A0000F5FF878BA7C5DAFD40D399F6997304B9E2
:105A10004F4DC175E731DE7FF632695F931D045D3E
:105A2000CC7528804E08FACCB513EB2B011B75B44E
:105A3000CA5A121892F3B0C90014FCA70C1E86357E
:105A4000A638044EC18FAD592185C155FD343BE6C2
:105A50002E3B5BF239C233056F44EA1A54E0FC86F0
:105A6000E6193A0C3D96550390DC8473B6642365C1
:105A7000CF25D54CCD33D5878D3CC53237E5630670
:105A8000003E7EB854A5FB1E62D478624F7E4D81E5
:105A9000FD2DAA48F65A2F56EEFABB7A899FE1B13E
:105AA000ADCE23062AAADBCEAD243027FE2627B3AF
:105AB000215CA914556621D96D5A8FD89AD86C3FAC
:105AC0003C4920CED8227487ED4910C76816D5E42A
:105AD0001A9A7BEC73159E37AD0D5AC7180D4E01FF
