:020000040800F2
:1000000000100020F102000891120008911200086F
:100010009112000891120008911200089112000834
:100020009112000891120008911200089112000824
:10003000911200088C7901089112000891120008B1
:100040009112000891120008911200089112000804
:1000500091120008911200089112000891120008F4
:1000600091120008911200089112000891120008E4
:1000700091120008911200089112000891120008D4
:1000800091120008911200089112000891120008C4
:1000900091120008911200089112000891120008B4
:1000A00091120008911200089112000891120008A4
:1000B0009112000891120008911200089112000894
:1000C0009112000891120008911200089112000884
:1000D0009112000891120008911200089112000874
:1000E0009112000891120008911200089112000864
:1000F0009112000891120008911200089112000854
:100100009112000891120008911200089112000843
:100110009112000891120008911200089112000833
:100120009112000891120008911200089112000823
:100130009112000891120008911200089112000813
:100140009112000891120008911200089112000803
:1001500091120008911200089112000891120008F3
:1001600091120008911200089112000891120008E3
:1001700091120008911200089112000891120008D3
:1001800091120008911200089112000891120008C3
:1001900091120008911200089112000891120008B3
:1001A00091120008911200080348044B834202D0C8
:1001B000034B03B118477047201900202019002075
:1001C00000000000064B0749C91A891048BF0131D9
:1001D000491003D0044B0BB101481847704700BFCA
:1001E00020190020201900200000000010B5064C46
:1001F000237843B9FFF7D8FF044B13B10448AFF39A
:1002000000800123237010BD841A0020000000002C
:10021000007A010808B5054B1BB105490548AFF345
:100220000080BDE80840FFF7CDBF00BF0000000020
:1002300020190020007A0108A3F5803A704700BF1A
:10024000174B002B08BF134B9D46FFF7F5FF00210E
:100250008B460F461348144A121A01F0C6F90E4B8A
:10026000002B00D098470D4B002B00D09847002062
:10027000002104000D000D48002802D00C48AFF307
:10028000008000F0D7FB2000290000F089FA00F080
:1002900001FB00BF0000080000000000000000009B
:1002A0000010002020190020881A00200000000003
:1002B000000000000346054A0549106803448B42CC
:1002C0008CBF4FF0FF301360704700BF001000205C
:1002D000000008200348044A0449121A921000F052
:1002E000D8BF00BF3483010834830108881A002076
:1002F00008B500F02FF8FFF7EDFF124B12498B42C3
:1003000012D30020114B12498B4218D3FFF798FFEC
:10031000186850F82240586840F822400132986826
:100320008242F5D30C33EAE70022F8E71C6844F870
:10033000220001325C68A242F8D30833E4E70022CD
:10034000F8E700BF087A0108147A0108147A010856
:10035000147A01084FF480414FF0FF30114B124ADC
:1003600010B59A60D3F8882042F47002C3F8882050
:100370000E4A91660E4901F5005210660D4850660E
:100380000220C3F8D000BFF34F8FBFF36F8F01245B
:100390004FF440330848C0F88041D36004600B61DB
:1003A00010BD00BF00ED00E000000008009000500C
:1003B00000800044FFF7FF2F00E100E008B5B0B176
:1003C0004FF480620B4B9A6600F088FF4FF0984321
:1003D0005A6CD202FCD54FF48062586D064B10F473
:1003E00070209A6604D0BDE8084000F098BF212034
:1003F00008BD00BF0090005000A0005010B504469A
:1004000068B161B10023074A8360C0E90023C3617A
:1004100000F05BFF2046BDE81040FFF7CFBF212072
:1004200010BD00BF0000024310B5044668B161B1C1
:100430000023074A8360C0E90023C36100F045FF41
:100440002046BDE81040FFF7B9BF212010BD00BF16
:100450000000034370B50E461546044686B0D0B181
:10046000C9B1C2B100230D4A8360C0E90023C36152
:1004700001AB039301230493094B03A9059300F0F7
:100480001AFF2046FFF79AFF18B9019B3360029BC1
:100490002B6006B070BD2120FBE700BF00000443C5
:1004A000080000201FB5044698B191B100230A4A04
:1004B0008360C0E90023C361012301910293074BCC
:1004C00001A9039300F0F7FE2046FFF777FF04B081
:1004D00010BD2120FBE700BF0000084304000020FE
:1004E00010B5044600F0E0FE024B1C6000F0E0FE98
:1004F000002010BD3819002010B500F0D5FE034BC8
:100500001C6800F0D5FE204610BD00BF3819002041
:1005100013B5002301241A4619461846009400F02A
:10052000CBF8002300941A461946184600F0F6F856
:100530000248FFF7D5FF002002B010BD04100020D4
:1005400008B5124BA8220021184601F04EF80322EC
:100550000346026142610E480E4A98614FF4806181
:10056000DA61002219629A625A62DA6218660A48EF
:100570005866996609491A67DA665A6711F8010DD3
:1005800098540132102AF9D108BD00BF7818002014
:1005900079780108781400207810002092780108FA
:1005A0002DE9F84FDFF88080824698F800308946C0
:1005B000532B164601D0FFF7C3FF182707FB0A8706
:1005C0003D6FD7F86CB05D452BD9BC6E796E641B5E
:1005D000B44228BF344648462944224601F010F868
:1005E000BB6E2544AB4208BF0025A144361BABEBD4
:1005F000050B5E4528BF5E4656B1182303FB0A83F0
:10060000596E32462944484600F0FAFF34443544D6
:1006100024B1182303FB0A88C8F870502046BDE8AF
:10062000F88F0024E3E700BF78180020F8B51827FA
:1006300000FB0775124B0E461D4407FB0033DB6AB7
:100640001446012B0AD0022B14D023B9284600F0FF
:10065000FEFE844208D900242046F8BD284600F05A
:10066000F6FE844228BF044622463146284600F062
:10067000F7FEF1E72846BDE8F84000F00CBF00BFE8
:1006800078180020F8B50B4B04461B780D46532B09
:10069000164601D0FFF754FFEFF311874FF020010A
:1006A00081F31188324629462046FFF7BFFF87F3C2
:1006B0001188F8BD781800202DE9F041164C1E462F
:1006C00023780546532B8846174601D0FFF738FF9D
:1006D000022D1DD8EFF3118C4FF0200181F311880A
:1006E00065B1182005FB000344F80380E2180023DD
:1006F000576000FB0542166293625362182303FBA6
:100700000544069BE3628CF311880020BDE8F0816C
:100710004FF0FF30FAE700BF781800202DE9F843CA
:10072000154E1F4633780546532B8946904601D017
:10073000FFF706FF022D1BD8EFF311824FF02001C7
:1007400081F3118855B11824002304FB0564C4F813
:100750006090C4F86480A7662367E366182303FBF0
:100760000566089B736782F311880020BDE8F88353
:100770004FF0FF30FAE700BF781800204FF4005325
:1007800082B00193019B5A1E0192002BFAD1034AB9
:10079000136923F00403136130BFF9E700ED00E0B3
:1007A000F0B58DB00021202204A800F01EFF4FF00C
:1007B000FF344FF480322C4B01945A664FF4806220
:1007C0009A66FFF7A5FE00F0A6FD04A800F0D5FD8F
:1007D00003AA02A904A8CDE90244FFF73BFEDDE924
:1007E0000212224800F00CF9214D01A904A8FFF7DC
:1007F00059FE01991F4800F003F9EC681E48214694
:1008000000F0FEF8019B24F07F4423F07F43A342D5
:1008100004D31A4800F006F9FFF7B0FF184F194E3D
:100820003B681B68B34201D11748F3E704A800F006
:10083000A4FD294604A8FFF7E1FD0446014613483C
:1008400000F0DEF84CB93B6829461E6004A8FFF7AB
:10085000EBFD01460E4800F0D3F804A800F097FD28
:1008600000F05BFDD8E700BF0090005093780108CE
:10087000E01A0008D2780108EA7801080A7901082C
:1008800010100020EFBEADDE347901085879010860
:100890007079010808B5064B044613B10021AFF387
:1008A0000080044B1B6803B19847204600F09FFD71
:1008B00000000000741A0020002310B50446836075
:1008C000818119464366C28108228361C0E90033F1
:1008D000C0E904335C3000F088FE0D4B2462636293
:1008E0000C4BA3620C4BE3620C4B23630C4B9C42FE
:1008F00006D003F16802944202D0D0339C4205D165
:1009000004F15800BDE8104000F077BE10BD00BFF4
:10091000A7180008C91800080119000825190008BF
:100920003C190020024A0349034800F0EBBD00BF18
:1009300014100020571800082410002041680C4BA8
:10094000994210B5044601D000F085FFA168094B1B
:10095000994202D0204600F07EFFE168064B9942A2
:1009600004D02046BDE8104000F075BF10BD00BFA8
:100970003C190020A41900200C1A002010B50B4BC4
:1009800004210B4C0B4A20461A600022FFF794FF0B
:1009900004F1680001220921FFF78EFF04F1D00065
:1009A00002221221BDE81040FFF786BF741A002012
:1009B0003C19002025090008014800F01FBE00BFB7
:1009C000861A0020014800F01ABE00BF861A0020D7
:1009D00010B50446FFF7F0FF236A1BB1BDE81040D5
:1009E000FFF7F0BF044B2362044B1B68002BF5D1CB
:1009F000FFF7C4FFF2E700BF3D090008741A0020AA
:100A00000FB407B5064904AB086853F8042B816896
:100A1000019300F033F803B05DF804EB04B07047C5
:100A200020100020024B0146186800F089BD00BF6D
:100A30002010002070B50D4D00260D4C641BA41035
:100A4000A64209D10B4D00260B4C01F029F8641B7E
:100A5000A410A64205D170BD55F8043B0136984755
:100A6000EEE755F8043B01369847F2E77010002096
:100A70007010002070100020741000202DE9F04F3D
:100A80000D469DB014469846064618B1036A0BB948
:100A9000FFF79EFF6B6ED90705D4AB899A0502D488
:100AA000A86D00F0ABFDAB891B0701D52B699BB985
:100AB0002946304600F0D4FA70B16B6EDC0704D5DD
:100AC0004FF0FF301DB0BDE8F08FAB899805F7D42B
:100AD000A86D00F094FDF3E70023CDF80C804FF0F3
:100AE0000109DFF8B481099320238DF829303023E0
:100AF0008DF82A3023469A4613F8012B0AB1252A8D
:100B0000F9D1BAEB040B0BD05B462246294630469E
:100B100000F09AFD013000F0A780099A5A4409922A
:100B20009AF80030002B00F09F8000234FF0FF3236
:100B30000AF1010A049307938DF853301A93CDE913
:100B4000052354460522544814F8011B00F08DFF7C
:100B5000049AD8B9D10644BF20238DF85330130727
:100B600044BF2B238DF853309AF800302A2B15D030
:100B7000079A544600204FF00A0C214611F8013B19
:100B8000303B092B4BD9B0B1079214E0A0EB08031E
:100B9000A24609FA03F313430493D2E7039B191DFA
:100BA0001B68002B0391BBBF5B4242F0020207931C
:100BB0000793B8BF049223782E2B0AD163782A2B8F
:100BC00032D1039B02341A1D1B6843EAE37303927C
:100BD0000593DFF8D4A003222178504600F045FFAA
:100BE00038B1A0EB0A004022049B01348240134339
:100BF000049314F8011B062228488DF8281000F0F1
:100C000034FF00283FD0264B1BBB039B073323F048
:100C1000070308330393099B3B4409936AE70CFBE2
:100C200002320C460120A8E7002301344FF00A0CE1
:100C300019460593204610F8012B303A092A03D9AA
:100C4000002BC6D00591C4E70CFB0121044601230B
:100C5000F0E703AB2A4604A930460093114BAFF3EB
:100C600000800746781CD6D16B6ED90705D4AB89B6
:100C70009A0502D4A86D00F0C2FCAB895B063FF573
:100C80001FAF09981EE703AB2A4604A9304600931C
:100C9000044B00F0ADF8E4E7CC790108D6790108FF
:100CA0000000000049160008D279010870B50F4E07
:100CB0000C460546316811B900F07EFA30602146D5
:100CC000284600F079FA431C03D14FF0FF34204648
:100CD00070BDC41C24F00304A042F8D0211A284699
:100CE00000F06AFA0130F2D1EFE700BF781A002075
:100CF0002DE9F843CD1C064625F0030508350C2DDB
:100D000038BF0C25002D01DBA94204D90C23336028
:100D10000020BDE8F883DFF8D48000F095F9D8F81A
:100D200000301C4644BB29463046FFF7BFFF431C3A
:100D3000044658D1D8F800402746002F43D1002C54
:100D40004BD023683946304604EB030900F034FAEF
:100D5000814542D1216830466D1A2946FFF7A6FF2A
:100D600001303AD023682B442360D8F800305A6809
:100D700062BBC8F800700FE02268521B20D40B2A17
:100D800017D96119A342256018BF5960636808BF6D
:100D9000C8F8001062514B60304600F05BF904F176
:100DA0000B00231D20F00700C21A1CBF1B1AA35002
:100DB000AFE76268A3420CBFC8F800205A60EBE7B7
:100DC00023466468AEE73C467F68B6E71A465B6830
:100DD000A342FBD100235360DEE70C23304633608F
:100DE00000F038F994E70560D6E700BF7C1A0020D0
:100DF0002DE9FF470F7E914680460C46782F9A4694
:100E00000C9E01F1430207D8622F0AD8002F00F090
:100E1000DD80582F00F0C38004F1420684F8427050
:100E20003AE0A7F16303152BF6D801A151F823F09E
:100E3000890E00089D0E0008190E0008190E000802
:100E4000190E0008190E00089D0E0008190E000862
:100E5000190E0008190E0008190E0008B30F00083B
:100E60002B0F00086B0F0008190E0008190E000860
:100E7000D50F0008190E00082B0F0008190E0008E6
:100E8000190E0008730F000833681A1D1B683260C2
:100E900004F1420684F842300123A8E03168236857
:100EA000081D30601E0601D50D6803E05D06FBD508
:100EB000B1F90050002D616878DA2D200029A16079
:100EC00084F843002DDA6D425D480A231646B5FBCF
:100ED000F3F103FB1157C75D06F8017D2F460D4660
:100EE000BB42F4D9082B0BD12368DF0708D523694F
:100EF00061689942DEBF302306F8013C06F1FF36F7
:100F0000921B22614B4603AA21464046CDF800A021
:100F100000F0ACFB01306FD14FF0FF3004B0BDE802
:100F2000F08723F004032360CDE7216833680806C7
:100F300053F8045B02D4490648BFADB26F2F33604B
:100F40003F4814BF0A230823002184F84310666831
:100F5000002EA660BADB216821F004012160002D7B
:100F6000B4D1002EB2D11646BCE7236843F020036B
:100F7000236078273348236884F845701F0631685A
:100F800051F8045B02D45F0648BFADB23160D907A7
:100F900044BF43F0200323601DB11023D4E7284849
:100FA000E9E7236823F020032360F6E724480A23B7
:100FB000CDE733682568181D616930602E061B680F
:100FC00001D5196002E06806FBD51980002316469A
:100FD000236197E7336800211A1D32601E6862683A
:100FE000304600F042FD08B1801B606063682361F9
:100FF000002384F8433085E723693246494640465A
:10100000D047013088D023689B0714D4E068039B45
:101010009842B8BF184681E7012332464946404608
:10102000D04701303FF478AF0135E36803995B1A8C
:10103000AB42F1DCEAE7002504F11906F5E700BF51
:10104000DD790108EE790108014800F0D7BA00BF48
:10105000851A0020014800F0D2BA00BF851A00208E
:1010600038B5294B05460C46186818B1036A0BB908
:10107000FFF7AEFCB4F90C30190722D4DA0607D416
:1010800009222A6043F040034FF0FF30A38133E090
:10109000580712D5616B41B104F14403994202D063
:1010A000284600F0ABF800236363A38923F02403F0
:1010B000A3810023636023692360A38943F00803AD
:1010C000A38123694BB9A38903F42073B3F5007F8F
:1010D00003D02146284600F08CFCB4F90C3013F004
:1010E00001020AD00022A26062695242A261226912
:1010F00042B913F08000C5D138BD990758BF626965
:10110000A260F4E70020F7E72010002038B50023A4
:10111000054D044608462B6000F067F9431C02D1D8
:101120002B6803B1236038BD801A002038B5002336
:10113000064D0446084611462B6000F059F9431C41
:1011400002D12B6803B1236038BD00BF801A002094
:1011500038B50023054D044608462B6000F04DF9D4
:10116000431C02D12B6803B1236038BD801A0020D4
:1011700038B50446064D0846114600222A601A4634
:1011800000F03DF9431C02D12B6803B1236038BD48
:10119000801A002038B50446064D08461146002244
:1011A0002A601A4600F02DF9431C02D12B6803B1C6
:1011B000236038BD801A002038B50023054D044651
:1011C00008462B60FFF776F8431C02D12B6803B169
:1011D000236038BD801A002038B50446064D084605
:1011E000114600222A601A4600F019F9431C02D168
:1011F0002B6803B1236038BD801A002038B505463E
:10120000002941D051F8043C0C1F002BB8BFE41852
:10121000FFF71AFF1D4A136833B96360146028464C
:10122000BDE83840FFF716BFA34208D9206821184F
:101230008B4201BF19685B6809182160EDE71A4607
:101240005B680BB1A342FAD911685018A0420BD1C8
:1012500020680144501811608342E0D118685B682F
:10126000084453601060DAE702D90C232B60D6E7FC
:10127000206821188B4202BF19685B6809186360F7
:1012800008BF21605460CAE738BD00BF7C1A002047
:10129000FEE710B53AB1002350F8234041F823404F
:1012A00001339A42F8D110BDEFF3108072B6704747
:1012B00000B962B67047836813B9816070475B6894
:1012C0005A68012AFBD159607047C369032B9FBF3D
:1012D00000EB83020133D160C3617047C369042B03
:1012E00014D84FF09842116CC902FCD504339B000E
:1012F00013650168103B11604168116050F8081FC8
:1013000011604FF098420344984200D1704750F862
:10131000041F1160F8E70020704700207047B0F507
:10132000802F22D010D8B0F5003F20D007D818B3B6
:10133000B0F5803F08BF482018BF01207047B0F5C6
:10134000403F08BF2C20F7E7B0F5302F11D007D869
:10135000B0F5E02F0FD0B0F5202F08BF1020EBE73D
:10136000B0F57F0F08BF0620E6E74B2070472A2024
:101370007047112070472120704708B528B12022FE
:10138000002100F032F9002008BD2120FCE708B15F
:10139000FFF7F3BF2120704770B50C46154610B912
:1013A000FFF7AAF838B143682BB12A462146BDE8B9
:1013B000704000681847232070BDF7B50D461646EB
:1013C0001C4648B103B901AC87685FB12346324679
:1013D00029460068B84706E0FFF78EF804B901AC6B
:1013E0000028F1D1232003B0F0BD00207047FEE7B4
:1013F0004FF4005300204B607047012070470020DD
:10140000704707B5002001AB0190FFF7D6FF0198A8
:10141000002808BF4FF0FF3003B05DF804FB10B5A3
:1014200014460020FFF7B8FF204610BD10B500207D
:101430001C4600F059F8002820600CBF1B2000203B
:1014400010BD08B50020FFF71DF9002008BD036995
:10145000C26893429CBF81685B18013B981A704731
:101460002DE9F041D0E902840546A8EB0406406866
:10147000964220440F46144404D900F0C1F8EC60B1
:10148000BDE8F0813246A4EB080400F0B9F822462A
:101490006868B919F1E72DE9F84306468946174609
:1014A0004FF00008C5683369B4689D4228BF1B1916
:1014B000641BBC4228BF3C46013B5B1B9C4228BFCF
:1014C0001C46706849462844224600F099F8B368E3
:1014D0002544AB4208BF00253F1BA044A144F56052
:1014E000E1D14046BDE8F88310B50B46EFF3118417
:1014F0004FF0200181F311881946FFF751F884F36A
:10150000118810BD2DE9F843074688461446002689
:10151000D4E90195B9F1010905D52468002CF7D16A
:101520003046BDE8F883AB89012B07D9B5F90E30F9
:10153000013303D029463846C04706436835E9E7FA
:10154000036A70B505460E4684680BB9FFF740FA8A
:10155000636EDB0705D4A389980502D4A06D00F063
:101560004DF8A389190702D52369002B35D12146EF
:101570002846FFF775FD80B34FF0FF35636EDA073D
:1015800005D4A3899B0502D4A06D00F038F8284645
:1015900070BD002B15DB23685A1C22601970A368EC
:1015A00016F8011F013BA3600029F2D1002B16DAC7
:1015B00022460A21284600F0B9F90130DCD00A257C
:1015C000DCE7A2699A4201DC0A29E4D122462846D6
:1015D00000F0ACF90130E2D1CEE7013EDFE723684D
:1015E0005A1C22600A221A70E9E702440346934219
:1015F00000D1704703F8011BF9E770477047704747
:101600000A44431E914200D1704710B511F8014BB6
:10161000914203F8014FF9D110BD9368013B002BB3
:10162000936010B408DA9469A34201DB0A2903D15C
:101630005DF8044B00F07AB91368581C1060084636
:1016400019705DF8044B7047F8B506460F4614460E
:10165000D518AC4201D1002007E03A4614F8011B2E
:101660003046FFF7DAFF431CF3D1F8BD2DE9F04710
:10167000164698468A6807460B690C46DDF82090A6
:101680009342B8BF1346336091F843200AB1013347
:1016900033602368990642BF33680233336025689C
:1016A00015F0060506D104F1190AE36832689B1AA1
:1016B000AB422BDC94F843302268003B18BF012377
:1016C000920630D404F1430241463846C8470130FF
:1016D00023D023681A3454F80A2C03F00603042B91
:1016E0000ABF54F80E5C002533684FF0000608BFAF
:1016F000ED1A54F8123C08BF25EAE5759342C4BFC1
:101700009B1AED18B5421AD1002008E00123524679
:1017100041463846C847013003D14FF0FF30BDE89D
:10172000F0870135C1E7E1185A1C3020023322440A
:1017300081F8430094F8451082F84310C2E7012372
:10174000224641463846C8470130E6D00136D9E73F
:10175000B1F90C202DE9F041170705460C4656D487
:101760004B68002B02DC0B6C002B3DDDE66A002E83
:101770003AD0002312F480522F68216A2B6025D0C2
:10178000626DA389580705D56368D21A636B0BB1E4
:10179000236CD21A216A0023E66A2846B047411C0E
:1017A00024D00023636023692360A389DA0400D571
:1017B0006065616B2F60B9B104F14403994202D0B6
:1017C0002846FFF71BFD002363630DE00123284635
:1017D000B047461C0246D4D12B68002BD1D01D2B1C
:1017E00001D0162B2AD12F6000202EE02A68B4F9F0
:1017F0000C3042B11D2A01D0162A21D1002363608A
:1018000023692360D5E7626022692260CEE70F6911
:10181000002FE9D093070E680F600CBF4B690023BF
:10182000A6EB07088B60B8F1000FDDDD43463A46B2
:10183000216A2846A66AB047002808DCB4F90C30B3
:1018400043F040034FF0FF30A381BDE8F08107442F
:10185000A8EB0008E7E738B50B6905460C4613B955
:101860000025284638BD18B1036A0BB9FFF7B0F858
:10187000B4F90C30002BF3D0626ED00704D4990574
:1018800002D4A06DFFF7BAFE28462146FFF760FF9D
:10189000636E0546DA07E4D4A3899B05E1D4A06D05
:1018A000FFF7ADFEDDE710B50C46B1F90E10FFF7FE
:1018B00071FC0028ABBF636DA3891B1823F4805310
:1018C000ACBF6365A38110BD2DE9F0411F468B8934
:1018D00005460C46DB05164605D502230022B1F964
:1018E0000E10FFF745FCA3893246B4F90E102846C6
:1018F00023F48053A3813B46BDE8F041FFF76CBC65
:1019000010B50C46B1F90E10FFF732FC431CA38949
:1019100015BF606523F4805343F48053A38118BF3F
:10192000A38110BDB1F90E10FFF7F0BBF8B50E465C
:101930001446054618B1036A0BB9FFF749F8A369C5
:10194000A360A3891A0701D5236943B92146284614
:10195000FFF786FB18B14FF0FF373846F8BD236814
:10196000F6B222693746981A6369834205DC21463C
:101970002846FFF770FF0028EDD1A368013BA36064
:1019800023685A1C22601E70431C62699A4204D06C
:10199000A389DB07E1D50A2EDFD121462846FFF7D0
:1019A0005AFF0028D9D0D6E770B50C46B1F90E1011
:1019B00096B0154600291E460CDAA389002113F0C3
:1019C000800F14BF40234FF48063002031602B60F0
:1019D00016B070BD6A46FFF7A9FB0028EDDB019940
:1019E00001F47041A1F50053594259414FF480630D
:1019F000EBE78B89F7B59D0706460C4607D504F142
:101A00004703236023610123636103B0F0BD01AB91
:101A10006A46FFF7C9FF009F054630463946FFF783
:101A200067F948B9B4F90C309A05EED423F00303F2
:101A300043F00203A381E2E7A389206043F080031F
:101A4000A381019BC4E904075BB1B4F90E103046D1
:101A5000FFF77EFB28B1A38923F0030343F00103C2
:101A6000A381A3891D43A581CFE7C9B203460244E0
:101A700010B59342184601D1002003E004780133E9
:101A80008C42F6D110BD00000000000000000000F4
:101A90000000000000000000000000000000000046
:101AA000F8B500BFF8BC08BC9E467047F8B500BF4B
:101AB000F8BC08BC9E467047000000000000000013
:101AC0000000000000000000000000000000000016
:101AD0000000000000000000000000000000000006
:101AE000EB17A65E915D0100F45C010005020204A3
:101AF000010100006A43242C5463DDE5802AFE1AAC
:101B0000113327BA8B809C02966B5CD91C58F36208
:101B10008834979DB62C000D61A07D87E095ED0976
:101B200074196DDBF1D3411613C92584FD2241647C
:101B3000DF0D4A29BF74B7D466FB2E8CB653EA5E1C
:101B4000CBC2F86200231B18973DA6F563E7021687
:101B50000166AB886B46F977DC6B8362617788C27C
:101B600083FCEA649C3B848407D052F993D41531FA
:101B7000C6A0FCD8F6B3965CB35356FD620016239C
:101B8000767CF77E05390048550257B2A0D0138CF9
:101B900040450B53C1DF9EF16ECA5533A46B6A807A
:101BA00006CE0EE4F1DD8AAECC5A8E8A4B589FD712
:101BB00034B329D3DD1D3BB0424F7F07889DA77109
:101BC0007BB1038725DBBCAB060BFDAB2FE1DE4F02
:101BD00044930690485CC412F5E5B60371BE92AF1B
:101BE000B659494D618EC16B532031831BDC73574D
:101BF0000837F4E74D006F3F8DD2D6BAFD2C393946
:101C000032448CF6B023027129DCC273644A545802
:101C1000064E12108FF7A66F6DCABB013D4AD7E87A
:101C200074AF15AD13879043DF7DC65C0B445576CA
:101C3000C51AD80D0680783B5A3E973F191A4CD2E8
:101C4000004C62C21EA69A00D7C0378FBBB1A6E96E
:101C5000FCBF6901E22A547BDF4B32490345AF35B3
:101C600043FCD00AC09DC69FCF1621304FF4517857
:101C7000CAC44CC31165B523FA250914D650031301
:101C80005B96B5D4B539CF916593CD1069C896B23E
:101C9000CACE0ACCF0E1E05035F5A4319C78FA5177
:101CA0009A89340CE4ABF94D83A5D5A58C941BE53A
:101CB000135CDA9D025F3C3F064AA58805374C421B
:101CC00042A54AA3EB4EFAC461EC8526AE62A3DBC3
:101CD000FCB729968B28C2B899915E1EDF9A4C0DED
:101CE0005399F3DEE8B115DADC4568E72DA90C2B32
:101CF000A9A8A86D4B584F90E7EEF650EB9A8007D5
:101D0000B8F0269BABE942EAF12A7FFEB472B9A093
:101D10000CB0C4C90B8649054EBE1465DF3EA88CC5
:101D2000F8A158C690FD92DFB27A5BF964865975C6
:101D3000504D72E4EE54ED882A5F87B0F7335B1C98
:101D40001669F53B4D5D2642ED43E036FFED4D3122
:101D50001975C1B1F1A7F2976D67C357DD38B5A505
:101D6000FF1A98B61CF238F10EDF07B50B0CB70B53
:101D700042056BDABB1D6AB46B975F3399D9215A60
:101D80006AFCCB9CC04089306FD8E0218D8499C912
:101D90008AC582EABBF9722BEA5C298370B8EA76BD
:101DA000E07082DF12236CB1B9ADF73CD6BA8FA3D5
:101DB0006AF1E54106715694EEFF8897C53F6B9C2A
:101DC000AC098CE59DB940B4D2E18E529FB32C8012
:101DD000C81473EA5FDBD7AFE03B8F704AA7AFF759
:101DE0000D9F79A7B95E84092AE56059F75D91CB0B
:101DF0005AB6CDA95F38397A45DAD2D2236133AFEA
:101E0000167EAB2B09E92941A2E5959995B3A9481E
:101E100097A6E009AF1AE3465F46FA0DE60FBC5AF3
:101E200036C9843FE399E51880989925F11340F568
:101E30007CC1596FA661D889DB7D68F1CE40D53869
:101E4000C4CC9FE1446A6683172FF453F2501CCE32
:101E5000ABEED22AC80F90DB25345404231A56D691
:101E60001E15E9A4AE30B9055B8F162664E7B8E904
:101E700085A7D47759503CE8381491191C43F533A1
:101E800044A39EEA75086F4C6C1D41F63DEFB09877
:101E90008935AF52B2C4EC3EEF9B3EB61B05DABBB0
:101EA000D88EC72935E3B9FEDCFA9BEF6F6BF4419E
:101EB000FCA47CF55C1A56E0F928BB4A30AFF31855
:101EC00074E0B912F1A8533295E9F14DD8C6B603C2
:101ED000F744DD220B566DDF53F805ACBDDE9147AC
:101EE0008DF831A7B408C80C32B9828033CF7CC0DA
:101EF0007E2A2894F77A9A2A51757B367A4FCE5EDD
:101F0000BD2704DFDC90545E100A0C934685FB70FD
:101F1000337FB6DBD443D8DBDAFD48E730280FFD4A
:101F20002938C4B70EC758AF53566CD10D9F929540
:101F3000806FD38139075543FDC877AE6CD21D78C9
:101F4000E0AECCAB0D144FBDD764FA70948E5E7AC0
:101F50006B741EDE3ACCE105D1936C731E699D82D1
:101F60001E1AEC00F2A3EB4BDD20A03DA09E5B8689
:101F700015F415BFBAB38BB09AC2EC15FCB8ADF32B
:101F8000F612CC831D639047A25C3686FFA4A68B15
:101F9000FA5AD18A1A976C224D7C0D2F524CCF8D54
:101FA00049701DD7AA8513A6E80EBD5320D238BBB1
:101FB000EE84E98BEF8672BB1F5CA20D3DB0A55F7E
:101FC0001646A2CE4BB53471FF5CEAF2A45B15F85D
:101FD0000E63B29451BAD2A67E8E4EE659A7309EB9
:101FE000A8D351A03EC7001CA2EEFE51DEEA12FDAE
:101FF000B09CE9B04C57CC8C44A9A9BBCD04368B1E
:10200000009003E93899984F9CD54A6796E8DEA37B
:102010003BE39623B7C37177524CAC80678EFCCDFF
:10202000B8E13C9069881FF76523DFD08402EA4C51
:102030007D8BC0A3B4CBB4652F25E6836AFDF9A9D7
:102040000C22475EE3C370EBF1D75CB3E0525ECF86
:10205000F387109203DCC99B751D959A0A7E4A3757
:10206000455CF56D3809653E1157BD1E00D605F774
:102070009FEE380CE0404BC2FAE43D137DDA7897CE
:10208000AC037C7792A52612F469B29EAD82E97DFD
:10209000675F591B4285454DA10711F44F7057F4F6
:1020A000DB22A6246EACD68F3DCEBE9E2B6D0CA837
:1020B000D9C76D282474F8C4AD534201A6006EF749
:1020C0002356C63E73C67B549509965960F2D933A0
:1020D00025028336466098B5DE955F961BD4342280
:1020E000812122985D3E57A900BCA5152FD183DE22
:1020F0003FD1D6E53CFA8A57007A28307D3F3D76BD
:1021000059B9BDD1DCEC45AB871389EF9186F5ABAE
:102110007E4CEB2DC76BD21B75C49E91FBBCAEA44D
:1021200079F6F9C2B7EBDAF1BA6B60284E0D996C0B
:10213000A21805978048B2B58EB19328349C1946F1
:10214000E88C9080A945377D8F025B6CF26A6098BD
:102150005DDC59FE4EFB1A4D3503F01A00321F2686
:102160001711584F5066278F2EAC117DD9197C0955
:1021700025AD1B523D5BB1F249A04F739BE3B141CA
:1021800036E4CECBCC54C06559F6B1F497747A5A84
:102190002290187F6FFF9BC7518FFB507DAE95013A
:1021A00055257827751A919F56ED4EAD9A49CAC9A3
:1021B000318361BA7FE11CDF79FC1ED3D25F08183E
:1021C000AF91ABFF25DAA88EDCBC3A6FD86657D446
:1021D0005D7B76C97B62AC353D6D4724334AFF7A1F
:1021E0003D6EAE83CF1D8757E0E447DF721531B1F6
:1021F0000A3F160CF91E40258EA0AC0F378FD74F23
:102200005B3AD1EA5F41F42D2BCAD200E2C9AF920A
:10221000635B5A2E5A3E1D81B624291A96066977A9
:10222000F509E86FA5820E4EB910F2B1C42026A9B7
:1022300041B5BF0DF529AA8237FF0EAE7B7F57D778
:1022400067E2C376B95190B946021DEF88A79C5446
:10225000CA98AFABC8D0548DBF36D6BAC8F3AFEE6C
:10226000B0A2BD476EAC13B5C9AC621166DF5F2E7C
:102270004ABC9CD322494663692C23DB3313E81BF9
:1022800072E96C22D9788A121910C9FE080491F0FB
:102290000C286CE7D67A70B642081C25DE08A29E90
:1022A0006E906F2F43B53FB5D6EDE5CC44DDAFC69C
:1022B000D37EF754780E64718B9DA09825B18CD68F
:1022C0009DAF21B95201A7E0F889860A95BF1B0B83
:1022D0007932F72AFC66945D35B406C621FF237374
:1022E0009BBC7ABEE7964817EEF120D3F4EFB8A76F
:1022F000D27F8D3978FA3C15AFC131A028FF36D88E
:102300009E1020BBE8C8ED0B85221965C5A1DA43F4
:10231000C4F2B39742608840FDCD088DF0ED7DB4E6
:1023200028AEA6C524EB60031451982A3602BF6478
:102330006BAB69F78FB0CCB4668D801DDE18EDBA3B
:10234000127F3AEB5349E81082DBAF9972458DADAD
:102350006AA15942B0DB8728B94BE88F39E87B1175
:10236000B7490CDE1E398C2F092C4974EF3F8F15AD
:1023700083A901110048CF329204963EE95C77EDC3
:10238000988203DD5DD08BCBA548B5F75207A2300C
:1023900083852AE8E486F0940563052BF1C06B156C
:1023A00013A58A4B6B694C4570F838A51C1CB50207
:1023B0003E3D1F13E3E1351CCD2EB2959B767E92F8
:1023C00035A0F248806AF68B77228B986AD7ADBC2D
:1023D000960F4C67BEBC21FE1435A8E141AAFD78DA
:1023E000411F1B248BDD9517A059A1A1C7A33A95C6
:1023F00034F197B7B0150AC943A9342E97BBB6C8B4
:1024000090D1DEEBA2DAF8A3F756A1E6C1DFC04A0D
:102410007FA8BD46D18F0011FA760EEE6DBDFD8806
:10242000CDEEA98550D4DDADCA8E37082DEECAE2B7
:102430001303A1F2A493F1FC79EE54BAD24AB53D4C
:10244000EBA6CC7E06F0FB4EA23822BC4FEC01E19D
:10245000B06C3AE45494136FDE3CBDF1BA3E76653D
:102460005CD0917FC5A3B613D3E44D0233A55B18AE
:10247000F63B5DAC8D41286980A25E48E80A4C1CA1
:10248000E1D0F79737E3B687F8A9E4A38D6B5367DC
:102490009899111ADE184372BD2B83E693561B9B45
:1024A000E4E39135A23E9796EE8B0685611E2A5E87
:1024B000998BEB5BCF68F3BD9A9CB29A8B8137C541
:1024C0004FC011CA375E475B52D68D8FF34808263E
:1024D00042C5A8734128BF77EEBBEA2127F86E6793
:1024E0005CFCDB17708CDC31AE9528D43D7E864DCC
:1024F0009E41C84F0DF9EF61830AEEE91A8D14BCB5
:102500007852762E072A4D4FE3346A0730EB9868ED
:10251000DA2D0F81630DBBDA55A0B0CAB0B8F8BD93
:1025200020F58C9E67943EC69ADE1B04E30062E6AB
:102530008D1554E6FE3CECB496BD62B950F84E647D
:10254000666F2D4BEE06526638892A1428EB842ECE
:10255000C33F92FECC74520F11266BF7F60E783AF9
:10256000CBA37F8B512CE07F7B55FE49CF9FD95564
:10257000A08C99FAFAEF84DB2DEEAA757B610162DB
:1025800078EA2C43C47AD6943EB9BBF930543E1451
:10259000ABE77164BC4590FFE7CB53D912CE5570C1
:1025A000E1F82A06F7B1FE17902EEA642221F4FC26
:1025B00090F629BD12ACA128B9E7CC3A7952DBA13B
:1025C0006DBC6623BD5482850426263659A8791031
:1025D0005A61DBC0F281FB7003514957756C2BE8DF
:1025E00034EB33BAD20B3D9B7921F35701EF139AA9
:1025F000FCDD87CCA8A01B8952875ABC778E6AFE67
:10260000E183B79AF52277BC2458B921F7333C8C83
:102610006CB93967D8B92D9A81E6729C273263CAA2
:10262000E6751B7C419C9E8F6D36432F072592FEDD
:1026300011F7B06453C99A24ECB8E3B63107C62E3B
:10264000EEFF7B96EBD400CACB14D39AFA4F8801E5
:1026500033749956445E77AF27074432422849CCF9
:102660009AC2A2A87D56D30BE245132E2F00705FAD
:10267000DCDA914D9BF649231D5F1AA2D3DA094893
:10268000ECC6DB38C5D1D11C8134BA559BD3E4A943
:10269000D77016B7CA2302AEF62647AD0C730A6A86
:1026A000427FF5843D2BAEA747D3CE0DA4AE20AD1F
:1026B000D058590E2DF6DC170EF714877E28B0B1CE
:1026C00025B2AF0B65105B91D345D6B1EDEAF82189
:1026D000BB7FE1860F60D5662DE84413FF2937FCE8
:1026E0001F558F65D559FC26D01B0EB4CABD32BE0E
:1026F00023319EC8C1A3983853A08F60C293207223
:10270000FF24B962B3D9CACC9158DA61A01DAA7965
:1027100071F5C1094B8DED83943D3440F0903CDF61
:102720002D908D5E0D3C0C815A2A288BF708372995
:10273000BA1189FCCFCFFDEDA958FDE13AEA9D61C0
:1027400087BEAD02AAE7B2990E4043C25A75050D85
:10275000BD57FDC8506DFB16AD8BE7B28F75421D9E
:1027600064CF10DAC65139454D0F49AA9EDB9A7CD9
:102770009ABD16E80A4E09D4E6C293C476CD6056D7
:10278000075ABBD387BAF000C66F82D784855ED361
:1027900028985E89D871614B779713EBE1DA47EEA1
:1027A000E1FFDB41A56AF17B0862D3C818E95C9AB6
:1027B0003C7CABC8C5064188240119416C2FB14946
:1027C00072D547EB632C55D6165DB30BB8C702AF75
:1027D0002C3DFF2E74E776A59B95AC1D292402D1D4
:1027E0004F35CB16DA10A6E7B7D88F3E7A5813824A
:1027F000CAFB5F55D400AB8B85279204BDC43CA0B7
:102800006CBE1D4C12E5047A545FEDC36A358FF936
:10281000DCA61C1E5E47202DB9941814DEA800A06B
:1028200047B81A80D20BE657623F79DDE7ABA78144
:10283000AE5C34B6E58AA29EF0E22364F6DAA173B8
:10284000BE33EF6E4000B781750730AE8FC869A9FF
:10285000C35D764866EE28F17A3B60D8B804CC4E6A
:10286000B1C395930AA947BB47D2079DE898334C5B
:10287000847800610322B78E2586272A6481EC3E86
:1028800033A6E056732AC5923293781CE03E2B00A3
:102890000E1816AC877DBFD7D5643B6F434A798E3F
:1028A0004CF572F55F906F6F260BFD646DB0076C91
:1028B000C61D77119E0B49652EA338541B10673D2A
:1028C00053211BF2E3FCFB4F8571E116F75594DDB4
:1028D000F33915F7C4E2419B253F770788446DDB48
:1028E000D58B028D28F6D1BA8BAC6CE0741A84B10A
:1028F0007003E4278FCCF10E69E3FC73C773BBA3AD
:1029000084B08B5234CC9DF818D50EBC8377291235
:102910002517ABFC2F045C7CA9A0B1FC0339800413
:1029200030C73BFDDD262A9459F550237B7857D4D8
:1029300085860528F541250F614F17B1FFA473C0A7
:102940005142395A75D7A64809ABBF86C3B3EE9D2D
:10295000205EE1409C4DC6C0FBAA1303A918EA50B3
:10296000AEDC726229B1E367FD37C32B84CD5ED93B
:10297000AC35B6286FD62A7D7E0D2D4E74B04AC177
:1029800057D191768005A0639B20B331A51AF049F9
:10299000F7DA56D95143798ABBCC9250F0C1A03EA8
:1029A0009C15B459E7B68743662F4CB83119A1F08E
:1029B00068F07E8A83740244DAD58FE9E376E74DC6
:1029C0007AAB10CDBD685A152FE0FF15C584900075
:1029D0007F752FD6D43C5489C93A233EFA8FB3F67B
:1029E000E712C3EB9F4BC4263013FD479133E0D46D
:1029F000525BF445246724D64074CB87293A4BDCDC
:102A0000A6B0EF74B09F3403D4BF0582B670A6336E
:102A1000896BEE697F94833EDFAFEA318264977BF6
:102A20008EC781464C29ACBA094934DF8B4B54D24E
:102A3000FE75E2624DDD5B8F74A488A6C8A053CCFE
:102A40007CFD680FDA87D5EB73DA1723050F991C25
:102A5000125640B105DE1DD210697A66ED9D9B6568
:102A60007683E245CFFD7548063565935EDB8D893B
:102A7000E76360A6DD38DA41159C248CE6611F18F7
:102A8000032CC7B7CBDB934D54CA049F43D1F01638
:102A9000F5BB063797603979F4762B4C3E2F795683
:102AA000F66A318F982318E815B4A9D2281374C593
:102AB000A7F760B4D0B8E376A354B8817273D3ACEF
:102AC000E5C3F6A1965C6A65C448D0905162934113
:102AD000A8378F48B238ED3E925CA003E8533C1211
:102AE0003FDB5133E4EA6C3C7D525A44DAB41E3C7D
:102AF00097627BD3EDA9201003900E8287AE8CA93C
:102B0000BDB14EADC8C2B27A0922178166981A27A4
:102B1000B6763602D05C452C3BE6A93653113345D8
:102B2000FD95C834CA40B85F2B8FEEE3C4CE00E1F8
:102B300093957DC57C294AD4D85F652C86FE6C4070
:102B40007222C73AB738976C487F2798CB64D992DE
:102B5000A53946233443DCC6F8D1D774BD54E5A764
:102B6000F67674A16573351CB2F79D36630319A11F
:102B7000B33C0D0E417D1F3589A984FDB7F4B6BE67
:102B8000742595CE675B5B54C34C7B1754F7ED5CA3
:102B9000A78E219697BD295F8D894F3BE99FEB85D5
:102BA000ABED3F4E78917DA543E7E121FAA6CBCA74
:102BB00072490C6184454106489A6683C709215FC2
:102BC000A0FCCFC6E304AD2DCBF8E4E886A988DDF0
:102BD000A263E0A1A3605870F558C91E35A69E03F4
:102BE0003D144ACCBEC90D86F7A3EF61FA791F8A5E
:102BF000BE55466D865464C5850749BE933B2E3D40
:102C00007BACEE4AAC9C6707562E22B2E90EDAF294
:102C1000BD303356189B2562E87EEA7296FF979581
:102C2000D876C6E207155F1670D0EC48C379987C59
:102C3000D797EE8207DDDAFAC132353B547A74DF7A
:102C4000706A50B05CB708AA611918863D1A1187DE
:102C50005F46AC17B5F8FCBD87665C474252E9D2C7
:102C6000242EE055D4E6F5A02E1170F4EF8EDFD9B6
:102C700099CEC58F24BADBDE6BC3DCF73D479FF0EE
:102C800049460C9185EBB3193F2E684C41336CD209
:102C90007B3B396AD4A30CF291AA28681CD2089411
:102CA0006054FCEDF11177FB287975B65EEB02BB41
:102CB000F863D554306398A5A0CF9DC9ABF38FF0CE
:102CC0001655B9CB89D0A98ADD0466470380834DA8
:102CD00045FFE86E1C116960791E2394543FF8FA91
:102CE0006CA83A93FA03C84FB6F5466E6DBF83D60B
:102CF000FDAD5DEF63935A0A4E92875E54A380F553
:102D00005A95E3CE4B86B671884AB8BED78844D66A
:102D1000F7D09087C15656802B65AE82E200C4F58D
:102D20000D647E12AF91BB16789C39908946050BD5
:102D3000D54D4B3B68B320810BE10F7663BA6BDB5B
:102D4000E26A11C7387968374D38DF5D1523598F2E
:102D50004827537F7C2B6ECEA6CE0505F15818BFB1
:102D6000C1B75FFB0D2CBCC3920D7E1E351F470102
:102D7000629F0247118EE5713D7CDFA5ED14A067CF
:102D80001AB13DF33F55555B47EE190D6A958432F4
:102D9000BF49EABEEBE3226DDD58E84A214AD2BAC8
:102DA00053E8CB28F387E4A3CDA14C3255A6533E7C
:102DB000A265A306FEA6D3FEEB850101A1A1B88101
:102DC00078683F3C19E244DDB04DF6B51A95EA1E2D
:102DD000745ACC107566226B0ABC7A514E385F0665
:102DE0006E7241E7D28056F062A89D4AC80CFA4341
:102DF000EA5E6B3749056FCC404C4C1AC2B001DF1C
:102E00008749619DBD2B47C1CB4DC8ADFFB7FAFDCA
:102E1000671026FFAE4E96F02E53E5FAB3B4659ECA
:102E200034FED93B3C159FC9B842486087265B22D7
:102E3000DA496A50ACDBB9CFB0629CD55D9435837A
:102E4000CCE5FD76C8A672520D1724F772D9428CD4
:102E500048B9EF66D13A6F8F287C6E573C62986113
:102E60003DC13CAF027AC2EE755453540FA7F1B77F
:102E70007F805350CA3606FAA07CD6141DF6818096
:102E8000E852F8CDC23D3EE80A9B183EB25EF5D945
:102E9000A43FDADF95AEF95A680E0FBE45B263C99A
:102EA0000DCA2F836ACB43ED83A3F748D2DEF31C10
:102EB00096468C22177EB614E18F41280682F5EAE9
:102EC00035344A9D76C2CEE78ADFF1630266C68951
:102ED00041C34CDEA6AD5C4E3C3938F0AC6CCD98AD
:102EE0000F8EF7A97BB0CFBBE546BABAFC39C1AFAC
:102EF0003F9ADFBC0F130C4C73801DF1C6D901D370
:102F0000A42CF2BEE4EAA2F774BAE3FE4F1DA88433
:102F1000DB8FA63DA8F3D52E616A47175C680401D4
:102F200095874FBBD782CEA9BD0E4ED715D13D6137
:102F300018605B99C3C0AF90FC046F14FA64285406
:102F4000D3B1368D2340EFC003A60AD6D646A832A9
:102F50006590B243F2DB3AC5B6F9A7D7339069EE74
:102F6000B4055823C0C31FF40F502D0833445FD657
:102F70003C8BCBDC0CB693B9AF03D14FD91F29BD25
:102F8000DDDD98FDD145618433C9A4C06BCA3679B3
:102F900004F432AE81BB50F9AD2A5B411DA0A86597
:102FA00085BC273CD8DB975249401C3F9CF85D7795
:102FB000A92EC7588A99EB01ADC63F6B1BECA1C483
:102FC000328A17DFBAE156EDDBDF435ED5B49ABE35
:102FD00090B1916F93574058710024982D289F937A
:102FE00042A9DC582316534CEFC95B6D496B8A2606
:102FF00084A824D84FD3E2169B308BDC10D7EB0883
:1030000089E9DD6B2F2733A62794475839EE5C3DBD
:1030100068712E65CC59B7D5110A7E6C961195A2B0
:10302000FB835C8451C9995BA408E871CC4DC3173C
:10303000EED1A325356569AF063DF547BDD60F52E4
:103040007A1DAE4F01B58C788A7FD0E888667623EA
:1030500011EFF49F8BD10A754DA2B8BEA54EC9EFF2
:10306000F07874350187F3E46F7B0F8759C06A6A83
:10307000C2F089A1DB2478ADC1BBDCFCD72E614E48
:1030800033164BC70EC066A040CF12F52C76CA5C33
:103090006D4B58F456DE3FC87DE60427C83AEE383B
:1030A0006212DFAEDE7FB4B3115E8354D626AAE18E
:1030B00047ED2F0707726752B60DFAAE41D9D99F77
:1030C00006A7BA82016B76908E47558345C6523A61
:1030D0000AF4B9A594E1041610B582503A800BA108
:1030E00088F0156A8B59FB72FCB70C8F5547584610
:1030F000FC0649CF80C99C7CBF1D13E8849975717B
:10310000555E067E394E440A95B2CE44ADD62BDBD1
:103110002281BA7EE92E838AB2CC205FFA1ECF6468
:103120009EF873F17C2109F3269FEB32467865F710
:10313000F02DB7123C60C2F58859BFFF85C115E676
:10314000B1155B35A83E4AD1BFA832A200B76314BF
:103150002E73766490BF8EA240179E4E22712B581C
:10316000254596F02DD9CD3F32CE2960FC0983E765
:10317000089541A185296777C3621785B0AC10A077
:103180008FAFDE3B12CA722736F6117550CCF36B47
:103190006B717CF90905D614A3DD10BCC9795A02FC
:1031A0006449DBD5E0F789C65376A03AC988DAA22C
:1031B00061F36C73D8DD1F7C31930CC521DE68A7E9
:1031C0006B784AB93815C2439A52A906587A002634
:1031D000BE8A05E78C1BA7CF4ABB8F6977B26C11FB
:1031E000AC5D81F7094FFE7DC0AC4497F8E1024524
:1031F0005242DEC175DFA7955210062A5795C911B4
:10320000ED39A0676D06E4EF942DF220E2C7F3CB11
:10321000D5A22C3AD3B0D7655E0682A5830CAF3415
:10322000ED1824882ED206AF01516EFDC633F3E3AC
:103230004D89CA11C2FFADBB0633230C5C39351B67
:103240008D44A207BDF182C7375A3377509387C6A2
:10325000F48D4056E5DBEE9A2BEFB14DB0C960E737
:10326000183EE6B834D00BDFEACDE051FE81856A26
:10327000BE3AB86E11A37BC7C7D9C3383F656D3B53
:1032800095A638FD4345416310A77D5B06AAF870FB
:10329000EB3D98D2E9834B3CB068AE623073BF031C
:1032A000BD52518247E4DDEDF42D3D74B27803A2A6
:1032B000DF927F9509B2AD7832635B5C568359A982
:1032C00089FA91BE6E02FDDD26575D17D8DE5928BA
:1032D000046C9FD9536C56F64EF37D87C562676CBC
:1032E000B3D84D3F71C19C9ACAFF5CD5F6CC6255EC
:1032F0003CEC09639AE745A4ED006F78C2ABE03679
:10330000F18EC784606A734ADFE7DA44C4D1BB1B1D
:10331000EAD39B02E25EF5282B37D776AE8EA24128
:10332000D17FA44C93F466C4CBB8CA6E87B901812F
:10333000D0AB4D050E81E7B49B222729DAE89EBB6E
:1033400051D4B75242484F05B2905EE315BAE1EA54
:10335000EB3C80FB722EDA2877060A4CB642B7E8BF
:10336000F9CCE976AE1BA00EC8624398B08B32D17F
:10337000CBB92D35BBCA3D9405ED9247626EEAD7B5
:103380001720D252B35EB1659722BBDD2F9366C979
:10339000E0B032E6699AFE63D2F617A3F7CCF2DD0D
:1033A0009C032BFC403F3D725EE165D49113DC3001
:1033B000D3021C89940071683723D7E6780A1EF37C
:1033C000CE5D5E005BB44850017ED228E11360F010
:1033D0006046A8B632ABD7560AAFA28AFB02C62314
:1033E000E2F685D0AEA5D36DD349AFD92E75D818E6
:1033F000D8A151923798F8C9FCBB1D1A6380523985
:1034000057807736A9B0BEE41F090782DA2DD0A90C
:103410004A149D890FB6BC0C436576BA43D1BB00F4
:10342000581A3C554F1F8721885D3BAB416BA6C89E
:10343000EF5080BCEC45585FD02A43D991F9C66E55
:10344000003858C631C255D9E99A513299363B49AC
:10345000287F4824DAC7B44099878B03706792713C
:1034600070552AE666DF6B37F1BC29F68C27ADFE76
:1034700084737C59B7A4448CDA6B7D22D5832CE706
:103480007EC3EE4F44C046FDCC48551906DE82D4BB
:103490008ABCA0D0C2B43D4671725933D15E1B4084
:1034A000AE511D97A3541AAC73F82A30CC44CC4FBC
:1034B000E9EDF41A20B979DC4CFE64759BD4F04236
:1034C0005F51E033FC9342235143D64FA0EC6F563B
:1034D000A3B1862993C2952731A8576CDD7A12F3E0
:1034E000DC5783BB2D5C727BDE17E4FFE4DE6EFAF3
:1034F000731672F17A26E83F4F87961D4762E7B44C
:10350000AFFB533542C5CCBF6B97A81292D6860845
:10351000EE9D07814874474531C6188E012912A6D1
:103520008BEDC795A4959B6898BC7B17C0363D73FF
:1035300035D7D589F7815E33FF962305AFD9FB8C4C
:10354000C6D8502E06AACFC5578F0E2A3216304144
:1035500046D4797907542C85A16FEBF3D0D47B84C2
:103560005B8304194BB441E6D269B1479945EDEA52
:10357000CEF52C6034D14A44093AFBB8316F350D91
:1035800039E5FEAC9342C58B75DC7E5D56F4222096
:10359000A21FD3181B711B8C805D711ECFD62BF41C
:1035A0001B00388E2C8C86BF3CB878AAFC68395535
:1035B000A9EE263712C9BFA432076E3CA7CAD63D72
:1035C00069553197754E05E78CE47DF029E3A11824
:1035D000F97FE39AE1EC402C505567CCFEAEB5CCB8
:1035E000010CA375B422FB24F33CE621BFA7BE1552
:1035F000FCFC16D824C6341E635BF04F04FC498CD7
:10360000530133B9E0EDF29F69F9AA5FBB695A38FB
:10361000D8D987C969AC44B33C5E90ACDD901775CE
:10362000A4A697B011EB51C1994C38398ABD2FED42
:10363000079C9EBF44F5191EBB8FCA3C028DDBF16F
:1036400037701352F7163E76B0B1F4E6057F119647
:10365000AED55692610A2B0EF517428BDBF5407BF7
:1036600024DEFF779FB726C1BD07DE1ACAFDCCC294
:1036700006F0E1573A9F66748FF3BDC1DE339BB30A
:103680005B977895B22FAF9C858B44D03595898513
:10369000E2C399D3A83F67063BCA03BCF2959A4C94
:1036A00063575092DCE62D49AA6DFE22138EAADEE6
:1036B000A998C590D6D216E62ABBFF14C9B952FA0A
:1036C00043700F111DE5CC69C9A54DAE8FF4FA29E1
:1036D0003BF6080FB6E42331EACA83AD3CACC49C88
:1036E00049D56DA81B0335DE054C649D33BDBE4333
:1036F0003ACA0DECB42D34B251838168F6882008A3
:10370000F5D0EF8FF91D13EDBC27E52E1030C31750
:10371000524E275F904395365B089E96EEE7EAB3DC
:103720007BA8950E45762A86D3F6745262382819FE
:1037300002C3950589C841DD1E813D6B0209E3176F
:10374000730F3ED8E1559F7533C00491D675D826C6
:10375000EC7BD9B356E7C7871D86662E3939892C8D
:10376000D7E1BF21A7B857DBE9F6E7D4EB182486E9
:10377000BB03F3872680B3EA6C67734FF2A84282DB
:1037800077A3882D028423C4BBC8792A7AEC7BA551
:10379000994A0EA816872359B80CA49CAA258AD842
:1037A000BE3B16DFC6A997632086D448022D14922B
:1037B00091D1B9A5C1D1DEF93B372928623671A074
:1037C000E7C5588A66D29618016A1137A12EE92CEE
:1037D000ED3C447A7CF7958ACC12CE8EF77CBC20E7
:1037E000D98E77F2E65C8970DB00476A69742D3305
:1037F0006FE716828E6DD4BF3043A11A08971BD78E
:103800008244E0B094F66E6F662F3E2C1EB6D291C5
:10381000BCB18377EB30E17897F6AF245AD8D31B4D
:10382000FD5F0F29A6B9F0371C2E6C13BCFA9D5B07
:10383000BA639838BA26FDE38CF5561242A93B408C
:10384000DD0FDF12B0DC468036777A1FB552047682
:10385000B7ADBDEC83F7C570246F0BD50B4F8DE270
:10386000AE847543FED495C21E75307BED95982DC0
:10387000F2E5323725CF2AE4428346FEBBBF7719F3
:10388000720D4B74B6DBACF9036E26AFE0C5ACF23B
:10389000D85D80A2C128CA324FCED60A8B564BF3D0
:1038A0000AE0946E18C186FDC86F892818009F61D0
:1038B0000F2DDC1042A1F0618F5C5504F772C54BEF
:1038C00000BB442AEB9418BB22327CBEF413A8B38D
:1038D000E975026650759539876509DC8CFD3BD723
:1038E00037234DF74FC0503537142E709A798F1506
:1038F00048537D2D90F8DD2CDE0D471BFBF0B409FD
:103900000D6962E1E066C185AB136AB203E2DEECE9
:103910004B8FB449B86CAAE421A14E77F29037815D
:10392000E1A0FA417CD3E9685781679D15CF461520
:103930006F60A3A6B99B8F7FDF778A038DC5B1C067
:10394000CD764102BCC326B91F81CCDB58170A953E
:10395000D904C7619D987F9FD130DF95F637BC525F
:10396000D3A249D53942A22A578AD86924CFEE84F6
:10397000730282507F0428E35E20E99F36C07AB646
:1039800005051EDAEF214E3544F2356B935167047D
:1039900072C35A45035089AD4CED1FBD34BF642F2F
:1039A00030AD180082A372E3157CC26D7602022E40
:1039B0003E3A8F30090767507ED41BDF6521BC3B40
:1039C000E69DD4623C35AA611386210830DD481F8C
:1039D00066280ACDD5C073E5714DE7FDCB221801ED
:1039E00059776DFC9C32E090E7963AB135B5739803
:1039F000499BE89FB1F7D542BAD64999D8DD352021
:103A0000080CFE6BBFA4724D9C9F5CD4E3E7606D15
:103A1000B06D48691D8A816A791635DF4C50FABD50
:103A20003C07FDDE3C5EE3AA19DB89AC6E8D735C5E
:103A3000CD8DB9015D03645DFD4AE4B863494DB1C4
:103A4000FDEC78A89FDCD5E6350EB8817758A85FE5
:103A500099965E9AE4F0EAD7951A0B4D20383063B8
:103A6000B36705B7D9939EE4890B496EF06AA0B598
:103A70005CF5DF1B9DCD6E8BF595A9134F93A31AB3
:103A80003A946B91735200F0361979D8590E3BF97C
:103A90006298E20308465B3FE2F4F584E26EC48F6D
:103AA0002C64AAF9A1EFF77D32CFA348FAFA0EE110
:103AB0008A5628F18CE3B04640104896AD47023D47
:103AC000EBCA5809C8D46E514A505EDD9712C591B1
:103AD0002B45A1346D8A0DB7E5E5581AEB4CDA1089
:103AE00055FFD97B135F714FA6FF05B82C8C273A81
:103AF0009D9AFF7815B41CE387E09B8A11B88FA5C7
:103B0000C2E745A31878E9ABEF0641944D19E99156
:103B1000BEBA5FC0476EC12C67EB880E7ECA003705
:103B2000AF5C41E3CA5A273370ED32269A6A185ABD
:103B300095A5C8F60EC92414703E9DC74A1CBF8EB9
:103B4000ED9AEF640D4BF7A4A3ED572CA98FDF4D31
:103B50009AD109D962F917FAF4EA7FED4E7A0A266A
:103B600095A5EF999569B220D51EBEC45DA3060840
:103B700020B12FD2A5330FF5C267278933652F1ADD
:103B800051AE62EAEB9E4860B25FB6A49F0713286D
:103B9000FF7B1872FC139F02CF18902F36C9509EDE
:103BA000D7CB9814A38343743AA6A49E94044AB333
:103BB0007557877D61CAF0DD224850FF0B0D4B81A0
:103BC000381077C31BD1D88A033ED1BDD1D892BE5D
:103BD000D4417CBB004756F50DC3D06D7D9D4BA1F4
:103BE0005D82184372FE9312B2EC21FBE7B2936C34
:103BF0003581E1F63E82F76408F975CBF697FC6AE9
:103C0000AD7038D7910A76492012AAF44AA0CB8F1A
:103C10003AFDB64B2475A6DFBE48C8FE323E4F23A0
:103C200054B3B62DBEDAE199F167CF44AFE1EBDBD7
:103C30001787FD488372D8AFA592B5D0FACE509FB2
:103C4000F06F0C823B3B0581702D1FACC9236CD0FB
:103C5000A2E24C86AA31B2A2462AB6FC20E79F52C5
:103C60005D958D6D49F1D19C183B98C7156CE6AAFE
:103C70009726BE7D24D55E6CBD7F1675CC744DBF76
:103C80002C2FC49B9676496CDA673FA723CBF94A61
:103C90004C485635D773C757852C471BDAE5765AFB
:103CA0005AABFC5C5F9C46632C663FFB65D5C191BB
:103CB000A7220DD49B6C027421711D397F13019CC6
:103CC000C0390C09536966633C33FB850C4D454E86
:103CD000B688DF374010A4316CF502765864DC0DED
:103CE0009C07D68F9A4A767F67A62307062C079AE9
:103CF000058ACAB8B0E060B0DAA89F0D0B675040E3
:103D00006176F66869E322EBCD73EF583DC7C77F54
:103D1000A6D012784777C5DD3A0DF65D37094FAF6B
:103D2000A38CAD8EB538109872F53F44278F0E46A0
:103D300094E1CB3E376F69981D5A2E57101FA90D7D
:103D4000981F2BB736B36383F952E293B6DDE1AF28
:103D5000A777337D785A92A9FC2AC492863A01400B
:103D6000B659FB108D43B6B18955B9B378B1FE751C
:103D70002CD86182E3FC60ADDCA57B502A669158AB
:103D80006CD89DC324906C2AD52A3D857F39103F7D
:103D90000624B70CFDF5B3E53C46A38342A5CD3B15
:103DA000779108F64322EF4575070FE7DB3852DBC2
:103DB000A9E0EE0EA207AF149257475F45C269C94A
:103DC00046B3E6B36160BEE13FB0A7E014AD329DFB
:103DD0008E9D094CA814AF41E825B5097BBCCE18CF
:103DE000D0CBE4FF29B135ED9FE47BC219660E3CD0
:103DF000D354ABD58184BC998767D5BBC007620219
:103E0000B942E7821FD15C3D123D7EFE903F4E33AA
:103E1000432A6074B7F01DE58AC6FA9E04276BE753
:103E20001193D51299ED804C151CD52D89FBB1F05D
:103E3000BE7C3A127D2B264CF7C045F0D13A7F2D3F
:103E40007989B9AA9AD084897C763A4EA50C4257D2
:103E5000B28AB88612E417D9A5A8603C998CB71627
:103E60006FE1B8FC2C2242361319338F22A7BC69AC
:103E70000B88D98D503D8FBD2F2C1F0520ABBFEC7B
:103E80002A77FFCD67D7D14AFC86A3ACA629335E3B
:103E9000BB5D0503DC27447FC2BC2337D9E4470858
:103EA0003C820E239131EB314F98C316CE7EBAF48B
:103EB000045F4CDD7A9930F784D2187E82E82BFAC1
:103EC0004535A8A35148B6913647BBFEBB95C3DD27
:103ED000232273F9D314B34FB17401E7E16336E8D9
:103EE0006E7584ABD3A8A50900CC209ED9837867D2
:103EF000360C777D0CF76B9347F0AF8F78B236E4D2
:103F0000483C2D3E508DD4A75408F083B76D8ACD20
:103F10002F60238A144DE3C89704C7728400C91F19
:103F20009C47FD87115016A49D3EFDCC1D2F908A05
:103F30006400518EA2E657766813DA05927AD75854
:103F4000D94C2F96230B934D055FC057E3F0665372
:103F5000DACA8CB59D4AE7B9CE19F42AD1FFE51F1C
:103F60003ABA3BA1D0972C45341036810A107FCE47
:103F7000B98EC109BF28EE90F3D1DB2D7889CF4BE4
:103F80007C6C8012859FB01ECDD38C1883D9F0AC89
:103F9000D9D04AC8D95CE970466A47DC2084164803
:103FA000FDEC027B5F3B3CC9F6688F184FB3DBE446
:103FB0006CA0345FF2ACAA7B8BF92C5155B738AEAC
:103FC000724578A2E7ED9ECB8862C6FDFCD9A517A5
:103FD00022916EC11571D26420A0A0985559F208A3
:103FE000C04C38C928E489394F6FC758AE94894FFF
:103FF0002D5AF56CA83D9919E380F02E9867E1F4ED
:10400000C3AB34C441F14BD6A58D7A4CF952451758
:104010005A78BBF0E2F1466D18422DBF95D3CDF032
:10402000DD8314B43EA5F26A168003EB9BCDFAA79C
:104030004ED1041620BF9ACFDE0E6412C0F6018F57
:10404000F711027475537FF7DE8515FEAAC3A53BF1
:10405000F8B945FF8B020583410042246333A7234F
:104060003FBE0DCFA69B9C6EDB9707B6B98F42482B
:10407000E9D30BC2D4417C9E319AE94AC971881BAD
:10408000D529DAE626D4EF1E35A9566D28EF75AE90
:10409000D0D342173C551B910829D25CF9820231DA
:1040A00004C46E387BB5B3EEDD76B4849EBC4E1C82
:1040B0003D9F04E3A9C5F77E925C7EA0971E17B6CC
:1040C0004E6623CDC7F3741D2E83AB6B4ADC9C5A1E
:1040D0005492F2FE61C2A428ECEDB00D536E7A3B0F
:1040E0007E8CF55CAD860E61C5EB3F954E62F43972
:1040F0008378C98F4CDE1B0A79EC672243A4DD5418
:1041000086B656379CB768F65823DF7351E0BA8EEF
:1041100091C200FED60F455EEEC1C527FE806D75CB
:1041200038E9C8115789536990F35448914BDDCC55
:10413000A8406F723B0ECDEB9215A92AB3DDA947BB
:10414000381506535D226BE89BA4329A430C076630
:10415000B11557BA7C1BDB4F414D50157B7B776403
:104160005AD21CB055AA8DE6FEA96E47B2C0B30064
:1041700014EC249A49776588F9B00E9D42BC2A63F5
:10418000BCC94F33198D61752C437378EF4CC8B897
:10419000194789202BB33584E4AC10E6B2B3640828
:1041A0003B21E96C92B603415AE97913FBA37D9F49
:1041B000A56308CFDB9EEF54834499A6FD3D52478B
:1041C000AEB5D99B482C1BC4C9D11A3DE8255E77F2
:1041D0008A0B3A6BE54818608E9CDD35C33CAE77A0
:1041E000325B9CE788A5533F09B1BFCFE31044671A
:1041F0004C2AFBDDD177DDB65BBB9511B731536E31
:10420000D7ADC285AA6E141D1E91596E041D43DFE1
:104210005F96EC97371CACB53F07AAC69E94F6BBD9
:10422000907783FA97DB76B3BE53E206ABA4DA7BD2
:10423000E86862B2C5024556DC7B639D625ED9F8D0
:104240000FA8DD2D29572269709FB02A15DD36147D
:10425000815583DFEBEBC69EEA024A898722B2DCF6
:1042600086256C3B34BC0489017245C6BF27337375
:10427000F5095895FE63BCC80CEF1F80CE0D52980F
:1042800079978C8EE8E8C711CE879E268E079E3CD4
:104290000BB54173C09B9004F32542822923098208
:1042A00006619713A08D61C00BFC7221B08A464F46
:1042B000F912F61959F370900CB61D2D4C87A5F81C
:1042C00094152C260A89C354FC27E65CAB6A2E7D24
:1042D00067A5E64C6AE26AF4B14A79B58BD1456EBE
:1042E000784733602FC41D4DE3937CA5CE1F029EFB
:1042F0001909856C31D5520EEE0F7737C548C01EAF
:10430000A25D9D83007658158FDEB7AC36F21FEBA9
:104310003C94A52B36C5B5F8A651546EE85F00F75E
:10432000B7A34F6951FD7739F56297B3636B35FEDB
:10433000C138B473EB5B8175ECAA6119A76C307757
:10434000891A8C40214D31033885EE9CD79CBE41A3
:104350004C6AFD6589A81DC9B24157269ADE0849F5
:104360006C615DE02D33C4A2CF171A331866B7C550
:10437000E40C5D416C8074155ED4353B788629145D
:10438000CC273BCFCC403848E5DAC94D39A33EA70E
:1043900070E4E681F534AE0C9395EE221A724BACC4
:1043A00054474AC1B0EC84E15E639C427B1A46F8F4
:1043B000B16F1DD62B60EC8FBC782BDA98E6D8DE77
:1043C000D073FCA8F1F4A7377E91F7C75348ED22CC
:1043D000C886EBACD2C4B2F18FA64B782869A05A3C
:1043E000673FF41561987F59F4A6A453A926D17D9F
:1043F000E61038EB5F95993B4E39EB8C746447259A
:104400004A8AEFBF51FBA7458461861DF745EA3F05
:10441000B674C3D85B93BB1A6F1027080F168F0AA8
:10442000B592DBED232D3D6AFEF793171994EF3B10
:1044300025CB327032BEFF82C5109EEC86A6CD31F0
:10444000DD2704A458B67D7B69AC2A88D225D0A389
:104450002B1858CF415960CBEACF99A5C884EC2DD1
:10446000A595D68828FA8DF4635F4B4EF788A09007
:10447000E73A1AFCE65A639CDA7BB21C6D66237637
:104480008612096C8279273E0EA354BEDBB1CBCDD8
:104490000264C7EB7838F50F3CCD8357D532F1A7CE
:1044A0002AD47308C5CCA43C86298C91B7BAFE8364
:1044B000D2C6ADDD03598B9FEC7D6AA55B412D0A09
:1044C000CA0E57B67BEC724A3E706F3A5DF86028B0
:1044D000750C19AD47E417664058251F0D460B7E35
:1044E000F6932D4C427BB118AC5789D46E93855A04
:1044F000E5F43BB9BDDABBB9DE375F66B824EC8EB4
:104500009789D26B79655FEC1234CB79775ECDE811
:10451000A1F26B541C6EC0F4AB537556361DD3B666
:104520001879CA00447A5A6A8AEE1ADE25E46B9A30
:104530008B2307C14B11279969FDB966B4FC851E11
:10454000FFC1AF82BB155987DBDE3D0FB398EF9BF0
:1045500019C914824EB821B8117F8752FBE4900428
:10456000A94611F910CC07A01CD999E2B33F2CFB46
:10457000587212C5B3E6080880EB08E0F4A99DC59F
:10458000DCD4FA43CBB9F89CAB7E6D55CDF0BC4979
:10459000FABEFF4E4773184064DD723BFDADC2C2E8
:1045A000BA1D83FD647C1E7109B1BFBABF63F3DE1F
:1045B000720CA314AF6B55714B10FE1107C0B2AE55
:1045C00016101B87A236EF1C73106DB4621EAB91E0
:1045D0004180DBC40AE3D3F3D365A47D93C2D1FB4E
:1045E000A1243E604195F1A0CA8E1E0160349EF464
:1045F000AEE7F3BFBE6CEB6615559C85C48DF036F7
:10460000E475B39F5949715B3BE05E7B1CAE4891FA
:1046100079DA401FC8133F2958D7D98F28577E41D0
:104620006F3E914DBCFAEB466D3090A4984FABECC9
:104630002C79C9812939D790DBCB75F00E6BAFCDC2
:1046400043C066154FD20D24B119E92515417CF000
:1046500077E01A8715FD300B4817D9732FB7229CC6
:10466000E02856CA4D67E41FBCA3225914D46396B0
:10467000EE017AD4AB72BC5754700190E9ED32A8C8
:104680004A29E97029EBCF81AE9786178565FCCD65
:104690009A5458D85C7A093710E67658A16207DE3A
:1046A0005DB76E5BCDD29275180B212B806CE151FA
:1046B0001B2FA83E7040F549E442B2ED4EC87C691C
:1046C0000C9B35A8CE6004F322979FAE1A2261DAC4
:1046D000AEC8C764F8C77695A0FF8295C47AF14149
:1046E0001982ACD4EBB7BB63AC7CB67D3C3108120D
:1046F0008CB74E444C29B98B68B75B63FC07BE8905
:10470000B824B2310A0530C8DF515960145C42D672
:1047100044EECA44F78D27B622F7577F419AD9282D
:10472000D9D7445F546AE72154B2C95685E1004C99
:10473000DFB3A206A2015F0C776F6EE8594C933489
:10474000E9C103A616AAF430113E16FFE6C7B65516
:10475000EA8043B3B99662427BB5DAEBA84DC30851
:10476000C8EC78C96141649F6B8BC4F2EFD2CF1F54
:10477000E7EE56C2713DE3C7C033B06F48C7C843C8
:10478000E6CFD8FDD5F9D125BD054955B74DEC1576
:10479000ACE6F2FEEB507C95C7AC0CE5622491F0E0
:1047A0006FFC72D2DACB3937C11C6F45BB535FEC5B
:1047B00033C275B1FF227E349BAC8B92D0CF7DE9A2
:1047C000FDF337060B9B1A1FF6A77F2F720DD2EF52
:1047D0000C72C93BA39EBAD17712B658105487DE2B
:1047E0006D75264E839ACED2134E549895E9B3B880
:1047F000BACF598170EDAE014DD4546C8AFD6EADC7
:10480000933E2EBD8CB45AFF79FF2ADDD316710773
:1048100036884407CE91EBF00F4D26B18533E689FB
:1048200026ECB5B0F2E0677D31DDE5BF803E76373E
:1048300067926A6E3BF4476CF76173B18EBE613F5D
:104840005F76B891228D64147D838991BF060E999D
:104850009614EDCED35924F8A87A2180AF5A94FC4F
:104860002AB10345ED9E3E22177092275CEE7F2908
:10487000A962426085773750A2C76D26B2D8453C01
:10488000D893A7C8A1A05F2865DE7F6869B96C24AA
:10489000D9D44107FB8500A946BD3D3B348836A3EA
:1048A000946AF0391C8BEF899F92E9C43548BE7F2A
:1048B000E03C2C1F91F5999A6030A0B737C0D775AE
:1048C000A31A4A5B23BACA73C9A153ABC4FDA3663A
:1048D000529737D9D290096C5B124C45DCBFF86F08
:1048E0000CC176C76A493E13B60E6FF26BFE7E1D91
:1048F000B4922AC91A860053243CDD3A11E0FB6ABF
:104900007E6FD5604E3C7F1164B072181E3B2FA69F
:1049100098D040A145CC7AFC2FA7CEC2C94CB1603B
:10492000ECCDE00D450CAC0141B1CD2C2169422A02
:104930002E0FA70F6DFF5D11F34A9197DF673E7B46
:10494000C56540729FB50FEDF39E8C6011DE1E3081
:1049500095C471B678791957BD02F64D9F4F4AD666
:10496000A7FF72EBDBC00BB0DB741314D52FBD3B7C
:10497000FE077E395EB35C07D48A8847033B157215
:10498000B96769FD768FE7C9EFB803673C6A7B3486
:104990008A2A19C53ABE23D52394B1553738928750
:1049A000F87F456E04E998322B93B0FE87543D851D
:1049B000BEE6C758DBAA98727E5067A93E4B44A05A
:1049C00052B611C28BC25F66127B71FA1B2F6EF555
:1049D000A14E50E57F751A327B8FF4C4FC854035BB
:1049E000E7F5C4DF2C6B10C2504AD7861BB946E3EB
:1049F000BC53EED07A38FD658AA755D5B01F90CE4E
:104A0000B3C0BDAAF8B82B159B0AE04C45DBCB0F11
:104A10002B246DD30D31025B02F866AA8559DA4763
:104A2000C54D7B99E1CA72C4B28A098ACDC73B12CF
:104A3000DAF769E116470BB0A674AF5383B0919DC6
:104A40004521C0DE56C75BB46328737723A75C2576
:104A5000BA7D58BBE5BCEC12745EF060B5AF6BA6D6
:104A6000FFDBB58418F542BA4819EF2973BE73FB12
:104A70003A1C0A94B7CC8738A4358B6843A3FBDF74
:104A800033E3943903545E8DC27906A841849A6950
:104A9000AB07E37AC827D8B686946495A6D54119A2
:104AA00060BEA1877E579E1691B6761BE95A99DCA7
:104AB000679FBA4CF0F5C5779F235245E645865867
:104AC00097533648C1D88367C1B7084AA3BD7773E7
:104AD000F92C78FF27AE8EF65D557D0B1E2E3371B7
:104AE00058A6DE86D971E1CA18ED9F82A40DEE2288
:104AF00013D1610FE0AF51BE9889F871B6E3D314BA
:104B000081E14B5CB677302762BC6A89D5CD0D4C0C
:104B1000434766FE9237C02B8F5F6FA832B8CF9C99
:104B2000AF137F8FD5E59A4C2A8A2581AA6FB0FDF5
:104B30009F266B7AB86FCA58E4B6D29CF766503598
:104B4000E5EB1F4981D8A8730A92C6D6CECE57D3BB
:104B50006D56E9DD1E38D33E5E326144D96823D4F8
:104B600034344148191660D2E73F08BD059808243F
:104B7000C84898C048F509B72A4018745EF89C16D2
:104B80002AA63B0794D53DB0DDB01B1269F37DF535
:104B9000E37DE3D12FE18D26C7B56B49ECE1230618
:104BA000353287B0171B360C524AFF5797F09C18C6
:104BB0007AF7AAB325EA20387230088F71DBD33533
:104BC0007653FE16CF0DE5B21B2603163C39341979
:104BD00097EC41A5855A408A087150293EC1FBDBFC
:104BE000FD198712A6CA2FF2D5300C786701B8914B
:104BF0003250A340FFF18238221130493022A562A1
:104C00009EF384EB8C41AB4A4688C94B73E6A46D96
:104C1000283AF5B6FC6AE92784E20886AA42223FD0
:104C20007E528296AFFA31128183B7674FC2E2FE9D
:104C3000A395CAFFDE3935C636D56221CFDD77F7B9
:104C4000F9C8F2090E91072BF85009EF5CD8D4246B
:104C500030B06FDFEB612B3BCDDB13D44416240D5A
:104C60008727EE57EC61711A59FCF81A74077ACC51
:104C7000342424304BDF0910FC84AA76F91666022E
:104C80004F7FE9DC22BF596EDC0F49CCFBE2DAB57D
:104C9000B2F84CCFF042EDF8AAFB1B52B37195F37A
:104CA000A4FE65AEEA168A94C3E26CC1D63541E82B
:104CB00047EAA6AD19274112F7E44B5CB9DF9531FD
:104CC00068A29C03C34F31C84745E7244293E8FDDF
:104CD00005D090E9B8FF482DBA9D9A8B6909472203
:104CE000D84FEE0CA94550BA539E1B66CA5516FD07
:104CF000FF4C91F4F7A78420B2180C8B14CE4276A7
:104D0000699A072845F47B8C9D2D3ED3844B9DD515
:104D1000561213B58ACF60AE3D90BD57117BDED9D8
:104D2000D31DB934028A4412DB2747CF06BCCF70AB
:104D300043E03F6D211E6BC8446774EA12525CE683
:104D400042811F3A36B76A4688DF4D486AC9DB7927
:104D50002E4122DDB43ED34F946496AA21E567909C
:104D6000EA1CA71AD4D42A95D857501309F2A18364
:104D7000358D6043802C1BB0DDA293852DC1940E30
:104D8000877FA331BDF20B5FEE7E20211D4AE10239
:104D9000F61A07344B0F4B41A634EEB3A21D72BE78
:104DA000C543C7E98249A26A9070F144AAF6384225
:104DB000C4EDE5E467491B614DE5E22FA3781316C6
:104DC0000E0A9D432B400681856CB75B0D2D8B4AE7
:104DD000E6DB1A5D0086D28EAA73496AEBB80058EA
:104DE0005081F8621C3E84DB62C18DA8D5D984D283
:104DF00036B93AACDD008AACCED05E2F6F64B0CE4F
:104E0000D9A1108682F16F2A00E5DF1806D9C345C3
:104E1000645142CCD9A5B858C41050812AB7490A68
:104E2000E9656C4A329BA858942A3882E37F6AEC81
:104E300025D0ABB5966F81F0D0FE17156BA6C58750
:104E400046771D3AB33C5FCA0A3DFA5E232CB4395B
:104E500086D256BB8CCA0C3DABD83CDEFDC10D05DD
:104E60008E9293D8F965DC80A12DE87A0EA769E2CD
:104E70006F17A5EBFF1DD72B3599C076A0A2D001E7
:104E800072A8EC1251CF86DA4DAE6157D0F36B7237
:104E9000F106E3250377BC4FDE88FBDB38C0280C26
:104EA000871D3F1A6257826C932814D5B641D739B3
:104EB0008F3A501533017185D10B81C0AE5A8CCD1C
:104EC0006614D0EA2E30D6EE28F5F42C10290ECA3E
:104ED0004B1563C5DBA57D5BFB2D691166510C6528
:104EE00098CAA2B06840FBEF58D91C2BDE1E0560A3
:104EF0001B76D7641DA3F6A5DBEE0B7B1BE19EDCC6
:104F0000A84A37834C04DF509F362DD4B56D9D2FB2
:104F100032878193F2AE7C0BBAF90FFBD33136A402
:104F2000C4D6243EC9FD1E0A4099159C0E52593D17
:104F300046726E99470CE53CC8AC06976049AAB129
:104F400071BF4FC776808B337CB8B0C7DA43D319B3
:104F500057206476F0D1D043614EE87275A877B3DC
:104F60008651A45EF780AE2DBA9D1064F60B0799AA
:104F70009972DF23EBAFDACA351DCB4A43A18A1100
:104F8000C7A8DD34D8A94FA0866EA9718D34CB7621
:104F900035B98BB7F00A668F6EF74FACA6B74A8467
:104FA000B210152982376D2A9BAF1E9D9497BB2C9A
:104FB000E8E75365C223462D9D8701FD107ED4AEE0
:104FC000EB0E744598A6D96747D65DF146D64900E1
:104FD00020333D4244D1B6B2C1BFB21830B3C35C36
:104FE00015BB73BB4641232670BBAC4730E24E2550
:104FF000F942031CE09E47263A2CAECB8669D126A7
:105000002135D56FD4B294445854737B9EDAA4658D
:10501000BEEDAD8B491B965C5A889233CF6BA221B3
:10502000BC855D007050FF79467F5912E16C889411
:105030005F623A88314D97B12BB04342C0742F7DE7
:105040009845C00E2693E1E0B92B1EF993AEEB7F95
:10505000185B554CB49981BD92B4C8F8DBC20114F9
:1050600007EF274857E548D00E2CC91F1985DC8368
:105070007D86E6B3E40F938D76A495D96D03848184
:1050800006820BB91A95E230A509721F8165A7E364
:10509000BEC927C269E6DD6E051B90FB9D592B2E0C
:1050A0007B7F75F22BF48698289864D66B0EDCD63D
:1050B000978D3D35930DDAAEFD29195A0BA54B1985
:1050C00025CEDAFD778BA07F9E6F234CF26694206D
:1050D000FC19EBB5C5D82C02FB6AA436F1B9884897
:1050E0003AC42E812E771E4CAFE62B3B01A95256B7
:1050F00070D78DDBF238C6B68E724CF734456B58DC
:10510000CE67D948A2860C252268B1E4DF65C08F3E
:10511000450085853F1E9DC7E5BC1B6CDC683036AD
:10512000F7FC6978D1AA70C5C3F935575E184BC131
:10513000B9AE990EEE1DE070D2B3BF7386A7834857
:10514000D50E2FEE0420FEB9CCF29A033A19B69D83
:1051500069053AA63E7546A5ACF79569120B455C04
:10516000A539337C49932A253EAC70F355E3693663
:1051700013928A72E12D7B260688D678D0F558895D
:105180006A757F21F0D1821DF1812EC4F12F0AFBB7
:10519000A61B512D2A420B5CCA3FC87BA851FD14A7
:1051A0008025C8F5BF321DC9B8B0DA9AB9A7513FFA
:1051B000C1E69E7C625C3B36FE238A797939599937
:1051C0000873E32EF65BCDD3972F71B73F965C50F3
:1051D0001B498E3F2DFEF94045FA0C4763BD165220
:1051E0005646A26223E8BC703D3DC8FFABAB289E8B
:1051F0008EEE7F4A203E0D3EA7038B99C44BE7E31A
:10520000766A2A5B5EEE8DA69799E2B05D9A5DE2C2
:105210000DC4DC4932EC7FD1F81A79103E8C9F3FE7
:10522000F5A53BDEF031FB32D9FB4608FD1EF9A99E
:105230008F0D8B2D04511D497BF43594F9AFE23B62
:1052400080689FBBA1302252FAC4CA42382A524D0C
:105250006EDBD320884C10E4F353E9E0E8B5A024DA
:105260004DEA69EF084A19983EEC9B144746F3341F
:10527000EBB70B9E619B36661FD6DD1F9F51B7A60D
:10528000C067D0D8FF1881FD808263DF44F0ABBADD
:10529000E68125E9DAD6C0B68798FDDD21F55F8184
:1052A000866B0B9BC079B09B36944F1D720EDEC18E
:1052B00071CF835106D8EE6CBBE76EEEE022612A17
:1052C00039ECE1D009CF06329BB9995FD8FA5ED0AC
:1052D000100CF478D5A9F429CD7233BA72B8E6402F
:1052E000BB2F33A175B3123F7C0C89308D428141B5
:1052F000DEF2195B9BAFF7664FCC0308A513784A23
:105300006AE0D31F006EE722DB83E7566FB9AA7C01
:10531000D045DF0816882CD8434207E4A6C738F4E6
:1053200045B09CA942895F7DE68AAA39964F4DDA3D
:10533000A49BAEE68F4B460C6FE2EE22038F724EBB
:105340002B3196A5787F8D93784E89E73077B2140C
:10535000561130F4CCCC24C5CE43F095B8A4335CC0
:10536000D97EB1BBD42CD14AFF3EE65AC42780C3B4
:105370001D623A98057352ABD81587EE15FFDF66AC
:1053800053959A00824407B6C07E124F66910DDB9A
:105390001A94321B73B5685CBB1E890672B5382837
:1053A00061C4A7EB7EB9A96DD34B4D8EC422B874EE
:1053B000176DB07EE99C7C66DE6D5B17AEA77774D7
:1053C000D88BB71EC136DE871ADDE277C848E96E92
:1053D000220A48042879E5A26814B5C0107963331D
:1053E00082E19FF9CCB408991CB302D5D8E0C23051
:1053F000E7DB90ECC0691FC80D112301AEF230EB62
:1054000073B91DEE378B52D6A394DAC762399F9ECB
:10541000584256D5DB3D51A2E94B538CE687153DEA
:1054200092E7C20300C42504A0F59528151ED410E8
:10543000037E673BBC62D74FDB62DFA127D121E54A
:1054400008C8F7F948BA8132633632B46493D05150
:10545000207F82C00F1AF5B6B1966784A548B17552
:105460001CD24C8C2D130FC441DE808EA23EB4E2C0
:10547000DCE28B244EA6AB5C6971851D2DF01E6CA1
:10548000FA3C2A4F364DF49E64B5384AC2EA465477
:10549000B74DEE0BDE59B9A25EA66562090FDF3883
:1054A00096F28B2E58C0077BFFA4BD8E0B5289133A
:1054B000854F34363B301CEE3C7CC73CD52DC0E4D8
:1054C000CC314D87C83BD9FBE766BA3BC6F25C518D
:1054D0001EC521BCFC68F55FA43CB1F103E92814AA
:1054E000F0C6443A58A002870FECC37009869B3D72
:1054F0001F3864A00A63C63F88DFF603024F69D7EE
:10550000308F0E8472AF83DC83A0368C6E94EED71E
:10551000921A220046376B01E92686BF123A9001A3
:10552000A05238CD6AC20936F00870356A2EEF3ABB
:10553000F3F7C99AF4E257D47AFB97DC35DA5E5078
:105540005E69329714B018E51957150B6C94EC503E
:1055500095DE7FBC985681DCD76B93367DF2B19394
:105560005E060C99BFA186F985200D5A55600C5135
:105570006F9169428C94E64469311DDDDE6F848051
:10558000A56F2FE1298DACEFD8912C2F1FF600735A
:10559000E91F1E6D1C929A2611C211F1455176E049
:1055A000E51F9BB8691133040824A31864D9262089
:1055B000C2A8C9ABEB994FBA4A7FFD40310F8E6A42
:1055C0003A83AA906CA7F6AE3D33FF20440CF4BE9C
:1055D000CEC4E12614301C9773B743D66D478AF0CA
:1055E000CE40787F755D1A23F9723F12C698B1E2FA
:1055F00019496878F45858D419F922E1CA392CBDF0
:10560000CBBDF7819DFAE161645ED0EA832C399CC1
:10561000CF39814D947BAB64D28CD92474187B0232
:10562000E751A8AAEA1349F943295799D668283AB5
:10563000D7A1A4114779E7DF67C685F032B3B1C9B6
:10564000DA68ACD10EC79EBE13C4E75F3B3B15A41E
:1056500021B0EB105A3DE7BFB6F710E7F2F3ED3596
:105660003DC20307242804FB93E964F953CC1E6C64
:105670004E4D930E19217EA94432DE162229A3DF56
:10568000ECFED19AF8179768B47BE883639683AEF3
:10569000AB4A9F110CC5B3727EEDBDF894B63400D1
:1056A0003CD767DAE81C7EF3F3750BD4D22D372094
:1056B000E3CCF09DD950BF3F9C4601A688B3ACB95E
:1056C000FC2016A9739E3A64F88FD9D9E5609CB383
:1056D000536915AD3F9D57A15B7A38F35D335F6425
:1056E0000554485D1BF2F7F5CC721AAA6EAC828C99
:1056F000607175274AB61B600EBDCCA4BD4BFC1A69
:10570000FFE52EFB80EADA787F2840302262FDC177
:105710005B080FB0BD1D3F671D0489CAF5A619DFE0
:10572000608CEFCA7E051572658101F578C798CA4D
:10573000F4A3ECBCDCB4212456660DFB083F6A657B
:10574000762478DD6592CF501B544B8AAD13A0A808
:105750006981380D5DE31424769E6DC10A58783056
:1057600066C9B1441A8C745E845CD790E5BA8F1018
:10577000756457B13EF27AF8CDBE6839858796A92F
:10578000F1AE2E033D7293A46DAE27A8EE074EDD59
:105790005031CB74BC4182BA7240F946BEC7EEDBD1
:1057A0004E32C97C0F0C026C60F0B6A95A2D5BC654
:1057B000902B4998C6EE881EAC872635B0DC69234D
:1057C0002A05BDB3DE896D84E1F635EF0B3872A68C
:1057D000250EAFB21F7DF0B7340B32065C0B9C91E7
:1057E000A5FE7FEEFE4FFFD4D3675B99C3431A1922
:1057F0008E621E44A997B37A24ED6F5968F65F6AEA
:10580000B11B9AEC01898FBC8062DFFE051DBCB024
:10581000B785C31CCBB7C5BFEA33FC7DD7DEC0B7A5
:10582000AF086A98AC9DF808B2C5B9C8A7E1FEA256
:10583000C389FD055765CFD1D213202998C6B16B16
:10584000C61FCF57B1F56380C3B226FA3EB5B71B6A
:105850006CCCE1E4D633C9E1CEC1FF71B5169665D3
:10586000BC1E970D0B0DE8C56DF684C72230CA3CEF
:10587000F499EC659242AF3800A106E2D6D6936067
:1058800034DB0583F79C3F7D550E4EE9228B1E933A
:105890004EDC89886B5E4F42732D3BB5F0300CC4F3
:1058A0001A204112D03BB4AB244625E907CFE7A824
:1058B0008DFF89ADD46DDB2462A3077C39667675D4
:1058C000A58B8765BA9FAF14B45B50AA71522BDACF
:1058D000121F82B0E831EEB3F4F6DB29A26E6A350E
:1058E0006460BB61E60404240D874AE6F4D278D7ED
:1058F000B0DE752DEEB561B5431A8E6D3673893500
:10590000FCD8CF06F699452B1D4BA7D9C60E49509A
:1059100006E501459E47EF2CD93B7A727F75151C31
:105920000AF36FC2C36E9403A84FDD78699A656B62
:10593000A16FE4A235D8765770937787E80E9ABCAA
:10594000CBF50A90387C224306DDD8DC9E27B47262
:105950009C96A4DE44315C271237970D51EA9CB225
:1059600074DFFEBD78ACD9B967C67B3F16517C4861
:10597000D1696A481DAD6370EA239EC3EA97C08B64
:10598000A00991988E752BC7B2FD69E933DED7C1A6
:10599000C000FBF0ACA869ADA11E9B6EB9BCB22ED5
:1059A000B64DA36313A44D5E53DBCDCDA166B5DA2E
:1059B0006C7A03B7A927FDDEFB11D28D0F2A91C5A2
:1059C00063A0331EB91B9625E696678B48DFF76503
:1059D000021B840891E25FC2AD299097C0FE09A91D
:1059E0006E3E4B3BA0709F56352DB976E5C440CB3B
:1059F00031FF0A65D042F7EBDAC92FA4F33EDA9003
:105A00005FDDDDB6C3EA2D30A9754881FE86668963
:105A1000A3614A4B4DA1A49AA305B36A2DECDAA465
:105A20005940956CC159A6EBC0C8CF01778857EA99
:105A3000EE70E2895D6BCB2D287E6F5A0D4BCF2126
:105A40009BE0F09703CB635A32F6CC34E36B24E24D
:105A500012E6B32E90F1FB5BEF2AEFD644EE3B4B00
:105A6000A757F389CD83BD5F332276FA59B9A6676C
:105A70009AA9F38BFE841E6D3903F07CAE5DAA7982
:105A8000C0367669F7DF1F9BC65034C57DC8DB5B27
:105A9000549BE53FBF4B79BFC8FFA02E3CA92F36D2
:105AA000684FA27AF6C1C42E573ADB1816716D659D
:105AB000F5A46056E032704340FE358E94652F9019
:105AC000F0AE7FA636AD296CB0F4718A13FDE514F3
:105AD0002558E453EC4C22E45E9097A024644315CF
