:020000040800F2
:1000000000100020FD020008E1120008E1120008C3
:10001000E1120008E1120008E1120008E1120008F4
:10002000E1120008E1120008E1120008E1120008E4
:10003000E11200081C790108E1120008E112000831
:10004000E1120008E1120008E1120008E1120008C4
:10005000E1120008E1120008E1120008E1120008B4
:10006000E1120008E1120008E1120008E1120008A4
:10007000E1120008E1120008E1120008E112000894
:10008000E1120008E1120008E1120008E112000884
:10009000E1120008E1120008E1120008E112000874
:1000A000E1120008E1120008E1120008E112000864
:1000B000E1120008E1120008E1120008E112000854
:1000C000E1120008E1120008E1120008E112000844
:1000D000E1120008E1120008E1120008E112000834
:1000E000E1120008E1120008E1120008E112000824
:1000F000E1120008E1120008E1120008E112000814
:10010000E1120008E1120008E1120008E112000803
:10011000E1120008E1120008E1120008E1120008F3
:10012000E1120008E1120008E1120008E1120008E3
:10013000E1120008E1120008E1120008E1120008D3
:10014000E1120008E1120008E1120008E1120008C3
:10015000E1120008E1120008E1120008E1120008B3
:10016000E1120008E1120008E1120008E1120008A3
:10017000E1120008E1120008E1120008E112000893
:10018000E1120008E1120008E1120008E112000883
:10019000E1120008E1120008E1120008E112000873
:1001A000E1120008E1120008E1120008E112000863
:1001B000E11200080348044B834202D0034B03B111
:1001C00018477047A81C0020A81C00200000000051
:1001D000064B0749C91A891048BF0131491003D09D
:1001E000044B0BB101481847704700BFA81C002002
:1001F000A81C00200000000010B5064C237843B96D
:10020000FFF7D8FF044B13B10448AFF3008001237C
:10021000237010BD0C1E0020000000009079010822
:1002200008B5054B1BB105490548AFF30080BDE893
:100230000840FFF7CDBF00BF00000000A81C002051
:1002400090790108A3F5803A704700BF174B002B47
:1002500008BF134B9D46FFF7F5FF00218B460F4665
:100260001348144A121A01F0E8F90E4B002B00D083
:1002700098470D4B002B00D0984700200021040028
:100280000D000D48002802D00C48AFF3008000F0AC
:10029000F9FB2000290000F0A5FA00F023FB00BFC5
:1002A0000000080000000000000000000010002016
:1002B000A81C0020101E002000000000000000000C
:1002C0000346054A0549106803448B428CBF4FF032
:1002D000FF301360704700BF0010002000000820AE
:1002E0000348044A0449121A921000F0FABF00BFF2
:1002F0004C8601084C860108101E002008B500F04D
:100300002FF8FFF7EDFF124B12498B4212D300205A
:10031000114B12498B4218D3FFF798FF186850F819
:100320002240586840F82240013298688242F5D352
:100330000C33EAE70022F8E71C6844F82200013297
:100340005C68A242F8D30833E4E70022F8E700BF74
:1003500098790108A4790108A4790108A479010811
:100360004FF480414FF0FF30124A134B10B59360A9
:10037000D2F8883043F47003C2F888300F4B996686
:100380000F4901F5005318666FF4003058660D20D0
:1003900098660220C2F8D000BFF34F8FBFF36F8F73
:1003A00001244FF440320748C0F88041DA6004600D
:1003B0000A6110BD00ED00E0000000080090005050
:1003C0000080004400E100E04FF48032054B9A6663
:1003D00041F6713203F51C33DA63012203F5005351
:1003E000DA6070470090005041F671320121064BEF
:1003F000DA6303F50052D1600022DA634FF48032F1
:10040000A3F518339A6670470000035008B5B0B1E1
:100410004FF480620B4B9A6600F088FF4FF09843D0
:100420005A6CD202FCD54FF48062586D064B10F422
:1004300070209A6604D0BDE8084000F098BF2120E3
:1004400008BD00BF0090005000A0005010B5044649
:1004500068B161B10023074A8360C0E90023C3612A
:1004600000F05BFF2046BDE81040FFF7CFBF212022
:1004700010BD00BF0000024310B5044668B161B171
:100480000023074A8360C0E90023C36100F045FFF1
:100490002046BDE81040FFF7B9BF212010BD00BFC6
:1004A0000000034370B50E461546044686B0D0B131
:1004B000C9B1C2B100230D4A8360C0E90023C36102
:1004C00001AB039301230493094B03A9059300F0A7
:1004D0001AFF2046FFF79AFF18B9019B3360029B71
:1004E0002B6006B070BD2120FBE700BF0000044375
:1004F000080000201FB5044698B191B100230A4AB4
:100500008360C0E90023C361012301910293074B7B
:1005100001A9039300F0F7FE2046FFF777FF04B030
:1005200010BD2120FBE700BF0000084304000020AD
:1005300010B5044600F0E0FE024B1C6000F0E0FE47
:10054000002010BDC01C002010B500F0D5FE034BEC
:100550001C6800F0D5FE204610BD00BFC01C002066
:1005600013B5002301241A4619461846009400F0DA
:10057000C9F8002300941A461946184600F0F2F80C
:100580000248FFF7D5FF002002B010BD0410002084
:1005900008B5124BA8220021184601F04EF803229C
:1005A0000346026142610E480E4A98614FF4806131
:1005B000DA61002219629A625A62DA6218660A489F
:1005C0005866996609491A67DA665A6711F8010D83
:1005D00098540132102AF9D108BD00BF001C002038
:1005E0000178010800180020001400201A78010882
:1005F0002DE9F84FDFF87C80824698F80030894674
:1006000016460BB9FFF7C4FF182707FB0A873D6F93
:10061000D7F86CB05D452BD9BC6E796E641BB442C3
:1006200028BF344648462944224601F011F8BB6EE3
:100630002544AB4208BF0025A144361BABEB050B9C
:100640005E4528BF5E4656B1182303FB0A83596EE8
:1006500032462944484600F0FBFF3444354424B177
:10066000182303FB0A88C8F870502046BDE8F88FAD
:100670000024E3E7001C0020F8B5182700FB0775ED
:10068000124B0E461D4407FB0033DB6A1446012B58
:100690000AD0022B14D023B9284600F000FF844270
:1006A00008D900242046F8BD284600F0F8FE844210
:1006B00028BF044622463146284600F0F9FEF1E7FD
:1006C0002846BDE8F84000F00EBF00BF001C002027
:1006D000F8B50B4B04461B780D4616460BB9FFF7D1
:1006E00057FFEFF311874FF0200181F31188324655
:1006F00029462046FFF7C0FF87F31188F8BD00BFE9
:10070000001C00202DE9F041154C1E4623780546BB
:10071000884617460BB9FFF73BFF022D1DD8EFF3B4
:10072000118C4FF0200181F3118865B1182005FB71
:10073000000344F80380E2180023576000FB0542E1
:10074000166293625362182303FB0544069BE3621F
:100750008CF311880020BDE8F0814FF0FF30FAE7FC
:10076000001C00202DE9F843144E1F46337805463F
:10077000894690460BB9FFF70BFF022D1BD8EFF30C
:1007800011824FF0200181F3118855B11824002304
:1007900004FB0564C4F86090C4F86480A76623670E
:1007A000E366182303FB0566089B736782F31188D1
:1007B0000020BDE8F8834FF0FF30FAE7001C00206E
:1007C0004FF4005382B00193019B5A1E0192002BFB
:1007D000FAD1034A136923F00403136130BFF9E728
:1007E00000ED00E070B58CB00021202204A800F0DC
:1007F00024FF4FF0FF344FF480322F4B01945A66A0
:100800009A664FF480629A66FFF7AAFE00F0ABFD8D
:1008100004A800F0DAFD03AA02A904A8CDE9024465
:10082000FFF740FEDDE90212244800F011F9244DE3
:1008300001A904A8FFF75EFE0199224800F008F91B
:10084000EC682148214600F003F9019B24F07F4425
:1008500023F07F43A34204D31C4800F00BF9FFF7B9
:10086000AFFF1B4E33681B68013301D01948F4E712
:1008700004A800F0AAFD294604A8FFF7E7FD0446F6
:100880000146154800F0E4F884B9FFF79DFD042205
:100890001249306801F030F9FFF7A6FD294604A897
:1008A000FFF7EAFD01460E4800F0D2F804A800F078
:1008B00096FD00F05AFDD2E7009000501B78010829
:1008C000201B00085A780108727801089278010804
:1008D00010100020BC780108E078010814790108A4
:1008E000F878010808B5064B044613B10021AFF3B0
:1008F0000080044B1B6803B19847204600F09FFD21
:1009000000000000FC1D0020002310B50446836099
:10091000818119464366C28108228361C0E90033A0
:10092000C0E904335C3000F088FE0D4B2462636242
:100930000C4BA3620C4BE3620C4B23630C4B9C42AD
:1009400006D003F16802944202D0D0339C4205D114
:1009500004F15800BDE8104000F077BE10BD00BFA4
:10096000F71800081919000851190008751900082E
:10097000C41C0020024A0349034800F0EBBD00BF3D
:1009800014100020A71800082410002041680C4B08
:10099000994210B5044601D000F085FFA168094BCB
:1009A000994202D0204600F07EFFE168064B994252
:1009B00004D02046BDE8104000F075BF10BD00BF58
:1009C000C41C00202C1D0020941D002010B50B4BD2
:1009D00004210B4C0B4A20461A600022FFF794FFBB
:1009E00004F1680001220921FFF78EFF04F1D00015
:1009F00002221221BDE81040FFF786BFFC1D002037
:100A0000C41C002075090008014800F01FBE00BF8B
:100A10000E1E0020014800F01ABE00BF0E1E00206E
:100A200010B50446FFF7F0FF236A1BB1BDE8104084
:100A3000FFF7F0BF044B2362044B1B68002BF5D17A
:100A4000FFF7C4FFF2E700BF8D090008FC1D00207E
:100A50000FB407B5064904AB086853F8042B816846
:100A6000019300F033F803B05DF804EB04B0704775
:100A700020100020024B0146186800F089BD00BF1D
:100A80002010002070B50D4D00260D4C641BA410E5
:100A9000A64209D10B4D00260B4C01F021F8641B36
:100AA000A410A64205D170BD55F8043B0136984705
:100AB000EEE755F8043B01369847F2E71C12002098
:100AC0001C1200201C120020201200202DE9F04FE3
:100AD0000D469DB014469846064618B1036A0BB9F8
:100AE000FFF79EFF6B6ED90705D4AB899A0502D438
:100AF000A86D00F0ABFDAB891B0701D52B699BB935
:100B00002946304600F0D4FA70B16B6EDC0704D58C
:100B10004FF0FF301DB0BDE8F08FAB899805F7D4DA
:100B2000A86D00F094FDF3E70023CDF80C804FF0A2
:100B30000109DFF8B481099320238DF8293030238F
:100B40008DF82A3023469A4613F8012B0AB1252A3C
:100B5000F9D1BAEB040B0BD05B462246294630464E
:100B600000F09AFD013000F0A780099A5A440992DA
:100B70009AF80030002B00F09F8000234FF0FF32E6
:100B80000AF1010A049307938DF853301A93CDE9C3
:100B9000052354460522544814F8011B00F08DFF2C
:100BA000049AD8B9D10644BF20238DF853301307D7
:100BB00044BF2B238DF853309AF800302A2B15D0E0
:100BC000079A544600204FF00A0C214611F8013BC9
:100BD000303B092B4BD9B0B1079214E0A0EB0803CE
:100BE000A24609FA03F313430493D2E7039B191DAA
:100BF0001B68002B0391BBBF5B4242F002020793CC
:100C00000793B8BF049223782E2B0AD163782A2B3E
:100C100032D1039B02341A1D1B6843EAE37303922B
:100C20000593DFF8D4A003222178504600F045FF59
:100C300038B1A0EB0A004022049B013482401343E8
:100C4000049314F8011B062228488DF8281000F0A0
:100C500034FF00283FD0264B1BBB039B073323F0F8
:100C6000070308330393099B3B4409936AE70CFB92
:100C700002320C460120A8E7002301344FF00A0C91
:100C800019460593204610F8012B303A092A03D95A
:100C9000002BC6D00591C4E70CFB012104460123BB
:100CA000F0E703AB2A4604A930460093114BAFF39B
:100CB00000800746781CD6D16B6ED90705D4AB8966
:100CC0009A0502D4A86D00F0C2FCAB895B063FF523
:100CD0001FAF09981EE703AB2A4604A930460093CC
:100CE000044B00F0ADF8E4E75C790108667901088F
:100CF00000000000991600086279010870B50F4ED7
:100D00000C460546316811B900F07EFA3060214684
:100D1000284600F079FA431C03D14FF0FF342046F7
:100D200070BDC41C24F00304A042F8D0211A284648
:100D300000F06AFA0130F2D1EFE700BF001E002098
:100D40002DE9F843CD1C064625F0030508350C2D8A
:100D500038BF0C25002D01DBA94204D90C233360D8
:100D60000020BDE8F883DFF8D48000F095F9D8F8CA
:100D700000301C4644BB29463046FFF7BFFF431CEA
:100D8000044658D1D8F800402746002F43D1002C04
:100D90004BD023683946304604EB030900F034FA9F
:100DA000814542D1216830466D1A2946FFF7A6FFDA
:100DB00001303AD023682B442360D8F800305A68B9
:100DC00062BBC8F800700FE02268521B20D40B2AC7
:100DD00017D96119A342256018BF5960636808BF1D
:100DE000C8F8001062514B60304600F05BF904F126
:100DF0000B00231D20F00700C21A1CBF1B1AA350B2
:100E0000AFE76268A3420CBFC8F800205A60EBE766
:100E100023466468AEE73C467F68B6E71A465B68DF
:100E2000A342FBD100235360DEE70C23304633603E
:100E300000F038F994E70560D6E700BF041E0020F3
:100E40002DE9FF470F7E914680460C46782F9A4643
:100E50000C9E01F1430207D8622F0AD8002F00F040
:100E6000DD80582F00F0C38004F1420684F8427000
:100E70003AE0A7F16303152BF6D801A151F823F04E
:100E8000D90E0008ED0E0008690E0008690E000872
:100E9000690E0008690E0008ED0E0008690E0008D2
:100EA000690E0008690E0008690E000803100008AA
:100EB0007B0F0008BB0F0008690E0008690E0008D0
:100EC00025100008690E00087B0F0008690E000855
:100ED000690E0008C30F000833681A1D1B683260D2
:100EE00004F1420684F842300123A8E03168236807
:100EF000081D30601E0601D50D6803E05D06FBD5B8
:100F0000B1F90050002D616878DA2D200029A16028
:100F100084F843002DDA6D425D480A231646B5FB7E
:100F2000F3F103FB1157C75D06F8017D2F460D460F
:100F3000BB42F4D9082B0BD12368DF0708D52369FE
:100F400061689942DEBF302306F8013C06F1FF36A6
:100F5000921B22614B4603AA21464046CDF800A0D1
:100F600000F0ACFB01306FD14FF0FF3004B0BDE8B2
:100F7000F08723F004032360CDE721683368080677
:100F800053F8045B02D4490648BFADB26F2F3360FB
:100F90003F4814BF0A230823002184F843106668E1
:100FA000002EA660BADB216821F004012160002D2B
:100FB000B4D1002EB2D11646BCE7236843F020031B
:100FC000236078273348236884F845701F0631680A
:100FD00051F8045B02D45F0648BFADB23160D90757
:100FE00044BF43F0200323601DB11023D4E72848F9
:100FF000E9E7236823F020032360F6E724480A2367
:10100000CDE733682568181D616930602E061B68BE
:1010100001D5196002E06806FBD519800023164649
:10102000236197E7336800211A1D32601E686268E9
:10103000304600F042FD08B1801B606063682361A8
:10104000002384F8433085E7236932464946404609
:10105000D047013088D023689B0714D4E068039BF5
:101060009842B8BF184681E70123324649464046B8
:10107000D04701303FF478AF0135E36803995B1A3C
:10108000AB42F1DCEAE7002504F11906F5E700BF01
:101090006D7901087E790108014800F0D7BA00BFD8
:1010A0000D1E0020014800F0D2BA00BF0D1E002026
:1010B00038B5294B05460C46186818B1036A0BB9B8
:1010C000FFF7AEFCB4F90C30190722D4DA0607D4C6
:1010D00009222A6043F040034FF0FF30A38133E040
:1010E000580712D5616B41B104F14403994202D013
:1010F000284600F0ABF800236363A38923F02403A0
:10110000A3810023636023692360A38943F008035C
:10111000A38123694BB9A38903F42073B3F5007F3E
:1011200003D02146284600F08CFCB4F90C3013F0B3
:1011300001020AD00022A26062695242A2612269C1
:1011400042B913F08000C5D138BD990758BF626914
:10115000A260F4E70020F7E72010002038B5002354
:10116000054D044608462B6000F067F9431C02D188
:101170002B6803B1236038BD081E002038B500235A
:10118000064D0446084611462B6000F059F9431CF1
:1011900002D12B6803B1236038BD00BF081E0020B8
:1011A00038B50023054D044608462B6000F04DF984
:1011B000431C02D12B6803B1236038BD081E0020F8
:1011C00038B50446064D0846114600222A601A46E4
:1011D00000F03DF9431C02D12B6803B1236038BDF8
:1011E000081E002038B50446064D08461146002268
:1011F0002A601A4600F02DF9431C02D12B6803B176
:10120000236038BD081E002038B50023054D044674
:1012100008462B60FFF754F8431C02D12B6803B13A
:10122000236038BD081E002038B50446064D084628
:10123000114600222A601A4600F019F9431C02D117
:101240002B6803B1236038BD081E002038B5054661
:10125000002941D051F8043C0C1F002BB8BFE41802
:10126000FFF71AFF1D4A136833B9636014602846FC
:10127000BDE83840FFF716BFA34208D920682118FF
:101280008B4201BF19685B6809182160EDE71A46B7
:101290005B680BB1A342FAD911685018A0420BD178
:1012A00020680144501811608342E0D118685B68DF
:1012B000084453601060DAE702D90C232B60D6E7AC
:1012C000206821188B4202BF19685B6809186360A7
:1012D00008BF21605460CAE738BD00BF041E00206B
:1012E000FEE710B53AB1002350F8234041F82340FF
:1012F00001339A42F8D110BDEFF3108072B67047F7
:1013000000B962B67047836813B9816070475B6843
:101310005A68012AFBD159607047C369032B9FBFEC
:1013200000EB83020133D160C3617047C369042BB2
:1013300014D84FF09842116CC902FCD504339B00BD
:1013400013650168103B11604168116050F8081F77
:1013500011604FF098420344984200D1704750F812
:10136000041F1160F8E70020704700207047B0F5B7
:10137000802F22D010D8B0F5003F20D007D818B366
:10138000B0F5803F08BF482018BF01207047B0F576
:10139000403F08BF2C20F7E7B0F5302F11D007D819
:1013A000B0F5E02F0FD0B0F5202F08BF1020EBE7ED
:1013B000B0F57F0F08BF0620E6E74B2070472A20D4
:1013C0007047112070472120704708B528B12022AE
:1013D000002100F032F9002008BD2120FCE708B10F
:1013E000FFF7F3BF2120704770B50C46154610B9C2
:1013F000FFF7AAF838B143682BB12A462146BDE869
:10140000704000681847232070BDF7B50D4616469A
:101410001C4648B103B901AC87685FB12346324628
:1014200029460068B84706E0FFF78EF804B901AC1A
:101430000028F1D1232003B0F0BD00207047FEE763
:101440004FF4005300204B6070470120704700208C
:10145000704707B5002001AB0190FFF7D6FF019858
:10146000002808BF4FF0FF3003B05DF804FB10B553
:1014700014460020FFF7B8FF204610BD10B500202D
:101480001C4600F059F8002820600CBF1B200020EB
:1014900010BD08B50020FFF71BF9002008BD036947
:1014A000C26893429CBF81685B18013B981A7047E1
:1014B0002DE9F041D0E902840546A8EB0406406816
:1014C000964220440F46144404D900F0C1F8EC6061
:1014D000BDE8F0813246A4EB080400F0B9F82246DA
:1014E0006868B919F1E72DE9F843064689461746B9
:1014F0004FF00008C5683369B4689D4228BF1B19C6
:10150000641BBC4228BF3C46013B5B1B9C4228BF7E
:101510001C46706849462844224600F099F8B36892
:101520002544AB4208BF00253F1BA044A144F56001
:10153000E1D14046BDE8F88310B50B46EFF31184C6
:101540004FF0200181F311881946FFF751F884F319
:10155000118810BD2DE9F843074688461446002639
:10156000D4E90195B9F1010905D52468002CF7D11A
:101570003046BDE8F883AB89012B07D9B5F90E30A9
:10158000013303D029463846C04706436835E9E7AA
:10159000036A70B505460E4684680BB9FFF740FA3A
:1015A000636EDB0705D4A389980502D4A06D00F013
:1015B0004DF8A389190702D52369002B35D121469F
:1015C0002846FFF775FD80B34FF0FF35636EDA07ED
:1015D00005D4A3899B0502D4A06D00F038F82846F5
:1015E00070BD002B15DB23685A1C22601970A3689C
:1015F00016F8011F013BA3600029F2D1002B16DA77
:1016000022460A21284600F0B9F90130DCD00A252B
:10161000DCE7A2699A4201DC0A29E4D12246284685
:1016200000F0ACF90130E2D1CEE7013EDFE72368FC
:101630005A1C22600A221A70E9E7024403469342C8
:1016400000D1704703F8011BF9E7704770477047F6
:101650000A44431E914200D1704710B511F8014B66
:10166000914203F8014FF9D110BD9368013B002B63
:10167000936010B408DA9469A34201DB0A2903D10C
:101680005DF8044B00F07AB91368581C10600846E6
:1016900019705DF8044B7047F8B506460F461446BE
:1016A000D518AC4201D1002007E03A4614F8011BDE
:1016B0003046FFF7DAFF431CF3D1F8BD2DE9F047C0
:1016C000164698468A6807460B690C46DDF8209056
:1016D0009342B8BF1346336091F843200AB10133F7
:1016E00033602368990642BF33680233336025684C
:1016F00015F0060506D104F1190AE36832689B1A51
:10170000AB422BDC94F843302268003B18BF012326
:10171000920630D404F1430241463846C8470130AE
:1017200023D023681A3454F80A2C03F00603042B40
:101730000ABF54F80E5C002533684FF0000608BF5E
:10174000ED1A54F8123C08BF25EAE5759342C4BF70
:101750009B1AED18B5421AD1002008E00123524629
:1017600041463846C847013003D14FF0FF30BDE84D
:10177000F0870135C1E7E1185A1C302002332244BA
:1017800081F8430094F8451082F84310C2E7012322
:10179000224641463846C8470130E6D00136D9E7EF
:1017A000B1F90C202DE9F041170705460C4656D437
:1017B0004B68002B02DC0B6C002B3DDDE66A002E33
:1017C0003AD0002312F480522F68216A2B6025D072
:1017D000626DA389580705D56368D21A636B0BB194
:1017E000236CD21A216A0023E66A2846B047411CBE
:1017F00024D00023636023692360A389DA0400D521
:101800006065616B2F60B9B104F14403994202D065
:101810002846FFF71BFD002363630DE001232846E4
:10182000B047461C0246D4D12B68002BD1D01D2BCB
:1018300001D0162B2AD12F6000202EE02A68B4F99F
:101840000C3042B11D2A01D0162A21D10023636039
:1018500023692360D5E7626022692260CEE70F69C1
:10186000002FE9D093070E680F600CBF4B6900236F
:10187000A6EB07088B60B8F1000FDDDD43463A4662
:10188000216A2846A66AB047002808DCB4F90C3063
:1018900043F040034FF0FF30A381BDE8F0810744DF
:1018A000A8EB0008E7E738B50B6905460C4613B905
:1018B0000025284638BD18B1036A0BB9FFF7B0F808
:1018C000B4F90C30002BF3D0626ED00704D4990524
:1018D00002D4A06DFFF7BAFE28462146FFF760FF4D
:1018E000636E0546DA07E4D4A3899B05E1D4A06DB5
:1018F000FFF7ADFEDDE710B50C46B1F90E10FFF7AE
:1019000071FC0028ABBF636DA3891B1823F48053BF
:10191000ACBF6365A38110BD2DE9F0411F468B89E3
:1019200005460C46DB05164605D502230022B1F913
:101930000E10FFF745FCA3893246B4F90E10284675
:1019400023F48053A3813B46BDE8F041FFF76CBC14
:1019500010B50C46B1F90E10FFF732FC431CA389F9
:1019600015BF606523F4805343F48053A38118BFEF
:10197000A38110BDB1F90E10FFF7F0BBF8B50E460C
:101980001446054618B1036A0BB9FFF749F8A36975
:10199000A360A3891A0701D5236943B921462846C4
:1019A000FFF786FB18B14FF0FF373846F8BD2368C4
:1019B000F6B222693746981A6369834205DC2146EC
:1019C0002846FFF770FF0028EDD1A368013BA36014
:1019D00023685A1C22601E70431C62699A4204D01C
:1019E000A389DB07E1D50A2EDFD121462846FFF780
:1019F0005AFF0028D9D0D6E770B50C46B1F90E10C1
:101A000096B0154600291E460CDAA389002113F072
:101A1000800F14BF40234FF48063002031602B609F
:101A200016B070BD6A46FFF7A9FB0028EDDB0199EF
:101A300001F47041A1F50053594259414FF48063BC
:101A4000EBE78B89F7B59D0706460C4607D504F1F1
:101A50004703236023610123636103B0F0BD01AB41
:101A60006A46FFF7C9FF009F054630463946FFF733
:101A700067F948B9B4F90C309A05EED423F00303A2
:101A800043F00203A381E2E7A389206043F08003CF
:101A9000A381019BC4E904075BB1B4F90E10304681
:101AA000FFF77EFB28B1A38923F0030343F0010372
:101AB000A381A3891D43A581CFE7C9B20346024490
:101AC00010B59342184601D1002003E00478013399
:101AD0008C42F6D110BD00000000000000000000A4
:101AE000F8B500BFF8BC08BC9E467047F8B500BF0B
:101AF000F8BC08BC9E4670475FF800F0A5110020B6
:101B000000000000000000000000000000000000D5
:101B100000000000000000000000000000000000C5
:101B2000EB17A65ED95C01003C5C010004020205D3
:101B300001010000E10C30C706FB19B28A88CA1BFC
:101B4000F50CFE2766D268285A2E154A35F3CDAA21
:101B50004CD0CE059EA994AF5B58056583D862181A
:101B60003F79D24AE52F4CDE5BAD103E7F934EB2FB
:101B700032C34A543411ABB260B30FBBF6B15C5AF6
:101B8000C5A92C0200959F85360D0FB6EECF58994A
:101B9000F7E9762B62D8BEEAD0F51C95A299FA1B1C
:101BA000F2D53A8F6187242B6AEE87EB255EFEB96A
:101BB000595A2E8A84C298A75E37C5497D85B79A3F
:101BC0006AB9D18100B24F5CBE18CE76F792B0B838
:101BD00041E9358A5C7ACD05444E117A370AC0BE98
:101BE000CE42EBBD692EB0D827992950DB8F0F6903
:101BF000B42ED0F90C2880EF9D29303BFD6B13EB00
:101C0000CB86014DB7350481E5FEF0560289D087B9
:101C1000EF9C656A5600553A3FFB9444D35A7C7159
:101C20006C271E66954356D5932D0D821C6DB4BE50
:101C3000091911C0C83AD66044BD0E3F0A5411813B
:101C4000077474BDA648B1B48970EE403186B5B052
:101C5000C7BFA98B728F351F56A325650F3B314235
:101C6000D7794D352BC1DD14057AB2DAC236982CFE
:101C7000E6D158FF22FACE1374B8175009EEF73C9C
:101C800088152E936632D1ABBCD7A27FF78247204E
:101C90007D4BA9DCCCB9C94361487BE34CB7984F75
:101CA000B5213120C487C30C1D6BAF200C631A9182
:101CB000346CF90C22F152E3A2183164394F3C879D
:101CC00086419FB650A448854499BFAC7123340A1D
:101CD00046C8B87DFCF69B9A58AB3CCC9F259C42ED
:101CE0000B52BB6E980341F6C9686459A379171863
:101CF000065BFD0B7D7CF3232F339541AB9F7D4A23
:101D0000C0E4D17A671A8FF849D8072CE075DFD480
:101D1000F6F36AC19D6AAFD2DD7C71C1F7D51FAC05
:101D2000E60E7D3E4943D135976C30BEA35E3664E6
:101D3000331FF3EDEBFF2A75292EA58EA54AACE1E2
:101D4000EA5EFA00A2609C3F4A9E0937522C62BBB1
:101D5000E7FB4522A532D14B7F365E2FB03B462FA5
:101D6000E0B5F28667093D6543D34E5C3627A990FE
:101D70007FCDF26FE9EF3304A709E91569C27D77DA
:101D8000DEE6D9BC4534B5146FAAC79D13FF2C18E5
:101D90004AF38C7F7E51B3743AE8EAD45C6EF30D5B
:101DA000ACEA87B7BAE82E45A462D7F2A669618784
:101DB000F6165035C349AB03CF76FB03B9584C82B6
:101DC00031A150A1EE58717FEEC656DB62190502B3
:101DD00026EAEEABC464B4CCA12AC6D111518E114F
:101DE000FFEE205CB9D80A7D49FC75F6805330407F
:101DF0002BBD09BE3AC3AE6EA932DF1FD50D806A76
:101E00006106D3F678DDD4683AEBE2872FC1D47649
:101E10004B9F52883A4A8C9FFEC125EABDC8496A49
:101E20008EB222776E12AD14933AFB67851B7AB09F
:101E30005B3F16BAD2330EBE1219DD0DBC620C44E4
:101E4000DAFC3DC1AAD574DB62FF9DBE676986D20C
:101E50000098785511FA9F83569E0131ED4ED815A2
:101E600041B93B7A922C06D104FC30322CC837D7CA
:101E7000B54ED8653E95378D0EAD5EE5ECE075103C
:101E8000AB3A5F709ADE25017A7790BBA78494A75E
:101E9000C3FAD42F7A5AA35FC49EF22B4BA139FF09
:101EA000E6E15A9E5597220C6A708666B821D6766E
:101EB000CD581C4DCB00CCDDD34D58B0F0D2DA520A
:101EC000605CC5400002E05E132262E1974EDE7363
:101ED000BECA570D505E9CAF35028ED7D5F873152C
:101EE000FA91B82BBAD15875B5C1D0F2CDAE39F947
:101EF000DDB87DB4E315A7A562A2E69AEB35D6CF8F
:101F00003D6FF1949D9C978D904D94E576EE0B1A64
:101F10009E1C17569DA22A0901B55078732985E2A7
:101F20007179EE83F6B127F7E4030AA4E2D048E41E
:101F30001B1E38AF830DB383C06424CFF2E07C2234
:101F40006F85E2523CF98FB8606CFEB43CA290EA17
:101F5000463EB843757C215630DC834CE849768E8A
:101F60007B49F67D620BDA30D48926FEB906DD1294
:101F700004254F005EC7E63C4A6496E2A79E92376E
:101F80007873C4E8519C7450FEE5C53B456561001B
:101F9000945161F30E88ECA4CFFE789515BC7D5367
:101FA0006B108EB256E98D48FA8FFF7535CF17AB9F
:101FB000BEB4736A1E912A54E28F74B26958A0D9D4
:101FC000935F02E59AFD2845936D6F37427FC36D9D
:101FD0003708E520D7AC9869384728D5BCA7CA761A
:101FE0004733ABD4B816DA574A3D532466E7720F2D
:101FF000B4B5371DE26574CF89ECE99DE6CD40109C
:10200000B4B6BE5D9026099547E11B5E01FFD23E46
:102010008A0B1396304733AB7E72837574574171C8
:102020006E621F165F9767EE8077B113B1FBBCB08D
:1020300096CDEF2B274338471B864234C6F261D337
:10204000629C8E4A5B3BA13CFF3CA5332B778227E9
:10205000A5DD35468C8A8523072430DD9A99E2E593
:1020600094EDF8D5D34499427CCCE5815A11129471
:10207000AD888694A416DA1FB469C0C489E6588670
:1020800047092F63E6B802748A2907CB21869D355C
:10209000A5394F25833DCF80B3ACA18F9498C0C1A3
:1020A000987F75F61F283D69B2E3B5CD72B1707A9D
:1020B000236D43754D9FAD49EE143FD9606C2241AD
:1020C0000C5AB46768132B8FB794ADC5D5A1A4740F
:1020D0005271F5DC4920F20FFE3E2222BDF176342A
:1020E000A02A6EAD9431B58E378E30A6DD021D73F9
:1020F00087657A7069B05F611E1A6F4B4F6C356DE2
:10210000967C2FB6F46AE3D22F93FDBF0A624C533C
:102110009CE60BA553B37DD4B9D979C960621DC0C3
:10212000EF2E261D0C781810A47BBB27438AD105FF
:102130004EC47FAEE95B06F8121A760BBEB0B9004A
:10214000F5A9024A30BBB2207EF1E97B30C102AC76
:10215000460D1E0C2632EC1107D9763B58283E8AD4
:10216000CB6CED616A7CC617EA420C36C32238DBC1
:1021700030D86D8C90FDE76A5DDD6B1CA65214BDF6
:10218000A2774AEA5990412B2CE55B04F06291CA90
:10219000DA3328B18495C559B5FE6E43528BB8DC4D
:1021A000F5F7E99FA9865792942705825F813EDE65
:1021B0008EDA33874C796836DE9C1798F1FF4D0B29
:1021C000BA9BF171FE1F36FE7B04164A058B29A1CE
:1021D00047821F1408CB149144ABD9F188A3403A2D
:1021E00078EB7CDA5AB3E1B834487336EEB57B3815
:1021F0001C280ABABF4B179D1E619AB697A34707C2
:102200009E1AF6916ECBE777C3A779555AA158D994
:10221000EAF70CEBA1DDF66B214A35C7F379820FA3
:10222000E1869AAC6E3EEEF67669C9A57371789236
:1022300045767A6D121051E5504B9D644CDB4CE0B5
:102240004C2C8D4231828FC0C79CF2C67D6B75ECE1
:1022500051E2324A621762DF8C19D0B7DC3E9043FC
:10226000381FD2D41CB0B806749B3E62AD32C08A0F
:102270006D3BCB2D972216AD21ED7714A6E0EFCE66
:10228000DCF8968CC3B482BE76E1B83DF8229A3D64
:102290004E28DE311348CEDAB51518D4C8CEAB0DB2
:1022A0005E13D6369B41A8EB052833D601034E7842
:1022B0009662B8CCA727455D9CF6F2AAEBCA878F39
:1022C000D332AA7B39AA8A257155E5C8B1D0E0512D
:1022D000B4D79DA6360937724CA8AEF11FBC418A0F
:1022E000305498E54B7FC66F13257E6B99115AEEDB
:1022F000539C2FA78BA9A560EA18BA687AEBDF4A2E
:10230000949D019020BC2B1AAED9D2D25148AD2B4E
:10231000923FB7F71A7C82C51E8BFEF15C7E303D82
:102320001E98B9A9B302FADFB3BF2C9A50B8F6A130
:1023300038D9AE29F86977FB7120374FA380421155
:10234000CE6441345D71603778D870D7D183B3B231
:1023500049937B44336B493A1F96764A9EBD1E8053
:10236000C1436A332DB4FB80FD0B5852D238EFA421
:102370007975F561409ACFF265C87CEF12D81AF7EB
:10238000048D45D89F26AEBBBEB11BC3F83864B0E0
:102390000D77A76A46379C22BAF03F6276C6C5D64B
:1023A0006F8558FCFC35CFFECCE39053C90FA20ECD
:1023B00053BFE0C829223281B332E08C62C31F7D53
:1023C000352AC3D63A2A44B94422470E533BB24E6B
:1023D0009A90AC631E09A6103782B9AC073601B0DB
:1023E00053F183618327949FD74CF1B211D0ACD6BF
:1023F000F44B9F6238A21B3A0A96173645CE9E735D
:10240000E9F479CB2A17DD47E9A5AC3D6BED74D42F
:10241000BEBE2FA559C6E114A4592E6BFA86D194DD
:10242000DB12570F5F71A8931BC9CC3EE4BDBA7194
:1024300026AECDE623A939E5BA2EA986130CA1CD87
:10244000F3A997EC46833084F8181E821E0FBF7ED6
:10245000BD817AB044657C0F793DEB614C99B983BD
:10246000A751A73EFAA2F7DCE00FECB39EEE43E5DE
:10247000364C757E272FEE366A18F197565C8AA681
:1024800000494ADBC58E0CEDD475878C03FA91A404
:102490004FE0BF046A879482212103D8D30CE21F46
:1024A0001374B355C21AA82BDEAB83A228E5338977
:1024B000C341FB3F9394E13626C0A1CC06D580F002
:1024C000435B2B5BAF7437FE4F7ACFABAB6D67CC02
:1024D0009465B5B6381366703141308C65382CF28E
:1024E000C44F977DDB33B55428E5D5F4AD0985F6A7
:1024F000112495B809C17E132F41DDAF1A40B1EC0C
:102500008E138985939C1583F08D7819F1AC5E0844
:10251000A3A881ECFA1B75FD9DC21151E0EACF5AC8
:10252000B86494076A6B36D82D802E7BD5D4641599
:10253000338C1212C5D707E68B637B3DD934ECE6AA
:10254000823724806A74AAAEF2A4D330C7EC3A551D
:102550004E740B150F81CED96290AD403DE38B3D9B
:10256000796E16DC1A4E7ED429B34B954455DDC5E1
:102570007313CFD57A763FE2EC182749857A88988D
:102580004BDAED1BC9440E771C0636DE282ED57DAE
:102590000D5A4A3DAA12849E62EDEEB796DF0024E2
:1025A00029818DB1976632257474BC62D6F0902172
:1025B0002DE2B0AC4D5BAAACC21534314F8C4FEA62
:1025C000A288EBF07FDFCA58539C533385D93F353F
:1025D000695547B85B8926943CE18CFC70A544AFF3
:1025E000E5039F722D26BE9BCAAB71D16A4DB2EA3C
:1025F000EA1A19C336FE2A4427294BEE663C0C30F2
:102600001027793922DB44A3AEDA6EB7481C6297F3
:10261000D1DB886F9ADDC68F637E4FF25384D62B51
:1026200096D41668A6830C91E532DDD75555D24570
:102630000C2768E1EF09AC67C9D707FB34FE73E9E3
:102640003B032D987208D4E6EEEC094170B3CB3110
:10265000B681FFC3070BF62AA9A646FDE3DCEFDB34
:10266000B31A12CA6C661AFD5F300061304D3352E6
:10267000625D5918C024EEF2E584AD4FD0F4E19AC2
:1026800040D917E3E9A65B1207878683C6EB10A83B
:10269000E36FB45B75DD05D422065900FFA07662B6
:1026A00008FFA4368A6A25315855B03076BDD79DCB
:1026B000E67D50C53F12E18A316EDD8F0C0EC3EB13
:1026C000E534F0251CC2EEF13B6A3ED2143F59FBC3
:1026D00077E9D521E2AA1202CBF9DF2ACFDBB2F5E6
:1026E000A3813C2A8312F69E705CACCFE1029FA6C8
:1026F000DDD6045C7D043E31705C467717C6AB1AAC
:10270000C70EC4791F8D30FCDCD2533C72F9D63B26
:10271000B79416AC5501E2E03F85CF94D6F6C910C8
:10272000E7E8BAC74DC4344A7181F08DDEF240A5A6
:10273000ECF4DF7DF6E474D5C2FFA3EBEDA58B27A7
:1027400050832F4621BC865B8644737C73FDEBE48B
:10275000F192327CCBD97F0A011348D522F512467B
:10276000A8E3FC1A37488A95335BAD42B0C3F0CA80
:10277000AEB46AF7B7CE1BAD75DC3B164015B90891
:102780004EDFA83326CF259F6E76CDD094DC04484B
:10279000F5AA09E0B00057316B71DB9DD5D0E4ECB0
:1027A0006E608834CDA952DE789FFE4F6C3AB00936
:1027B000F6A5D23A8C0F1017018E3014CFE150C01D
:1027C000087459D1D1032843BB00577FA24C0D9CFC
:1027D0008DFB1F74958DBBCECBB69B046DC66C2252
:1027E000ADFA6B280A77DB2ACD7B5BF822900E26A8
:1027F0007B839203CF66D28E798617D1795B71196C
:1028000062B250D284BA769A013CA29971620216E1
:10281000EF85DC383033D15656A343F917614B06A8
:10282000B355C03B262E6E9CA576B445E2A411B6E6
:102830007252CCD6452DD407DA78DB5E9200C423E1
:1028400075662B7A983A238919D7D2724BE4CD2B2F
:1028500032118F73E89122C7B291B5B0E6AC45232F
:102860006A1AA9D87AF3C2937CEFCB109E630BCE81
:10287000A52E22D5E1E2F3D046F2BB2F7AB30A5758
:102880002FF4DC6E8A5B94E2534846C9101FDD6763
:10289000972DC8A9E8FF9F44D5155677ABCE67D0D2
:1028A000D6399F81E8B477DB2A53A9E0F5A6D8246E
:1028B000C649BB273D4CC5C45A6ADE1CB60E1E066F
:1028C00067F58CAD0E74EE6FCF2B8919EECAD50368
:1028D00050BA91814734489383A2A66A2B2560663B
:1028E000031C4EFEBFD9DA7F2AF8938E0141F87798
:1028F000BDE13EFD7AAB33EAC7DA094B03AFD1A2A3
:1029000072F9CB170C51A7FB2E9993B409176D617F
:10291000F9748534E5C88DE7B7EDD495504E9BDE4C
:102920008590E0F16C7675E1D95F5D8D4764C4EB0D
:10293000F40BE83046AED63179BBD27043C21DA944
:10294000806998FD47EE06302B2FEFF61B39A2B6B3
:10295000C41EAD8B1A0185E298DDECDEF1FE206825
:102960002F0479A69FC10E141887FE918D52AF5384
:102970002D0F38BB3C76980CE6613487C7BE1346F2
:1029800081E1339790989AEDAB47BED9460E96F504
:10299000A41ED784F2C253BC0332FBCCD026B8D0DD
:1029A000AC56146E7D9E32D4FB7EF047C598271935
:1029B000938FAF82D938826A8B649B12971BF0F693
:1029C000B79239C6E37D076409DAD7448867229F46
:1029D00052F7DB7B0FBF1C3D7249CA0D0E6F26D824
:1029E000F5DE354C96CAE5D2963CE945FA5FFE4CD9
:1029F0004242C91448330F29C006E3E42A9832F54D
:102A0000D654BC497C60C13991CD43ED38AB065BEF
:102A100037D16E08A4F1228DB8D0B3D9F73BC7B631
:102A20004A8D9C5828678C80A7F48AD339AF867B5F
:102A3000DFF20F814708B6E3A27E7CDC14C0FE09FA
:102A4000822AD1065E3F0552C13712A2F814DB5428
:102A500026A0F13ADB761999029F605791FC4B2C26
:102A6000D30251E7DAF96A96470AEA37AC212B43D9
:102A700048E86D68286691427F5B66F15687AD70C5
:102A8000E4B364F53C75D824EFB229AEF70707AB81
:102A90001DB4AB52AC9054134A4E8673D6E63A8AB4
:102AA000D6E627927D687760DFB11F3EB878F442A2
:102AB0002D4AC5C06B2783F196F18BD039C390C6E0
:102AC000BEA1F803D5FE559861EC4B857A242A4CBB
:102AD000429806167E37CE185002536AA9DECCA65D
:102AE000FF9E7CA572FC79BD9A82A152729F5A56B4
:102AF000FBC1127F7805DB9DA258C627A2805DEC42
:102B0000DFF65FC65320A76006DD9CB794F6E5CAE2
:102B10006D22C37CF2837EEDC99268C33155979CC8
:102B2000417C3C646287FBB67782E79A4311448A12
:102B30009FCC63EFC0864B80C448563074DD246C54
:102B40009E3E59A83CE979A0123803A7C3CA4A5847
:102B500042798EB34098DF232A53CF1FBA6EABCA97
:102B60005E35D0ECC5AD78BAD4E5D1F29672763A3E
:102B70003D2126B59C6A74E7508FCC10E2735ECD80
:102B8000E0DACA7F5BCA03F01BF4970258E90972C6
:102B90007317EEC8AE7A3D8DF0468BA0D76BF59DCE
:102BA000A9181BC08F3AC8DDBC086D77FB015FB761
:102BB00031113579DFC72A53EACB0FE7B07392D0D2
:102BC000793AE77A37D1E380F04A419492C680F4AB
:102BD000C024C98B4824F93F8FC5440FE4257B3AB4
:102BE0005FBB3C63573EC11904ADACF62403258599
:102BF0000BD1F6B77B5D62410F0A21DF1299119369
:102C0000E6E5D06FC574EDC3DBA69BEA33B2487925
:102C1000F1248A3A89BF488EFAF08B8FCC03CCB668
:102C2000CCF5F144345BC88D00BAED925CF3240915
:102C3000B333692B927C3721D43DB4BB2E64F01B97
:102C4000BE8A50EFB72F12A105B4D71C8765E8FEE6
:102C50009B9EB2492F4A2803A1EBB4B3F2D8713C32
:102C6000DA05DE4C625553A87A9B5CEAC28493DB9A
:102C7000ECEBE7C6CEFDB7381BBCF1E4431DB39CBB
:102C800027FD4AF8F0550105947BDBD84F5C81CDD8
:102C9000BFCF743D8595194CB978D22E016196B499
:102CA0005C21D37FAFE7CB878A78303E796FA8F07D
:102CB000D4767FE279BEB54CA1762B74753E8C2B11
:102CC00072548E1D6AFA49AFDC73C3624C0D1282D6
:102CD000B1C7179494CD4FA9C346EED085110571A5
:102CE000F7D33C677D02381645EACF2BD8F8959E7E
:102CF0005AC75B366AB570357B0123662C2F672374
:102D00005B1F1122FFF5D708A8942CAE3AB53C49B9
:102D1000B3E8FDC2A6DC2DE033AC01F1816F1D5A92
:102D200033C56C44282687C5B5503B10B9A58DAF77
:102D30002AF08041184ACA7C402215432674F68046
:102D4000AF455988772AB225DA140A6E5E5BB1DF87
:102D50005244EF6A80F79FF724FF85B8A83F51C01F
:102D6000ABAE89A136EB832EC5D83B43640D8BB443
:102D7000AB5A0592260743EE99D2E242F114B155BF
:102D80008B77AFE05CCBFCD5763D13571ABF1BA009
:102D90003D541D25436BB038FF9A092B05593A1253
:102DA000DCA54F5076C1F8C70E357BE05DA4AF447B
:102DB0000E3FD9ACED3625FA5D8208F5C62E1FEC24
:102DC0009D20BCCE570F0C45A89E68A3F729A6A14D
:102DD000EDD8F18946CCFE2BD62393832CF5CD91EB
:102DE000D6F06912ACA0A1417EF7F0CF3839A1D25C
:102DF000FB1FEC356403F6489825D8358C82B866FD
:102E000001C717E917CCE4E3D0DF8CF807BFFB114B
:102E1000D0A5D259010534F70E18430D857E46C260
:102E2000447954043A244F4C160A52B7BF05F6535E
:102E3000B7A5F79E5B2D19D3DF4BAECE3285E8B434
:102E4000EC4095874EBC704155FB2FDD866ED51149
:102E50006B55F815081FF64B003C2227301DC100AA
:102E6000C15A90F4AEA6BA7E88B326323963906612
:102E700058615A93F6B29D0B764EC5C318E088E2AE
:102E8000029D7D75ED8F63D37D90F07F75BAB0C2E2
:102E900075836729DC8B004E137C7960111EF7A0C7
:102EA00041D9AE00AE236B1CFFC5ACB9F31C7E88C4
:102EB000002B8534C524DDAF00228EF774049FC932
:102EC000F5A22AE298A3A59865E37F1A3D7586329C
:102ED0002E3CEF9BACFF56DB4E22227D5476A32581
:102EE00059BBEBBF9A419159E1D1AC50A8167580FE
:102EF000B8BECEB8C8B2D838AE76E93B01352DF9A8
:102F000010F6B9E59BC83080EC5033C49E4BD445D5
:102F10000E8CB5563875C341A0E59BAD6474B4778B
:102F2000036FE261BF29EBFE12A1D6721239AC9990
:102F300050535E1115106CA9F46414839A4C169DBD
:102F40000159407215B89447F991F47A812BE6162D
:102F500066C9C306DE4910EDE2702C94B7DD8A4FD6
:102F6000F7CBE3BAFBAE0CFC49C5EB6C21802FE13B
:102F7000FE2CBCE4706E0D67A2480D750272176BD3
:102F800075229E4ABF3981CC45236356197C65362C
:102F9000C5A1D7C202FE90969C528186EE6F627EDA
:102FA00036CEF9820A79B2E8C88A8ACEE12A330796
:102FB000F2937C8FFA3A38FA8AE90A32601DCF8A96
:102FC000C87D2B34AB68FAD5845E668AC97531CF6B
:102FD000CA620820C9A69D3762E9F41D57834335AC
:102FE000D5E06FEBCD67A693AB82FB8A4EC9C94192
:102FF000E3CF3B62A5E4A1F3553BA3C24645A393AF
:103000003E424EED96847773243A4EB7E5D1511C7B
:10301000F79CE840D4E71FB9587A712C44626E4B94
:103020005351B5DE1773740F59C6EB526A411690AF
:10303000EB2D2C60AFD3248E97D0F7F7A8B1E52DF8
:10304000852BF014AAFEEB6F91A08BF2375D5068D0
:103050006705B483A6C7C969DB3DD8DC8AE20D3AAF
:1030600015AFD93696F773E76178EEB61214B8DD6E
:103070008F2F633481B4D66514D4425494A86E1F44
:1030800037B83DEBB2058F58F90E8F511AA3B13BFB
:10309000E9C54335052DB147988D47DBBAC4AEC2AB
:1030A0002989AE16B38040ADF47788E0939BBDCC00
:1030B0006ABADCF57D1172EA252FC6D33F9B3A250B
:1030C000ACDCA7E64A4E8AD379C3046FAC78098B8F
:1030D000D9D9C044FC1A730843074E8EE22D8A7476
:1030E000233CDD577E5904A28EC3B065EE63799C04
:1030F0007B5792050E8075B9E4A5E836331F7887B3
:103100001614BCCE9D7F8B21678797D68972B0EB52
:103110000E40180D5529009806EBED6A6213C1891F
:10312000231E7844EC1DE9A51C1E0CFF7D69B50E1D
:10313000F5B7DD1FC64C62CC77390C072329B59C47
:10314000E71C626BC88911C513F59E3A8401C1FD65
:10315000147230FACC3F2D8F0E68231E4A371A6E38
:10316000C5F2F3754824B624B8F365FFCFABDCE9AC
:103170006DFCB5B47BAAA3C2842CCB14E1BB57BEB3
:103180008B5D1E99055E6CD7A004F3E3ADBAFB52CC
:10319000FEA32A45DAF00B6559C7BC4CB4429DCC5E
:1031A0000DF1F47A964AF4DEC75F40EF4F65893837
:1031B000B9A9AD4E2291AA2A6FE2964D2BC50ACD30
:1031C000DBEF225CC565818C37B7D5E981B5572621
:1031D0008344FF3F4247241836B989071ECF07446E
:1031E00062CF5462C886A4EFE1EFB7AA682745CB47
:1031F0005181A829C6387543557BD90D50F409640F
:10320000CEAA06A0346221E72DE14D0B43E42B92B8
:103210009D67DB39FA80F4F34AB57D6BD35177AB08
:103220006EFB068F294ED2AD5DB17DDCC0C6E413C6
:10323000ADD5BD1B647F0DD494CE3AE9E183DC5C4F
:10324000362F20D01ABA44D6A1106D38012AC5D322
:10325000CBF9E63DA0D6187CFBFE6D1229E9D61EFF
:103260006B509F7F08DD3A9624213B6B8EFDBF4556
:103270008BD4B6ADF2716BC4A8EA17894A96417136
:1032800057E7477CD483B0AB6E9DFE3C669C57A647
:103290007B483CEDE91DA4ADA7E23A7AA6BAF1D588
:1032A000BE159FC5F35AD947882AECAEC203068DD6
:1032B000017263DF90F285849A6E11EC0CBE048774
:1032C000D87EF239E14F1644F43FF74E79E95BBA04
:1032D00018E29728E6E06953BA13673FA02092AE40
:1032E0001EF3396220FEB4A5339FDB2EEF411FD1C0
:1032F000745353B9FCC459F18826C2C05CC8253444
:10330000C66E91D2915CC0C8BC5189D98163623EBE
:1033100064119229251E43CB6E7D4A1198D4637E99
:10332000BEEA808E408B02D3F4B8A15432E36077BA
:10333000BD8FCAB2923D6ED5D6078020D98D26E3C7
:10334000D76CCE5998E84D5FCCDAAE7694BA7CA1B2
:1033500076A2161685DE44E2B71F8A06E68F267D22
:10336000E158D32B8CC527EABB092B045D836989FF
:1033700082844CC501D399900523328F5780CE08A3
:1033800011ADDD730B92D17B7183051BE0569F97C6
:10339000319B50EDE5C9C137466D21C96EC42A5332
:1033A000DBD648BA270176A540680BA536B00300E6
:1033B000CF8E33FC01B5EAF78174F024D6E7FCE741
:1033C0000BC4A81DD4A958D17F82F551B195F779C6
:1033D000725EC90B70FE3F4A08DA09CFDC8A23A768
:1033E00095D751EAC6DB3311A3AF1F034EF820AFC8
:1033F000C6C1B28DCC13AA65B23B4B9E3CE37B5554
:10340000E0DF04711506442FB731B7254392FD3034
:103410000B9DFC72F3DD5F6FB53E3DE50557D81897
:1034200019B5A0877532A73A09DAA2C2E2DE154DB6
:103430006B629362EE717CDDF2F99F21B9CCB39897
:10344000A1AC0166DE5B405C73BA754351244C123B
:1034500013F4567846CB257E5368F3B7C2ECA3939A
:103460006C5EB8E46193FB04E4904C71402D5F7C8A
:10347000E0199C35B8548A2E48138A97C3C8D4F3F0
:103480000E9C96D6541F14E719BAA5ABC0BA02E633
:10349000758F3EA97E59BD4729084AF2AE5861137F
:1034A00058ADA56C884ECE63FEF552B44FB8B41C2F
:1034B0007C5B6F416CFF89F5DBB358495D52C59564
:1034C000E5D47C33F2E0B05B30CCBE547BC95E65A2
:1034D000B189C6AA9C519F87DA7FE466693BB6A38F
:1034E000853DC8411FCA2A86EDCA07F97538389646
:1034F00026879E6D0FBDA579F625F498AF120C971F
:103500001403E0F7F3A4EDA3018DCD4D221B0D3D77
:10351000A6498BD0505F8BC4C6778AD4D2D412ED23
:103520006B9ADAF13CE1863F9A25BDBFB9D4BDCB99
:103530005CA14E4C62FD854A5EE6D1AF36C1A8253E
:1035400036E855E4593B781999DC3602018D143080
:10355000505F6E391BCF29B74E1393B120C821D6C7
:1035600014389AB7E9346CD2996E285172BC07C8E6
:10357000AB55D50721740E4E7206DCBA98E7B0AD94
:10358000B9C414D271802E46479987D5312ED833CD
:10359000955C39FC254DB898F29E426B7F7E114DAB
:1035A0008370CEB32168BC892DA6099BB85815112C
:1035B0000A3F2021911B4ABD67E2967669A77820D1
:1035C00009DC923A9FE6614B65914D4E802BC6C156
:1035D000303CC60119899D6717F429AF3FB5D55D09
:1035E0008E236D4718DB2AEF36A8FC4BF1464DC9F8
:1035F000D9EDEB69474106461DD43F88E766DD7A81
:103600000227289B2B4C72933EF691626285E1AFB4
:103610005B3640845DB5929547F61DC1CE5A8E4B00
:10362000909DD4BDB9F72B2DF607505CFE380D29BF
:10363000129A0F418E00292850AC25F043675F5045
:10364000630E4C3C61CFA13E2A234C6293B13BA553
:1036500060854DC0A95E584C303792C186A57AB8B6
:10366000AADDAB9C49167D020EBEFFAE023506EC0C
:10367000181A3FB160C02DD629A404C276A944D03F
:1036800006C82EAF56A34D6086149E96320CB667C0
:10369000A752AEDD09D73B853A1B4803984031520B
:1036A000AE8E765C04042255DF44BF3B285A0C865C
:1036B0005EAC61211B1898D31D0F73262EBD7D2C87
:1036C0002F181780DDAE362C36AE47A55B3F8E82B5
:1036D00029F3911D308D34BF705997A1A887F186C9
:1036E0006C705C9DD0A8B0824C94B889AEA647D3CC
:1036F00096E864A41F6094223F0F6D6A692E8D5B6B
:1037000072106EFC4BBE58FBD91BF8295EB7CA0974
:10371000C07C4F8101773F315BB4388F08637C6692
:10372000001BC9E9E1E64612527132229B2EB5AA6E
:103730007B615C5E211313611DDEF91EF0AC371353
:10374000DB3E203DFB4ACEF2DCBC729944D723C459
:10375000DA752FD7AEBEB52F191A84A59C0625B2EF
:103760002D77C7EAF9E0B6CDD7C1610646FFD8EE9E
:1037700091F1865FE94A86A16F6AE7A6AC51EFFC3A
:10378000EA3A908E9838E25B399CE6540CB1E3A893
:103790003DEBBAA323222E0E88712D9F419022E388
:1037A000026CFF7613F70AB58267DA8C089611511E
:1037B000974686559370CE90915EC7D58842A828CB
:1037C00045202B2E0F68242B824CB1AA9407F99820
:1037D00079957FD2BCF52A586349682CD931858206
:1037E0008E598FF18DC7E6AFD6583A0F83EFC5F1EA
:1037F0009CB1F571D7BD2C82AE0110A0B69848D40B
:10380000F815E5BC8F682719778338698F2A2C63F0
:10381000E5CE390BA6BA5CC3B1C85F22BFB52C8D0B
:103820001460E1F922D6EE29D38ECF8959AFA40ACC
:103830002DA6853207BCA7AF85DB94FBE745E6F8EC
:10384000FEEC5B1B8F6E0FFF9FA35FFC03987DA0B8
:10385000EEE1D6194D6ED6486114EB4C3D1FD9BC34
:10386000D17B46835BBD6596A20726E7791F4D7322
:10387000B6E903CC3009B4669573083A2063A0FB1F
:103880006553E6E9DB63712D65A68B7C9281AFEF12
:103890007654D02137107662624EFC839C816D1E77
:1038A000CB54C90AF58922AA65104C62E27CC55442
:1038B000317DAD4339D9082F0EEBE47EA58906F89A
:1038C00033BAF0847380DAE279D1A0489E8B6FF12D
:1038D0000A82B1873EF993A1CCDB797282FCDF0BBF
:1038E000C799BA113423BE37F929750C9698BCD301
:1038F000BCBDE4F47544873C24BAA770F1FFB25113
:103900008E293872601E14C1CEE207216502835CE5
:10391000652803C3B25764EF1A89E6305F6FBC278E
:10392000ECC8F0D2C3BF75E88C9FC50611FC1135F9
:10393000B635CA5902837BD1899A159F4876A12949
:10394000D16021FDAD27D282B3301F543A72976205
:10395000E04E7B42D660156A57255DAA2F79266016
:10396000F2208836C9DA64C7F1DE38A5637D5E2AA5
:1039700004FCF15BCEE52D51600883386AA0970AFC
:10398000621C812A59F012001B7AF1885554AE4E00
:10399000802154F35638310D368D0BE0A480B66388
:1039A00016C105CD8FEC8821D468F547758A03CE02
:1039B0004019B79767BF69EAF129BD209ED289599E
:1039C0003AE0A758E6F27782B1DBBB362A6F17E7F9
:1039D0002F933E64D06B222D561591CCA3CFFD8C36
:1039E00076B6D295E3B05BCA63E5B67BAFAE7994A9
:1039F00047E5C5A345C6B4BB57A4745AB6CEAF04B9
:103A00008B1C3662D199135BB8B0C70EB75CC15D31
:103A10007AA2BD33246A1F05FC0F589828A530EC04
:103A2000C38639A2ED202912F714C78AE6AABC0F73
:103A3000304DF7399DB85CA516F6583E5D4D44DC17
:103A4000DF4E6BF7F3DACAC1E1E353C10437F69EE8
:103A5000267EBF6919339FE8E771535EDBCF71AAF9
:103A60000CE59B04760985D360FC6ED3CE67D52820
:103A700013AFBD5F2667A2F2EBA41EC1BF4FE1608A
:103A800018B5399CE525AAB82CD6899A23C7CA1C33
:103A9000C670C00732DB9E77AE03254579914B7027
:103AA000928EAF64C37F4E3E2C4BD4A3669EAA6118
:103AB000945828C549F8874A9FD3393DD680209429
:103AC0006F6EDBC51826CDE520E7CE47C258D53F3F
:103AD000FAADA1C7CAFADBA916774DD434B5EEA06A
:103AE0001DD8A12AEF122C2B0EFC7BA41B8AB7C277
:103AF00031DD14C73B718C1C2197366459290A0AA1
:103B000025B56FC6440F718AC8BD06FF394F176BC4
:103B1000044FA1C1D7ADAFD55224534D99D46342C0
:103B2000A1759E80CFB11DDAFC9CE8B63246200418
:103B3000AB252C011BE961B8766B49D70D2A386E8D
:103B40006C352198869D6C02C75521A21C333769BC
:103B5000550B355979917CD05FF43B59043D1CFDE0
:103B6000CDEC31C837884B030A8649F5A84F6EE67D
:103B7000AA6B2AA609025849716CDAC2D72D8A2489
:103B80006CD47B82AFFF6DF29804D92EFD606F7FFD
:103B90000E077D69127B19D489E3422839D015A21A
:103BA00005186A47C60826A4B525F1786B78E6F1B2
:103BB000750762029C8180E7FA647070B406DB3A94
:103BC0000119E19BF81207267EAC5F6AE638D077D0
:103BD000466E00DB414A36B14FA456271865FD12E8
:103BE00055AEC9C6492BD1058D1AFDAFEC5D368C9B
:103BF0000375EC94CB1B92A7F13A566E543217031F
:103C000007F62E53702E723FAC504C9FE270B16994
:103C10007CF6F36007A575B2CA0CC91F8E7C85DFE0
:103C200058D35A1C68B1E174B574FD233FFDD0B878
:103C3000A9DDF7E06299D9C70AC9B6D557D4CEA590
:103C40001249B828798C2FD7B71362F52441D6BA18
:103C5000CF77ED893DE6DD72D03ABEB9E9E4CE51C9
:103C6000946106E3EB4647EB982D43241B7641ED28
:103C700016BD3F5B3BC0EDDB136F9B83A7D6DC30EB
:103C800082584B8DC48B7E6C86B4486D20AF664BDA
:103C900024758A8942972B1DBE43F14C833FB1CADC
:103CA00073B283DB702C8E620DD760BABF2ADB58EB
:103CB00061496FA8AD660384D0CEA6686BADD03DD8
:103CC000FAC75937EEB771C0DAED95D78D1DD80513
:103CD000726FCCA139702401A6FEC80F8A6261F010
:103CE000E83DB1C633B6798B2587E870D3F34150F0
:103CF000C9C167A1C93E8BD924A0422FA90C8E96B9
:103D0000B68559F453DD4253A9DC509A4920A76285
:103D10002D616D8B978C982A666FCF1BFED54FE96E
:103D2000CCBBB810A10634CAFF26CED69CA06491A5
:103D300098109AD72DCC5678C244668E2C60E4C277
:103D40000492813FBD5D9BAAC03961F5C65BDA92E2
:103D50001AC0057CEDCC36AF50AC653976C54FA2A4
:103D60003EF3E529C203620897F14D14865A8DDBB4
:103D7000F84F0A8919BFC5E480BDD9F05CDFB3D024
:103D8000D66D97690F90EA9BAE14B5159CD0C8C547
:103D90004A7A0F09EA753DB621335D12983C6BF9FA
:103DA000B3E3AE9298D9A60772BAECEA944D8D2A85
:103DB000A12C82913F95A5A025B4DCACC638F12199
:103DC000BE04632228F9D38AD730A5D74338810DA2
:103DD000544C583ED9ECA45BD248A5551A8488525D
:103DE000322B8B233FE6FA6ACCF0D09D2AF0680292
:103DF000C7C50DB9FEE6C8F54601AABA84D086E467
:103E0000BDFA180D673E44FDC34C4C1005C5F0804B
:103E10000379C07A72117C95D587090DAD16F1032F
:103E20002CA19BBF2F375FAFBB6BB12C0C120F4780
:103E300065594CC76ACA354F96BF6F43B2B0B028B8
:103E400081E45368074D2F3554EFE0FCB2D3430DA6
:103E50009593377D592B301B349595F71B8EB39C6A
:103E60005E6FC29808826617793B87BC9B4C722FA5
:103E7000A91A0E71DAFDC4B65D0E67BADCCA8812E3
:103E8000B370C3337A3F9CE67E19F89B8D717ADA62
:103E900061516DB1B9DE5867005C77774FD96566BF
:103EA000171A8CB693F1D165190CDF2E34D9F0A610
:103EB000C76FCD6A6FDBD4D8F512C518F6AD6AFFAF
:103EC00053A34FA1837C75FFAE66CBDF321EC9C4FE
:103ED00077A000C0E9E083B39732D5731928003585
:103EE0001FA0EC5E3E0DC24270C9614BB769BE6E49
:103EF00010400ABDC5FD6B5E553660D0C12072D83A
:103F0000CBE8A30561FE190E0497FE213556A3D513
:103F100091E65CBD1063B805C580242157F1C96FD7
:103F200096B62CB718E83128A569155092934040F1
:103F30007AA02902105DD478555156240525BE7CFF
:103F400097CD580E63AF438BCD4457E476B98BA021
:103F5000257FDAEA5032DBBD833A3DF973DD34A3C5
:103F60009A9578F537BCEB9A4CD40AEADE36517450
:103F7000DB7E460B29284B74B9DEF44E6F870EAA00
:103F8000DC3641F4D186286142C31BA1F18E46F193
:103F9000C14CF62F8BEC34DE7D12A3FF6DF4C7E528
:103FA000C3CDD6E732E16C681E8D7618833D9E5AEC
:103FB000F59586A28DC53A83BFC3519140570FD462
:103FC0004995EE5039C70D9EDC597341C14859A33C
:103FD00010DE217B3933BF7729B9859F93D0EAD88A
:103FE0000B3E9C0EDB4DB012E83A9725E6E8134DE8
:103FF000697FF5517DC12B52D8F521D0A01067877C
:1040000066F3BEF7683579F1B827D2308B03ED79C6
:10401000B57AA6F483B0E69E78AB5A4AEBD28F1DF0
:10402000895C23075B628A581E5F627AA0E99F7DE4
:1040300015F32153F40D5905C7BC1B6DBCFC70670B
:10404000760073FDE391BE2856A1B3C573E7509780
:10405000EB97217AB542F857D092D2588CE7A578E1
:104060008C9A3C4728FC278F5D117E09DDE72AD515
:1040700002F32E02916832C28043108D5B89622D5B
:104080003F165B7E7086AD5FBB15E29D1F9D2704CA
:104090001AFCA756A52089B58EC269F473D2E87FB1
:1040A000A63BE7D8EDE0913B38D54002693FB52A01
:1040B00084606706B5F85CF3F34101454026A287AA
:1040C0007FE6EED5B3A0C6A0D9F1A27581EA7B2523
:1040D000F3B71D3EE5B47D02A4EF4AFC30FC41D6A7
:1040E000EBB8170CEB8B79E3633AB1E4F682C42AA0
:1040F00034227098FDC79F7F80B05D3FF0149C0311
:10410000261AD6A3220816CDC52021CA339D3026F3
:104110006639DA05A87EED8A81A076703DC4B53B8C
:10412000381FE9F57352820CD8C69FE5DAB876637A
:104130001ABF251DC76ED59B829E2400EB4C307D97
:10414000B2410B858E99E1B59E6512A14C75F0BC0C
:10415000AE57EA190E3CEFC66BCE00A148C3CC07A0
:10416000D90BF9340818917FEDD119A26901218882
:104170001C3EBA6DFD21C84259E07E8412A1FA5757
:10418000747FC766F0F35BD651E1C4A1C6341ADF71
:10419000D7A45F21F94314841455F736A3A9019AD3
:1041A000C2D17AE29E23DF8A8011E12D3F631C7D1C
:1041B000AE95797C6DDF30BE80ACD97C8B1797B91A
:1041C000B199075B8294B73D479D2694ED86FACF5F
:1041D00079FEF17D67342363E084A242A5BB5831A8
:1041E0001D098DD6860D19A2B22C31480EACC9C25C
:1041F000D9CD6D397BDFD76363075FEBE2F4922D96
:104200000843C5789AB8165F3FCBAEE041311ACA71
:1042100028D6ACA75B9AC66EFF9FCB0A3DC5C85A8D
:10422000058EF11953B7D849766199823379CC015B
:10423000AF74E38F55CB9DBF7B06F38DFFBF6DA49D
:104240002F71847C8FFF5627C547BFB615B0648A8F
:1042500024362D590EA5BA1AC852B4C1689B7CB435
:104260007D3763CD86FB314120D8622FEF5A29314B
:10427000019BF0F7FC1B21BB7E68811F5099E9F67A
:1042800073A8674910CF5E3CBC8ECE8B068B60F462
:104290003027EC441F99ED686F62F0ADDF8A43ABC5
:1042A0001B3DC0C4337DE2D729E16F549DA427355F
:1042B00004CA074BF4410B660A46CADB2A09F6A07A
:1042C000737239CEC6ED3B4DA6E93B5B4A5FE2FF18
:1042D00084E108D0E65A2FD2F9756DCB54685A3074
:1042E000D1DB3170BCB2F41E566F0BF19A1A68E63E
:1042F000B70F03C5B685A9483D6C529ED0A786115D
:104300007190217A5ED1E14AB3A43EE81A16695D44
:1043100076C8ABC680550C3A21CB0238E7AF7B5448
:10432000C8F37C749C6FDA57C7EA9671E87188B657
:104330008E64212A98E39900A5298D2D89781D3F47
:104340003CA11ADBB8445D8529E19E582719E72B6B
:104350003217F43C653016110B8891E073E9B419FB
:104360000196BC7E4EA06E221205CD4B8818E64DFC
:1043700021FABD50F31482B2EEC9A96157A132ED02
:10438000AD570755527FEED86BEBB7269544C94819
:104390001C87174E5F70DF35CD95450A046FD990A5
:1043A0007AC2EE215289ADD3DE251ED3A58F14BF6C
:1043B0003F3391A5F7AADB368B80DDACA540BD432A
:1043C0002D06996198FD499F54AB07A46540D94AD1
:1043D0002E476815030572FB603A72316FE19467EE
:1043E00099F020D444C3146E99E75011538F98DB91
:1043F0003B05BC06E1EB03840FA6C0566317C70854
:104400006A860A47BCCFEDE52F67577272948B67B7
:1044100070D1D699B9DB6BB12BBE96A7A4FE0392DF
:10442000A46C0F120CDB7BF9DCF1B56662C94AC3E0
:10443000507386E13561FFB7C447CF339318A9DDC8
:104440008F414784B5321F285C6CDC72E22EC7D2E4
:104450006B8B457FCC46012721DEA2591C8F78A8A3
:1044600084320DDA6909074788A72A8DBC7A28CEDD
:104470005B8F2A4F7F99F8DEBE8EE9EBB0D88C4176
:10448000C706F24CAAEAF0BF296B6D510D1FD294FA
:1044900033748F21CE457F3E02BDA87B5A0E29BCC6
:1044A000796A71316B52B285002BB634568DBAEAF7
:1044B000F208D18EBF63F3E9D1963410AEF48C7F4D
:1044C000A2FCB61EDA237469D0FEF76398A8221600
:1044D000260096C07D1B9027BA291FA09D1F94C45B
:1044E0008DF081883DFA7D2B51134BF3C4E33C00E2
:1044F000E1938E0B47809D8F99D1B9B8C05D4DFD7A
:10450000751CD96BB9A0DF0CC748225D3769BB6C3D
:104510004F40730550FC143BBE3EE114D019C33626
:10452000382D72F64E94C7B27C392E4B659380F8C5
:10453000C36187D6E0D685757D015F22FAF4C9880C
:104540004CCF0F46F8236B930E51AACC2758D3F8C3
:1045500037C413B4E038AD42D49F3D8481733258E0
:1045600038F4B134F5D0D1B079C69C6F53C802DFAE
:104570000E7AF8847CAC86D4BC24D6F2C0C0232D3D
:104580001CE9151BB9080BB80A732AA957281A1475
:104590002094278469AC2BF5A8E13857152CCB5C07
:1045A000E49350C24FF6980CC9684C3C9C85126C41
:1045B00006663D3554D7FE0F30C1933707386C1867
:1045C0007650D55A3352A029FFA25FA72A25A8ED1D
:1045D00059DA0718ED25090435728DD9C8CACAD72A
:1045E0007C8A5F3410E515C93477784C11B562DDEB
:1045F000E888C80EB4EE40FD60DB14D56E77E79B0B
:10460000EB992F90A2E612BC28FD291BA795D2F7A3
:10461000F490AF0017D5EE4DA5BFBFE94E05AD9B99
:1046200008AAAD095D872C45F0052964CC59536B68
:104630008EAB61C57022F4C5D9D4C5CDB9E8332697
:10464000C8A48CD57C446267D456121645A6F7A63A
:10465000B274121CFD32D1EF821795D4AFE6CF4A67
:10466000D50D4599145DD7DA5C7DD521D26285B42C
:10467000D9EBCEEE6ECFBC091BC0F1FE9972471F7D
:104680006038B88E46C6E79739543C80AF2E394B18
:10469000D6E62E5EB7E85BA20749E10696737188FD
:1046A0001A5C28B4FF249026865144526410AED57B
:1046B000AF2B7369BC7EDE536A21219453D236F14D
:1046C0007B579587C134BD526E51ED00500EF555A4
:1046D0006F821F0E90FA2665F632C9CDE30B27D004
:1046E000BC94D19F79149254899A57474C1CAC3E84
:1046F000E442A144570838772319C94B9A9B897023
:10470000F2939360C4149F126744D0C84C97BF8241
:104710005E96A2B17CF226E62318DEB3520564C48D
:10472000011E66E0EC5DA06C7AC70E49C0989A2025
:10473000E13F1E68FDCEBB960AE50D743E806BEF2F
:10474000C71D413ABDDE28966F58ED0BFF7BA015C3
:1047500040CAA6886FFAD26252CE92E1EDE096E1AD
:10476000649C3AA969B170580FE8196FE81381E3A6
:10477000F05B72149788E04763DCFD4CF3902D22C8
:104780003E8650EB89FCEE5EB09418CA0FB29CB71F
:1047900063E379C8F5F3CCB32DEEE03559EBC34BA9
:1047A000E948914DA7D08449A161679189273E04CA
:1047B000D118F164D488F2402FB160E1F3E6E4FA55
:1047C0004A8119724376D910457751A6F4E02B3D02
:1047D000A5AED44DB2E7CF57F3656959978728D175
:1047E000E7EE8D03DC121B7AFDE6E8CA842A7782A5
:1047F0001ECA491F0520D900F9FC788E403AA05204
:1048000023162FA71636AE9025D7C77EB88835CD8C
:10481000F0CE6D86666ABD156305B9A280C415DB4E
:10482000A48C1161736D6687FC24E94EB8A387429E
:10483000B9FDEFA8FE5591BC5A294A0FAAAB8CF1DD
:10484000414C6964133963D3C41623640F49A345EB
:10485000CFD9F62C09C3F41C2154D966E8F2C5025D
:10486000F3A35FF0F000CA1CDBEF9377DDADA50882
:10487000795E90B40DF97520D6BF20E1CC9A8E5F99
:1048800049E7F9B7A5DB21AC0F90F2CFEF407D8C63
:1048900058C76916E0A7A9DAE36D24A65567D74E75
:1048A000E1D9A48B433F5D404C2DD38E836883E1D7
:1048B000222A66299E5206AE8937E0E200BF8FE9C0
:1048C0009C39B73C66AB19FFC44F3B46D6394CD236
:1048D0004DE00EBEFB57EFB557C719C52D3F8310EE
:1048E000D3007F7D9FCCD142FF6C8E64E8F90751E5
:1048F000BBE7C4803EC31587DB9E06F1CA56E0784D
:1049000018F5FECCC0E85987EE914A6E8E96D7FB1B
:10491000A98212E9CAE425FE57E0CC267AEB641E90
:10492000DF0E838BF50D5A073ABAFAA06AA5AAFEE4
:1049300058AEA74C2FD7CE629F8C3DDF6D753A14D1
:10494000A9FA8F1781EAE710933B4117100DEA7C13
:1049500076F972183F2B132DF9756799B43AD14542
:10496000CF821BF1CBEC402B52672B801AB08F0407
:1049700065E3FFD40EC6BB3B38239C263F8B21E06A
:10498000781A25B9569458D15BA90F8D91B1386327
:104990005FE22E6D6200E56B74284FB82F258C41C5
:1049A000313DFB23D9DC1638D80084CE98EA93AD8C
:1049B000AA4FDDF5467B2BA3C03DCFA382488536A9
:1049C0007001583AEACB06AA49C6DB311E15854666
:1049D0008D31F4279CDC9A6369F5C2392732394A54
:1049E0004C0276A3181DD559C55D7310B9DA21A5FF
:1049F0006952E40FB9B24AA87C1F6E6839346995D0
:104A000060616B143A25D8CEE7A3C62017E88E2F35
:104A100063408131B5DD4AD1DDA3C00CBF359E486E
:104A200049E35AC592BAB1649AE1EE04E10E155811
:104A30009C5F59E30531BC9E0D2081E7E78B66152D
:104A4000D993AB1AD524A55A4A609C28AB9C6CB765
:104A50000D752975FC095C8B57D5ED58A8142BF7FB
:104A600071726FBF8043F513FB245DB7FF8CC68F57
:104A7000CAE62CF7A214640E0507F78D7EADA7D603
:104A800022C3ECB36D9D3C4AB63C9245D9237931A3
:104A9000195A31E862459FD560F3C20B9DC356F8A1
:104AA0001E08FCE42623E3E7DBBF53275D95CDA575
:104AB0008DAA10A17805B6BAAAB0EF374473E125E4
:104AC000381B5DB87BC04C29DAE20AE938B05D26B4
:104AD0006F7662C351DACEEF5ACBDE7D040757877B
:104AE000FC5EACCD9C051693936C43279585EE0137
:104AF0000032D2CCEB1AE12E29ED04BA0B20B16CB6
:104B000041FB2AFC08DF6B5D60052A71D090E7B39A
:104B1000592249F64F37ABCCA42C72730AB04E140D
:104B20001A8B52092EB61D8F86122F3AC18BD1CE09
:104B300072E68D7E1E76D88947A0D0A8A8B593F8D6
:104B400066E4B130C79A112ABE2BA4D2D4D16867CB
:104B500033B1C7214396FDD8791CE51FFCBF202047
:104B6000AA98DCB2C9E418E5EBBCACCE9E4A6B0453
:104B70001B66ACCA302B614CF9EB7E84E82D2E23EA
:104B80004BA00CB83AEADE660949E8B15575BF6931
:104B9000DFD6902F3CE0770492AA60DE024F96DACF
:104BA0007FE307AFD34C75C5D1AD84D64D3227878F
:104BB00075A6E5CD1CA5517468255D512697F08B2F
:104BC0001117C73CC548C2CFD75585E9679CE6AAEF
:104BD0001DF5D23DCFDF1E67DAFE7B9CE89B405778
:104BE000A70320C3462BA9968C80845C3EE41B5609
:104BF000C769EBCBA229389AC55AD2FBDB35558958
:104C0000E864B1F1F0E1B1B8B17841BAA3AFD52809
:104C10005211170258116226D600B8E4CB4C2AB9BB
:104C2000E358A272FB43812345E1DB480989550023
:104C3000C0953D1B263CEE241F38E2A9063A4D875D
:104C40000F9E10757822422104219AFC058008C02D
:104C5000F4B2BFDDEFDD4CC55C9AEE51AF3D7F296C
:104C60004008FBC3053A1FD6EE061DAD0A52A3E667
:104C70004A6451633656DDDBAA4482EBD70DC3D5B7
:104C800035D2AF51A088D5C796BE98DF63F62AD932
:104C9000655DF234EAD5B16FAE693D26F5C3117397
:104CA0001357CDAD55FA47F2ADE137C1FE513A1C6D
:104CB000A0D94BCBF07C4868DA276425BF4F379AE0
:104CC000D1A318B0B9D2522161E8AE1312BFFBE8EC
:104CD000FC7875F48698386AF545B1846E50C00743
:104CE000186873D56BB2F6F7258539E7393BFA7347
:104CF000506013DE3E19474B04ECB9E0808C3666F9
:104D00007086B444D159F7963853B8B2CBF631D542
:104D10003D94D9FDED104CFC0A5C044F870234ED44
:104D20009C6B333245224D1B1F54371F5843C0E242
:104D3000C4C2DE12502EF24DD743A19DBECCA9763F
:104D400097424BA71D0BDC0C6C3CB0C63C6CCB8275
:104D5000F325EFA5C7A9DB3349A636E21C1410479B
:104D6000B93A089DEC91D613EBA302F3328167B7F1
:104D70008033FD46921BAC5F59885389B604B0E777
:104D800078E81585828626BB4E88771AF13515336B
:104D90004F0B00291D3983E33F4843498299DDE2E7
:104DA000651B3595A08223B2AB5A9C3EB17CD5776A
:104DB000A7C7C02874A4B2760A6100F483FEEA444F
:104DC0002C104F40673D0A98D14B1AD79614B92240
:104DD000624B5103B345D25505A5EEDE3CCE766657
:104DE0002D9841BC066F0A63FB605D8A4569D18FCF
:104DF000D15CE26580E4693F23D2323C3E2015035A
:104E00003DAE64BEB8FCC86258D24FE36F84FD1B50
:104E10001C588719A1E63919518D9F7CEAD3CD9290
:104E200029966A9585608CF65D2FA0BDCE346BC93E
:104E300076596CAE6F0461CEC8BA75F71E1FEC25AB
:104E40002626BEBA141BD0FF65E8C565CBA2F0AB21
:104E50001E71E0F3E0E4B278BD8F932897439AFD8A
:104E6000F5BD2CA3690CC679E8269251BB9E2C9FF8
:104E7000CC8BFB847681B47D187B47D3BE3560F83C
:104E8000F67643BB1D4D0D9225D54A2D780467CE8D
:104E90007746F6E67342D99E7654338CDC58BD17BC
:104EA0009F3D3E71832D2EA37A146835C4C171CA0B
:104EB0000A37F85ACD8D54C33889D567B7ABEB2282
:104EC000920211C49123D32B9570267ED6AB41D389
:104ED000085A13996DBE4DE307CCA2C1A5164E50DA
:104EE000ABBE9FC4D62412ECC49DCE902C5A5CC499
:104EF00072053DA2D14761D823D4284BB1C58D9E00
:104F000055E33A5494D7C0B9D8ED960422AFF65879
:104F10009C6FB65C3BBC741ECEDD7DB2431E09F4B3
:104F2000E8388EA7B50956A144DDD28835A6B29ED1
:104F3000D5EC278FF36F2E1AF028A5CC8FDA31B37A
:104F4000B5B2CFA58B0CC229F67A23C938D05369E4
:104F5000C9EA3EBF98DA4339E61889CB56928604EF
:104F60004A3D1190FBA6011C328311C1A76B18BEEC
:104F70007961285D91116500BA444C1CE250179389
:104F8000B293A7BB0AEC068A7B86F6D269584EA676
:104F9000CF1911C5076F336AEB9CEA36E20B1E3757
:104FA000F14313CADC35AF4818CC484FB84890934A
:104FB00071421544A5F9ECAA7DEC3DA743FC8B2476
:104FC000C5438BBEE426BA310C39B9FC84A6A35084
:104FD000ECCEF40E49E377F409160DBB6DD29C7C40
:104FE0005DE20A3E78170A44EF9637FA10D10BB407
:104FF000F83F81C49FF60F5A05A9CA616E27B36EA8
:105000005FD4EB8A10FA7686B044E5221B18034879
:105010003025C122F363FA54EAA9897CA02D1F1A16
:10502000F4044722EB621E0BF67F2FD72A3C7196C1
:1050300078D0C52756A8D6188E4BD254752D1D2072
:1050400050CFF086D4CDD89E05F65870E83287C58B
:105050001DABCB3B52AADDF2CDA258066F8F2FA518
:10506000065F68FFE242BD3817F52786C10B632350
:10507000A372D2EC24ED3B7E46241063E69D5E963F
:10508000BD8430B638B6AF70623BA74A0FEFE394E9
:1050900098DBA78EBF381A60C23DE165AB9314AAB6
:1050A0002BCBB3A68444F2964BB4163B60742A6AA9
:1050B0002286BBB4AFBC584FEA810131D31ABF81FD
:1050C000E8DC0C938F4E957105C77FF8D15661A629
:1050D00072126B025B512A6560F788EB69E53675E1
:1050E00065ED72945B875D8212B92773949EDCB381
:1050F0009F38D52692E5FC8CEA784A7B8CD903212F
:1051000032FA1889E6926A89948DB807A78AD8542A
:1051100031D314E564AAB41CB9CDAEFF2FA803BDEA
:105120003B2BBC736047D52888A5E3972B75947AF1
:1051300079CFEA32D99404926CEAF57F8F4DD093FF
:10514000D161C61D727B4CD8C4F0427A400F5270B8
:10515000AF01F5125AA5C3971D32207BE4BC634C06
:1051600072D865967F9DB4CC1D789345C78B0F8C04
:10517000235B1329B9E7E81EDFBCDA43D07A12BB00
:10518000B431055348CF45FD907BFDF0C0B2F968BE
:10519000756C01087E08B90E62920033FB990DF818
:1051A000C48D26862A738DD1922BFD82EAFF19E5E4
:1051B000F27205092811BC701EFF2A2D5AE2A8368A
:1051C000D4507953C1A43CC2D748CB5DD10C94458F
:1051D000980FF5F6F56EACABDF1B8D6FAD0C196D4E
:1051E000C0CBF597ACFD405B0E80172E9546E05F77
:1051F000DAEA8657062A40AD1003A24058F743A8C2
:10520000E3EB9EDACBE68C248C5C92134EE3CEB4B7
:105210009D2139678202123507CC166D510CBB18DF
:10522000CFE2E1634165E307222C2F978A0219CC74
:10523000A402833F5ED089C3339E9711F797D40DA4
:105240003055EE3F97EAFEDDD122B55A13F41F6EBA
:1052500060D154CA23C1EC5221261194ED758D0FF3
:105260009320A0E819319B307A894D07FB1BF2A3EC
:10527000AE490365851A14BB3721D8793075FC9D7A
:1052800071620BC6C87007A11ABA60358198E2C96D
:1052900053CEBF5B2354B1C13E159AEB2BFDC6AF75
:1052A0001A675ADE0BFEE51D0AB74781CE03F248A6
:1052B00011AF9BCC0FA6FE8731680E88AD2CF1FB99
:1052C000961048A374047278C724D50B07E6EAC089
:1052D000DDB7142CD5ED6F974423EC144918AD5865
:1052E00036B88FF40CD26304BE3067AD6FBD48A8EA
:1052F000161F34879295C483089681425AC08BC882
:105300005EE7459A1CC3B2D36B7D69222B146E8D68
:105310001FB57B3CEE9EAD373C71070E583200B294
:10532000C2A1705D56947D2A27E65B67407CF062DF
:1053300005A65C97AF6C12B28C6B4E1B233F868028
:1053400023016702596577006ABBB66F7C8ADA97DA
:10535000F638B2FCEAF3675204C84CD9EF94159CB6
:10536000FDC324C7E7E029A1659EF6DD1F91FD4935
:10537000058A345ADA14807480ABF08B61F1A82D61
:1053800093E01E16548465F70782ED30EA3E0F79EC
:1053900008C6D8CD615DB824DF882A38E71C7D5463
:1053A000610F406E6338F3D3522744B79FE62667F8
:1053B000B3DAEC6E7D93C54F3ACE61862E69756E79
:1053C0002CB5B12C24BC2B2F2B0346F664667F0E24
:1053D0007E70ADC51E079FFBF60BE5216C42E166B2
:1053E0003479C5654BDA45A8FA786BB24B22EC24C8
:1053F000956585F0A9EE5DB1CBAB3B30B6A757897B
:10540000B8EE467E316B58D8E7B2D3EE34104AF18D
:1054100058E680D4258BDBB61005CC63E1C435D0CB
:10542000985FB0E2F383FC61DB4FC04BB8E003133D
:10543000EE708FB3E020853ECF7F2CF5F1E337553A
:10544000EAC12AE8E36C37984DDCE6377BB25CCBE7
:10545000998105837DE52EA212CD1EA50C6E4C868A
:10546000A0EAFD661450D9600C23DB1FACFED639D0
:10547000FCF591E3744861B4CC8BC8C1AFA6F1557B
:105480001A8ED16855A639BF873A1063A242B63545
:10549000829EE9FF000A22F1B8E9BA41E894AA2CF9
:1054A0008DD4818A3CF3A53AE407DAFC06F4D58F63
:1054B000429FE1EA5FE96B44AE0009A6C93B0A6E70
:1054C0005310E282DFA37AB55F9B5AC06651322245
:1054D000453B2ABF0FDDB24F2E2C65EE704E1A2AC7
:1054E0004BE91237F32DCFE9855D840C4502D730A7
:1054F0007C04AB04B152D5A94BE6F6977A10FCD6E2
:10550000E4B4AB23A88F00D353F8724A0CD4B87F0D
:10551000E29667B58D4E2B1D560F62394D56615977
:10552000CECBFB64A9B9A80E793A0AB8F9CCDCA6AF
:105530009BA3521876DACFF9943AFD1E3322F4C7B2
:10554000BB72777BF0D0A2E8FD3DC5DC2D9F01F951
:10555000564EEA6BD1D7A7E9E6CAE7C9AFF1558C39
:105560006380C6EA64BBD6AF5993D2EB52294BD9BC
:105570009F82CE8C7181AB7E086E40C5B2BC9A7D95
:105580008C50403C3B6B634DA31034D563FB3673AA
:10559000081E6AC57B56D65216C016C6999ADD53A8
:1055A000ED428753EA5811C6ACBA8BE568C69BAA90
:1055B00075A9C331EC269048D41EF2AB795DC13099
:1055C0007506F2DD4AA114EE71478BF9EFEDAF11CC
:1055D000F9B31B02F9F33AAF5D5F66C00D011247E4
:1055E0001A53C95BFE319364AF2A3B0E1800955FD6
:1055F000F515FFBB3964873D13CE9A67395D532794
:105600006EDE5C5AD118716131BDD9CFFA4F59C4E1
:10561000FB78D3555FA868EA3530AB603A9DDCC8AB
:10562000D84841D63B5C99BFB9DBA8A0D0B42CFCCC
:105630000EF75AD7DF912A5459A36C636A8B94E210
:10564000C85997D3C40F286C9FB7C9CB44F50261E2
:1056500061E3D874831670DD0B2EC1763189A67490
:1056600033A12E6D94A981096919606F7C63629ED4
:1056700078859292D46C9C86F6C20F4A241FCC5D2A
:1056800018327E792EC9B9CC327F25CF9D27D572AD
:105690007C4593D65AD58049D6FD93401688D2F6DC
:1056A0003868F728C55B56FA23E1447B24F1D4B36C
:1056B000A234236A9E63CE3FDBED17711176A959A0
:1056C0007C04C1EA8AA27A8DB317C384E3805CE8C4
:1056D0007C1DC0032EF484943C2472802EAB130BEB
:1056E00083D639D2B9A186202049DA418F26B80C59
:1056F0000936DEEBDD6FE86C9335015CB526ED090C
:10570000395F6EC5A0E1385CCF0B6A9FFC5B2C4112
:1057100088364E4D62F21DD87009F09D294367AE60
:105720003DF4E536D94A0AB411B8CF4E2DEF86B60E
:10573000C383795DFB4642245A3B4599E19F37225A
:10574000AB44B77AD6FB8633021AA06DC3B62C01E0
:105750004A33C755D245811CB143CEC4EA93BE1E1D
:10576000BA726DFD8D69594F4E5145930E3B51569E
:1057700090A0FA2AD8046744E2FBA1EE939AE67659
:105780001DC9579E99C166A2C1AA1518DCC2F7F4BB
:10579000B444C46A86C20F4B5923204F7ADEF98A7B
:1057A00051F1C19E8A6EBBD9EE5B9BF7336467E211
:1057B000D124EF65E74A81230E0A068F7184F61320
:1057C000047FCC01087DC6BDE297D48996575E6FF1
:1057D0009E9CF71C3A5CBA220035ACC65F1EBDA584
:1057E000E2864ADEB00C1CA54D258AE267923E5245
:1057F000BF8776D9350233C2AF659B194402BFB863
:105800009C1206B0A4190AC64FE1DA2876FAA5540C
:10581000F2BAC43163F4211C22B80E2CB5158EE007
:10582000BA570A220B0EC2811243FAF36419031409
:1058300036C5D111592129FE3357AEC5231222F6A0
:10584000BDDE06A4AD282B7FF843B08ABCDFBC1EAA
:10585000B85A458BAD2CBC97D0D14D2ECADAB77A49
:105860004E98A9272219C230B36B65B8641DB2AF38
:10587000125A4CEBAF1B0755838DAFA507390BC4EC
:1058800054031EFD981F65091834203D44D691AE7F
:105890000736D5DF664EEE392B4AF451EBB0599CF2
:1058A0004851122E29C8310D207F8EE1BAACADC20D
:1058B0007800179A7BB8A74F4DD791881F6E704517
:1058C0007A10A75F351DB1AD3FD7A9A1C46F4F2096
:1058D0009C7A8851F01ACCFF3883D6115161D9785F
:1058E000961BA3160BB7954EFFBCACE5F43B4D0CD5
:1058F000ADE53F4F933E5E49BF5DAB7EE50BBE829B
:10590000A8D8AA57C665990414F72B8F63742AF197
:1059100032CBBC2683F131FE1EC9EFF4EF7344C7CE
:10592000C9AB6120356ECDEFC8222393AB4A542D0D
:10593000542F5E6EE968101EE65BCA877A4720D353
:105940004B607668FF0757295A4696C9FF84648CD6
:10595000B393CB02A3C53DB346A42CBDBBB7A5F8FA
:1059600030795D2A13138973CCE26D7D0D66506C1E
:10597000EC063E48520EDD0F3783FE2DE97D06967C
:1059800015A049CBAF29631328A0B372E686B3ED07
:105990001C87471783E16907C36761998C7582A4E7
:1059A0007689B95D24414D1B75EDDC9BBC33E83E27
:1059B00083645ECD7B37A9CA2E9CD32DA5F53475A3
:1059C00083F185F3770851786C328F366443F4C1E4
:1059D0001252CD2F4889092A3D22708D7D868F3045
:1059E000B8155A36BCDEA34D984FFEA8828CAD2662
:1059F000F2B80E70A827F5F303508ADDB5B8903CD5
:105A0000AAC6F68FA0E4F938A89771BDE7274648E3
:105A10005AFF1A73052A640A4D1C20E2D36067817D
:105A20004860F538AD6E140710CE91DE008FD25F5E
:105A3000C6E9BA8312AB51F20399B9B131790CEFCF
:105A4000085CC10980CD4F9BD3EF1C2458AE214880
:105A5000A423C7069327FE1B78ADB9E9D0381BB045
:105A6000305C478AFF88521C45EFC03CA663890B17
:105A7000CE92A3A1E90D16AC8EE2032F92D8A577A2
:105A8000A93CCAF1C3D8DB771E625FCA84D3BA1FB0
:105A9000D424F42008CAD276922DC27D7F97799CB7
:105AA0004261C3032E722DF2AE1BDDB2EF81E8F628
:105AB0009715692E439B67896721128D6683275648
:105AC000C57552A75024B82DB6EF5FD17FC2338081
:105AD000414C534DE7D41E0EB38F1E897BD8A8D5F9
