:020000040800F2
:1000000000100020950200083D1400083D1400086F
:100010003D1400083D1400083D1400083D1400087C
:100020003D1400083D1400083D1400083D1400086C
:100030003D14000868B600083D1400083D1400088F
:100040003D1400083D1400083D1400083D1400084C
:100050003D1400083D1400083D1400083D1400083C
:100060003D1400083D1400083D1400083D1400082C
:100070003D1400083D1400083D1400083D1400081C
:100080003D1400083D1400083D1400083D1400080C
:100090003D1400083D1400083D1400083D140008FC
:1000A0003D1400083D1400083D1400083D140008EC
:1000B0003D1400083D1400083D1400083D140008DC
:1000C0003D1400083D1400083D1400083D140008CC
:1000D0003D1400083D1400083D1400083D140008BC
:1000E0003D1400083D1400083D1400083D140008AC
:1000F0003D1400083D1400083D1400083D1400089C
:100100003D1400083D1400083D1400083D1400088B
:100110003D1400083D1400083D1400083D1400087B
:100120003D1400083D1400083D1400083D1400086B
:100130003D1400083D1400083D1400083D1400085B
:100140003D1400083D1400083D1400080348044B0A
:10015000834202D0034B03B1184770472019002097
:100160002019002000000000064B0749C91A891019
:1001700048BF0131491003D0044B0BB10148184767
:10018000704700BF20190020201900200000000047
:1001900010B5064C237843B9FFF7D8FF044B13B1D1
:1001A0000448AFF300800123237010BD841A00209F
:1001B00000000000DCB6000808B5054B1BB105497E
:1001C0000548AFF30080BDE80840FFF7CDBF00BF92
:1001D0000000000020190020DCB60008A3F5803ADA
:1001E000704700BF174B002B08BF134B9D46FFF70E
:1001F000F5FF00218B460F461348144A121A01F0EE
:10020000E4FA0E4B002B00D098470D4B002B00D08A
:1002100098470020002104000D000D48002802D05E
:100220000C48AFF3008000F0DBFC2000290000F058
:1002300085FB00F005FC00BF000008000000000086
:10024000000000000010002020190020881A002063
:1002500000000000000000000346054A0549106840
:1002600003448B428CBF4FF0FF301360704700BFD8
:1002700000100020000001200348044A0449121A1B
:10028000921001F0DCB800BF10C0000810C00008D8
:10029000881A002008B500F02FF8FFF7EDFF124B89
:1002A00012498B4212D30020114B12498B4218D3B2
:1002B000FFF798FF186850F82240586840F822402D
:1002C000013298688242F5D30C33EAE70022F8E75E
:1002D0001C6844F8220001325C68A242F8D308335B
:1002E000E4E70022F8E700BFE4B60008F0B6000833
:1002F000F0B60008F0B600084FF400414FF0FF30B0
:10030000114B124A10B59A60D3F8882042F470025B
:10031000C3F888200E4A916601F1884101F5005228
:1003200010660C4850660220C3F8D000BFF34F8F10
:10033000BFF36F8F08244FF440330748C0F8804163
:10034000D36004600B6110BD00ED00E00000000808
:10035000009000507FFF070000E100E0F8B5C3699E
:100360000446042B68D801F075F8344B344A596EB2
:100370004FF480333348536602F5E622C2F8000694
:10038000C90300F50070C2F804065CBFA2F5E422C0
:1003900053662D4B2D4AE5691A6022685A602C4A33
:1003A00004F1080303EB8501121B8B4202EB0300EF
:1003B0001FD1284600216368264CF3B9224A41EA3E
:1003C000056191601368516892684B405340002268
:1003D00082422CD144F82230BFF34F8F1E491F4B6D
:1003E000CA6802F4E0621343CB60BFF34F8F00BFD3
:1003F000FDE753F8046F0660D7E70022D3F800E06A
:1004000004EB80079E68BC46C6F39906B24207F12A
:10041000040706D3114410445A68012ACED05B6801
:10042000CBE75EF822600132CCF80060EAE754F8CE
:10043000221001324B40CBE7F8BD00BF00800050D6
:1004400000900050004C00A0004C00B0DEC0ECE575
:10045000044C00B00C4C00B000ED00E00400FA05C4
:100460004FF480311A4B30B5586E03F580535966FE
:1004700003F5E623D3F8043603F1C042A2F5804227
:10048000B2F5606F01D9002030BDC20358BF114AD8
:1004900003F1805358BF516618680F4A19469042BD
:1004A000F1D11A69501DB0F5007FECD203F11400B0
:1004B000940000EB82000022834205D10B19586999
:1004C000831A58425841DFE753F8045B6A40F3E768
:1004D0000080005000A00050DEC0ECE538B5104BA5
:1004E00010495A6E4FF48033D20358BF0E4A4B6600
:1004F00001F5E621D1F80456044658BF536640B1D1
:10050000FFF7AEFF40B1002005F180556B68236016
:1005100038BD4FF4E020FBE74FF47E00F8E700BF62
:10052000008000500090005000A000500C4B0D497E
:100530005A6E4FF48033D20358BF0B4A10B54B6646
:1005400001F5E621D1F8044658BF5366FFF788FF4E
:1005500020B104F18054A068C0F3C05010BD00BFAA
:10056000008000500090005000A000500C4B0D493E
:100570005A6E4FF48033D20310B558BF0A4A4B6607
:1005800001F5E621D1F8044658BF536604F18054C2
:10059000FFF7CCFF08B1E06810BD4FF47E00FBE729
:1005A000008000500090005000A00050F8B5254B8E
:1005B00025495A6E4FF48033D2034B6601F5E6218C
:1005C000D1F8047658BF214A07F1805558BF5366C9
:1005D000846805F11406FFF7A9FF58B32A6956F895
:1005E0002230DB4346F82230A86810F470201FD078
:1005F000A86800F47020F8BD0021D4F800C0A568F8
:10060000C5F39905A9420FD0934203D1ACB19342EF
:10061000F2D3F0E7013307EB830606F18056366923
:100620004CF821600131EDE7646824F00104EDE746
:100630000346EBE74FF47E00DDE7934238BF4FF40B
:10064000E020D8E7008000500090005000A000504B
:1006500010B5044668B161B10023074A8360C0E960
:100660000023C36100F0FDFE2046BDE8104000F00D
:100670003CBF212010BD00BF0000034310B504465D
:1006800000F0E8FE024B1C6000F0E8FE002010BD08
:100690003819002010B500F0DDFE034B1C6800F097
:1006A000DDFE204610BD00BF3819002013B5002321
:1006B00001241A4619461846009400F0CBF800238E
:1006C00000941A461946184600F0F6F80248FFF75B
:1006D000D5FF002002B010BD0410002008B5124B59
:1006E000A8220021184601F070F803220346026197
:1006F00042610E480E4A98614FF48061DA6100222F
:1007000019629A625A62DA6218660A4858669966ED
:1007100009491A67DA665A6711F8010D98540132CF
:10072000102AF9D108BD00BF7818002041B5000893
:1007300078140020781000205AB500082DE9F84FF1
:10074000DFF88080824698F800308946532B1646A1
:1007500001D0FFF7C3FF182707FB0A873D6FD7F8C3
:100760006CB05D452BD9BC6E796E641BB44228BF5A
:10077000344648462944224601F032F8BB6E2544EF
:10078000AB4208BF0025A144361BABEB050B5E4511
:1007900028BF5E4656B1182303FB0A83596E3246C2
:1007A0002944484601F01CF83444354424B1182348
:1007B00003FB0A88C8F870502046BDE8F88F002473
:1007C000E3E700BF78180020F8B5182700FB07758D
:1007D000124B0E461D4407FB0033DB6A1446012B07
:1007E0000AD0022B14D023B9284600F020FF8442FF
:1007F00008D900242046F8BD284600F018FF84429E
:1008000028BF044622463146284600F019FFF1E78A
:100810002846BDE8F84000F02EBF00BF7818002041
:10082000F8B50B4B04461B780D46532B164601D0EA
:10083000FFF754FFEFF311874FF0200181F3118888
:10084000324629462046FFF7BFFF87F31188F8BDDF
:10085000781800202DE9F041164C1E4623780546F5
:10086000532B8846174601D0FFF738FF022D1DD8BD
:10087000EFF3118C4FF0200181F3118865B118203E
:1008800005FB000344F80380E2180023576000FBD7
:100890000542166293625362182303FB0544069BCC
:1008A000E3628CF311880020BDE8F0814FF0FF3047
:1008B000FAE700BF781800202DE9F843154E1F46CF
:1008C00033780546532B8946904601D0FFF706FF43
:1008D000022D1BD8EFF311824FF0200181F3118814
:1008E00055B11824002304FB0564C4F86090C4F8D3
:1008F0006480A7662367E366182303FB0566089BED
:10090000736782F311880020BDE8F8834FF0FF3051
:10091000FAE700BF781800204FF4005382B001932B
:10092000019B5A1E0192002BFAD1034A136923F04E
:100930000403136130BFF9E700ED00E030B58BB080
:100940000021202202A800F040FF4FF0FF330122D7
:1009500001932F4BC3F880224FF4803203F580536C
:100960005A66FFF7A3FE00F085FD02A800F0E0FD47
:1009700002A800F0C2FDB8B9CDE9020004900990C8
:1009800002A800F0C8FD014660B9224800F020F935
:1009900001A902A800F0DBFD01991F4800F006F94B
:1009A000FFF7BAFF1D48F9E701A902A800F0CFFD43
:1009B000C0B91B4D0199184800F0F8F8EC681948C7
:1009C000214600F0F3F8019B24F07F4423F07F439D
:1009D000A3420BD2144B154A1B681968914207D1E8
:1009E000134800E0134800F0F3F8D9E71248FAE79B
:1009F0001A60294602A8FFF72BFE01460F4800F0B7
:100A0000D5F802A800F09EFD00F036FDC8E700BF53
:100A1000008000505BB5000876B5000891B500086D
:100A2000C01C0008C0B5000810100020EFBEADDEED
:100A300029B60008E0B50008FFB500084DB600086B
:100A400008B5064B044613B10021AFF30080044BF8
:100A50001B6803B19847204600F0B9FD0000000074
:100A6000741A0020002310B5044683608181194662
:100A70004366C28108228361C0E90033C0E90433C0
:100A80005C3000F0A2FE0D4B246263620C4BA3624B
:100A90000C4BE3620C4B23630C4B9C4206D003F1DE
:100AA0006802944202D0D0339C4205D104F1580030
:100AB000BDE8104000F091BE10BD00BF871A0008CD
:100AC000A91A0008E11A0008051B00083C190020BB
:100AD000024A0349034800F005BE00BF141000207D
:100AE000371A00082410002041680C4B994210B5B9
:100AF000044601D000F09FFFA168094B994202D043
:100B0000204600F098FFE168064B994204D0204649
:100B1000BDE8104000F08FBF10BD00BF3C190020A1
:100B2000A41900200C1A002010B50B4B04210B4C0B
:100B30000B4A20461A600022FFF794FF04F1680078
:100B400001220921FFF78EFF04F1D00002221221B9
:100B5000BDE81040FFF786BF741A00203C19002042
:100B6000D10A0008014800F039BE00BF861A0020F3
:100B7000014800F034BE00BF861A002010B50446BC
:100B8000FFF7F0FF236A1BB1BDE81040FFF7F0BF8D
:100B9000044B2362044B1B68002BF5D1FFF7C4FF05
:100BA000F2E700BFE90A0008741A00200FB407B585
:100BB000064904AB086853F8042B8168019300F0E0
:100BC00033F803B05DF804EB04B070472010002048
:100BD000024B0146186800F0A3BD00BF20100020A2
:100BE00070B50D4D00260D4C641BA410A64209D112
:100BF0000B4D00260B4C01F043F8641BA410A642D9
:100C000005D170BD55F8043B01369847EEE755F81D
:100C1000043B01369847F2E7701000207010002066
:100C200070100020741000202DE9F04F0D469DB08B
:100C300014469846064618B1036A0BB9FFF79EFFA3
:100C40006B6ED90705D4AB899A0502D4A86D00F064
:100C5000C5FDAB891B0701D52B699BB929463046D9
:100C600000F0D4FA70B16B6EDC0704D54FF0FF30A2
:100C70001DB0BDE8F08FAB899805F7D4A86D00F0E2
:100C8000AEFDF3E70023CDF80C804FF00109DFF84B
:100C9000B481099320238DF8293030238DF82A3030
:100CA00023469A4613F8012B0AB1252AF9D1BAEB4B
:100CB000040B0BD05B4622462946304600F0B4FDBB
:100CC000013000F0A780099A5A4409929AF800303E
:100CD000002B00F09F8000234FF0FF320AF1010A41
:100CE000049307938DF853301A93CDE905235446A6
:100CF0000522544814F8011B00F0A7FF049AD8B944
:100D0000D10644BF20238DF85330130744BF2B2353
:100D10008DF853309AF800302A2B15D0079A544694
:100D200000204FF00A0C214611F8013B303B092B03
:100D30004BD9B0B1079214E0A0EB0803A24609FA20
:100D400003F313430493D2E7039B191D1B68002B85
:100D50000391BBBF5B4242F0020207930793B8BF07
:100D6000049223782E2B0AD163782A2B32D1039B4D
:100D700002341A1D1B6843EAE37303920593DFF8FC
:100D8000D4A003222178504600F05FFF38B1A0EBD9
:100D90000A004022049B013482401343049314F858
:100DA000011B062228488DF8281000F04EFF00286D
:100DB0003FD0264B1BBB039B073323F007030833AD
:100DC0000393099B3B4409936AE70CFB02320C46F0
:100DD0000120A8E7002301344FF00A0C19460593BF
:100DE000204610F8012B303A092A03D9002BC6D02F
:100DF0000591C4E70CFB012104460123F0E703AB96
:100E00002A4604A930460093114BAFF300800746F1
:100E1000781CD6D16B6ED90705D4AB899A0502D45C
:100E2000A86D00F0DCFCAB895B063FF51FAF0998AD
:100E30001EE703AB2A4604A930460093044B00F09A
:100E4000ADF8E4E7A8B60008B2B60008000000005C
:100E500029180008AEB6000870B50F4E0C460546BE
:100E6000316811B900F07EFA30602146284600F062
:100E700079FA431C03D14FF0FF34204670BDC41CE7
:100E800024F00304A042F8D0211A284600F06AFAA0
:100E90000130F2D1EFE700BF781A00202DE9F843C6
:100EA000CD1C064625F0030508350C2D38BF0C2552
:100EB000002D01DBA94204D90C2333600020BDE8DA
:100EC000F883DFF8D48000F095F9D8F800301C469C
:100ED00044BB29463046FFF7BFFF431C044658D1A8
:100EE000D8F800402746002F43D1002C4BD0236870
:100EF0003946304604EB030900F034FA814542D10B
:100F0000216830466D1A2946FFF7A6FF01303AD016
:100F100023682B442360D8F800305A6862BBC8F8B5
:100F200000700FE02268521B20D40B2A17D96119D8
:100F3000A342256018BF5960636808BFC8F8001055
:100F400062514B60304600F05BF904F10B00231D49
:100F500020F00700C21A1CBF1B1AA350AFE762683B
:100F6000A3420CBFC8F800205A60EBE72346646830
:100F7000AEE73C467F68B6E71A465B68A342FBD102
:100F800000235360DEE70C233046336000F038F96D
:100F900094E70560D6E700BF7C1A00202DE9FF47E3
:100FA0000F7E914680460C46782F9A460C9E01F1A2
:100FB000430207D8622F0AD8002F00F0DD80582F97
:100FC00000F0C38004F1420684F842703AE0A7F1D1
:100FD0006303152BF6D801A151F823F03510000852
:100FE00049100008C50F0008C50F0008C50F00080C
:100FF000C50F000849100008C50F0008C50F0008FC
:10100000C50F0008C50F00085F110008D7100008C1
:1010100017110008C50F0008C50F0008811100084E
:10102000C50F0008D7100008C50F0008C50F00083D
:101030001F11000833681A1D1B68326004F1420654
:1010400084F842300123A8E031682368081D30602D
:101050001E0601D50D6803E05D06FBD5B1F9005011
:10106000002D616878DA2D200029A16084F8430002
:101070002DDA6D425D480A231646B5FBF3F103FBFA
:101080001157C75D06F8017D2F460D46BB42F4D9C6
:10109000082B0BD12368DF0708D5236961689942C3
:1010A000DEBF302306F8013C06F1FF36921B2261B9
:1010B0004B4603AA21464046CDF800A000F0C6FBEF
:1010C00001306FD14FF0FF3004B0BDE8F08723F05E
:1010D00004032360CDE721683368080653F8045BF6
:1010E00002D4490648BFADB26F2F33603F4814BFEA
:1010F0000A230823002184F843106668002EA660A6
:10110000BADB216821F004012160002DB4D1002E4A
:10111000B2D11646BCE7236843F02003236078274A
:101120003348236884F845701F06316851F8045B22
:1011300002D45F0648BFADB23160D90744BF43F067
:10114000200323601DB11023D4E72848E9E7236872
:1011500023F020032360F6E724480A23CDE7336811
:101160002568181D616930602E061B6801D519605D
:1011700002E06806FBD5198000231646236197E735
:10118000336800211A1D32601E686268304600F024
:101190005CFD08B1801B606063682361002384F8F4
:1011A000433085E72369324649464046D0470130FF
:1011B00088D023689B0714D4E068039B9842B8BF8B
:1011C000184681E70123324649464046D047013060
:1011D0003FF478AF0135E36803995B1AAB42F1DC69
:1011E000EAE7002504F11906F5E700BFB9B60008E3
:1011F000CAB60008014800F0F1BA00BF851A002005
:10120000014800F0ECBA00BF851A002038B5294B20
:1012100005460C46186818B1036A0BB9FFF7AEFC17
:10122000B4F90C30190722D4DA0607D409222A604F
:1012300043F040034FF0FF30A38133E0580712D54D
:10124000616B41B104F14403994202D0284600F099
:10125000ABF800236363A38923F02403A381002355
:10126000636023692360A38943F00803A381236992
:101270004BB9A38903F42073B3F5007F03D0214653
:10128000284600F0A6FCB4F90C3013F001020AD095
:101290000022A26062695242A261226942B913F03F
:1012A0008000C5D138BD990758BF6269A260F4E7D4
:1012B0000020F7E72010002038B50023054D044634
:1012C00008462B6000F081F9431C02D12B6803B162
:1012D000236038BD801A002038B50023064D04462F
:1012E000084611462B6000F073F9431C02D12B68AD
:1012F00003B1236038BD00BF801A002038B5002339
:10130000054D044608462B6000F067F9431C02D1E6
:101310002B6803B1236038BD801A002038B504461D
:10132000064D0846114600222A601A4600F057F979
:10133000431C02D12B6803B1236038BD801A002002
:1013400038B50446064D0846114600222A601A4662
:1013500000F047F9431C02D12B6803B1236038BD6C
:10136000801A002038B50023054D044608462B603E
:10137000FEF772FF431C02D12B6803B1236038BD16
:10138000801A002038B50446064D08461146002252
:101390002A601A4600F033F9431C02D12B6803B1CE
:1013A000236038BD801A002038B50546002941D099
:1013B00051F8043C0C1F002BB8BFE418FFF71AFFCC
:1013C0001D4A136833B9636014602846BDE838408D
:1013D000FFF716BFA34208D9206821188B4201BF2E
:1013E00019685B6809182160EDE71A465B680BB164
:1013F000A342FAD911685018A0420BD120680144C9
:10140000501811608342E0D118685B68084453604B
:101410001060DAE702D90C232B60D6E72068211888
:101420008B4202BF19685B680918636008BF2160BE
:101430005460CAE738BD00BF7C1A0020FEE710B533
:101440003AB1002350F8234041F8234001339A4237
:10145000F8D110BDEFF3108072B6704700B962B6D4
:101460007047C369032B9FBF00EB83020133D16038
:10147000C36170470020704700207047B0F5E02F2F
:1014800025D013D8B0F5003F23D007D840B3B0F52E
:10149000803F08BF482018BF01207047B0F5403F8B
:1014A00019D0B0F5802F08BF4B20F4E7B0F5302FEE
:1014B00013D004D8B0F5202F08BF1020EBE7B0F50B
:1014C0007E0F0CD0B0F57F0F08BF0620E3E7212088
:1014D00070472A2070472C20704711207047482001
:1014E0007047002070470020704708B518B1FEF71C
:1014F00035FF012008BD2120FCE710B5044640B1AE
:10150000FFF734F8B0F57E0F206014BF00204820AC
:1015100010BD2120FCE708B538B1FFF747F80346B6
:1015200020B1BDE80840FFF7A9BF2123184608BD38
:1015300008B528B12022002100F047F9002008BD9D
:101540002120FCE708B1FFF7F3BF2120704710B559
:101550000C4678B171B1FFF7C4FF60B92046FEF7C1
:10156000BDFF0446FFF7BFFF2CB12046BDE8104089
:10157000FFF784BF212010BD70B50C46154610B989
:10158000FFF788F838B143682BB12A462146BDE8F9
:10159000704000681847232070BDF7B50D46164609
:1015A0001C4648B103B901AC87685FB12346324697
:1015B00029460068B84706E0FFF76CF804B901ACAB
:1015C0000028F1D1232003B0F0BD00207047FEE7D2
:1015D0004FF4005300204B607047012070470020FB
:1015E000704707B5002001AB0190FFF7D6FF0198C7
:1015F000002808BF4FF0FF3003B05DF804FB10B5C2
:1016000014460020FFF7B8FF204610BD10B500209B
:101610001C4600F059F8002820600CBF1B20002059
:1016200010BD08B50020FFF7FBF8002008BD0369D6
:10163000C26893429CBF81685B18013B981A70474F
:101640002DE9F041D0E902840546A8EB0406406884
:10165000964220440F46144404D900F0C1F8EC60CF
:10166000BDE8F0813246A4EB080400F0B9F8224648
:101670006868B919F1E72DE9F84306468946174627
:101680004FF00008C5683369B4689D4228BF1B1934
:10169000641BBC4228BF3C46013B5B1B9C4228BFED
:1016A0001C46706849462844224600F099F8B36801
:1016B0002544AB4208BF00253F1BA044A144F56070
:1016C000E1D14046BDE8F88310B50B46EFF3118435
:1016D0004FF0200181F311881946FFF72FF884F3AA
:1016E000118810BD2DE9F8430746884614460026A8
:1016F000D4E90195B9F1010905D52468002CF7D189
:101700003046BDE8F883AB89012B07D9B5F90E3017
:10171000013303D029463846C04706436835E9E718
:10172000036A70B505460E4684680BB9FFF726FAC2
:10173000636EDB0705D4A389980502D4A06D00F081
:101740004DF8A389190702D52369002B35D121460D
:101750002846FFF75BFD80B34FF0FF35636EDA0775
:1017600005D4A3899B0502D4A06D00F038F8284663
:1017700070BD002B15DB23685A1C22601970A3680A
:1017800016F8011F013BA3600029F2D1002B16DAE5
:1017900022460A21284600F0B9F90130DCD00A259A
:1017A000DCE7A2699A4201DC0A29E4D122462846F4
:1017B00000F0ACF90130E2D1CEE7013EDFE723686B
:1017C0005A1C22600A221A70E9E702440346934237
:1017D00000D1704703F8011BF9E770477047704765
:1017E0000A44431E914200D1704710B511F8014BD5
:1017F000914203F8014FF9D110BD9368013B002BD2
:10180000936010B408DA9469A34201DB0A2903D17A
:101810005DF8044B00F07AB91368581C1060084654
:1018200019705DF8044B7047F8B506460F4614462C
:10183000D518AC4201D1002007E03A4614F8011B4C
:101840003046FFF7DAFF431CF3D1F8BD2DE9F0472E
:10185000164698468A6807460B690C46DDF82090C4
:101860009342B8BF1346336091F843200AB1013365
:1018700033602368990642BF3368023333602568BA
:1018800015F0060506D104F1190AE36832689B1ABF
:10189000AB422BDC94F843302268003B18BF012395
:1018A000920630D404F1430241463846C84701301D
:1018B00023D023681A3454F80A2C03F00603042BAF
:1018C0000ABF54F80E5C002533684FF0000608BFCD
:1018D000ED1A54F8123C08BF25EAE5759342C4BFDF
:1018E0009B1AED18B5421AD1002008E00123524698
:1018F00041463846C847013003D14FF0FF30BDE8BC
:10190000F0870135C1E7E1185A1C30200233224428
:1019100081F8430094F8451082F84310C2E7012390
:10192000224641463846C8470130E6D00136D9E75D
:10193000B1F90C202DE9F041170705460C4656D4A5
:101940004B68002B02DC0B6C002B3DDDE66A002EA1
:101950003AD0002312F480522F68216A2B6025D0E0
:10196000626DA389580705D56368D21A636B0BB102
:10197000236CD21A216A0023E66A2846B047411C2C
:1019800024D00023636023692360A389DA0400D58F
:101990006065616B2F60B9B104F14403994202D0D4
:1019A0002846FFF701FD002363630DE0012328466D
:1019B000B047461C0246D4D12B68002BD1D01D2B3A
:1019C00001D0162B2AD12F6000202EE02A68B4F90E
:1019D0000C3042B11D2A01D0162A21D100236360A8
:1019E00023692360D5E7626022692260CEE70F6930
:1019F000002FE9D093070E680F600CBF4B690023DE
:101A0000A6EB07088B60B8F1000FDDDD43463A46D0
:101A1000216A2846A66AB047002808DCB4F90C30D1
:101A200043F040034FF0FF30A381BDE8F08107444D
:101A3000A8EB0008E7E738B50B6905460C4613B973
:101A40000025284638BD18B1036A0BB9FFF796F890
:101A5000B4F90C30002BF3D0626ED00704D4990592
:101A600002D4A06DFFF7BAFE28462146FFF760FFBB
:101A7000636E0546DA07E4D4A3899B05E1D4A06D23
:101A8000FFF7ADFEDDE710B50C46B1F90E10FFF71C
:101A900057FC0028ABBF636DA3891B1823F4805348
:101AA000ACBF6365A38110BD2DE9F0411F468B8952
:101AB00005460C46DB05164605D502230022B1F982
:101AC0000E10FFF72BFCA3893246B4F90E102846FE
:101AD00023F48053A3813B46BDE8F041FFF752BC9D
:101AE00010B50C46B1F90E10FFF718FC431CA38982
:101AF00015BF606523F4805343F48053A38118BF5E
:101B0000A38110BDB1F90E10FFF7D6BBF8B50E4694
:101B10001446054618B1036A0BB9FFF72FF8A369FD
:101B2000A360A3891A0701D5236943B92146284632
:101B3000FFF76CFB18B14FF0FF373846F8BD23684C
:101B4000F6B222693746981A6369834205DC21465A
:101B50002846FFF770FF0028EDD1A368013BA36082
:101B600023685A1C22601E70431C62699A4204D08A
:101B7000A389DB07E1D50A2EDFD121462846FFF7EE
:101B80005AFF0028D9D0D6E770B50C46B1F90E102F
:101B900096B0154600291E460CDAA389002113F0E1
:101BA000800F14BF40234FF48063002031602B600E
:101BB00016B070BD6A46FFF78FFB0028EDDB019978
:101BC00001F47041A1F50053594259414FF480632B
:101BD000EBE78B89F7B59D0706460C4607D504F160
:101BE0004703236023610123636103B0F0BD01ABB0
:101BF0006A46FFF7C9FF009F054630463946FFF7A2
:101C00004DF948B9B4F90C309A05EED423F003032A
:101C100043F00203A381E2E7A389206043F080033D
:101C2000A381019BC4E904075BB1B4F90E103046EF
:101C3000FFF764FB28B1A38923F0030343F00103FA
:101C4000A381A3891D43A581CFE7C9B203460244FE
:101C500010B59342184601D1002003E00478013307
:101C60008C42F6D110BD0000000000000000000012
:101C70000000000000000000000000000000000064
:101C8000F8B500BFF8BC08BC9E467047F8B500BF69
:101C9000F8BC08BC9E467047000000000000000031
:101CA0000000000000000000000000000000000034
:101CB0000000000000000000000000000000000024
:101CC000EB17A65E79980000DC970000040202067C
:101CD00001010000275DB6CB5EB6D97013BBF85C7E
:101CE0001E68AB8102F1C15700E34F5F11D159ADBE
:101CF000399856DD08B9C65080AD11C5704BF8BC97
:101D000083268C134FCEA4D47EFA55657952B2CF78
:101D1000EB1E01C2F4630AF2E076B8E9BD9E108AB8
:101D200083884C3C00A84D62D89B953A7868504F08
:101D3000053043FA28016976B006848A27707F341B
:101D40006969242658B49840CC5AAE03E0B8E60C32
:101D50008A96B220534823E02FB34B931093E2AC02
:101D6000726E723B877434DB82B45FB735F75F8B7A
:101D700006FE8DDEFAE232AD3BE8002122D23E2B98
:101D8000C9CB7F24B119F7ECC80A4EF188776BBD37
:101D900072776E93047D441DCDDBA752E46131BCA4
:101DA000757E17D92134305AF7E5260868A68D11BB
:101DB000FF7F03DA039A3F334E27818BC33703FF3C
:101DC000E57A381D2B7E031E6DD7295A2F7351D407
:101DD000AB6B4D8871165EADE372E9EE29FA88F7B8
:101DE000C0A57BE30D2121D502719E9046315D0F88
:101DF000EC1420A775024F668BAFB0E50DFB1318EE
:101E00009FCEB997E1B3C3D484443C7BEBACC9AE5D
:101E100037C61B8DCA4BF91D851E823F0EE3342643
:101E200087B9AF8D46A98378223EE361546EAEC078
:101E300075212CC8FD605EAF9ACBAEF4DC442E63F6
:101E40001721B0851C279449CDB9E51A6C173F7E40
:101E500048225159B482C83619452116F8C712D9FB
:101E600092C32B0C33A6F6CDB96DC6A7C11B47DCB8
:101E7000AF421432DDAD5CBE4CA08F83ADB608FE20
:101E800008C6D964D827E361DD35A08BC4EF066CA2
:101E9000A5AEA2FC09696AD9EB787462B7BD81FB73
:101EA0005506AA2C964B54400FC91A389888E0F86A
:101EB000C28C69AF6E14879834030458BB1B3A2D4B
:101EC00063738D9C983B247A0435B902AB0069A5F5
:101ED00014871105012EDC34208D8882F003DE7812
:101EE000DFDB65AD5404D142B4AA6F3BA4416E0957
:101EF000CFA263FD4801C7CDAE327ABB7DFD653F01
:101F00003903673E07C9965FA096F17280509789A2
:101F10001D7B1CD811118C3C5F8125D44839445558
:101F200057952DADE89CB00FE30CD1AC25C3307DA7
:101F3000E9928233806FEE40CBD5EB84FCC4749A77
:101F4000C324DD676F639538899FF14CE831441CE9
:101F500072548AD54F8087CB355B2D89BF728CF147
:101F6000AB2A2581EECF16BBF7A6E7DBCB9528B5CC
:101F7000A32C2A5A1B37328457825DD5792F02EA67
:101F8000F5FD670A4589EE7196FE7D8B48B97B8F1A
:101F9000ECB0764B8AD730BFDC7A79B5F25115C6F2
:101FA000850114C1B6AB6CA7304E31EB0DADFD8D84
:101FB000B3324022D6C4183C18F2FBF7E3DF689F27
:101FC0001943CC78CFA0607C1087F729E79A3411A9
:101FD000EAAED461B41836A5E48E757EB3D84ABC97
:101FE0002E4714268B21A11D02CDF32D42CF9F73C6
:101FF000896886B6A9B60ABFC8CD99F091911A2111
:1020000046DAAA426DB5A8B51C89D3005C264EBE3F
:10201000A28592BC1DEBFFBF594610963847046459
:102020003BBF985F91CF787B0DD52BE709A3FDE3EC
:10203000363DFC89BA8F7EE5A212AB2F171401073B
:10204000C887796F2E97B2837A5622128E90330EFC
:102050002F7B98010BE1C1F09EA53A07487CAD208B
:10206000CD94D3D32E1B4E15410B5688EEE8EAF2E1
:102070004DCD0F38D0BA3F15C32B379CF340ADC6BA
:102080000A66D6B1A266CC9B77D9C62E53C4AE11D0
:10209000B19AD6B6064BD504CC182D85A4DC588849
:1020A00003D299F4E0B5DB174F957B921198EEC2FD
:1020B000C3D2C402B012EE75CE8E666FD016221255
:1020C000E9A5EF2EF5A3C4DC53EF0CE3E203D5B989
:1020D000F99EBAD77F9F71F078DAE5D223261C8C5F
:1020E00055FBE30746048C58467F15C554A1759AE5
:1020F0009FEED24D766084E7CEBD8B2B226079E2D5
:102100001CDAEB663E4DF0F93E9D6AE55FBAAE6CB7
:102110008CB6BCE7ACB32E2BDD9B3B4363CF44397D
:102120008F10001B305CDDEE50A8057083B45C3767
:1021300091178D0962A08AE031AC6C461F1E923B5C
:10214000AEEBEE034BB499213F8F7C96CB705E7261
:1021500033AA0F87B7BC92D0BCB3CE47B46A9514EC
:102160000AD5C92F8D99F028C671D5652AE8726FF6
:102170007A7052149B1C322DF3E564F74CB40F397E
:102180005D306D84C9850D8335AEC20EE24F3BC410
:102190001BEE8FE95FE223FADC582D087B6CDF260B
:1021A0002AC954726B01F3C3F9504A6AEF86AB1324
:1021B0002CAE8052D1841315B942D9E60188AD43C3
:1021C000E92311F5AA0D4F93D422226FF75A551C1B
:1021D0005A19C9AB772B2BC0F635435923E78FB17A
:1021E0002AECCFA049B6340CDEEC6D6B9B292E0790
:1021F0005352B6CD920C31231B59F752AB15838144
:10220000584021FE4352C48A12FA8CD065EBEA2D65
:10221000B8AC8883C41A1616A9BBB9D1B33ED7632C
:102220005FDD832988966A5A77E6B82DA9276EC69E
:10223000240540DE221B01B5A4DCEE12C2C596BE09
:10224000F54EF739EE1717D3DB251D0F3CF2B470AE
:102250003E53E0AACB1C975B7A8571788FF3497A5D
:102260007E164E6B0AF8A88C8989539BA7ECFF2732
:1022700067F85338558A6AE433CC690C593472CF05
:1022800037CCC116AACBED9BC980B88A6695614E42
:10229000C104B8E8734C19CE135E45D3535AD831F4
:1022A000B7E46C1D1F2E52F71D468F4DD110F1E380
:1022B0002501532F68EEF49A7357B19B1B87BAA080
:1022C00049AC16B6314CE2CE2D6130DD1BA955AAC2
:1022D000C08EF535163025E7868F6947AC26488BCA
:1022E000B05EEFE9D0FBD241AB40EADBF7D1464527
:1022F0001E911EFC0F7508C1B46442F35CE67F9426
:10230000ACAF28CE75AFFF96AADD2CE9ECEF10F448
:10231000E7E4DA396C08E46D065ADA7A816709D3A2
:10232000C9225A6AA32FFEF1A668704FEF74228F5C
:10233000C9ACC3B16A99E638D745415D7B76AD2E0D
:10234000D3B45FB8CE49273EC59AA321048F6CC78A
:10235000D726DBBA3FDF91BC8F1A34506C82CE494E
:102360003F57C81B7F8FF111D12D6AD830CD0BEBB1
:10237000B0C3EB3163410980C0F28BA77133A64C27
:102380005125D6BC36253A1A8796F3F9123ADF481A
:10239000CAC5757D61A8120B0F43B8BE5ABD3ABBC2
:1023A000D9F19106EEC64A3ED9FCBF6D5EC5060C5A
:1023B000CD6552916EBBC799726EE891713A570B19
:1023C0001549CE03B5A2FBB6428AA124B69C909AC9
:1023D000442F55479A89C4742F2F160D96428DBFEE
:1023E00002BA776BA650A5A49BFF87B356A5D4105D
:1023F0003E718DE50E1BD4D9BA27441ECF9C460DE5
:102400002A8419DD18F1DF37C47FC07B68EE95811F
:10241000115A27A2B40A1C096F753C40C3A3E2DE1F
:102420002B9CB9DB2B17BA6740B551FDE36BDE3B44
:1024300005ED4C7ABA8D37D31853E0C60BF51CC6A0
:10244000D6B8FF4157E80A83E8E927F0368C0CAE8E
:10245000466BF2B5C6959D6BC16668EF588A95F1DB
:10246000642377D00448B59F898C1F3F4C53E9AF54
:10247000612905A16C740E059E8AEEA372C058ED09
:102480005B7EC01E81F84650A4DBEA91619B781305
:102490003AEFC1E4C7EB51394D7A56711E95985CFD
:1024A00005350985D3711F7F3365CABE825DEEB2E3
:1024B000AF30592D4E57FDD6342CF2E5BB362F7870
:1024C00033003E516E1EFF5A5A41757EBEB88E16BD
:1024D000AC8345E1959FAD1A8335CAEC31DF2B49BA
:1024E000AE1C1A0D9852F80706671AB28062B0B790
:1024F0009B2BC9F6C9CE63F33191EA70A982A9E595
:102500009F0D9A0BD6D0A10C506C7F2544FDC0A125
:10251000C1E870E885E4CEAC1EC7C6BABF4552F02C
:1025200032009E685147838BAC0335D32678BB9528
:1025300015C47A6970274B316F2F74381BA063F173
:102540005BBB9B19A4FE18F957F8C2380A143C3734
:10255000220A3CB98948DA0FD0FE70EE793F69D281
:102560000D708E227FD2166E08CE910495F642EA47
:10257000C1DEA4E786E708CC5DCD5345064C518DFE
:10258000EE42285A4AEFA74B5DD666246F88436A0D
:1025900010F11048C4C4EBDEA91EB7E59DE9E4B014
:1025A000B9BFDF7B1264FFB79C5A118A422058D210
:1025B000C4CEED93327BEA457B5240E83279F9365E
:1025C0003605EA92630E310629C156F0F4B4A256DC
:1025D000335E22FEE028B44D7A3A1E0E0EE4875593
:1025E0006490AA3E2D647A945E5F948C3D3DD8D968
:1025F00018D8D61E32E4864767E07DF3E80A826D7C
:102600001C62E624FF7D872B7A2B8F5019DC16B2D3
:102610008496DD030332DE76523EE8D7C85EB2FC14
:102620001A869EC762AFDA20FBBA032D26B0DCC53E
:102630000B178AB11DF14935CDA83C3FB1FDBC65F2
:102640004E6AA7147862E3697B4815EEA070057B9B
:1026500001066294F406DF282F6E2417E08A6F2E9D
:10266000C893EDE80411BCD18F5B4F1BFCCA47AD8A
:10267000B291C90455430CD27F84AB0DAE8C9DCA78
:10268000B7500914AA769434BFFCC2CC1B28988199
:102690001766B0FEFC0CE60633AC2BAA1E4BD4B674
:1026A000133BEFE79C70145ED736E76169C79EB2B3
:1026B00015F317E7AF0CAD15EB39F2CDC8CDD1F25C
:1026C0006A810760229AFAB001CAE569D8815C8400
:1026D000B24A536816C652CFC7159663C38C3549A4
:1026E000E0C1F003642F33328495D41CAACB9D86BD
:1026F00055DC5690680C9EBA48C873FAE2F65CD96D
:10270000DF2A7B52B8F6B762020C9320FFAF129C0F
:10271000B5B352167F860608C232542CF54D4017C9
:10272000963471F859B47A9EA9E404F712297471A9
:1027300025E0CE4FE67BC9DB94CF21252055122F13
:10274000FFF3F808FDC4694DE71C5C6DE8375BE5F5
:102750004C7D7F3B38A12F342397BEBD2650AD9BC7
:10276000733A1090836135CA159F43902796C9B27A
:10277000725113661B59ADBDE92A7F44E228BB3B69
:102780003D86E3D4946E0523CB0B2EEEB7B30C4EEF
:10279000DBEC18C18A99766371F6B57EA1AF7CF542
:1027A00093DE0A089135F783694F6BCD90F3F28A77
:1027B00070C8FAB266DBC8AC0CCD15E04D03EF86ED
:1027C000B5C867DA819683DD11B8865B25BAAF4C50
:1027D000368662C6DFDF6521A8FE8F6F6125165E33
:1027E00001B5192AB87BD76C2D5441588EE1B11F21
:1027F000CBD06590C768EA56266E571AB8A5E96827
:10280000F807F4594D512B6EABA12B81192ED745EA
:1028100013645F2887802D9BD5917A048C6BA9C1A6
:102820007EE8D79B90F2160B2E55C61CB8E82B51AC
:10283000F3117E477C47AFFF8D13D06C5CEC4636BE
:102840001F1B7369F6E438D1D4DB95493CEA3A376B
:1028500024FB7603C9FE4F16D76792F6A8183DA948
:102860008FC6C863AEA4F58E5119877988E59A435F
:102870004CB09C2BA838B2A13FDA4399CA14D75860
:1028800072B6C158E31C54CED6212C523B036824A7
:102890008FB81CBCB5B4E7B611563B2C069EDC3392
:1028A0003E2FECC977F3FBC6256B8CDC14752EA587
:1028B000A5D690D3EACCB6E62821AB33CD544F88C9
:1028C0005C129E7CCEFC1EBAFC11158E73DBCA59BD
:1028D000BCC10E6DB251B2B9B7319E8D8607472F7C
:1028E0006E0CF12DBC306225A1713B0F32F9DCF585
:1028F000E8ACADFD7E323DCA02C0FEF2A4853AE3EB
:1029000032A63967761C4B0F7C2C1446E9D8400858
:1029100002CDE313948D19FDDE0B24B429620679F0
:102920000D4508DC7727188D4E89BA2AF9783517B6
:102930005C9848412C5ED7A2356B9149EAB8BA063B
:102940008BDD50D521B77A55A3DA0282E287175E74
:102950002B226A150935A7826DF10AB5E58690E646
:1029600093B31FD8FC42D36CCE5922897AB4F7F6C0
:10297000FBD4F4397DC7366727B7220985784D180F
:10298000A80632E93656EF7F6BDF8A3E79F4405A6B
:10299000F9C0D22ACBBCC15256AC8C25A20AF9414F
:1029A000E2E92CCD17EA82BF2A7C2CCCF3F65747FC
:1029B000F896265D69DA476140086261C493EF7852
:1029C00018368C86454E91A725EB2837660F174A97
:1029D00037D99926F285588BDD4D93B8C352A04064
:1029E000166B3EA508CA8514CC805DEAC784420CEC
:1029F0006254D9253B27FB2F948D904EE3B82430A9
:102A0000EFF7ADC9355D3690628FA39D390B504D00
:102A100002C8F6DF7F91AD12C3E5319ACDD506E14C
:102A200038C78C5605FBA1067E19C0AEC9C602F098
:102A3000F867C3AE85321970920AF5A3C26AD09EB8
:102A4000A19CE57A54570FD1923C303F954EF4A8A3
:102A5000521EEA0B3AA9F249E0043242DC9FF99592
:102A60000B565241C31AB2E56E11CCBB47FB713114
:102A7000F53633606FC1D8E6DA9BA19B69CA4EB2C6
:102A8000FA2D721A6F37A60C6209BC4A3FDDE8EFD7
:102A90004D47C8EBA3B0489A0204950C6589F944E8
:102AA000B111480B2890D8AC4FB80F6BC70CCC9F16
:102AB000719CAE1358A4FEBF7107F23709A35B8364
:102AC000AC6DFEEC4CA00732F6979ED4C218CC1920
:102AD0006916DAAFD31D395FF7D161A1A404E9FE0D
:102AE0006F8B5405D192739024AD276503C2ABB9A7
:102AF0001CFEC3399E2F95A32D70BDE13E4152D8D7
:102B000091EB6BE1219E97B9AC56F663E01D1F98DF
:102B10005A48EEBB850643C8211D2BF0D83369B750
:102B20003CF3258CAE1D1197B05E3837DF9D6B7C72
:102B3000E130AEBE6619118821210E4E31BFA24E82
:102B40005BD0035DC16141E329992A6A11EDB12689
:102B5000AFCFF2239079298DE19D26D2C422323C59
:102B6000BECA8DE92CF0C577D073C1A40D439DBFBB
:102B7000A07CF85CA0C1D4CA9ECE152D20F7458755
:102B8000C7F8B0E3F61C809521622897ED09CEB610
:102B90000170853715940C00400CF121A8E0B2C5F6
:102BA000DFF2773B8799217C69FCBF468A33F7F4D3
:102BB000CDCE0923C5235B711C5118507F7179A4B8
:102BC000B181B8C4EF8A5B15C61A108429F1F9DE09
:102BD000E6541D9634A25DCF7853BE82511686A06E
:102BE0003333D6B4499D300A764F329DBAF9710914
:102BF000FC0A4175AC3F6375A844B4247F7B3A62FC
:102C0000701E7458F7A30D5CE9B068BA5B1D2F7B8A
:102C10003A6DB92123D8B164014E8781BD5E859399
:102C20009AC27F30520467C7F0B6B618086883E0CE
:102C300068F478844011C6BD6BE1A459494C25D392
:102C400044564AC6E99FEB3F6A791E052FB5CF5619
:102C500088EFC4F0CCC5D98603601008E837E6EAEF
:102C60003806ABEF6BC3C3B4E8BB7B7902207B8231
:102C70005CBEE7563A1A513AA257C50A71EFBD47F2
:102C8000CED01E68EE093C6B3E3B5C8DD3670F3D9A
:102C9000C2656777A94F21938D5D3A75321106643D
:102CA000E4970EC60CD60DD06371231BE9D4E46003
:102CB00084355070FF5F6F868F208A3FAF20224B94
:102CC0007D6B5DD21C196CB6DEB87216AA0FB47A91
:102CD00030455CB746A6D5B27145E96AD7F8FAB770
:102CE000E412552E14F4D09839BC7260E147740494
:102CF0001FE5CE75C36F51BD5C0DDA869490528C82
:102D000063F68E105440E2535F8E5B643393003C55
:102D100061A0072AC805E23928CCAF751B2095CAE7
:102D2000C0EAA77E1265010FF1B879FF64C2A7BDA2
:102D30001351E71D3D7EB455B101990B2FBE985339
:102D4000F9B8249788FC274240FE3FB1B56ACF0707
:102D5000C49228BE17D814B506D1B189D7857C1A7C
:102D60000176F3FEF2F40E6C3ABB31B20B18563812
:102D700019672ECD54E4892DB2405BA28EC889B765
:102D8000FC0A60D57D3B83DA3F645FCE1CD3A33D54
:102D9000DCEF9A28BD504125979FDF0FE80A6C129F
:102DA000B17B98BBCB26B3C74E4A5D9F073CA27A46
:102DB00047FBC43B43C0167F69B020B362C0099093
:102DC000B41E91CA409AC684102F9B105B185828D5
:102DD00059F95B61D664A1DEE5E542F2FA813D3C3A
:102DE0009EF800780009D7734EBD474B36D9DFED0A
:102DF0006F706ED51706967FE3F4E6C74A8CE890AD
:102E0000C2B2E5FFF1AEAB1382FA5768B80D5CC3EE
:102E10005926E32B270705CD9901D3400EAF87A68E
:102E200041925868FE437A5EDEF45592BC4CBD7602
:102E3000E0C9805A8D86C840C19E4B8837F530F571
:102E40005672B22DD8FB46C7992A98F382D9F8FB5F
:102E50006E6E84FC63FA61B9CED6A3B79969E6CDEC
:102E6000C393959C28F762B3762BBB3E5C06B528CE
:102E7000E06CA161621BCE0B653AF474BB001B438E
:102E80002F10AF9DA91DB8DFA7C20B7D336B004289
:102E9000BA7B014B9A6C6115B92DE5CE5E6F0A5273
:102EA00073779E8635B2BF3F2E0C3334485D1911BF
:102EB000F59FB33F565235214D6DD43F3416E84D42
:102EC0007336BFC11E14F292C3EF2CEF53BF886D4F
:102ED000F4C577EE0321DBD146EEC5457B67F79A53
:102EE0001D5B17A23754F0FC1B7D1B165F5EEA9832
:102EF0008FB5195B8C4FFD1FAE33DF45227BA4C716
:102F000020D33569DE3921E9EC92221ED86DF548CF
:102F10004CED442E00BC861A06136527071ED8C741
:102F20009C9847CADAEC92E6C664A033D8C2D4446F
:102F30008342871B81AA142914A894806F58A6EE97
:102F4000018F2477886E172F1B61A8FEA25F18459A
:102F50000D6E05FFA1D861A2E551CE6929F9BFCA5E
:102F60005766CB2C0ACC37F61F7529F8C125D8FB3C
:102F70009A589D34945350A4E2D9989DACCC3EF518
:102F80003030BDEE11510E6CD9493B795523E7E83D
:102F9000F5B54CFF70283A56B08BFFCF545EA3B8FE
:102FA0006FE6340CFF026B047F90C46BDCC0AD5441
:102FB0008BFB5D8CAACD2D4BA8AEEFB0A0639F9D7F
:102FC000243A3BA29E09626855146E92DA54F2B21A
:102FD00088E57E5AC76C0B0EBA7398B36E2B62BA33
:102FE0005FFFDF2DBAC38AF50C96122E9E368E5CDB
:102FF000D203F9258993E17AE6F0927F632DC06FC1
:10300000BFE7161A14A9E60BB28A7C354AD7B69FD9
:103010008BA2ED269F7404A1C2DC834137F10D5FC2
:103020008D4F11A3D95321240D08D272EAA0D49058
:10303000481E0777EFC5B446DD91212869B1712795
:10304000E080F56E0AFE718C7C9151C22B78DD50C8
:1030500081578DBDD1089A8755ACE2C4212C5B966F
:103060000A2DDD609C77730B23DE81F6DEB66D7B67
:10307000A76C22817A20A0D4F096B414C1C667B799
:1030800093F5330F49525C14A8A5D531EB916F3AF3
:103090009E74709B267A8AAACD94BDD19901BC11E9
:1030A000DABB138AE737FC14AB175FE8438FFE17D0
:1030B000187F104F12058BA5C8F18822952305486B
:1030C00002AB87FF5DCD868D39FE11F7EFEE648090
:1030D000702AA129DA730043515ECEDEE14880F503
:1030E0005DBDB8E882A2A1345749DD17DBD3B162D8
:1030F000E2D35AEE1AB155FB31F899480B11AEBA2A
:103100003CB535109D311306DC4F3A5386E5A823B4
:10311000BBD4995FE2513A5136851D6DC0DADB842C
:1031200079284727116C0DE94A2543C82D970CAE25
:10313000B89688C5755DAD3DFAE29F7D9C2999CA18
:1031400086E2E099F5C8D4219C0E930BD9CC9C4122
:1031500044EEA767C705F8BF77BCCE1133244C5F98
:103160008DEC9A0AECC244C4E45850848D76577AA8
:10317000F84740F928A28F7FAFF65AA439C38B8D48
:103180004F8E3B6B8FF8FAF9AFAC3BC63FE65A0C5B
:10319000AAEA9EAF68400E6FC84DE16811E56EAABD
:1031A000B745065DC5C63D0F0282802CF3B5CB8CBA
:1031B0009536BD2D9C694F0A5CAE7ED592E31F6BA0
:1031C0004269B0B5B4EFC0E7C36B4A326C0A56AB84
:1031D00053879819080F556D56A005477CD2B770D4
:1031E0001B975482D092B6EE0B735349F151B3FC46
:1031F000AC0E74442A3564AA98959DD9134256653D
:10320000D192EA87C81B6A3AE6ED8A58E84957988E
:1032100007AA8425577EB8374BE0A18633CA0E90A3
:103220002FDFA8509AA135291D7F8E5448AC1CB7BA
:1032300008F265FE87EEAF8A71D2FCD367BC135AE1
:103240005FCB7B1BD89A778E08223B3D2B85266B64
:10325000BCF21F2C8E2A4282F66BA586BB3136E368
:1032600096416BED78F0903E76B00B5CFB359D3A65
:10327000B8B7F6659D4D1811E2E9942283D9515DE6
:10328000F0AAB6A916ADECFED4F341659CB3C89480
:1032900052F4C02A2C93472CF8A1EEBFDFE32C2375
:1032A0008C138BC5B0DAA83511B1EB640776B8483A
:1032B00082D4F94C7A2D891271B50AD6EACB685DB1
:1032C000E9D0A721CC967AA1DDFB6C7291A2A50270
:1032D000E370F156108AD3F9D63EE1EDC56D18E7DB
:1032E000828A36131FD716145352E49338204F3274
:1032F0006D42148043D52BCC5FCEE2BCD2F846A6FB
:10330000BD01C81B5790AEEC73D554DE3514DFA752
:10331000C9A11224E0007968F6B029EE253CD7490E
:103320002420530DC76906ECF2762808E87C7AE67B
:10333000254820006150EEB9974A88E67EB3945C38
:103340001097F4010B6DB132504FC86A03079D44CA
:1033500089B1DEE2CD56BE81D10C717030B42C380B
:103360002A8D98C3E3EB5409EB03E928E58041C0BB
:103370004BEB4726A11841824A849F946BE7F1DE0C
:10338000FFC53E123D9228B7FECB6607354495BB7C
:10339000437B70853A7E79C7710D8148356E59F44B
:1033A000AC5FD4CE1405A0C3ADD6E097B52AD59EA8
:1033B0001B6D624F2C00578017534EDFB6D413A5F8
:1033C000C98D09FB21A37FB8E939E10D09FC276804
:1033D000ABF1442D0BA16CFBA988CCF4CCA4269BAB
:1033E0005C64250C6E2029874B8F86D2CB1544A9AF
:1033F000B6DCFE97A2684567FBE7E0DA726742D960
:10340000E574CEA2CA8656BE2C2B6F91DC240881AF
:10341000901501704B2F83B9E27CCCCFF56320620D
:103420006638FCB1548BE534CFAD50D8C86D2C094B
:103430009A23F013CFAD3B43C75AD9646320DAC354
:10344000AAF2EC932E82BFBCAF9C017B9CAD8A9C00
:1034500029E46F808147B8D4B01A4CEA75BD7B6E01
:1034600041E6E027C1AE1DE514880DDBB35CA9D0B1
:10347000C19D09669783F2A3A21AEFA492ACA9BCDE
:103480005A1F08A7991E15A0DA0C582DF138E1BF74
:103490008BF20581CFDDBBC032A8A2B9CA6709F99A
:1034A00042C2F3DB8F738850219372417EB0347532
:1034B000A6A1380E3366CA0F6A9B27C64874725796
:1034C00039B62BB28ED8D483BACF294027ED420823
:1034D000ECECA04D25EFA415A52CCD2027440C1213
:1034E00079BB9B506A1934A47BC47508E41DAB0FEB
:1034F000A5E97825656860721D2529564F04B9C96C
:103500002C1A2CA4C22F12C269DAC6F46410F9A7CF
:103510002EAF5A99264809C8B0629B88D0C7065B6F
:10352000632A6D5E468E80FD080A54CC9F2DC48EA2
:10353000B5E6D96E3B949B308B9CFD1D04BCC7C97E
:10354000A4E0B848AC4818D19641B90B48F417A389
:10355000724A376D4D1C7CFB0952CEBE013DFB7C8F
:10356000E9F1723015536D3D465C56ECCF896B63C3
:1035700099A4A2F8543965B9C90B6B093EA5037F1C
:1035800035D38110AE22A1E15E155273D1C2F10292
:103590008AE91B714B8CA70EA42F3C48DC5D8B87FE
:1035A000EB0E3CFFCE092476C67E652AF52C4F171C
:1035B000F6939620E17F0135A95DC8366937C3B916
:1035C000B8E277175398011A645A68C24800EA1C97
:1035D0000621A654E2DFD656433F2EDE8474B01394
:1035E0007923257F8A4D447742186754B960E620D5
:1035F00012DB6AB26B3176C63F7F0E71E7740F063D
:10360000597B35CC5E0A71174C3ECC2E385FFF30AB
:1036100040972C13E85746053B1B31EF9295584FC6
:103620009913EAB8456F39B2FF7EFB0C517D17C77D
:10363000F75ADAD8F05448ABCD7B821501170853FE
:103640003B19DB0D2D01DBF3152792B37BA8475AFD
:10365000EF709699DF855AE93A67F516361E7221A2
:1036600092FC9E0B87D0DFDE1171CEADDAA08148CF
:10367000A5742D5C1C924A7634325AACC3B65BE416
:103680001C90F0765EFBB8C0046EF21F29EBA6809A
:103690000463099C781C389CE21C1372908635DB0D
:1036A000272221E99437326F2C82BECB63D164206C
:1036B000943CE3191D3A9AC098F79AED3FB8094E29
:1036C00026BCF79012846B25722A1A5001173428F1
:1036D000ADBF682FB55EF1E129BDD1BFD2DC6BD89B
:1036E000B7E39E0ED44D494D4499DD0EE257E73DB8
:1036F0006E4FC72D9446732D0C6C14C1F5550442C2
:10370000BA70C8E878FA1A41605C409E9E16B4D33D
:10371000A7A5D9044E913A315292FB16AC0C100574
:1037200030D0506F01C2C3E330AB9D1DBF1B08B941
:10373000249AE03E4BFEDBD2C7B51B3F6B658DF490
:1037400053C4B12D7F734ED7796F357CF9A8C7BBB1
:103750001BEF274F9BA3FD180BCF5AF3DF9DFD2BCB
:103760006CD2778F4B312D1B3CE820E0035D588EE7
:103770009890B4BFBF1966ADEE0DA69F90B4A0CDD2
:10378000BF423AF3DBB2F3333FEB1F5DD1ED009E56
:103790009D786EA27178ACDD9787273326A488A622
:1037A0005BB6E824915685B4837C0A6725C69A22C5
:1037B00076D6B79A958E8D7BB7AF7853178B4FFB24
:1037C0000579FC1447FD84B8D79E5ED272244E0D55
:1037D00064ADCFB45BCE0D9FFEFEF366476C6ABA54
:1037E0007C245D6EA35A79CEFB847B51AA53685129
:1037F000459E44E590F5EFA3D812CC06D42955A8F0
:103800009D725770CC246E2943A2E11DC4B1D1DD55
:10381000B67A4FBA8EB8CFABD675B68BD5D9936979
:103820007F5449D0C8072025193880B80BD57E7938
:1038300001112C3E65A3F379D6261758D38B2ACADB
:1038400027E2ED86CF74D757AD6DDB1138D6C401B2
:10385000EDF8F5A3684448A9F6AC6AB5DE2A0D0870
:10386000160D55C0B02BF3F50C00F4907903D0D5AC
:10387000629CFDE7ECDF09432776DA1CF578087CCB
:103880004A1A2E4FA34D690EB3EDE7EEBFE30711C1
:1038900000F2D0A42032738E3A171F1C28BF773352
:1038A0000139C549EC73C2620C5F89418277AC0D66
:1038B000EB4E064C3F2703174259450E14C14B5996
:1038C0003AA8DCEC610655203CBBDE0F6112343AAD
:1038D0003F0F11D1C0D5B8A9478381926440722BA4
:1038E00029AFF61047BB1E06A5CC05841FF3B8C14F
:1038F000696F0766A8C9EA94CA74206F6F6E77145F
:103900009CD8CF966C91E74111CA0FD6693B2333FF
:10391000BBA01B7309685B18E0908CF868F4470F34
:10392000A501EC72D11D30D1D482789D2157E0ECF5
:10393000082EBD921C8A57AF788B9A2D0C9A2AA418
:1039400018DA69F9D6824316DAE19D8AC7B6448946
:1039500038C42F2528DF1F718287370E35407980C4
:10396000B7393856D9AB70E331A34D01C489104A39
:103970009B48E2DEE9367F31F20AA5C67CD30974A2
:1039800092085FF04427200210DBD9E2AA5AE984AA
:1039900094E3F5C3FE626981F8E200EEE205698C0A
:1039A000AA1C7D79687C207FE481D1C720A4FC1506
:1039B0008A4C2F4EFB82F52C9BD6199E5284B59CC7
:1039C000CD44E6BBB8EDA9AC9FF24CC13962C9BB8E
:1039D0001F3038A0466E8F0DAA43D2327522DE4BBF
:1039E000ADA0E948B0B6F6C341B0FCED4C7288FA20
:1039F000B7FCF904657C9054906A0BB7CD9E8DEEB0
:103A00009DD1AA16F6A6F1C1A80F1D89ACB63084C7
:103A1000A8D3FD01B3B46728E8D28FF0F6E6E560DD
:103A200019E1C124F96E4E3F01A33CF8AAF090FEC3
:103A30008446D89158218A3D6BD72847BC54E50F5E
:103A400027239A3BF9D5B9B24592C8B87E276E6B49
:103A500072EF184F9F9C9A2314EFD1B29BB3762537
:103A6000EC6FDEC97862EDD9382B9A228F58AFAD52
:103A7000B8A8659EA9654E1FED9B7265016DD2BC0D
:103A80001F4F8AC52688389D892826FBCB76ECE611
:103A9000A2AF8098B15916067E2CA264C72F92104F
:103AA0008765A6E9F541FED6001F92ACBF8470235E
:103AB000D16EA54C532BFA11A50D1F2D5E091B3A93
:103AC00099AD1EA2D0572AC1C236A1EA57051E8D54
:103AD000F35DC70EEA0F122264E9483A49AC1C2A8A
:103AE000528178969BA6DF223E07C71683CA2B41D8
:103AF000C005316BBD8F32B206D37D0D18574DAA6C
:103B0000860A62AB3A060CB1553C6AE859687461A2
:103B100077ACE99B115D70991DCA1BCF639428D2C5
:103B2000E34FC8C7AD709E83D431605F5C542D27CE
:103B300080952A2536C5FC41FA4A5386F840AF8D58
:103B4000DABB52AA3C66ADAA7FF06AAB54CADA0768
:103B5000E5B1F0E4D3625997DC576B1B22A609C18B
:103B6000EB6334632303A83E9E6A830B8B48126584
:103B70009209EFD82BD3249E4C9434CB6FB7FA73B1
:103B80002C8F859F3F0044451285153330CE82C669
:103B9000DC47CDF99C8563189B18DF6A0974BE0465
:103BA0008BC501D32A672B5E8E233577C346688485
:103BB000468D68092C89C8FEB056B7654AA4C62050
:103BC000900F619BAC65355A1C2C8687438E7EC94D
:103BD000CC5F8827F8B8FC5EA7E23646F722F8D714
:103BE000112FB0FB228E07E6515FA1A55C4B9F49C8
:103BF00081621500846D9C92145956417FEE35E91F
:103C0000CB23F5DE6A09244E68254ABBBD4911E283
:103C100085CD9CF73B4955959BF29C0A960F5C69B4
:103C20007C4F0B49314849AB28A92E54BBC81455C9
:103C30004F283BF377FA55132B814ED8FBF85149A7
:103C4000C7B1994CFB93ED42A789758CD09E6ADD74
:103C5000B79C27F1E7533F1A96CBEF4AC1C601D074
:103C60004F940B290D302ED5B25B01F6B60AC2F186
:103C700064BD576EE906B07FA8CC6E3584F0ED596F
:103C800020A826C836339FE1184ADAA494138FBAC5
:103C9000F437ED89CC2B5C862FE999402BCC85B08D
:103CA000D85B12CD0593B8037E652F12F739FFC993
:103CB000F1A3AD834987EC626E98390C377D8AD0C9
:103CC0006828D5816383AB3D1AD6296BF766EB650F
:103CD0002316E30EF3C107BF756A41C47E8FE2600D
:103CE000B6E0105902B65FC92B3BFEE6FDA02C6C76
:103CF000C75BE622660809CCBC050ED37F9D4FC882
:103D00006699C13A54D27E935BAE86CE0FDC636770
:103D10005A5C866D96DC0379C62E795B9297089C77
:103D20008BEBB6C9805BB59288CE7DAD7579C90F36
:103D3000DF4783786589C8C48532EB40EB67D0AC38
:103D400029C980797074083BC6339EADCAB663AA90
:103D5000CBE1FBF25F21B30621F48D826AE7397C67
:103D600041A16CF458CAB0406B0390246D87D3C452
:103D70000546C050EB8B62D4A328AC9F7E3214BEA4
:103D80005DB2CF007703BFB041C4A841C2C0EC40D0
:103D90005C0BDA51A801382930F9BA9A521E00306A
:103DA000837CA2C2DA73D211C0C4C3CDF99DDFE710
:103DB000D4DDE89B749E58C66FBCB1A4C045D574D1
:103DC0000A5F3C9983AA151CB43C90AEE2FA46BB4C
:103DD0003B210B745AF4E2887E242A245FD8112EEA
:103DE0006E82794CE2D6AFC3D4374BBF7097F9D50A
:103DF0004D2C2B7CD178D79D73BE3333A1D613D9EC
:103E0000CE5A8E96674726CA6523C4B173F70D9DB7
:103E1000175F26D23D4B9EFC8C0202316D0480550B
:103E2000917AD29A233120D26FC9878264A228570F
:103E300089C9CCD49DC10D2BECED57E9D07596D333
:103E40006158B8F2BEC95F8E33A797346A27646C95
:103E5000DA89155846C1F63ABF83E3A6E3A561D8CF
:103E600023EAB5F42843794F41BE3FB30E56AFF570
:103E7000527A9C945F330020AE0508A7E86EF4697F
:103E8000C7966BF07B57196A29BDBBDFD8391A205A
:103E90001A223727B566452E4129E8B998EB724FAB
:103EA00053F8287392A21CA1D8D15C79D3DB1A7184
:103EB000AC74D6D8F1A09D7A4C7FB5D75AD3081CE4
:103EC0003D935C2AE2B77069DC62943990EFE67149
:103ED000D37FDBA75856F689A4EE8F95E83880C8C3
:103EE0008EA938232C1E3E18A6F0E1AE0AF4DFA8F6
:103EF0009FF7A7CCC790DD15C72D67953B5FB571C0
:103F0000042F45252A5ABA232467570DCBD8B7D397
:103F10006E5C274C7C51A8843380FABC6057B8C3D0
:103F20002D9D8D9627B55C77F11FD4C6A1D366B4BD
:103F300054D30B1D45B6D3668547B0AB7AE3293C15
:103F4000253605B593D7D52C2975376B1751FC0548
:103F5000CE4D3B21F49D7F4506BCF694EF56033BC6
:103F6000F663EE71CE1AB3890B97D7040BA507360B
:103F7000546746EE2EA6070FC601715031C01E725F
:103F800036386861FC82B3BE8D45437C9A1765ACB8
:103F90009941BEBDCEB3070606D761C6FDFB028BB5
:103FA000AFFFC96F104B69994ADBDB27A8594073F3
:103FB000E819914B9B95E55838E1EB435DBAB08E1B
:103FC0000CE50A5B6D5D3FC7468E738965BEE51CD7
:103FD00079D599E03AA8F58788CA66ED8B5FFA989B
:103FE00042509CFE9DCC0EF8CDBBE51EF839B35E69
:103FF00051510952459F9279C461C1B68877EC4806
:104000001DECFC35C4F6FDDAC2B2251C5F6789F8E9
:104010000670063E75FF8136E1F231EF29BC2A4871
:10402000568C304316C5BB2590580CBD603FAE344E
:104030006B8FE89450743A5311BF47FBCFED861E47
:104040004DA3893238957B2D3D706888862E9E530E
:10405000DF2989A07CE46FD5944B1A0D4254BE2809
:104060003B0D57916D71BFB0ACB8C2F627C28AFD47
:1040700009B31188507B3B36B96D85CC50BCBD135C
:1040800039D8A1B729ED324A6DF91E0BAB603CD788
:10409000EE0E64271B0C6F0270E91B5E79CB2C853A
:1040A000A22D49D6082BDB123B2574B2ACFC7687D7
:1040B000EF6DFDC93877E3520B610C5F3E37A40CFE
:1040C0009409E35EB434925E883E3AC88C729E9343
:1040D0003CDFFF198A0C0864D07ECE25C30F9B18E5
:1040E000E4AAD357D1EBAC6B4A4F7ACC32CEBF6146
:1040F0001CADAD5C36CCF5ABF00433AFEC60B50A6B
:104100009B118DCFCACF04F8DC0008C78F543CE365
:1041100009096DA5D6B1EFACE0EBAB32E4A247AB39
:1041200024C9E13D96792022C33B19DBA900D023A5
:10413000BEDC12162CF041B5FB4EE9A9CB621FC3C1
:1041400052E2E7FB9AF2EB68660E1801FE71247BDF
:1041500006D061B0D2A37A94BB4837D344B7F7B541
:10416000E971D7EB1A63A474C225E1C3959190ED70
:104170000B5E2783ECEAE744BCF47580197C0BBA2C
:10418000745A3C2EE5EE8775D985449C0044B9529B
:10419000723A4EED7777837E6BB793FDD9C240E5D7
:1041A000C23313A898DC9B10E54B70B39DC75196A2
:1041B0005A9239128D3958A756E872B906C1F6A33A
:1041C000E2F20F2F4A076DDB4F7A6FB0A8025275EB
:1041D000B5F18FC51815A2E7759CA812FFB7144258
:1041E0009B380440E83E08FE4F79C4C770F533AAF7
:1041F000ECF82F6449649296965D6ABAF1E8E7CFCD
:10420000FD9C6B83686404D77B29B42BE5AC943E9A
:104210008895738274078AA1870472BD57DD63C5D0
:104220004D2EC6F21076AEC1330B1ABB5D13FB5C8C
:104230002E4387F30F17E0B794801407C430EBD8F0
:104240009431916C0D592334452DFAC9B8F8E2B474
:10425000778D9E4AFE10584E9393378EE4BE02EB44
:10426000DCD9F0F9AA08FA2EF67B5F6F1F6EC97DC4
:104270001103F7203F05F0067C28E26DC6EB1F6FA7
:104280003F3D3AC217F27D1555F124D779FD32A290
:10429000DC84E4708F3C4B27ADB19BC8732D916ECD
:1042A00090504179528F469FA9FE6A0C7F1660E6B6
:1042B0007451153F7D4BAF7E2E3B5BEDF9DD15B0A4
:1042C0005EEFFA644688BAC2D629B8325D8B150C07
:1042D0009A2DE1C4AE7F41CB2822FA7F1821F2F457
:1042E00080835C65576EB631F930489D889073B80D
:1042F000C2C1303159207B5365B78F0666B381E662
:1043000001212F1B83182A9BE71AD69784AA6024C1
:104310008938E05BF9919474B64E395789C23EF3FF
:104320003FC492880BBABA8EA2EB8765BCC5C3198D
:1043300018565D1ED8A5A2496CB6C7AA351B69944C
:10434000ED17A988EE7D9074370C13C65AFB08C48C
:10435000E67B22945E2A7FC4BC91ECFC5B038B75E8
:104360003F26904EDF1889DFC61A49C3D0468682A1
:10437000F7E35417265ED8880CE2BFE88A0F9FE265
:10438000D354BE0A35D727F4ADA3308BC279C5AA62
:10439000F6A236D3C20DBEDCDE22B092ADC500045B
:1043A0000DD302A41D4C3C64E669206E503BC0074F
:1043B0005959C4D9A2DFEC14B29FB6DCF84AB26FE7
:1043C000B4579F3653853B2AC4E93139FA4E65E329
:1043D000DB875985A1388D04EBFC43FE997933D0F6
:1043E00082A01B15A77CE9A40EBBE5F088A05202B1
:1043F000675A7A91ABBC59A30FF68EA86E45F2149A
:104400008E1D791DCDFEBE174DF74807AB3B21AA87
:10441000DE29B9F567287470109F23633205C796AB
:1044200044B39CC6BDAFB3656EF16B50C70D094F69
:10443000F61D5317B5CAC9FF277DB3CBD4BCA8CF8F
:10444000EE14D251739B595A37CB470978729B2887
:1044500054438CDA5D11B4347B552958C40267FA91
:10446000937A420AF747555421C5EED9A35A446EB0
:10447000D28AC46A2EEE900424A8417EC76B46D32C
:10448000CB4D4EC091C1944A49E72C81707A8F95EB
:10449000FF4FE9326E39B4A49DEC7BA87350433EC4
:1044A00098131D45FFCBA22FD2D84FF7EB03FCEAA0
:1044B00006A90B6F0857738F0C5861579A444C62CA
:1044C0003D33BBFB6CF39385044DA0A23C3F7E695A
:1044D000E6F91DDCA3A798700FA2A03797DF5C97C1
:1044E00097DEAC250FECBF40B4979E82C4DAE4524D
:1044F00061267B97A3F174819412C0F3D15E23529D
:10450000E39031ED3BB1FD38CC5BA4A03979ABEA47
:104510009DCCD72AC609B9D716367AC7E6C5D91DA4
:10452000E4EF59C22093FC9510E40F00F31EAF5E38
:104530003CD41F28155098E2A8CB9B7F9024FE48BE
:10454000D636A4256AA55AAF0ED6BFE839A65B3980
:10455000C0E245F2536B18812A7B988EE632D181F6
:10456000B36303B372CDE33AD59601FE845C7AF966
:10457000A9EFF49195E0CDD861A9433339B253EA5C
:104580008C7954F5B2D4E0169D830A9CD1F0FA825E
:104590000F762FCCE927A2AED2437B3003227AA339
:1045A000B07A44E59FFCD6CCC32D5FDAA6B6A70E41
:1045B0007AE7D324E1545E4AF8B46FF791D0D21F62
:1045C000A04B1FC1F7D31095776227A007E113F81E
:1045D00064EA4A326AFFD81C6359779B76180AE965
:1045E000EA0599774601F3AC0E4F1997DFEC778017
:1045F000285E3758A591221C8D6980068836B448FC
:10460000163204061492C080881C70C33A620701F7
:10461000AE891505192E279386C79DC7F7AD521F82
:104620004216A4F0ED16B9CAAC210C5C19DCDF719E
:10463000D176ABD0A719EDC56C2E0BD8457E1503EE
:10464000496654E0CB1670021F28C4A4888350C169
:10465000FD936CE1C7A1387F251975F462555A7432
:104660009E4F4A35EC493C88A6AA658CFFF9A921E2
:10467000EC829ACE2BC17972D711183F0F31DA8FA5
:10468000BCA60C03EBF67810E9FC52C23DFA8D3E55
:10469000979D97129AA2BACEC95791B0F9A6F8F190
:1046A000BD0CC76BFCD95FC91E144650288E240868
:1046B000494C8DCA1D9BE4D5C354AAE0671A1ECA93
:1046C000AF4FD0AF675A0E377551BF67405FEBEB06
:1046D0004F69C87EBE5DC0FCDED613CA2738390DCF
:1046E000D971C5C072023535E70D0D55A5A25E978B
:1046F000883780B6FD74F5D97174309E6203B1D3EA
:1047000031B78BB5B6E6FE169BACA1DE5F626842A0
:10471000EAD950FE8F2E18DEF2E3D71F15599DBB44
:10472000373BB86DF08F302B0A142364AAE970F57B
:104730005DAA46E7FF68F9127C4B37262E7155308B
:1047400087A896E80A55F6418808B55F728F7F5CA6
:10475000A2C9242EE222253F07DCA37C14089AEF8D
:10476000E2CC65F9AF9C75B61F535196CC6A437382
:104770000D3767E6D00D614787F769402A4F1DFA6C
:10478000536C98EBAB82468414F787C9F44E143F00
:10479000ED809046D568CFE5596E75ABC430826028
:1047A0002DF73AF680963AC5FBC31403FDE710FED9
:1047B0003342D1AD4E369C0013355B346ABC93C690
:1047C0005D97CD37C3FD805AE3E1C6C52EBFBC7BE4
:1047D000FE436877B90E45F1AAF84A1418D56BD292
:1047E000B2C7A97FFE909D317874D1A7D108F0CCD3
:1047F000D96A20AD144B907CB9F9E9E90669684D96
:1048000031A41A6F59F0840278B64B5847EC5DCD4D
:104810002F5115E6818F4F515C24BEC655464C1C66
:104820004B06A5DBC91555E78D6D34848A97EB12CD
:104830005C60AE23453913351DDCC763B4503A675D
:1048400030C447F7DE7389EF4990B831AA2EA4022D
:10485000DC8600AAD11493C94BA824BCCA271D32F8
:10486000A8028D7A67BF69D1DBEEC7912D8A7E11D0
:10487000BC0B9E0932C42476773C4C0FF09441BAAD
:10488000D67957CF67C145FCCFC9951F0C291DE9C3
:104890009F81984311CCCEE571B1DE79C9E5948F43
:1048A0000D92BD0A937B976ABC729391CBB1A78B93
:1048B00017DB2946FD95923581A1A29AFFE2C52614
:1048C0009F3A2A46429AD0B631E2E6F88DC860F1A6
:1048D000893FD18C12CA074A331F89454C12B3163F
:1048E000235ED97CC5F024C60D660E9004AFD54A70
:1048F000D3224E817E92B1ECB3036A7D2204B627A7
:10490000793DA52F1F0BD7A5AA22FB898ABBF9D910
:10491000D77CA331797ACEE52AE1CFA18ACF1AC01C
:10492000F50F264BF54EE2EC8186989C91E6E8382F
:10493000D463952CFE396B4AA595BABD4D85809CF4
:1049400048EEA3B2405B755A94CC9D0807C787B662
:104950007077AD80533577993B326E7EDD8DB5A98A
:104960006FB9C4BDDEF494C83EB219EB6B81452724
:10497000BCB8145F3ACFE81483A45F3C7DC6AA3963
:10498000E9D270CEBE2EAC01A06F502F99D3C00ECD
:10499000F35D06A9B8C03CDA66A102661C3C468BF2
:1049A0008F4EC96CB4864B2B0515205C76941CB9D0
:1049B00095FA9A60E30B88EA7A0356DEF615C34748
:1049C0005BFCE1338BD78C7F9312491C396D5FB34D
:1049D0004DBC1538BF1E25439C39A7B2D8C4B9C7F2
:1049E000A5D32D8252C204F0A3488E1B2D1B72F555
:1049F000DF3D02CAB9F3199AF19ED52A3326FAEAA5
:104A000043DD721CE62A268477AE3A32BA1330E9C7
:104A10003C5268A4C6FA1B9336C8EB0B86ECFA0B23
:104A200088167EB874CA4CBA5FDC362F92241BB04D
:104A3000763179A9484E0083CD925B59FA708D2565
:104A40005086959DA01F8B1B72CA7C2325D83832B7
:104A5000D5D524F876EAF96E4D4807ED4C0EDC13F7
:104A6000CE957EE2E7C1C17DF1C2E64C312CF5C3A3
:104A700081DB63E4BBA0D6B9C50DDA723CEDDA9AEE
:104A8000AE433175E093F5279B538E3AFC157618AB
:104A9000D031DDA468D2758BB499907A75AFEE549D
:104AA00044232AC7E194AD21D2845877E36393610C
:104AB000E129408D3B53DA39563E778A201080A594
:104AC0000CEDF44803FCCAD61B68DBF290B3948E5D
:104AD0008E536E612680987BBEB56B6119695584D3
:104AE00084E7F0232104447C07F89E4D3EC1AB5B74
:104AF0002AF23779158B88ABD5F00C735AADDB846D
:104B000088B458E6C4E0E5295B31F05D2DE0C3A12F
:104B1000A7048756C34EC4B16D6507A46F81B40C5A
:104B200060C0782288C79D3EA72985D04738A18CD0
:104B30005C3F028E8B1C13DC01244AD2D5B561CABE
:104B40007197D3B3E5C9CF1C74B08359A9DA4F5319
:104B50006BB38A8CE02D759F872023F4267A6D3302
:104B6000D482EEA7FE0A0974B03BCD652CCE8CD55D
:104B70005F2A44D1EEC1F7C24A1D0D200E34818652
:104B8000A5022C11430599B5AFB6B316CA2AABBF1F
:104B9000C9DCB99B8DF29F1A3C5F3708EE2E1DF5DC
:104BA000A41699532B069C5C3DF45344A99600F53A
:104BB00081F4B600FB57DAF019722BE4E3D9E2E98D
:104BC000D33032B6EE749768F386EA76E4626B7A95
:104BD000BF7AF296463BE8ACF505EDD654CE7E6D35
:104BE00077AC5FD0DD2045445A03D070EDFBD78110
:104BF0000CC1A8D6922F2171D3972A6F45D091115D
:104C000077361890AB2CAEB82996D7EEC298F68AB4
:104C1000B6D20EE89149C6F0AA5AF31C20DE40C66F
:104C200073B76384E427F01A67992A1339338D7CAC
:104C3000C504DC6ADECA3D23C6767E7BF1308A6419
:104C4000871EC75EB950AA4AB33777B7A1229E9292
:104C5000C3B5731C06080C1EC6C87E07BA603E9119
:104C60000D0263BE71DEFE3EB7592F7AB22B489714
:104C7000D5702D6107C642231BA7812CA48058BB89
:104C800039218AE5190A30B23DF891F20F3DF3FB64
:104C900030AE701F8DEECDF2486FE9A855EF9677D4
:104CA0009516AA4216BEF76DB9A40FBDEF1D355774
:104CB0000E2A53CE767999307C6F91554CD8D88195
:104CC00025FA338CF63B8E314915FA22EE0C92769A
:104CD000D5564B72EAD07B89B6AD9AAA034FDC9BBE
:104CE000D7F530A50EC4B9109485FB11D761D365F3
:104CF00054139004D182DF5776C6435F15D1D17229
:104D00000BA35477287A5A644A673B10AF8E36B9A2
:104D1000F3FB06988ADE4BBBEDF0621260333A4C2F
:104D2000698BC90CE357AD12F3368C13F1BB4F58A6
:104D30001012F4A3C803DF365D8AC339624616D465
:104D40004544ACAEC43B098535A9AF924389386B65
:104D5000FFBACC852AEFD444AE22905D4547666BFE
:104D600039780D1EA9612E80E71DFE722CC4557581
:104D70002421358CBA40F7DCF73D76C1791DDBC1C3
:104D80003573279B870DAF1A9C4802C62B09E89DF7
:104D900078CDAE35C9610A36A299100DE9479D6DEF
:104DA0007026DBA068E4ED14A3CAABDBC2C7A30680
:104DB000E548663778CC011E552EA36A335B8A79A5
:104DC0004E9133455BB3F615FCBDD01A1D757EDEE2
:104DD0000E8DF94CF2AF481638D2BE2596AA1A4D60
:104DE000A39F31F246D35F6E08D34124A56D9F5631
:104DF0004379E9355A4B5A68B626135BF41B7DE1BB
:104E0000F1118C7790EDCA582431E17D53CA415A93
:104E1000899D5D1B7EDE8169A4368EAD882E0B9048
:104E20007EBF60A070D597B350484FA0C5B60DB3F4
:104E3000C047F755F88AF9731C45EFE93CD6F707E8
:104E400005A1261C8AC195D69663455C50392F6B07
:104E5000CA21A2089855304AB1019AC9A550E779EC
:104E600020FA48D277C264C97777B3E267D9BA1318
:104E70007948E5A3993FE7907D9F63F3E6161F2BE2
:104E8000B7D3905E72A4BF5EA13CE9803024C520F8
:104E900060B397DA50F16DBB3CEEDF71AE75040480
:104EA000E84F53ACD6822356794C19B150D3700ACF
:104EB0002ADAD99DF6C50232008A3818A0A39E626C
:104EC00098A88131ADE5F9E530CEA4FABE349FC68D
:104ED000A22539D1DA555CF2A16CFFCC155DAE1775
:104EE000B6F5A03C93E9CE8892E57B9AA16CEB766F
:104EF000D09D0B1BE9669415B459D9C7FB9F3D01A2
:104F000049464F4D630F36EAE0F25C2EE48B6D327A
:104F1000457495581E9686901687F1CA95632E891A
:104F20008170E0BF00084776DCC4629D085B4BC51A
:104F3000D48433D249D261071E93CBC7454EB608FD
:104F4000C0B2A1BAC9FF28B676BDC5409AC117350F
:104F5000A5E96AA911F1B16E023FACE5C2755DDF4A
:104F600041D36FFDA80BB3031429AB5900A62BCC7A
:104F700001839D9F764EAF0C50C8F752AA1A52FC7F
:104F8000FCDE3D560DBDB6B9483C0F7D49BF8413CC
:104F9000CA259A07BC09F21793C6A5BA88E6632CFE
:104FA0005D78451C328E43516A4C9D6A1D9A0607F6
:104FB000983F44DB80CD671A4F97E38C5C6F9CA7CA
:104FC00090FD8851EEA16A27BFA819FC1050B8F3D4
:104FD00014951F14A0A4E9A3714DEA69CDFBFD64EB
:104FE000669729607C63B9F102E54742DB822E13A4
:104FF000CB4F3CEEC208F9C7CB8D9B9B1EAC5057E4
:10500000CD112D53A9DB7B4D956624084F04053542
:1050100094AF4697E8D60EF24A0D043F136D4BCE7F
:10502000DC48CD5062200B579DE880E2F90597E9F6
:105030000EAB6010FCAB4C2D55EB26A3CAA435CFAC
:10504000CB621BB2906999AB646EF65FA5DB4A8AAE
:105050009429D686CC94F83F7113A4098BA90AE74A
:1050600031AB1491606866B65C2A6910D81A8D9CC1
:1050700033310C422E5F1518B6366E882872CAEE90
:10508000E546BDB4E2C7DDF0BE90BA17FF28063A88
:10509000FC815C5CE620A05B7B4F40306B345AA8FF
:1050A000306AA01FEF05A94BA70A1D2438CD18D3DD
:1050B0008167A8DBCCE789EDFF8EC938449D88EE77
:1050C00033B553F9F09CBF4D15F41894A2553AD35B
:1050D00013CED54D939FA364F7330E6B580BFCADE5
:1050E000EFCF170D83519D4F7809D2BC6F0ABEAB2D
:1050F00023630CC01B560763E9184DC993BC3DF8E8
:10510000647F86CCAFECAF9D44AE6813697061EBF1
:105110003976DA09E11F265FEFB84DDD2B45BDCDAD
:10512000C370C3CC47E8354406FD2F1C36FF7FFF14
:10513000B0881897909F96549782D0CA8050DB0A07
:1051400006CAA3603A87119866369212FBEC385B68
:105150007B087A254B179D6D732164385D07FF2B03
:10516000E42B640D50E27B8D9BD3663ACAA430C712
:105170008D8F838E8868AFCD426A81D90FEFA49E50
:10518000F73A7C49167796C2801E7A6C4E447CB200
:10519000F94147CC3A80AE495B3524995F59986212
:1051A0002538479C9614B8941344798BA74D5179B0
:1051B00030F6117F5D4A99AD4855C651B8A1528469
:1051C000C01F85E1A657ABAD4EB6347CE6058B6EAD
:1051D000FC70B09559FF6E6794720F454DE28826BA
:1051E000C4FB0B0EC72D28F93D068BDB15EDC28DD8
:1051F000ABA92515026ADC2F1F80189CA0EB2AB0F2
:10520000832C2EABEA42D7C09E9F4581769FD62A3B
:1052100012AADC61A25517EF30FCA61B7B40BFCB66
:1052200010CA58113D979D633F66A037D1F3E174D2
:105230008A738811314EF01A945B1E711AB9C3BE7D
:10524000C54B7D68ADEC59BE0FD58968DFA639DB4B
:1052500050351BF51087A48A489AF63AB79A9E07EC
:10526000434B7CCC3203EB4B99808484FBCC2F42A4
:10527000D63DF628D964A47B87404D2E4122BE2F0F
:10528000CE64E0B8BBC7F7FF8B0C63BA40B6448C62
:105290004B078496D3B54397C218E2351839A0B7A7
:1052A000FDB1D1E172E458056BFFE69FEC9C36BD81
:1052B0008DC586FE0CEE540BC4F28420BA8EFF9688
:1052C0008FF891A21C378DBA0000F815AFE8A1DE67
:1052D00058F85781BA4DA97EC89D55D4A628A97BF8
:1052E000FD572AB8A1DBF0B319671E7F91DF7D85DA
:1052F000FA626591FED9DBA395304921751B93169F
:105300005F4A6639CC31D79CA8E078C19224E43555
:10531000646513D7A06DEAC239E9C97F71F0046AE8
:1053200055A35BA1FA851DFD4EB7DE2A09A055E005
:1053300069D5549A9AEADED18621AEBA780D920BDD
:105340008C32916CDD95F576EA1222D62391545772
:105350005C9C7085D9FC2BEBBDAC0E4916FB4695C9
:1053600078DA5666B6A150411EEA76DAD9FA3B766B
:10537000B5759E0D9B39A3024F864FE607825A45AD
:10538000DE1480E49D760584EBCDE72DF3D37176B2
:10539000225C360EB5DB147CAC5B376841A507BADE
:1053A00060E7DEA748F3B40D6395E74EE7091E02F8
:1053B0006CFF5A936B31FE7EF771AB524EA0FD4DE0
:1053C000D5C857CDA2A80216F844BDE776F27D31C4
:1053D00007297AF39A17B7CC86F2BA3D5F1BD7AC90
:1053E000E1CEFA618AFDF41EE30F1BD8A6C0B40219
:1053F0003103A5CDB151E36D7D6987A6BCF1D35AC8
:105400004034A28D04F15F98CDE80E36DF4A76ACC9
:10541000DA29399B8BB0E49609C1D8D975D8A01A7E
:1054200096534895BB492B54698F9F0A677C6B9FA5
:1054300062936EF4F665F8692D9B3479D40A2002E4
:105440004DA54A8F617E3DBEA6BA6EFB94B534135E
:1054500094FDDB73A4CA3C6731600033DEC5D50D13
:10546000209BC79CF5652DBA288AA686F5B20F84C5
:10547000ED8336CACA94F0A52B6CA0D5AC0655C7EF
:105480003C4ECEED18C8AA566FEA96BFCC1C869E3D
:1054900021AA2A9273B8227C0A81D7D8D9E35BA9C2
:1054A0009CC25C88C3438FA6D405D9FCB38ABE27AF
:1054B00047274770A78891DDEFAE9697A0DA7B600B
:1054C000217CBB86E4296573AC2C204FE0862B043D
:1054D0002853ECBA3BD751F7AF89CF1A41B87900BE
:1054E0009D7C682BF090851A6F99AAB5FC4BF5B19D
:1054F000F94EB9486060F4A33CCB0574FBF3E23489
:105500007F0E4D86310263E34732C14B6A5C5E5CBD
:1055100042034DA47C8CBABD3FD6161EEEA2805A23
:10552000569DE0901AF6BB16D9D5C8F1EB202B1288
:105530006ACCE2D2731D1F2DBB40CF77C2A0E7C853
:10554000D96F84814EABF2D78E0DBF7AD443769D4E
:10555000F36A163308DED76236F033AD36C00AE69A
:1055600018D737A2FAB08DEF2B229C5E72CDA369BB
:10557000DD53E303DC8F3235C4CCD1E84F6AE97ADE
:10558000B4457B6EF64381207FE2CC2873FF49E26D
:10559000C2C3D97B7C1F95C9AA3ADDF278BE89893E
:1055A00008129CB4952E4F61CDC99C24496A21FAFA
:1055B000DA4A5AFCAD3CF161315009BBA704B03660
:1055C00014E6FB298E9CCE64A6EB9DE73B161D05D9
:1055D00085C7469E1244AB3EAF20458B901C25707C
:1055E000F795AADEE935004EBEDD69D0571AA383D0
:1055F000A655E1E32ED09889CC153ECDF6F58A3F2D
:10560000DB6319079363122254F87C1767C3D153E5
:105610008848FA6C9B0221C58160076B720769D2CA
:10562000B96920B1E9BBAEDED7D9223F96C8D61CF6
:1056300045CC397E676624D62BE055DA69988A8C8A
:10564000E6AAEB99D755B691566BCA6CDC94D0ABF1
:10565000BC4C9663A6E12FBD87643EDE8A5BFB5798
:10566000791B1E99EE5B8C8D161897FCFBA279DCDA
:10567000E0BD7158AFA8C9F1961E39A9B893F4F6E8
:105680001A5ECA7E708DD88AA77B9CA66F1EF1E732
:10569000F3905055BA48884363620C00459C484CCF
:1056A0004E7E4C1705FE3263EF43FE1F786AB94108
:1056B000C3047AB4E9B6831EC15415B390B8C02FA1
:1056C0005F362B1D4FE85F930126C39FB5586ABB19
:1056D000DABAC11AD0BFDEB1EC1AC598CAF13509E1
:1056E00098D3331423A91494AAAB48C11751219F0E
:1056F0007A907FF8F3A2EDA9C537DD1C9846C8590A
:1057000084CE744B8E5B1969B57F2A69764C48113B
:1057100065CE2F27F57BF23B99BFB6ADDE0B329EEF
:105720007AFDE738B24EB5BF86630451A47545DFF4
:105730006EF0F6ECF6DDA0C9CE5F1D0D032C6BAA52
:1057400027633E9F7BFAB4B0510CA0EA784F94CE09
:105750000696CC711610B91AD91E717BE79385088D
:105760001683237CD3B5034A13B14EB3C411198CED
:10577000A268934226AE78727380342EADA79169E9
:105780006F6C02E2A79E4E49FC1F1A0FAC27C5A200
:10579000B0F0E53123E94A2FA6489647E770EBD2EF
:1057A00062EF6C62779FFE654228C871F757EDC5BE
:1057B0003DC6504201E73500E1183B3BA7A1AE834F
:1057C000E45953CEC41E704201923A7B57DB333DFD
:1057D0009D2F3865F76769BC1DCBCFDAC37BA78DDA
:1057E000041BA0AF74558DC601669EA0DDB7A7C887
:1057F0006A2D6A23597FA28917D809F7D53350A596
:1058000051DD4177B6F1063741823AC614160CFED7
:1058100035D16D82956C0B47C84D77B7B5FD9F5656
:1058200077CC963D11F1D3CA1CE76FE5CF0FF08816
:1058300058B5A247AB374B6670A1B57513E1F38A33
:10584000CF7FDF95C93ED041763495C8546B5168FF
:105850000A95BA2C097E17CE2DF3F59EF38CB3ACC6
:10586000B07AB87010B594C595BCFC415F9BD7D792
:1058700074CC8ECBC68DB00862FB59D1EB3FEE1BCA
:1058800094F4FAE1D47BE69259A0DE40DA48310B79
:10589000561AE79F3D26C27B4586E34EECADC928EC
:1058A000247FADBB44789F1E5AC44F0A1BE7741671
:1058B000A19FB9E39CBFC3AF08BDFF477EDC8A87C9
:1058C0002F2FBB7E1C7DE8B6DBDB86E423F5E840AA
:1058D000F8F7E368069D912F37FE2643495974ED8A
:1058E000EDD7CC72EDE20F3F8EED92519A9F3924A5
:1058F000662BAAD05D0DEDA9D8C5E87C8400EAA18D
:10590000DC3F20AB33BA535564F2736F7052898A0F
:10591000B6271737BF6362F5BF7D7C79D845588AB3
:105920009FB7231C87861AB004414784F805B852F4
:10593000D6E383BD0A342A180F85444F55118D894B
:10594000852E0AE041123AAACD657AC9212774F959
:105950000B06E09C12B519E94127B1E9AC845C84DF
:10596000206CD5BC1D0AA4C1758C6E98A590B3346B
:10597000D422B3BDFF99DB285D30426668E35CA7A3
:1059800093FD2A63874DFD1A35C91B291D373053F6
:10599000C2B5F73690E7E45FA18780BB3809E88499
:1059A000827538271EFD13DE42D90A7F1E272DF58A
:1059B000ADE0A5A37791CB6E9F417917D9FF03295D
:1059C0002E31C4704622572B4115461363C852C767
:1059D000F8838A50950953A74E397B013A92E560C6
:1059E000953A47C987EF924D6A186B04786C40DA94
:1059F000DDE89007D06FDBEB72D2833C8C2A93BF3B
:105A0000F77315E2D0EFCBA0744089803A3C55AFD4
:105A10009CAFC7D86704B8F845316F46C512AFB61A
:105A200053F9E8DB7DAFE04867E65896B238454069
:105A3000AF2468EBC291DA3A7B2B37AADA51FC9893
:105A4000C7BCCC468884315F1C8A4BA4148392D691
:105A5000FAA5DAD455CEE21A47241FE635DFC20490
:105A60007A25018A173B4806413BEACAE51F148D97
:105A70001CF930D706B51413853767A36AE0FBA27B
:105A8000ABA1A1AA368CF103D3DED0BDBFE53FA800
:105A9000C2DAD22CB77036950E6A474D58252A7F48
:105AA000098EC8152CB48D635A30E2DD69B5AFECB0
:105AB000FF4D3B0DEE1FCC9E61371CB594FDBC6ABB
:105AC00020BB162BB72A58C3D34BD86DCD234DF727
:105AD000ACB24F331F14C08C6EA86B387286193865
