:020000040800F2
:1000000000100020C5020008A9120008A91200086B
:10001000A9120008A9120008A9120008A9120008D4
:10002000A9120008A9120008A9120008A9120008C4
:10003000A912000814750108A9120008A9120008E5
:10004000A9120008A9120008A9120008A9120008A4
:10005000A9120008A9120008A9120008A912000894
:10006000A9120008A9120008A9120008A912000884
:10007000A9120008A9120008A9120008A912000874
:10008000A9120008A9120008A9120008A912000864
:10009000A9120008A9120008A9120008A912000854
:1000A000A9120008A9120008A9120008A912000844
:1000B000A9120008A9120008A9120008A912000834
:1000C000A9120008A9120008A9120008A912000824
:1000D000A9120008A9120008A9120008A912000814
:1000E000A9120008A9120008A9120008A912000804
:1000F000A9120008A9120008A9120008A9120008F4
:10010000A9120008A9120008A9120008A9120008E3
:10011000A9120008A9120008A9120008A9120008D3
:10012000A9120008A9120008A9120008A9120008C3
:10013000A9120008A9120008A9120008A9120008B3
:10014000A9120008A9120008A9120008A9120008A3
:10015000A9120008A9120008A9120008A912000893
:10016000A9120008A9120008A9120008A912000883
:10017000A9120008A9120008A91200080348044B9C
:10018000834202D0034B03B118477047A81C0020DC
:10019000A81C002000000000064B0749C91A89105E
:1001A00048BF0131491003D0044B0BB10148184737
:1001B000704700BFA81C0020A81C00200000000001
:1001C00010B5064C237843B9FFF7D8FF044B13B1A1
:1001D0000448AFF300800123237010BD0C1E0020E3
:1001E000000000008875010808B5054B1BB10549E2
:1001F0000548AFF30080BDE80840FFF7CDBF00BF62
:1002000000000000A81C002088750108A3F5803AB2
:10021000704700BF174B002B08BF134B9D46FFF7DD
:10022000F5FF00218B460F461348144A121A01F0BD
:10023000E8F90E4B002B00D098470D4B002B00D057
:1002400098470020002104000D000D48002802D02E
:100250000C48AFF3008000F0F9FB2000290000F00B
:10026000A5FA00F023FB00BF00000800000000001A
:100270000000000000100020A81C0020101E00201C
:1002800000000000000000000346054A0549106810
:1002900003448B428CBF4FF0FF301360704700BFA8
:1002A00000100020000004200348044A0449121AE8
:1002B000921000F0FABF00BF448201084482010896
:1002C000101E002008B500F02FF8FFF7EDFF124BCD
:1002D00012498B4212D30020114B12498B4218D382
:1002E000FFF798FF186850F82240586840F82240FD
:1002F000013298688242F5D30C33EAE70022F8E72E
:100300001C6844F8220001325C68A242F8D308332A
:10031000E4E70022F8E700BF907501089C7501082A
:100320009C7501089C7501084FF480414FF0FF3027
:10033000114B124A10B59A60D3F8882042F470022B
:10034000C3F888200E4A91660E4901F500521066E6
:100350000D4850660220C3F8D000BFF34F8FBFF3A3
:100360006F8F01244FF440330848C0F88041D360B8
:1003700004600B6110BD00BF00ED00E0000000084C
:1003800000900050008000447FFF7F0300E100E008
:100390004FF48032054B9A6641F6713203F51C33F7
:1003A000DA63012203F50053DA60704700900050D1
:1003B00041F671320121064BDA6303F50052D16038
:1003C0000022DA634FF48032A3F518339A6670473F
:1003D0000000035008B5B0B14FF480620B4B9A6631
:1003E00000F088FF4FF098435A6CD202FCD54FF4CE
:1003F0008062586D064B10F470209A6604D0BDE8F8
:10040000084000F098BF212008BD00BF00900050B8
:1004100000A0005010B5044668B161B10023074A3E
:100420008360C0E90023C36100F05BFF2046BDE8A4
:100430001040FFF7CFBF212010BD00BF00000243D6
:1004400010B5044668B161B10023074A8360C0E972
:100450000023C36100F045FF2046BDE81040FFF7D0
:10046000B9BF212010BD00BF0000034370B50E4688
:100470001546044686B0D0B1C9B1C2B100230D4AB9
:100480008360C0E90023C36101AB0393012304939C
:10049000094B03A9059300F01AFF2046FFF79AFFC6
:1004A00018B9019B3360029B2B6006B070BD212000
:1004B000FBE700BF00000443080000201FB504460E
:1004C00098B191B100230A4A8360C0E90023C36157
:1004D000012301910293074B01A9039300F0F7FE5A
:1004E0002046FFF777FF04B010BD2120FBE700BFD7
:1004F000000008430400002010B5044600F0E0FEB0
:10050000024B1C6000F0E0FE002010BDC01C00206B
:1005100010B500F0D5FE034B1C6800F0D5FE204658
:1005200010BD00BFC01C002013B5002301241A46D3
:1005300019461846009400F0C9F8002300941A46A2
:100540001946184600F0F2F80248FFF7D5FF0020E0
:1005500002B010BD0410002008B5124BA8220021E3
:10056000184601F04EF803220346026142610E482C
:100570000E4A98614FF48061DA61002219629A6232
:100580005A62DA6218660A485866996609491A6713
:10059000DA665A6711F8010D98540132102AF9D120
:1005A00008BD00BF001C0020F973010800180020DE
:1005B00000140020127401082DE9F84FDFF87C8048
:1005C000824698F80030894616460BB9FFF7C4FFFB
:1005D000182707FB0A873D6FD7F86CB05D452BD90C
:1005E000BC6E796E641BB44228BF34464846294429
:1005F000224601F011F8BB6E2544AB4208BF00252E
:10060000A144361BABEB050B5E4528BF5E4656B1D9
:10061000182303FB0A83596E32462944484600F0EA
:10062000FBFF3444354424B1182303FB0A88C8F87F
:1006300070502046BDE8F88F0024E3E7001C00203E
:10064000F8B5182700FB0775124B0E461D4407FB33
:100650000033DB6A1446012B0AD0022B14D023B9D5
:10066000284600F000FF844208D900242046F8BD47
:10067000284600F0F8FE844228BF04462246314650
:10068000284600F0F9FEF1E72846BDE8F84000F002
:100690000EBF00BF001C0020F8B50B4B04461B78B2
:1006A0000D4616460BB9FFF757FFEFF311874FF0D2
:1006B000200181F31188324629462046FFF7C0FF0A
:1006C00087F31188F8BD00BF001C00202DE9F04120
:1006D000154C1E4623780546884617460BB9FFF78A
:1006E0003BFF022D1DD8EFF3118C4FF0200181F359
:1006F000118865B1182005FB000344F80380E21857
:100700000023576000FB0542166293625362182370
:1007100003FB0544069BE3628CF311880020BDE8CF
:10072000F0814FF0FF30FAE7001C00202DE9F8437C
:10073000144E1F4633780546894690460BB9FFF79D
:100740000BFF022D1BD8EFF311824FF0200181F334
:10075000118855B11824002304FB0564C4F8609087
:10076000C4F86480A7662367E366182303FB056665
:10077000089B736782F311880020BDE8F8834FF06F
:10078000FF30FAE7001C00204FF4005382B00193C1
:10079000019B5A1E0192002BFAD1034A136923F0E0
:1007A0000403136130BFF9E700ED00E070B58CB0D1
:1007B0000021202204A800F024FF4FF0FF344FF462
:1007C00080322F4B01945A669A664FF480629A6683
:1007D000FFF7AAFE00F0ABFD04A800F0DAFD03AAC3
:1007E00002A904A8CDE90244FFF740FEDDE90212A8
:1007F000244800F011F9244D01A904A8FFF75EFE7A
:100800000199224800F008F9EC682148214600F0DF
:1008100003F9019B24F07F4423F07F43A34204D3D8
:100820001C4800F00BF9FFF7AFFF1B4E33681B6845
:10083000013301D01948F4E704A800F0AAFD2946C5
:1008400004A8FFF7E7FD04460146154800F0E4F868
:1008500084B9FFF79DFD04221249306801F02CF99C
:10086000FFF7A6FD294604A8FFF7EAFD01460E485A
:1008700000F0D2F804A800F096FD00F05AFDD2E78F
:100880000090005013740108E01A00085274010827
:100890006A7401088A74010810100020B4740108F9
:1008A000D87401080C750108F074010808B5064BEE
:1008B000044613B10021AFF30080044B1B6803B161
:1008C0009847204600F09FFD00000000FC1D00201E
:1008D000002310B504468360818119464366C281B6
:1008E00008228361C0E90033C0E904335C3000F0C2
:1008F00088FE0D4B246263620C4BA3620C4BE362D7
:100900000C4B23630C4B9C4206D003F168029442CB
:1009100002D0D0339C4205D104F15800BDE810400C
:1009200000F077BE10BD00BFBF180008E118000836
:10093000191900083D190008C41C0020024A034987
:10094000034800F0EBBD00BF141000206F18000832
:100950002410002041680C4B994210B5044601D088
:1009600000F085FFA168094B994202D0204600F0B3
:100970007EFFE168064B994204D02046BDE8104056
:1009800000F075BF10BD00BFC41C00202C1D00204E
:10099000941D002010B50B4B04210B4C0B4A204634
:1009A0001A600022FFF794FF04F168000122092178
:1009B000FFF78EFF04F1D00002221221BDE81040A3
:1009C000FFF786BFFC1D0020C41C00203D09000865
:1009D000014800F01FBE00BF0E1E0020014800F0BD
:1009E0001ABE00BF0E1E002010B50446FFF7F0FF30
:1009F000236A1BB1BDE81040FFF7F0BF044B236230
:100A0000044B1B68002BF5D1FFF7C4FFF2E700BFD2
:100A100055090008FC1D00200FB407B5064904ABBA
:100A2000086853F8042B8168019300F033F803B091
:100A30005DF804EB04B0704720100020024B014623
:100A4000186800F089BD00BF2010002070B50D4D62
:100A500000260D4C641BA410A64209D10B4D0026A4
:100A60000B4C01F01DF8641BA410A64205D170BD0B
:100A700055F8043B01369847EEE755F8043B01363C
:100A80009847F2E71C1200201C1200201C120020C4
:100A9000201200202DE9F04F0D469DB014469846D7
:100AA000064618B1036A0BB9FFF79EFF6B6ED907B4
:100AB00005D4AB899A0502D4A86D00F0ABFDAB89D3
:100AC0001B0701D52B699BB92946304600F0D4FAA3
:100AD00070B16B6EDC0704D54FF0FF301DB0BDE880
:100AE000F08FAB899805F7D4A86D00F094FDF3E77B
:100AF0000023CDF80C804FF00109DFF8B481099391
:100B000020238DF8293030238DF82A3023469A4649
:100B100013F8012B0AB1252AF9D1BAEB040B0BD03B
:100B20005B4622462946304600F09AFD013000F02F
:100B3000A780099A5A4409929AF80030002B00F0D5
:100B40009F8000234FF0FF320AF1010A04930793BC
:100B50008DF853301A93CDE90523544605225448A5
:100B600014F8011B00F08DFF049AD8B9D10644BFD8
:100B700020238DF85330130744BF2B238DF85330B7
:100B80009AF800302A2B15D0079A544600204FF0CF
:100B90000A0C214611F8013B303B092B4BD9B0B16F
:100BA000079214E0A0EB0803A24609FA03F31343EB
:100BB0000493D2E7039B191D1B68002B0391BBBF55
:100BC0005B4242F0020207930793B8BF0492237876
:100BD0002E2B0AD163782A2B32D1039B02341A1DA3
:100BE0001B6843EAE37303920593DFF8D4A0032262
:100BF0002178504600F045FF38B1A0EB0A004022B2
:100C0000049B013482401343049314F8011B062211
:100C100028488DF8281000F034FF00283FD0264BDC
:100C20001BBB039B073323F0070308330393099B84
:100C30003B4409936AE70CFB02320C460120A8E70B
:100C4000002301344FF00A0C19460593204610F892
:100C5000012B303A092A03D9002BC6D00591C4E7ED
:100C60000CFB012104460123F0E703AB2A4604A94B
:100C700030460093114BAFF300800746781CD6D165
:100C80006B6ED90705D4AB899A0502D4A86D00F024
:100C9000C2FCAB895B063FF51FAF09981EE703ABAB
:100CA0002A4604A930460093044B00F0ADF8E4E76F
:100CB000547501085E750108000000006116000807
:100CC0005A75010870B50F4E0C460546316811B9CA
:100CD00000F07EFA30602146284600F079FA431C85
:100CE00003D14FF0FF34204670BDC41C24F0030430
:100CF000A042F8D0211A284600F06AFA0130F2D159
:100D0000EFE700BF001E00202DE9F843CD1C06468A
:100D100025F0030508350C2D38BF0C25002D01DB0F
:100D2000A94204D90C2333600020BDE8F883DFF822
:100D3000D48000F095F9D8F800301C4644BB294611
:100D40003046FFF7BFFF431C044658D1D8F8004097
:100D50002746002F43D1002C4BD02368394630461C
:100D600004EB030900F034FA814542D12168304692
:100D70006D1A2946FFF7A6FF01303AD023682B44AD
:100D80002360D8F800305A6862BBC8F800700FE0E2
:100D90002268521B20D40B2A17D96119A34225605F
:100DA00018BF5960636808BFC8F8001062514B60F3
:100DB000304600F05BF904F10B00231D20F0070022
:100DC000C21A1CBF1B1AA350AFE76268A3420CBF34
:100DD000C8F800205A60EBE723466468AEE73C465B
:100DE0007F68B6E71A465B68A342FBD100235360D5
:100DF000DEE70C233046336000F038F994E70560F5
:100E0000D6E700BF041E00202DE9FF470F7E914664
:100E100080460C46782F9A460C9E01F1430207D873
:100E2000622F0AD8002F00F0DD80582F00F0C38019
:100E300004F1420684F842703AE0A7F16303152BEF
:100E4000F6D801A151F823F0A10E0008B50E000854
:100E5000310E0008310E0008310E0008310E000876
:100E6000B50E0008310E0008310E0008310E0008E2
:100E7000310E0008CB0F0008430F0008830F000855
:100E8000310E0008310E0008ED0F0008310E000889
:100E9000430F0008310E0008310E00088B0F0008C8
:100EA00033681A1D1B68326004F1420684F8423030
:100EB0000123A8E031682368081D30601E0601D5B3
:100EC0000D6803E05D06FBD5B1F90050002D6168A7
:100ED00078DA2D200029A16084F843002DDA6D42D4
:100EE0005D480A231646B5FBF3F103FB1157C75DB6
:100EF00006F8017D2F460D46BB42F4D9082B0BD1D5
:100F00002368DF0708D5236961689942DEBF302373
:100F100006F8013C06F1FF36921B22614B4603AAFC
:100F200021464046CDF800A000F0ACFB01306FD167
:100F30004FF0FF3004B0BDE8F08723F004032360D6
:100F4000CDE721683368080653F8045B02D44906EC
:100F500048BFADB26F2F33603F4814BF0A23082348
:100F6000002184F843106668002EA660BADB216871
:100F700021F004012160002DB4D1002EB2D116461B
:100F8000BCE7236843F020032360782733482368B5
:100F900084F845701F06316851F8045B02D45F067F
:100FA00048BFADB23160D90744BF43F0200323608E
:100FB0001DB11023D4E72848E9E7236823F0200374
:100FC0002360F6E724480A23CDE733682568181D17
:100FD000616930602E061B6801D5196002E0680661
:100FE000FBD5198000231646236197E7336800215B
:100FF0001A1D32601E686268304600F042FD08B17A
:10100000801B606063682361002384F8433085E7B8
:101010002369324649464046D047013088D023688C
:101020009B0714D4E068039B9842B8BF184681E739
:101030000123324649464046D04701303FF478AF5D
:101040000135E36803995B1AAB42F1DCEAE700255E
:1010500004F11906F5E700BF65750108767501080A
:10106000014800F0D7BA00BF0D1E0020014800F073
:10107000D2BA00BF0D1E002038B5294B05460C46DC
:10108000186818B1036A0BB9FFF7AEFCB4F90C305D
:10109000190722D4DA0607D409222A6043F0400354
:1010A0004FF0FF30A38133E0580712D5616B41B197
:1010B00004F14403994202D0284600F0ABF8002323
:1010C0006363A38923F02403A3810023636023695E
:1010D0002360A38943F00803A38123694BB9A38943
:1010E00003F42073B3F5007F03D02146284600F0B7
:1010F0008CFCB4F90C3013F001020AD00022A2607B
:1011000062695242A261226942B913F08000C5D1DE
:1011100038BD990758BF6269A260F4E70020F7E77D
:101120002010002038B50023054D044608462B60EA
:1011300000F067F9431C02D12B6803B1236038BD6E
:10114000081E002038B50023064D04460846114607
:101150002B6000F059F9431C02D12B6803B12360C6
:1011600038BD00BF081E002038B50023054D0446D9
:1011700008462B6000F04DF9431C02D12B6803B1E7
:10118000236038BD081E002038B50446064D0846C9
:10119000114600222A601A4600F03DF9431C02D194
:1011A0002B6803B1236038BD081E002038B5044603
:1011B000064D0846114600222A601A4600F02DF915
:1011C000431C02D12B6803B1236038BD081E0020E8
:1011D00038B50023054D044608462B60FFF754F848
:1011E000431C02D12B6803B1236038BD081E0020C8
:1011F00038B50446064D0846114600222A601A46B4
:1012000000F019F9431C02D12B6803B1236038BDEB
:10121000081E002038B50546002941D051F8043C8D
:101220000C1F002BB8BFE418FFF71AFF1D4A136804
:1012300033B9636014602846BDE83840FFF716BF35
:10124000A34208D9206821188B4201BF19685B6846
:1012500009182160EDE71A465B680BB1A342FAD981
:1012600011685018A0420BD1206801445018116039
:101270008342E0D118685B68084453601060DAE785
:1012800002D90C232B60D6E7206821188B4202BFBD
:1012900019685B680918636008BF21605460CAE779
:1012A00038BD00BF041E0020FEE710B53AB1002390
:1012B00050F8234041F8234001339A42F8D110BD41
:1012C000EFF3108072B6704700B962B6704783685A
:1012D00013B9816070475B685A68012AFBD1596075
:1012E0007047C369032B9FBF00EB83020133D160BA
:1012F000C3617047C369042B14D84FF09842116C36
:10130000C902FCD504339B0013650168103B1160D2
:101310004168116050F8081F11604FF09842034473
:10132000984200D1704750F8041F1160F8E7002080
:10133000704700207047B0F5802F22D010D8B0F54C
:10134000003F20D007D818B3B0F5803F08BF482031
:1013500018BF01207047B0F5403F08BF2C20F7E7C9
:10136000B0F5302F11D007D8B0F5E02F0FD0B0F581
:10137000202F08BF1020EBE7B0F57F0F08BF062035
:10138000E6E74B2070472A20704711207047212044
:10139000704708B528B12022002100F032F9002062
:1013A00008BD2120FCE708B1FFF7F3BF21207047FB
:1013B00070B50C46154610B9FFF7AAF838B1436866
:1013C0002BB12A462146BDE870400068184723200B
:1013D00070BDF7B50D4616461C4648B103B901ACC1
:1013E00087685FB12346324629460068B84706E061
:1013F000FFF78EF804B901AC0028F1D1232003B027
:10140000F0BD00207047FEE74FF4005300204B6012
:101410007047012070470020704707B5002001ABDE
:101420000190FFF7D6FF0198002808BF4FF0FF306A
:1014300003B05DF804FB10B514460020FFF7B8FFB9
:10144000204610BD10B500201C4600F059F80028B9
:1014500020600CBF1B20002010BD08B50020FFF746
:101460001BF9002008BD0369C26893429CBF8168D4
:101470005B18013B981A70472DE9F041D0E90284CE
:101480000546A8EB04064068964220440F461444E3
:1014900004D900F0C1F8EC60BDE8F0813246A4EB5D
:1014A000080400F0B9F822466868B919F1E72DE997
:1014B000F8430646894617464FF00008C568336969
:1014C000B4689D4228BF1B19641BBC4228BF3C4620
:1014D000013B5B1B9C4228BF1C4670684946284460
:1014E000224600F099F8B3682544AB4208BF0025B6
:1014F0003F1BA044A144F560E1D14046BDE8F8831C
:1015000010B50B46EFF311844FF0200181F31188E1
:101510001946FFF751F884F3118810BD2DE9F843FF
:101520000746884614460026D4E90195B9F1010919
:1015300005D52468002CF7D13046BDE8F883AB8987
:10154000012B07D9B5F90E30013303D029463846AF
:10155000C04706436835E9E7036A70B505460E469D
:1015600084680BB9FFF740FA636EDB0705D4A389E3
:10157000980502D4A06D00F04DF8A389190702D593
:101580002369002B35D121462846FFF775FD80B32E
:101590004FF0FF35636EDA0705D4A3899B0502D4AB
:1015A000A06D00F038F8284670BD002B15DB2368CD
:1015B0005A1C22601970A36816F8011F013BA36032
:1015C0000029F2D1002B16DA22460A21284600F023
:1015D000B9F90130DCD00A25DCE7A2699A4201DCC6
:1015E0000A29E4D12246284600F0ACF90130E2D1C4
:1015F000CEE7013EDFE723685A1C22600A221A70F8
:10160000E9E702440346934200D1704703F8011B07
:10161000F9E77047704770470A44431E914200D172
:10162000704710B511F8014B914203F8014FF9D101
:1016300010BD9368013B002B936010B408DA9469E5
:10164000A34201DB0A2903D15DF8044B00F07AB90B
:101650001368581C1060084619705DF8044B7047F9
:10166000F8B506460F461446D518AC4201D1002005
:1016700007E03A4614F8011B3046FFF7DAFF431C37
:10168000F3D1F8BD2DE9F047164698468A6807461B
:101690000B690C46DDF820909342B8BF13463360C7
:1016A00091F843200AB1013333602368990642BFA1
:1016B000336802333360256815F0060506D104F15E
:1016C000190AE36832689B1AAB422BDC94F843306A
:1016D0002268003B18BF0123920630D404F1430274
:1016E00041463846C847013023D023681A3454F89D
:1016F0000A2C03F00603042B0ABF54F80E5C0025E5
:1017000033684FF0000608BFED1A54F8123C08BFCA
:1017100025EAE5759342C4BF9B1AED18B5421AD16C
:10172000002008E00123524641463846C8470130B0
:1017300003D14FF0FF30BDE8F0870135C1E7E11874
:101740005A1C30200233224481F8430094F845109B
:1017500082F84310C2E70123224641463846C84773
:101760000130E6D00136D9E7B1F90C202DE9F0417E
:10177000170705460C4656D44B68002B02DC0B6C51
:10178000002B3DDDE66A002E3AD0002312F4805291
:101790002F68216A2B6025D0626DA389580705D573
:1017A0006368D21A636B0BB1236CD21A216A0023CF
:1017B000E66A2846B047411C24D0002363602369B1
:1017C0002360A389DA0400D56065616B2F60B9B12D
:1017D00004F14403994202D02846FFF71BFD002381
:1017E00063630DE001232846B047461C0246D4D16E
:1017F0002B68002BD1D01D2B01D0162B2AD12F60A6
:1018000000202EE02A68B4F90C3042B11D2A01D024
:10181000162A21D10023636023692360D5E7626023
:1018200022692260CEE70F69002FE9D093070E6886
:101830000F600CBF4B690023A6EB07088B60B8F163
:10184000000FDDDD43463A46216A2846A66AB047C6
:10185000002808DCB4F90C3043F040034FF0FF30AF
:10186000A381BDE8F0810744A8EB0008E7E738B59D
:101870000B6905460C4613B90025284638BD18B13A
:10188000036A0BB9FFF7B0F8B4F90C30002BF3D0B2
:10189000626ED00704D4990502D4A06DFFF7BAFE9A
:1018A00028462146FFF760FF636E0546DA07E4D459
:1018B000A3899B05E1D4A06DFFF7ADFEDDE710B570
:1018C0000C46B1F90E10FFF771FC0028ABBF636D39
:1018D000A3891B1823F48053ACBF6365A38110BD9B
:1018E0002DE9F0411F468B8905460C46DB0516465F
:1018F00005D502230022B1F90E10FFF745FCA3899C
:101900003246B4F90E10284623F48053A3813B4697
:10191000BDE8F041FFF76CBC10B50C46B1F90E10F4
:10192000FFF732FC431CA38915BF606523F4805385
:1019300043F48053A38118BFA38110BDB1F90E10E9
:10194000FFF7F0BBF8B50E461446054618B1036A1A
:101950000BB9FFF749F8A369A360A3891A0701D55A
:10196000236943B921462846FFF786FB18B14FF09B
:10197000FF373846F8BD2368F6B222693746981A11
:101980006369834205DC21462846FFF770FF002883
:10199000EDD1A368013BA36023685A1C22601E702E
:1019A000431C62699A4204D0A389DB07E1D50A2E61
:1019B000DFD121462846FFF75AFF0028D9D0D6E7C5
:1019C00070B50C46B1F90E1096B0154600291E46AA
:1019D0000CDAA389002113F0800F14BF40234FF4C9
:1019E0008063002031602B6016B070BD6A46FFF73F
:1019F000A9FB0028EDDB019901F47041A1F500532A
:101A0000594259414FF48063EBE78B89F7B59D0745
:101A100006460C4607D504F14703236023610123E2
:101A2000636103B0F0BD01AB6A46FFF7C9FF009FD9
:101A3000054630463946FFF767F948B9B4F90C3026
:101A40009A05EED423F0030343F00203A381E2E7F7
:101A5000A389206043F08003A381019BC4E90407AC
:101A60005BB1B4F90E103046FFF77EFB28B1A389B5
:101A700023F0030343F00103A381A3891D43A58140
:101A8000CFE7C9B20346024410B59342184601D1CC
:101A9000002003E0047801338C42F6D110BD000031
:101AA000F8B500BFF8BC08BC9E467047F8B500BF4B
:101AB000F8BC08BC9E4670475FF800F0A5110020F6
:101AC0000000000000000000000000000000000016
:101AD0000000000000000000000000000000000006
:101AE000EB17A65E115901007458010004020207A9
:101AF00001010000986C4EC048ED7D83A17E027408
:101B0000613135A274DFF077BE2EE0959F474A4ED3
:101B1000BA47EDD025D9C76FFDC3B1D7FCE88F0216
:101B2000BA3A8AFC6983738C75052A629FB3A22036
:101B300089279E4888DBEF105FF12505576557130D
:101B4000554F1B0A00646EB095DB3E1A127157F8B0
:101B5000C4E2761D032619B3652083EC8F28F8B8FC
:101B60006D14F3843CEFD84666ECADAB633E8DD884
:101B700095F40ED291B8AFD994C95DEDD564281211
:101B80002CF38AD00DCB2F22B99ED412C6714A7085
:101B90002EB50441D9A0CC9D1B621D8FE868783911
:101BA0002A7C709EBC67597172E4F94361C8A543F1
:101BB000CE258C56D3892814314505773632EE92DE
:101BC00019D1CE820E48E202A31E12CC31337C6BB7
:101BD000E1C7FE8DFE95A34FF2D776491A935E5E5C
:101BE000B4F72F9D9DEC9ADE8BD864C24207242A5D
:101BF000A18E8ED751AD7ECFFEC2FAA4506C38A70D
:101C000035E5F26B8839094B0057A492442844B754
:101C1000AAAB6209CB2ACE5B5519D5C0CC876B2FF6
:101C2000EAC75B0C7E28A47AC21F2AB0911C31A49B
:101C3000C3D50CF516AAFB2B57C4C881DA73BA7E3C
:101C4000D03F58D9C5BD7CCC4696D2F6EB64BADB02
:101C500078E522B06C166FA57632CE31DEF17B22AC
:101C6000028BAF99308888F47E6A5B882555535B78
:101C7000F62619F2DB846826605C0F665B718FF4D0
:101C80006860141373F825FF533489193C042946FE
:101C900018CEC434EB63430CAA7B87C93EFC8ABFD1
:101CA000207677B9C660B5C9B161FEF85ED8FD7E11
:101CB000F3927D160E813ED613199DE3E922CA48A0
:101CC000AB7A593A0E07247C328596877CDEBE7249
:101CD00034836A7ABBA9BD1F3C96DE4B55BA153ECC
:101CE0009645900C4579BF173DDBE4DCF5F6D6ED63
:101CF000534F348B48F2E4B118DD1B7DCC2D7EDAD6
:101D00004A7485D63D3DAB2CBF900FCB84CC700F71
:101D1000FAFDBF8CF89A35227DB58CD0F06D336614
:101D200047DC6ECBEF24EF045B9D9CB403C766AF2A
:101D3000ADBD56FB1458680E60C4DFA1992D284331
:101D4000C80CC561A72756DF7B9A4E23F6640EDACE
:101D50004D39EB56C4BD54AB7C50B5F7B6C8C42A58
:101D6000770E850B52D271DFD5B2B53795FF273785
:101D70008A894CE5324956003FFFFBC08000223D76
:101D80004B1BA1A13FD3B39E301D45505E4625435A
:101D90009AAFC374A0E2D5FC66886AFF88ABAF6CCB
:101DA000D71779F5D2E88C6F68521CFB878C8BF0C3
:101DB0008D015771F28AD7380524617D25170D638F
:101DC000C54921C33C35E9E34080AB2CDBD9635ED8
:101DD000D8BBB2B6289B5CE1DF8C08E404B45F504A
:101DE0007864A8113B9F0BCC50A73791EC9D4258CB
:101DF0005A771D900926A9C6DAADFF40EDE3F8B782
:101E0000B8E6DF61ABF0B4D68B50EEDDDBD66A907E
:101E1000B99B84A01C58B9F4C271486149E42ED41E
:101E200040C03C09098D7BE6999233B5A3AC0A47C3
:101E3000186A2BCBC0E46A64BE77B09277E0002AC0
:101E400021A1C1EC1B9D16E503F3A99C76B8B14A0C
:101E5000F708F1931C67C8B61201668928B8E3E851
:101E60002337A98D1F0F1363EFFF30656912886751
:101E70002FA2D43B0E7C41C566D82CC39C36B8DD5E
:101E800042310EB792DE8906B9B98ED7A805D09334
:101E900061CF23B0CE46BEEBCF593CA369E2803779
:101EA000A4F89C897F68D6070131DDB036CE60F09A
:101EB000AA9FC3B07C79F6589CA2462EA814DE1CBB
:101EC000FC10937D86658C83D0616191AC034446A0
:101ED00007D1C9B85BFC397FFAF2AF4DC4703E66DA
:101EE0004B1A4F3BBAC4306868DBFB2B5A55091FAD
:101EF000275AF80F7DAABB9DC52018A23A0F93D18F
:101F00007BF5CBAD8727BFED235658EA7861574C58
:101F1000A26770685F502557AACCFD78D778B0DEED
:101F20007A8EA3B1B64762685B8103194A1AAEDCA8
:101F3000E6A9DCEB1BFEAF850368E4FC44B7FFB306
:101F400035EBEF863A549BD231E2AC519A35519938
:101F50003D8390609F25D764D26F88660755602EB9
:101F6000B46BDE1A23D6ABA2C2F5362348F41C7834
:101F7000AFA538130B39EB7944FBFF5D3B31CEDB6A
:101F80003EFA7D9F288551F3E8CA0F6C8791CB33C9
:101F90004D07E17E7783E27B30ED1035E6EF3E5C66
:101FA000A0C9FCF1F0818124349681AB5C3EBC2356
:101FB000761FE90A390587171B11555F5AC89B2000
:101FC000BF636B1D8D495A8B97CF564DE73A12BFB1
:101FD000FE966F3224E3A116BD856D0847EE9FA7DC
:101FE000BA838099E6CDF3479FBFFCF96EC389C5DC
:101FF000EFB3A9FA7F593038518615871309BBDE34
:1020000054AD6242F4AADAD63BA3653F3F52924BED
:10201000923044EC685D366FCDC4CA42C0A1240F33
:10202000A246FDFDBC4146098C3C854FDE79335804
:10203000C359FC4480B5D57B5FC4E313C2B2D0253D
:10204000D96417E5A43C587A4C8C221E250C2856DE
:102050001CFBA06A398564610D0C617AC0A37923E9
:10206000C16AF5508DEA2968C60D2C0F1E8A0FF53E
:10207000927A51973C762D9AAACFD43CF9C28C3AE9
:102080002E4B1A9E6316152E68D6D4058C8E93ABF4
:10209000051C5B861450217BD6A7F922B83D086F3A
:1020A000533068FA5ADFFF993858260579EAFE2C32
:1020B0008829A1DEB4ECE3AD564C87030C2D794B97
:1020C000A72E10D9E0C7812F339F286B75A1D0525E
:1020D0005AEE1DBF7E37EB9A096ADD031661A936F9
:1020E0009E1CEA92B811DEF97AA32093A77AA9B5CB
:1020F000F69D8D3CCAA8C956FF3EBAAC841C35DC9F
:102100009242E430670D5C041AAEC5DB0D089454AE
:10211000DFBC954F2ABAC6359779C730B4CEE37382
:102120003C531D6347B274F15027A99F66F8100312
:10213000E8519CD75BEE8C5FE67E6A8CE57176D4C5
:102140001DD6094A1FDC026D4770B1A701928C2C85
:10215000662DADCBF9B2D866164F7EF44D6D714445
:102160004391A9DE5A47FDD3FE89BA7D365C091139
:10217000AB41973B0685F02F725C7379A9B0150DC2
:10218000AAB09F8D6D93468751EF071A65121E34D2
:1021900012B8B59A2FB40C82586339003C9803A446
:1021A00024D5F6E508E51C13C979BF79E3474B0050
:1021B0009F0FB4738AA767AE208727F6FA488FA7C8
:1021C000E5F6A412CF5FDC69D97279CE3C6FFD7160
:1021D000471497E5E1EFDD56AD71CCBDA02E23EE9F
:1021E000F552DCD50193C0C94870584DA67970C529
:1021F0006F884ACB30DF6481A2DEEBCB3643DDF360
:10220000E5B7FA7DFA6A76071E2AE0BE8C64FED135
:102210006BCB784CF311C083B2E11FB5980F76EB0E
:10222000EC936C53AF2935AE0E626A3F74CFE3670F
:10223000D30EA44557E8D386FA8EA483D5E5690466
:10224000426C00740EEB16A3AA5DBFBB7D2CC2735B
:10225000E9CAEBC62BCD3D637E1413D3828F74CEB7
:10226000ED0551BF287D9CF890D23044D33D453DCB
:10227000B1E8120FA23832E2E3807B03D1EBBF8AD0
:10228000CFC5A175B0FB80C688C99F06EBB0C2F26E
:10229000C489316FB68A892A3181E1E8530723F86E
:1022A0005981F4693B8102599B6E7319BF586B12B7
:1022B000E9655196AFFFD7FF8DC0B47AC9A70B0669
:1022C00089DF602285A6210F280B9C124557A67E28
:1022D000205CA9DB300B6BE743F8AA0CAB81C5F59A
:1022E000B1190E8B6C374E447260C589EBB80D2462
:1022F000644DB097D5BF099965D9B190552AE69834
:10230000F00D8579A5D8542823B001AA613CAA8B89
:10231000A40AC3173C8E2367D04C173185889C05CF
:1023200057FFE72A3741CB506B6A13CCA2C7976D92
:10233000772BE33037EE832345637B8D286A00DDFE
:1023400053153858E7F8445664E5B53B365B3F7B98
:102350004F7356F8910FF99E7B1CF370D607F77AEE
:1023600029733067E8D5A1D3052E03A031B9EFAFAB
:102370003946045B154DB843D2826F5F35268A9586
:102380007F28A8DCCF2421D06E27203C7AA897A0F4
:102390008280867D18A986E2561E170CCB4C1BB492
:1023A0009153F6C386C678434DC5704B186FA4C1D0
:1023B00067F6869186783A31F835F11477F06F1622
:1023C000D4B8E307641372D1EA731078E60416C533
:1023D0009BED744E414A1BF5D4C25DB261F9686F42
:1023E00094ABDAFECCCDB1545DE634E56B9E806DE6
:1023F00008E609EDCD82F5ED993EED701D73DD0126
:1024000062E7E8B9DC2800B06352D7D03F7B6D2982
:102410003C045B36391A5580CF3334F7E19779782D
:10242000FE0B1F039EC4AF89274EB9021214A84F9A
:102430004D74624878CEA00F743BB4322B926F413A
:1024400042841480F9672245B186055F09034DD3A4
:10245000136ECA69FB1FBED1F40F3C7D36756A0A44
:1024600062632C12FF15082A20427E3E07BA13D35E
:10247000E3F4334B6CD13D878B4BD7C3BF3C5FCA72
:1024800028BA696B58953A6D3DFD24ED1C11A936AB
:1024900077E2DD93CC973454B1B6E7D04D06CB0F3D
:1024A0001D5C8030281E68545B1A11A2C59719253F
:1024B0006299DC3FC9F11F4CE370BFEF5AB9A684A3
:1024C0006117FCD7CE32E895647C5EDADE572FBB0D
:1024D0002F52D667ABACBD2E3DE8A1F2041D6C1D9A
:1024E000DDB5EBB4016ADC7A499AA61C727FC8F4A8
:1024F000F528A8EBB0C2B28A1C6599FAA4DC454560
:10250000AF50CD16B01CDAF7282AE0888FE7979DE8
:10251000DE3A0CB14731155C7B3F3F4D0AADEE5DB5
:10252000F4FEAEE3C0F8388E948C1CBE34E6DEA711
:10253000FA11489D506968E4F06D81A3241BE07F87
:1025400080BA7529D901A465B4DE7C062867D94014
:10255000D2094D20557D66A191D78E5F31973612F5
:10256000065D6AB180561EBF5FD2D99565432BA325
:10257000AAE5D9A3298A2D1A57C9D7D96951702933
:102580009531A7506DF493CD2E863FA53BAD887253
:10259000F958A75CE6AADB55345E513D718A2122C9
:1025A000A155FC41E859F4E6ED185FABA6827391A2
:1025B000D2883A01503DB7FFB5B2C26CFB1413F993
:1025C000B4ADFE44FDFF968B70DD72C4AE3ADA689E
:1025D000436735136E0F776F1FB1C15CEA1EFD456F
:1025E000AC21B6CA97B4E0A616FC1299DA06C77DEC
:1025F000F1963A2B1A9FF7C727E1A90B144F1089C0
:10260000C4D8C3D1E6FEA5BD214A4D5C752CAA7085
:10261000641EB05B54D7E7CAB92ED43C72AAECACA6
:102620001EF3CB0DF8A06B570BE2960FCDC5E378E8
:102630003305ED261129386624E69D25432BB3FB8F
:10264000E82A14D88A333AFFF997294B6AB2A9B11C
:10265000E0165ACD0E2ABF26DB00600E92450EF71B
:10266000BD90D214CB884A2F3E7D7FF6152EFAA15D
:10267000FEA2E8948950F8404CA9860E8DEF7AF5B9
:10268000A8501F4C8362AE5CEA96724B59B1C07978
:102690009D7685A451F012A5E3A5AF3F3823587D60
:1026A000E89C53FBEFE71A33831E32BC67A63B3A24
:1026B000FE94A2A9B7DCC15C302B8A47A3C4C85AD8
:1026C0008D2B96C21392CEBEF8504DDFBC11FCCFBD
:1026D0006175E3B78942BA4D5040087D4FD34FCA68
:1026E0006A58517D3173A3A1EAAEB2FD444F8F55B4
:1026F000FD61D5A8FAF30D40A794FD35E2B66DC48F
:10270000BFFD7A94246C12619B06AE537F2D7EE54B
:1027100058A26BE9D2AD3C317ECF1E1D25A877CAE9
:102720007CDC47DF36BDDF584F4AC78EB4F5955184
:102730008FDCFBCE6F9F1E730A966E25FEC4571664
:10274000684CB31D0C0F237E8C7BAC4254CF0F7CA6
:10275000E7E64718F1DF91A10DA7C045A053EE8A27
:102760001565C275E5CFF16E50EE9AE9320609EBB8
:10277000EA6E229BF7E7944498C2129F920780DB8F
:1027800081E6CE4A86D781074C2B64D3E296F6AA1F
:1027900036876CEC0E1892DA5BF5483ECA61EB4D59
:1027A00091532FFD6550C43DA4F1F44E79FA4C4D80
:1027B0003B30750322C76648A099E045AC4BEAB9A7
:1027C0008CFE955CBC78DE15C6FF19EAD29F508757
:1027D0003796DD948FF7A2053D4150B9C3C546EF4A
:1027E0002813EE8E11BDBF9402755071306C0BE250
:1027F000EFEA29FE0AB1FE695351B48C1079A0C8E2
:10280000ACD1F389356FBA2083AEAF6EB30CE8FF5D
:102810001D274CB828896FC6DDFD0A3C1D01344FC9
:1028200055C9FD6D2F87BEC9E76ED0D27867657731
:10283000CBBE681387EBC5B7C93BB31FF54DB1FDE0
:1028400083C1A543A5E969C30D8A10DA32FE9EB49F
:102850003D4A710F73B33D1EEFD654EF7582BF51E1
:10286000A182A3A354B330E8C6754F8A1E3605ED86
:10287000817B4373924134FC6D9DEFDA36A434784A
:102880007331C0757A29CBB7DC595B673066DD27B9
:10289000F871CF73D87ED022AE5677026F87F1AC35
:1028A00049A5FB46AF95A26BF9360DC759DB0FE37F
:1028B0002209B4F25CC37E8BECAE75CD74F30D5679
:1028C00056AFBE2943991EF96FB65333E2FD9D788A
:1028D000AEE5518B7555201324B592DB1581FA3581
:1028E000AE21210480DEF65D57898E35A42CF38855
:1028F000FE96B6F8DC5D3E294272829A517D6E6387
:10290000DFA489DD45A43BCE2E8110BA8C7B8E3EA0
:102910009CCF0D7BD8D8138BD375341353711CF611
:10292000CF21A99FA99E12CF62DBA62A90DED89064
:10293000955AFDB9A542FE9A1B154A15B5BD9227B9
:102940001AEEBAB98C0444108F82205823ACBF7C95
:10295000066A02467031A187354D2118A48DD2A494
:10296000B7337C69EA6CF00450C8FD85D033501051
:102970008D62F4935831F690E4CCB4EF3D19434D99
:10298000DBAFB78E530651C77CF18E845303FCE74F
:10299000C8D778D19BE4789370EDEA45030C38569C
:1029A0000281E0AEC72998C394BA1298C8B32AC46A
:1029B00021A2078C1BBD1DCE2EC068DA53E08030EB
:1029C00062C035860BC816D235B87A2533084DFE5D
:1029D000E66E1D4B34898BEE04EC68CDDA336581ED
:1029E00002860850CF4AC9D2AEE35C24150EC60950
:1029F000D0F6932B8AC46F123FB5F672093A1CF1D8
:102A000060E8219B4C4373332A7BEFBDE1FC77BD2B
:102A1000D99136584C1D39DC1E588888705BFC43B0
:102A20000CDC88C19801EA2B76BE2EBC49A5BF1DDF
:102A30007A94982DE637381FFDEA2CE961294ED2A9
:102A4000F4501E14B0D0320BBC25E366A4F836E374
:102A5000D800D5768C62CEB088B10AE81DA5792E53
:102A6000B44AB032795BCF5254767436E27285DC68
:102A7000858E867D5570F2AC47CB7C2E41D100947B
:102A80008274EC0EE7FC51F4375D5BB8109BF1BA31
:102A9000B23B1ED3F9AE557D91B9693AF4D00CC85A
:102AA00072A71B80EA76142179AA7482AB98490137
:102AB000031BE9666CEEE4DA939760442A1A9E429F
:102AC00080F013DDD43EB0C75597C9A03601CF4E74
:102AD000B70C62D371D53CEA31FA7C79C16894F8BD
:102AE000958850E31B52A716B711DC85A03BC84C54
:102AF000B76884CA7B55754EE658EFCD8B550DD11E
:102B0000E6AA6BBB924567A81ADF302EC0453E5A35
:102B100090C45C609B050787163977F79DB7C51A87
:102B2000419D8889C8A1EC69A15FA6EF1B3BF00617
:102B30009CA2D0DACEA8D82EC402CB3B0C687AF186
:102B4000E0BBD961BA4B6463EEF60938BE01D83EEA
:102B5000DBF9397BE02E40D30EB9EAB7DAA70916C4
:102B60007F12F39A1A7A01084781CE1B1EBF936722
:102B70002563B56B53AC78C76095AB78783A57AF9F
:102B8000335925E72E67A8F09A849D43A5CE497551
:102B9000722FB4F0787774D76EDAA8E1287E28F720
:102BA000C42EBCFCEAB9F67299B05B2E8141546E1A
:102BB00042BB20FD07E6A6E0C3862FBD26F0357395
:102BC000B3BD36528DA6DA7DC4EAF7A96DD4AF61E4
:102BD000580705A97A557495171A2FF33E684B3498
:102BE0003881EAD35400D5ABA6ECC74CABCC6C977C
:102BF00074E26517FA2F07F48E4B3446AD9F0C1123
:102C0000A51BA0BFCE6184A73E8E244C7BEEA4778B
:102C10000DB0CC700F87F1B3C74D4E01EA2145715D
:102C2000ED3903841B73E9B2AD31052611B9359C2A
:102C3000CDC0D702FBA9158EC144BA325C90892958
:102C40007F8AEAF4EBEA1F62B534E696CC63BDBA3C
:102C500036E9C105B3460A14C2E0B11F2E0A5C3D35
:102C600075B5182F0CE2507D351198732E7F5C9648
:102C700002AD3C30AA26507AC1F868282991AC519F
:102C80000965E4CDD5F72D4B47CC123E956F57CC57
:102C90007FA94E62A57DC814A44C43DEECAAA62BE6
:102CA00013BBBF63D1476FC21816C16D33EF0874F1
:102CB0008AEDAB5EB4F8FB99A0319EDED74383C3A7
:102CC0003E4A9433E45A7FF72FA502F3E42667F7D0
:102CD0005DC09F683E35D8FEC05851AABB5D7CFCE4
:102CE0000C9ABE46BF18794891AD6AB7E0B3DB5382
:102CF00041A53B427A39F22F85A0F490D15A8FD466
:102D00002144326072FAABD02DFB2D94E5CE22E93E
:102D100037BA53072F83130B14E3C14B78F980366E
:102D200090A1AE31602236CCEA8A33B8A8584F8AD7
:102D3000D9424C98C99F998C233146F2F33C6E6579
:102D400027B27228C400EB98FE9D48ECCA942F8AE3
:102D5000B430EE5DFF3D1674D9D35C4EF43663CCCF
:102D600028CB4E2B026B74965A1AEC2CF2DB67FAC6
:102D7000722F23BA16080C0A70941320F18836CCEF
:102D8000AC79DDDF2C1C756E0999AFBEEDAD9647B1
:102D90006E990C8299D43B1F99F80B70726480E095
:102DA000D4588969C2C0FCA1295A9712FD598C25B3
:102DB0007046AF6743CFA6DCC090175595B63BCEA3
:102DC0005C951D2B82513D5E6A328D5F8E2FEFDA4E
:102DD00016FFE47C9A42840472EA9A6D957C8EB167
:102DE000413A56582F7C1124994B5715E6761ADA3A
:102DF000444855622E5718F6B2A5D6DB7B9D830654
:102E0000D1B5E82B46610C1E0E312006DE445C561F
:102E1000708EADA57A194C7C9FF68097D9AA059D36
:102E2000100611A222016AE731581795FF8CD9AC20
:102E3000D7FC43192E49F8D2A2D68D64E503585C1D
:102E40006B9E86680AB2CF8E1525AF396BF0FA0BF0
:102E50002E322F840BCA6D3328A9620F002FC5A50F
:102E60007D5D6F336CAA6386393DF5B6DA91D71371
:102E700041A02EFA42A78BE5F45AE23FABADE92F11
:102E8000DD0CF414CF4BE4D185D6079D6D737579B5
:102E900032418F52C2CA8FB57B7BBFA0CFCD5CA51C
:102EA000B48A1ECE13065448A2F5A4A2775AB5A63A
:102EB0000AD9AF12658072B645CC9E838A8BB5D392
:102EC0007046E2D1C2AEAEAE9B81530D9BA4429739
:102ED000CD7845FD2F3EAEE15A3732490FB343B7A7
:102EE000F69BE2F687B84FEAA98017254E1E287692
:102EF000475C74D5402AE2964E7D76026B2D963F54
:102F00006D95C104110C579CFE1CC24DCD0908A73C
:102F1000169E90526C27D0C0453663A8E9EC933CCE
:102F2000DC427636C288F0D8AC9D9165C2DD9AF954
:102F30008986372E6FBA98FC48D614EA651EEBF6E0
:102F40000F97EB83B412664AF7C22F4F90C91655FC
:102F5000823FB378982E5CD2C6FCB27B9FDEB2353E
:102F6000046CBBD46E564B0D2821BBD4FAF5991DC9
:102F70001EE40B4B2B2CDB6B4855700141A9902DA7
:102F800040360C769A6CC181082B63826BA0E019E5
:102F90001959B7877469F653746ECFBF0D5EB8299F
:102FA0007BFCEFF014F807104B6C5765582F3E6D03
:102FB00037A77B76E158468FFDF24067428176E87D
:102FC000E59D01AC8ECC8A492D8F5505261DEF4518
:102FD000AE1D8D8414C046199C787339955D786850
:102FE000DF19D5838910B3A859F5DC36C4BA9B2202
:102FF00016912FEF10845F7A911A8E86CE42D56D8E
:1030000034C250C12ACD0F914198BF57DDAEB06E8A
:103010005EC21FC8044EEBAE0B4B1629082769523F
:10302000B73BAC596769C70282DD0E8E9A971C24A4
:10303000FD3B998D15C029D310903A4194159AD132
:10304000A6CD5099F7FE9CC9F8937D1D613A119F5A
:103050005E1071253F705250FE7F5D813A9041377E
:103060000EDFB08CF962F796146BA5E8185E59F67E
:10307000C2275C67732BF0D9A644161E295EBF5089
:10308000067B91B47658C493FDC35AEB483F099729
:1030900043832D0E85960FB63E246824FED9902CCE
:1030A000B911FE04D37EC5577E428A8B201111636D
:1030B000C969B1EB071C2822D429EF9DB1B130D7E3
:1030C000A022A84D1489E4288F0624CCB70B5F13E7
:1030D0005CD858C1710CB9F262CFF3E2444F3E7F25
:1030E00066E23FC8F581B8547517649FB69648816B
:1030F000B3F587833D5CC406B7D64713DD4FA037D1
:10310000EBBDF74857D13EDDAA0B03EE7254D42A2B
:103110004C0ADE57BCC79C312C84844C6766C91BA3
:103120007295BBF60FB1D51E17B4E79BE850153F5B
:103130009C87F4471BD2B9830824625D2892AD06B0
:10314000CEB95F536A9D984211405D031FD005FEC2
:103150006EFE44ECDF09386DD033F37E08B31F7088
:10316000DC7B5F98446488DC8D3AEF8CF6D9E5030C
:10317000B683E4A98312CFF7F51BC9B8E12537BDA3
:1031800043BC16E4B4B2B706AA2E2EFAC4341A71A0
:10319000D788C1C90DA5DDE1F821474F435274110D
:1031A0006EF50BE2E23BDA6D4D034E7DC7F6FDD9BD
:1031B000FBB9EE6AB8A3BAD38463D6EF7167A01FD8
:1031C00073F49ED47AC3CDB9172FE6D47748A6629C
:1031D000FCFE56587B9636E22827124FE834EC3432
:1031E0008AF169847CCC30A7BBF9AAD4BC15203203
:1031F0003085610B833A475B39FD45C39DC9565302
:1032000049DC0097317ADEA56C825D0B943F44A9BE
:1032100077AC1694204836A1C7A5DC4FB3D40DAEC9
:103220006EADA8BB8F51EEE5E1A1D18678186C1385
:103230008C053C3CBC2ED11DE5615AB49D74E9D887
:1032400010FFF69E752FB1AEFBF0C21AA1C3A9DA2A
:103250005B963DF26AD8525142B869A34C6055F072
:1032600016A03FE128CF610CF7347C93B5C531221D
:1032700014C4C7379FEC5F8540A8BAA1C2FCA988D7
:10328000FCE9AC7B8A41FEA1F6BA31F38F2FF47BC7
:103290009D8057DE0BB64CF25C58E7892FC09AC16F
:1032A0008169C5AE8CB6CCBDAF00E47C892A4AF4F6
:1032B00074BE1F111413B648A3D2A0947055203ABF
:1032C000C57B2B917A8A30DD545AE8706C0D1A4F09
:1032D0001EDA5B8943413339C3879810BC98734326
:1032E00078A3C9C4F5489174DE85E7AF09C70366C2
:1032F0005D92916B50FA4BF9465D774A33C6A42B29
:10330000FC31CA96A14DB829EF959F8C3C7CAA81CF
:10331000130FEF6F850C8E8B6459186E046E707EE0
:1033200038651358DB8188FCAE908F132855CCBECE
:1033300076E6CF018EADFC057448267B47FF3589C4
:10334000315655B9F7378B06951CA1BEE5BA16ACB8
:10335000D103CD75CE0C59DE92284C59AE26D192B0
:103360002793979347EBCA4E1C8DF30510A3D97C86
:10337000E070594E869BEC7C4C872CB84B3117760D
:103380008584676D67B33738FD9290E7BA26D88A8F
:10339000405686096B82398697B96B02CECFF426E8
:1033A00003446FCCBF6DC02DA3B371AE0E22C775A1
:1033B000BD3BFC1801CF85B355FDB9DB24BDE53D10
:1033C0009997395D7B5DF1CDF93A1A2923ED306685
:1033D0001DBA881977CEAB9B68624CF41F8AB2B4D1
:1033E000396BA0D7A8DE1A1A85076F2C07769D3B8C
:1033F0000DBA85D9E50503FE152C515ADBE6239C51
:10340000B456BA505A11AB268EBE6E8310BC16034A
:10341000CEDCBD5F7D92B419F2F2DABA2BD8E600A9
:10342000BE208CD126AC019EED14F1D6FE1C168F69
:103430004301B3F28F613FAF613B7CD4E5228C84C2
:10344000624F9BB92B77CA17EB339BF72DC4D4BAC5
:103450000B65D5679D8C4F750E2F1C6855B4270AD8
:103460005DF403D0CD7657A62A278B3730E2A4A788
:103470008EE4AF07B685FCF92F3E3404513CF0CD05
:103480007DAE6B3888C887053579277D5FC8A8660B
:10349000AF2D723D36E65E3C1EA9BB945AD942322E
:1034A000D1686DBAB4AC65CFAB0F0E5D2434F59125
:1034B0006A77F6E00247DF1060356AC380F245D5CF
:1034C00020517293432D7364A2B3FDB7FC36570BA2
:1034D000E68A5914122AF398D59D9DE9033BC583CA
:1034E00005501965EE4A34B95AAD7729C17D52A20B
:1034F00056B3B0AC73025F1F96152283E6CE14C498
:103500001298C9FAE002072F07A34B43E560B80EF3
:103510003086F02AE8E1EA6F8C3C15E4668A4D6F4C
:1035200022FA5FDD541AC810555CDAA45A4E7A505C
:103530004A3F20C6590EEC900F6BD4E4132383D47A
:10354000CC4F2126AA24667FD0B4D76CCA33160E7E
:10355000F52E61DDCED334F6A75C13756FD364FE10
:1035600037D7332722BB13F30EE7BC5C77CD18A403
:10357000AFC920C789EF9C0531955E85FDBAF0067D
:10358000A6793DCD0169A166F21723E72ECCDB02B7
:103590009DB1778E5F195DAEC0D3B4F0ED11201CE4
:1035A0003A6EA3A7B47ADC78BACF9972252246D9AD
:1035B0006EBFA455B1978C8C5952B6F25E1EC1FBFA
:1035C00085DC97C5B04BC79E3484AA472DEBCC81D0
:1035D000DB8BB2B867D3783758BB479B2D6C7E2CFA
:1035E0006EEAC2C7C3BEB5E3491D338053176EE30D
:1035F000098C0FCF4AE4EBF0AF9A2D2DB9540A2E67
:10360000F171F1892161AB4BACD7EED6B109718F65
:103610003B5856AA84CC780B91D2DEC700824698DC
:10362000836E4BF1C5D2553B18E1A06990938FF2A0
:103630004735FB294EA83CBA9B9D2E24326FF7904C
:1036400032B4332D0164E4CDF1A9ABB1A1D148145A
:1036500077F36EADA261C15A2A786740DD64EEAAA5
:10366000628E74D42EDABCDBBFDBD0F0F6E53D0D04
:10367000E13FDCCF6FDA3E035D0FB3FB787025EBE3
:1036800087EC90E44B657F3E056EFDC7E7E7735A14
:10369000FC89370CAB791D3EF116DBF72F9B2065BB
:1036A00042EDD12B44AB6DE8C0E27DBEF1746B7D81
:1036B00022BA0035EC5A5B1C378DA0DF487261E4FA
:1036C000437FB6500A8820FE3F97FF5FE9B359DF7A
:1036D000E6EA5A800FC09E87F90915F0C30F3C3CFB
:1036E000B01672D14E471C4AF46D1FEF54D25E588B
:1036F000C8F8FA126640A3C6FA4CAFE19BB1E8A441
:10370000936C32927246F3A785DFF11FC0A4776AEB
:103710006F375CF4E33AA69322E7FB3385F0259CF0
:10372000DD7278476E364A7C231F1A442AFB529773
:103730000170800CB9FD28686AE97EA0190EDC2AA8
:1037400060B4A093AE74530015FE31AE512B6810D7
:103750002DE9390CBA5015D47E03140CA094F3470C
:103760002B419D0EC3BCF06F3CD2EC92A3E60889BE
:103770008C89D00E353A3E0A523424E6177DCCF2BD
:10378000A4F4791028246071CFA9BC7180F05CC7C3
:1037900066B67F944D49F203C99DB87D3F2FDD6C1D
:1037A000066ADDFBB7C7CEAB0453926C006EC7E36D
:1037B000ACE87F4730D367C4161D31261DF603855C
:1037C0003F76D921860D39F515F3183D87DF9FEE39
:1037D000B6C2AEA48B042AE23F66458B112A6EC0A6
:1037E00073EDE1DD7C438C8689B7430D098BA5B071
:1037F00043EBEB7CFC85611CCAE63B9129D8E59143
:103800003931B63353774C20362350F2475732962E
:10381000E928A04D30BF1095D45C13EE4294F5CD4D
:1038200091DB39E65E5AE81E4CCD5CECE8747E6FA5
:1038300046DC82384D2435493323AEFBDFF19DB39E
:103840004C083E16356CA303B9479285F32E4A0403
:10385000DE92D38DBBECE73EE83CB52EFD9A247E8C
:10386000081371FC40427A19E685EA84FFC35127A8
:10387000EFFF56AA46FAF79C6C6CB6709803B254E8
:103880000ADF5AC1207A93C38A70DF0046FCBF84E6
:103890005B3831DD48898C937D5E96FDDF8CADE62B
:1038A00007104556057E95C065B3E59E84F1060771
:1038B000A79EB064E4C7DF896BD8822A92F6D4A3AE
:1038C0008501D69885C419B4C161E9B13BB62F4EC4
:1038D00053C09A358A59C2982724176E2F43253230
:1038E0005156F430618DF2CDC6E8AD7DDAE62A2A74
:1038F000D2F9ACED837375422DD1E7BA9A08611500
:1039000013A5132E394666234CD3349AB572D0C60C
:1039100097E74399B71773E18FACF36FBF7C93F5CB
:10392000D2699DD4E27AF6EFC23899593EBA07E6D9
:10393000A331A8C33C0B17006185FD8ED5B0DC38E0
:1039400038C8DA7BB773998506922F8C8DD60AFA20
:10395000A39AB64B48BECE3585549E9AABE69ABD27
:103960008D4737201B792724C71DD757900CEF6947
:10397000092A710F71A0389BA784675F577B1232A9
:10398000CA705BE7DEF224D1AAE440A6D2DE49BECB
:10399000B336F529CB6C98E427ACF6EB6FA038551D
:1039A00050761E0F0693A79A2CE87B23CBA47FDECC
:1039B000981E2729B3CEB88BECFB1A4A3D3FEC008A
:1039C0003C5364231761766D789D421C996D9E4F20
:1039D00008A8AE5E1B0B3E1C53C3DF20042513DF7B
:1039E00022EB19F299D19EFFDAF2BA27B69A7A2021
:1039F000BFFD02EF7ADE9076778E9BE56204EFA240
:103A00007C4D1E1138553BCF516E7A367997144252
:103A10008B43D41CE8AAF7023A7A9254328C1DFCEC
:103A2000F34E6ABF8E12B13227C073C1E39325E80B
:103A3000228A6AEA23375789A4B583B771B0733BEA
:103A400087FCA2EDBE494AAD3999A643542259BC20
:103A5000075599922CDB1D56BA935BD3E3BD284BD7
:103A600014B1C2B98EAD18FC2264650885C7BC4884
:103A7000BE9A4A65A3D84CE847B7DAFBB3289EDF65
:103A800084168869978395D9EE9D70B259822CB1BE
:103A9000B814FFE576EF658FB896489E67BAA6FB27
:103AA0005D421B97AD5C7B2A13912366D60360D8D9
:103AB000488676C5F46AFC1206EBF8EB5733838B25
:103AC0002EA4CA200DE1E21B32E22607F92BDAFB15
:103AD000D030C1A07CB504F8AEBEA5921132C79219
:103AE0006AC01075DA7932D60BE9BC87611B818414
:103AF00052C8FA77D6F6409467D8FB784CA0EAD43F
:103B000027B6A24870D7F59D065854991BC47C6708
:103B10007BD9269DF59638D293B75148CBA965CF6E
:103B2000A5D1EDE5ED0243ECB578FEF8C5C277FD11
:103B3000F91613E0014C72A784103A63C9DA76D6FD
:103B40001C0684C51716C88B20124DBF95982FA54B
:103B5000CEA8B26A7FBA86ACE90017F76A6615D7B5
:103B60001A753F18BD9FC92112DC01F0E7B7F41C9C
:103B700035501331C908446837D37B526C8A967D1F
:103B800021CCCC906F7CBEC5826B39E5BD32E44C54
:103B90008C83CBD18081E5D207841E3D3966E9EB69
:103BA000341BBCDF9EE98FE5E50656EC2F19DC8F50
:103BB000F592D9D79091EB8C0B828C2933D9D11403
:103BC0002DFC1A29FA36558D44B5B528494D4C328D
:103BD000B612E8D2D1D0E63513BE08E1E18A3187CA
:103BE0007D226721AD2003AAE739E3B50F3944846C
:103BF000A7DE682BA12B2DD727E4B991F76D71A80B
:103C0000C9963BA4AA445B07FF4D4F6F90397AB029
:103C100063182F7D17A76307F8971C6011ACAC4899
:103C20008CFFE45EDA1A0F0DE3C9FB1F10AE00969D
:103C30005154D4CBAA59668FD36B9349B793110CC7
:103C4000E09E137020CAAEB340C797155A3C0E05CC
:103C500022D594DA000F68AC52F6BF78A193FC8DA0
:103C60007F39712913EBFA4BEB7EBD9D5DDEFE8C37
:103C7000281C8AEE222653DFC0DDCD6C1F9F57F231
:103C8000AF8C72F92920BB5C6EB125FF48344A30F5
:103C90008A329BC1FD4FD9B96879AD8E682DA49148
:103CA000947F4329A37E6D1468187C7276D3446296
:103CB0002DC5816195E1D4FDB39FF2406C127280F5
:103CC000C0B16372C87FC848B041B35A8948D1DCDB
:103CD00022E18AC3146F42A74B2CAD82CE3FBBFFBB
:103CE000B9A7E98A4F17C66C4789AE02FD37345D24
:103CF000C2D70D66F657082B8A6322D8652E9C56CC
:103D00007D15AE05BBB50ED9C4703BB4FE2CB80B07
:103D100077B142A105D7822357FC152B3E6B3A8E13
:103D200089ED872A7458657A434223878228F8D31D
:103D3000116B41097DCB70BE4D76FD5F89F4F7C9EB
:103D40004C2613133144F0898B0D5939EF7C090847
:103D5000FAA15BC48F9F947A17A27DBC511D2B30B2
:103D6000B668BFAABB771C93F82EBFD09030FBBFBC
:103D70004EDE5C9BBF923ACA2EC6AD5D9BD398FFC8
:103D800079879EADEED6859DD11E3F3AB332EB8545
:103D900089435286DDA1CBB3EC5C70BA24CB75BEEF
:103DA0001FF0F34829B8F528CE1A198E2EE3CE1A43
:103DB000B5AEAC6FAECB0087F012AE888008D6826D
:103DC000B8C60399A8E022057A1E2EA0250BB5805F
:103DD0004CF1C455B229516CC168BCB53CD29B4D65
:103DE0003372430A5F1FB8D0483E482678C26759ED
:103DF00068921A2BA1D0307C2E30FD4B0903ECF4D5
:103E0000AD70D903AC1650A38F874951CB9B3B595A
:103E1000AE2CD24670B7276C00F4463B22AA56F867
:103E20001A7AC9B75B4C7BB22852C1C9BBA3A4D2D2
:103E300043807808410BC3F88F3E13613A017B023F
:103E40004F3F752537B6663EAA90053B3A4E689DB2
:103E50001385619FA25CB5705A7F07423C06FFE65E
:103E6000C14FF4BD083B13B262ABE8ABEA818743B4
:103E70001DF27B702BED97D644A0E6CB19A772D923
:103E8000F38D655D16A4F87C199DC760FEA9BCC2C0
:103E9000463E64FCF68BC76535DE2FF59E6CDBC3B2
:103EA000FC6B556796A4F8E0CE8525BD930F1443AF
:103EB00075F6B12D162664285AF051961C1907E79D
:103EC000FFFA7BD8694B1EC15BFD42AC2EF474B186
:103ED00096EC9C04E10E5C9C0685C8A5FEBCD089CE
:103EE000EBBE874C86E77D62D2C4B6357DE2BD6A03
:103EF0004FC21DFAD879979A5F35556CAB5027C0E1
:103F00002F5FAD4577550B7F6A0BE1D3E7A6ACB7C2
:103F10004733BEF7AEA9919DC216CF1391D2306F31
:103F2000BB8F99B64777F15E3E8331CE288B66A969
:103F3000D9BD714FAC648F14DF3A6E3FE9D06D7D0F
:103F4000471EE085C56D5BCB2FFE48AA745F7643A4
:103F50002D7316E5D7FDFB80F9E6F44677C485049A
:103F6000AF4084810F8DECAFA672BDC2ACE68D1759
:103F7000C689D65CBDACD5D5429858D687719064B9
:103F8000B5B5EE19EEF6EE6F8C45FDD135E7BD4BBC
:103F900057D624C0FC860A7CA42F928EE982889B87
:103FA00077D2D22B485F2CA0CBB77B9CF5B48D3356
:103FB000CD914365506E717BD6DAA2ACCA38E2D59A
:103FC0006C271CE7C818D46AE77EEDDC7B0E52F63E
:103FD0005BBCCE884F37A7125D4DE8035CF8B40890
:103FE000F0BC74E33DD47752869374D7D00D9BF523
:103FF000983FF203201B9B6EBC50928AF7008238D8
:10400000AB56E3B70D4D62091414F0D5ADE79471CA
:10401000B2A7B6E7C9FEDD939632AF721A91F518D2
:104020000C8B6F3781E8CB5BEA6639C2EC4E0F969A
:104030000FABF70A56CB1F93CCA7520909A9A66A62
:10404000CA769ECB251B1CFE1C0B50147ACED08644
:1040500037B474F9C419F4A0AED51349A38CD3F9BD
:104060005A1680A8F5E31FBC629A698233D76FE1C4
:10407000780C066E8F4E8F0C8961FC2F76121C9D7A
:10408000482012BE9FE034E3E61A9448FE19038AE2
:10409000F68FC3BB7CD35FF6732888BB954EE49F35
:1040A000DFB9152FCFC59CC9A41754B5C14EA94778
:1040B0000D77C4128483A32B665A3744BECCB43820
:1040C000E98230B67F051F5045C6BB3B3616746B80
:1040D000489B8DD9F6EA33D10BE12E94A4D19D8271
:1040E000FE081565C38B35C6ADEBEA449FAD6D2C5C
:1040F000FBD94D8174EE27440B87F504821BABB7C7
:1041000036077DCCAD9BED6B7FD0DE16146EF8B814
:1041100014B2499E848FBEAA86A6F4D7273E863C59
:10412000606F1388405C194E310C27EBFF61AA7158
:10413000E673955303373697277D7C72857992E82D
:10414000CDF479C74EC5143B06C4128D703A09E808
:10415000ECF889F121D1257D9C81F26FA374261E94
:10416000DCBB2EFCF94AFE334C9EB47009D9081909
:10417000BA276AFD725F5E84C5A091B96B769852CA
:10418000E9382EE7EE7A2EEE317A5740D3C3F79C0A
:10419000FF59C983F4C941F4DA64D32A6AE8A02E2E
:1041A00098AFAF1C0E61CFAA4BDF34EA962A5F04AA
:1041B00003F27A3496DDC280F28155DD76F1B1E307
:1041C0004CEFEC97E941438BC2EFC2F5C139BFC850
:1041D00058EDA338E07B2F2EDA7A49EDBC23851306
:1041E000456C6346858680F7D74C1072A5F6AD37CF
:1041F00087FD1EBB66D8AF048A271644A70286CF68
:1042000041EB1AA30FC713AC48D422E924287F5BE3
:10421000FB6835C081C6CA2489E8FC451FD2529389
:10422000E4F1832F3C1DC87416B0C3A36223C7DE1C
:1042300048905C0A2A4651CEF9A4CE1EC64383A0FC
:104240001FD7A2C4667C51BA2A51502D53CC71BDE0
:10425000EF7F0B5FD917D4DE14D5D5A6AAB9C22536
:104260004B7C5196EAAA033B56B9C937CB12E87288
:10427000393C8514E6D162147C08754770AC98F11E
:104280007DB5EBEA558D31F2FA6A93FA599A5F28B7
:10429000E0D76D83CC497744523F7E83602FBB8D3E
:1042A0003A3AD78557B868F67D62BCF636459AD754
:1042B000AB3FDBBFD8D1D96860FD8725E0095BCE75
:1042C000AC8193E01985F36FE05D5FD301F4606B1F
:1042D000EB2DA5773A458C45C97014D60ED387408F
:1042E000915043A5716D9B7E85F67081596A7E1150
:1042F0007D1CA8F12347BFB7F10830E86BE4583DB7
:104300006C2D826903F77CF6969D21405D374955F7
:10431000B181ED24260C34E4B5B9DBBDD41ED50F34
:10432000A72C4F57E6711AF850068542F11D667B9F
:10433000C4A2E81A29D9DD908696D10DC7172B5053
:10434000D024A2C541AE39742EBC4BE14A78763DEB
:10435000EF0BFCA2D7845E7AB450C33DE1844A5F80
:10436000714D16EA675596176203052EDB5BDFD1A8
:1043700063C92EEF81D9F15FE454AEB9D4CE95FC78
:104380007FD6011E93BD2F6BAC6A94D235EA73EAD7
:10439000E3DA7AB5D0BC314AA294F7F4C58A78E65C
:1043A000F27474D6844F4D916C37E478CA550B3152
:1043B000C4CA93107DC27304FBC6292F5AB564FD8D
:1043C000F49CD2FE39A15D81C11CC86E81F5F20159
:1043D00021A38A08508873A179828295127BEF57B6
:1043E00012EB0CB024969A51745C446F0801B10032
:1043F000A104EC699E4398B9BDE0190CDAB26F6074
:10440000E1BF82F2F7F456F1E75E7D3A78380FA605
:10441000144B9324EBA745225FB484FC68935D465C
:10442000B19854B16EA215B4BEA1E60AC17F2C3872
:10443000AF3B61224BD183812320FF943538661C2A
:10444000C96F2BC359AD70B9FB3B739ADC87DD494B
:1044500076B60D37F8E049094F302FF947124DC5B0
:10446000118DE6EBA9B7EDDFF114C706915C20676B
:104470007D708E508F5FEA656F307A849D99A27649
:10448000C64845432A630FA3D14628311F5072E323
:104490002F1670283A22B2401C86A804722843CDF9
:1044A0009825ED7235CD40ED8D7067BFD0EC6C9BDB
:1044B0009A0D6BECB93816DFC9C48E21D4757478A7
:1044C0007A67D1C77B90B9545C656571A2111120E0
:1044D00070B5C6A8361B4618D59569DC06D331C51C
:1044E00043BE0292C940864B236825BC6C64C1035D
:1044F000DC9E6700CC17371D5A541A0486066E508E
:104500003613D612F3991F7307CBF840049FFEDBD6
:104510007E62E74900D7B967F1EBFA77C65F1960A9
:104520006FE3799ABFF0BCA1171CC3EB382AD47E85
:104530008CC02359B4C90751E2CD2F470966F18ECB
:10454000F41B153FDC51752F634D196793B5FA6D58
:1045500041718C86C1079FFF670BF566ED0CC33078
:1045600095D4D9D18C4C55418DBADC35983FBC8E51
:10457000FEC8893D0EBA35221B4F7EDA93C16AAE62
:10458000EF15F10CBB7482CE07BA9419F66E4D3F4D
:104590002850010E6A5C68474378103825D90B2BE8
:1045A000E53F315B5B0D8934698A32D090E11D9F14
:1045B000C02E87423E9207215B1E2AD0A43277404C
:1045C000A6945AF82B60B011BB13E3BF6479388B03
:1045D000C2DEE326CB5E989D9153C553D722E0E31C
:1045E00060A910052DF2211CE4DD8D743A9F622F25
:1045F000637E30DB9A97B1231F6398978DA529D7E7
:10460000A8EAC635A715E849F4CE399EC9CD02EB14
:10461000A8858CB7F2FBC48D8B53ED35FE582EFD6B
:10462000C68192605F11B4963C259038185105E719
:1046300009A8A7122E6B622A17FF654ECFDF3684BA
:10464000A583C73CE7EAD5171EF2E3A5D2B824E755
:10465000D31E874F21DAD97FE5041D2688E0D518BF
:104660006E0255E9572EFA3BC141F1E5C1BC456CDC
:104670000C7D9CCF7A385B02EC5B633366B4BEE0A2
:10468000EB46C6417D55D3988DCD83AC9B6AECBB80
:10469000C1E600A850AA26613A0198CE7C90664DEA
:1046A00020D65CA8A080782912141660CBF0580C94
:1046B0007A988807F8A0F8E256C292EC31CD6AE108
:1046C000BAE9E9F906B2611D9DE895D04961CE07C6
:1046D00046BCF4B0A3523598C0D98237696791A817
:1046E000CA4B0F2A561006B48478E0CFAB848144BD
:1046F00093E28D2E39AB93D8BB746C40DF59730AAB
:10470000A56E96733D3DDB9BECCE12CAC1240BD740
:10471000AEAB1D709BF38A6A96B1120985F027E350
:10472000FBE89ADD2473227C9C629987E1763CC287
:104730007AE362BF4C636139C62DE2618013992A26
:1047400012D34D3B48EDEA3385BF6F5A0FA850D0C6
:104750007CA81145736770180CA751760427F8D30D
:10476000D1EFFF1DAE1FDB937684BB30DA25FBE96A
:10477000713181E9BB7412D4FE07BCE491BBA2F98C
:1047800059F482BE8863BC177F704EF51429193B1B
:1047900058B0CE83E6D4F9EAC6090614087E2C1E6A
:1047A000A6B0A17BA74BD730BD30BCB2890314386B
:1047B0004F462E06504DB263EABB873B51787BAE25
:1047C0000B9747CBD8036DF54A8E7B0B8074A0F016
:1047D000A0EB90ACE5DAD5881D43E755B2AA35C504
:1047E000D668A26AF6F35F60B9BCEDAAF85C705EA9
:1047F000C5CC54EEA2D8149842ECD40B0D0F5C9AA1
:10480000FB827299A10DB49BCCDEE3121885DA0FFE
:104810002E97FB268E736E1319B7A9A6D1667ED488
:10482000B1908415E67A944B7E7987955560C46281
:10483000315F70FAA426496244B704058C93B45BD7
:10484000CFD641DF6F19BEBF1736CD7F82BD1C08A2
:104850004DBB942E2D55CB9C73A98BA24C54A48890
:104860005F5938BDAEB8DE09A19F7E67AF7F8587EF
:10487000EAD9738B178C8F2D1B6CC17787D44BDDD6
:10488000B214406DF1FD58B6B555C93E812AB0E667
:10489000A4AC568A281274D93A007DC4FF97BC484C
:1048A00072901AE63669FEF1736933B5F1C7A74114
:1048B0004D5D56D9FF39E22895B3C6C90B8901E48D
:1048C000A898923D2C915D887BADAA88180AB5BF47
:1048D000E9D2A336730E7BFB3D82C903F5C8FE8285
:1048E0002BCC85838B1C159C38C6D55DAD1595C426
:1048F0008BA785E81601C216F7F7005366529FB0E2
:10490000772B63452D9AD1BAC10D9BF9BAFA067C73
:10491000D3B743A016D0CB0B7FD085098C9D43FE27
:1049200025FDBB5586795FF10747E8438B2AC134E3
:104930009C0A3F3E8BA0BC3066CCD7ED423A83A8A0
:10494000EF74E9FBDE4E53C9D00ED5DA7174A06264
:1049500073B83305C78275542098D9A54D6CD7DA42
:104960000A59A61E627D12807385B3A809A6A560A8
:1049700070B98B0570116B9A938C2C72CBE9DDFFAB
:104980008BB5C4DE4088F2257C01CAB3F6C4397009
:1049900005E29BA35F8F2A1B2AA5D03143BA647D11
:1049A000B7D4982C7575112F7AD4B458062EA187D8
:1049B0008BBF64176E442C978C837274C95180F638
:1049C0007E5E75DC32E18913E28AC6F2F39392DDF2
:1049D0004B604DEB987A65F36FEDB98F4D6A1C1FF4
:1049E0009D1530FB72AAEDD725948953F86C5CC3F2
:1049F000B92FA351B9671CEACAFF04923A9A906F83
:104A0000BF30B4C5191FCFB009EC724FAE7323B8D5
:104A1000A8E6726143990AB6A3E2D685865306EAF0
:104A20004B7826E0134DC945E2660AEACE8165C19E
:104A3000AEE66C14FDA8829A8558649346A4FAAC3D
:104A4000F511BB945069702D51FF1BF5C54F9B614B
:104A5000D9A5C9BB743CF2A4882B6DE724970D1C23
:104A6000A321013C171381611F69608BE82A9C0B0D
:104A70007F2F57E3B2CB92A42D61295F3E6F01C80F
:104A8000FDB9E729C75EF89945B54FFBDBE2E15D6B
:104A900096C0ACE93B782EEAB5D0146732AE66C654
:104AA0007167DE1D31FE8C3BA0D93B4ECB7730FDCC
:104AB000C3FFF210CC5C6BFDE09B5A6ECD35C8D9BC
:104AC000F7C5C2422598041CD6AB8E3ADA43993E0C
:104AD000E40A0A9A22F42052AF8C2D528A7CB31732
:104AE0002FB545EF28B45AC9CA5A7D3E28A096383A
:104AF0003329C62BFF707991E639F4A39BA3C6B680
:104B00008624712A236230631B33D237EB59B97480
:104B10004EF7805CC950777349E77C0ED346CA16BE
:104B20002DE163E00F9C2D47C2A55BDD487DCA44A3
:104B30001C1CF079AF9348874C50C4E50771E4A979
:104B4000B172E296B13C3954EF63AB904F7D6A3657
:104B500043EECD37A719A331F51D6960B1946459AF
:104B6000EA94DF10E287DB6C6A9B96C9FD3CC18842
:104B7000D2A1126B3A6451A11BEA80A7A8D90D8774
:104B80007D3C7E22151AD2B076656C8FF8E398488A
:104B90007CF7491D2533B3432F4490B3AA4C23E738
:104BA000EB62AC2C7246E5114F5B759239E1EE4732
:104BB000E82437B3F7794BC9E0B68E2BF724046F9E
:104BC000884CA06F665DF640C6A8EC94735AAD9F02
:104BD0008434A9A7F5E57D32FAA4691296EAAC49B6
:104BE000425CD309A51AD3EA5D275E3E62ED3947E0
:104BF000EEC95568E6F975E02FA38A231C69EBA975
:104C00002EE7CD5EA832ECDAEBB474C3240B05A01A
:104C1000D4E202561D233B838009457BA57FF40A1D
:104C2000C1A926AF4AB02A81B598009A9411156A95
:104C3000BC4AA7D6D3E37863D5EA4D2CFC9A1F82F1
:104C4000F66E14E761DC21F5808C26E82823F77CDA
:104C5000DBC0CA85EE50441F4C7DB0D27B547DA989
:104C60002A9BB94B78E1EFCAE54E14835691146341
:104C7000D5FCC54145085F6B506B90F4DC4D383D69
:104C80000BABA828FDDD5C4465788E7E97D72EABF4
:104C9000DB2F5D79A757988C8A0D085835976FF0F0
:104CA00020521B618D3D7FA8D82D962D32E9F5F855
:104CB00063EAC544724B1032438F5B9575F46F07FE
:104CC000507ACCA47AA2364657EDD1787A49EF19BA
:104CD00087D2916B88B34531A2C60306A27E5817CE
:104CE000DEB4A270EA715016819E8B10AD093FE2CE
:104CF000C9AD3996153E9DC6C758FF5825817E29F6
:104D00000714850CFD5519E91C432CCFE72FBF2054
:104D10002276B5D218D49B6CE5F0C2C57DA6CDB87D
:104D200077211039F61CB34561F37AFE25031C9DEB
:104D3000AD08BE013707CD2861699C7549E7B5D339
:104D40002B1E55C98C3347A993FD8AA16CA16E56C1
:104D500031AA8EF2B7639E1554CB4269D8E0DFC901
:104D6000E7831C94DDBC42C2CDCEF778A6614854DF
:104D7000FEF22D3AF4F5876BE04889350E40E000ED
:104D8000E9BA0216E1867BD10E363A149D8B8A9DD4
:104D900049515F8D429AF86E301D5C578F0368F55C
:104DA00072685F6BB907D449865BDE6CBEE2CF23C5
:104DB00014049BED16E11D4059D75774DECB38D152
:104DC000B6596BDA331C8B6D0FE5592C5FCC4DA5B2
:104DD000F27DEAAAA135D62EC68B9985E120E0C2E4
:104DE0004667C5854357BAB6640DAB8EEB0F2328D3
:104DF00095BBC72F043FE10CEDC73B96EEC1E5E242
:104E0000400CE419F5E35F16012B0BEEB00403E848
:104E1000E01B035B87C525C8A2550DE297B0B60914
:104E20003205C3BC5F9EC664C11F58B283E470BD27
:104E3000821824FA4F2E79EBA56B9C609D46C839E9
:104E400003E98C50A39AA943B858F0B41BF1665DEE
:104E50001740712B99CB98D1F5FC52DC9B088F58E9
:104E600016098CBBE6FA741E875888664D5EFF985B
:104E7000E6BE5C1D5F49B8AE555775014685F45ACC
:104E800053EBA3E357BAC933AE69085A006B522DEE
:104E900025EF6DF356355E548D49812D57F0C53B96
:104EA00058BB117379BC51D6C91539E90CBF3942C9
:104EB000F25B2E9109B7F22FA62731B41678824BF8
:104EC000F76FEB6DA899E502E93C3A82234114069D
:104ED0008CB6309241D07682554E7DDDDBFC3F5062
:104EE000EA7F527DEB4FFB08FEC54191F807DB3BA3
:104EF000DE901897F5D95BDC1B1B962ED6E0F3EFFE
:104F000072902C770ABE7A60BF39108669F12A192F
:104F10004B1D5341FA9CC5F917DEFEAE20AA04E5ED
:104F2000DCEAEE408A0DED98AB473DF801C9D4D0DC
:104F3000D27F165B2548E9866953EA05F3F5B84840
:104F4000643B6F37AF9D9DCA5F67E96A14521D1CB1
:104F5000AA1381712B85BBBD6A0710B4E104FD84DF
:104F6000EBA684F0016BD5308CCBBC280FA9EB5796
:104F70002D08E1B5BDA110E2D892B58868F703F518
:104F8000FE04B85FB9DED753499A263F41C2F3FB0E
:104F900017F00C55745FE2AAAB75E938FDFED0AB93
:104FA000D66962CB76E05345CCBAC2AB091DE8C1E5
:104FB000AD1D3A86C564B9BCED476E0435719E5887
:104FC00011821C712714642245974E6DFF3963913D
:104FD000A749124AE7FEDC91CC93F7663F12317085
:104FE000ADDCDE76ADE674602A30EDE2D6B6595718
:104FF0006A20D38A0BBE9819EDCBABF0A2B13A2C44
:105000008F5935C7D1C0DD5AE3D28DA0E8A9AFAB27
:105010004427E58C3D0DF8E1D3836F728D9E882681
:1050200037A07261A4DA3CD2424276D63B248BBED2
:10503000E13B7BD681CE323B892D1E3A3B78E44E54
:105040004A7B647109A3A26520BE07B93EE02689A8
:10505000CC4ABA7DC8FEE5DB19A1F963F822DEA6C9
:10506000803BE9CE93E5356AC731DCE47FAD19A713
:1050700085DE3BA508644307090F5AE3E48F678088
:10508000756F076C4C3A1B79914AFB08A87718FE9C
:105090003C95108268AE0FC722A3E90D3A04C11DEA
:1050A000F720A8975EB9BC8DA698C9E2760E017468
:1050B00002853A184D47ADA1BF522F20C330B1C46D
:1050C000964F30A95165D9A02FDF0D653A9DEA268C
:1050D000CF7F37F4112D7421808212E89BD1CC66EA
:1050E000CAB84135CCD29D13567F1E74DAEF3C33DB
:1050F000AC6E899F7DEA797A286FD79A9516A1932D
:10510000609D4A9E1605E3D925CC248DC09CF91CD0
:10511000AFA686524DE700EBFE2C837E5C1AF88624
:10512000E7EAE2859926033979EC048356ADC58C0C
:10513000080112C6A3B72935B038BD7F9666503432
:10514000B0375C5AC4945CB116C680DCDF0C49A34E
:10515000CD42808F8D07B281EB439CA31C8C648968
:10516000DDBCDE8B0000D3F66937C10762727DA813
:105170006D3D46CF5772BD6331E89DB38A77E2F04B
:105180004D550BF49E0E6058C0CC38BD07A369790D
:1051900027EB35B02DFF44FDDF00DE4F5C9CFC1398
:1051A000B57C6557C8CCC2DE8D06EE7A454B3175AD
:1051B000129A3029AAADA4F144446CCAF23D583782
:1051C00008C48956281E51C165B5E17D7EA7EB77DD
:1051D000176060A3513E05337D0659C88B5DE363BC
:1051E00042DC4B7CC2BD81A5B874AC8BD65B673901
:1051F0004A31253798AA04A4D88BF7C28D483327A3
:105200003527D905BC68E50F6D7512723D9149A728
:10521000F629C373E5CF46FF5C6DC0E5022DFB1395
:1052200003779ECF6369C1297CDF4A384068DF502D
:105230003737FFA4CF96B1FEDFED24C7A0C8EBC47B
:105240007CDB811BACF884B7A0B1D29340F4F68428
:10525000CF8315E244AAB4EBBF9588DF032C134B30
:10526000A0401F0BD3F038D20980ED99EEBC13AEED
:10527000181475CA4F990E5A6D2E03FC8A35ED5ECF
:105280004349B7A3BC10F3C8EE1FF6CE15F39CDA62
:105290007B75BE8741EC13D88F50D617321D48CE90
:1052A000E2D885A0D7F822267E4B915903BEE15063
:1052B000A1D49D230C1AF4A5F0D7E6E21A2BD5B998
:1052C000E4F81C73089FF8B14328AD8CEEA3872E39
:1052D000F069B824A296EC102234F86475AF661F0A
:1052E000665817231DE3ABC3C4974A063F8C2C397D
:1052F0005EE9595ECE67564B66F14D2F39121F8914
:1053000012282FFC1A398A18E1EBBBFA77A274D164
:10531000C52DA1986DDA7FBE765B3D02BDF4087F96
:105320006C1B943B565D3C0D0422133B813C08FEF4
:1053300069A4606ECEF03BDFE7D497C53C6FC480B4
:10534000AD48C060CF37DB14DBF29D49571B99672E
:10535000863149BF87E510CB738402375E6A08F453
:10536000749996CDDEC33321F83B1194573FA7546F
:10537000103366D371DA55A0C637D60CE0673D2CE2
:10538000FE6B8F7E2DD7194679093A86FEA77FC816
:105390006FE0DB63B0A4FFFEAADAD7C68A9F58731A
:1053A000C3AA9FF59C63581AC334124F819F2B2EBA
:1053B000D28487336FA190536949E104B65BE589D4
:1053C000E384F3DD2CE0ED9F49650EF642C725012D
:1053D000C5CAFCC95C891AB8B85EBD3921F939C1A2
:1053E0001D531636B45B8EBFE10CF794929DFBA261
:1053F0008ED51697CEB1AFA424A227E62A0E40DBA5
:10540000DD5F1849540DC2FB13021D1027F44C5EDA
:10541000AEDA50ADA48A41A41D720AB260F04B7C92
:10542000CF5E8D2BFDEB111CD51766768C7783F53F
:105430000F85A73FEC6DE0CB3F8ED6685566909404
:10544000EBA43BF5A36B43FD3A06DF66888CE7824D
:1054500021AD71C44AA7B6F2A63C36658A17356BF2
:10546000365D72B04CADCF6A29E5E961145DC4B612
:10547000BAD77740E5E029216E5E65FECE815053B4
:10548000FA67D0367E8545F0C7C31436E429EADCD6
:10549000D1B1CCA550A1B177D11AAEE0B6368E9677
:1054A0005A1A3D7BB0F0460FB95691B7E590537C40
:1054B0009179E31D2A77815051071E38FE6AA1EECB
:1054C000CF322322A9EE04A4D94062E4634D30A078
:1054D000B2BEAC7FE5319511F8CE65C1E7285D0E0F
:1054E00012E06F4B139F73B88DF16959FB5AFE8F11
:1054F00037D632F5E4959367698D7B220C707F6B0C
:105500002F3BC185CCA65BC92944C6F04D7C2D1C20
:10551000A5328940206630EA5AC2F651DADA4836B6
:1055200048E924830CD567C0B0CB8ABCEB71D31695
:105530003B1508AF10CACB160446BA77FF6D1307A8
:10554000AA0E5E9E0B1A6E14448FBD600DAD4C69A1
:10555000048E4370A0BBEC8723803855593F3248F6
:1055600029070824FD4337C82F2C4816BB978C3FCA
:10557000B04A0D68C2130F5D87C1CF7D18071C8725
:105580002DBEE5A3274CF41963C8FB88F9E08FBC56
:1055900083C5E4B0D9DA28F2B4B0AAC3D9E986F950
:1055A000A7EF25B7E05711F25CDC1E995121E02FDF
:1055B0004BFC001A1DF25634468A80E9A2A1FC9ADF
:1055C000A69873015B8D05AF6703B4B602D2D95FAD
:1055D000A5928D9EED6EA1FF5D472C372BF8B492FE
:1055E000F60FC86C477D1610EC9A60483D388FC0A6
:1055F0000E0FD0EC7E9A5A276F030F634267AF4BB2
:1056000047ECFDD35C15D7231C3C5E67BAE7814BA2
:10561000AB7F2C814F3888654C8E19CB1CEB6CC24C
:1056200088A5C16F80931A824C8681C487997AEBD2
:10563000924D7FDC00F9A7540851A5F14DC48BE5CC
:105640002AE140D54BC403C9E4126A378D6C852F1B
:105650002B715A760F2A5D0861D9B048B71CF4B493
:105660008877BCA5C41562BB83A95DB4904610AD14
:10567000F460EBACDDF9D421CAB8ED2E6B6DD449E2
:10568000B8E6D08DD667FF6F400952F85852FB112B
:10569000674A676B2E9C61CFB1B6D65172A72B2992
:1056A000440F62A2AFAE8E719971A0607EF47F99B3
:1056B0003F05C9D22F12D0A989712481EC16E9A423
:1056C00088B8E9E5C51849FF1A00888D532D8B3637
:1056D000082273D62D519B27CAFB8B9D753181E41F
:1056E0006B2B40CACBA507AAFD1E7CD7E69ADC77B8
:1056F000693BE4B983E9AE5B21541E9E64E6F78BF7
:105700001C498471160FCE166BD16F6B9566D7BD91
:105710003456BEEFFAB4C92A11458D0437FD69E449
:10572000C0D3CD93808922809E8EF2040DADCED160
:10573000308D3DA486300FB767348FFFA5EB22FA7A
:1057400022B2BD7249262DC54305E1F2FAF5C89192
:105750005BD924AF03B9048C3AC3423EA1991175B9
:105760009E1A75C315A5F02A3E8E133416450AAD50
:10577000543A5D85D39B8B48C541EF93943BEB54E2
:10578000562A6265A435755E5F0058DBEBF2BBF10B
:1057900052FE1BA793DFB375177F75C038287416A8
:1057A000691596C37059EA21A94B75B3513415FC9C
:1057B00068B110CDFF3A80CA0629051210AE44C266
:1057C000085AF23D64DADB3C907CBEDCEE8467EF85
:1057D000BA976EDF5D1FF2CBAD5627352188A7A3A0
:1057E000DAE798B3EFF6635FB8E39FECE3E662A90C
:1057F00095607C6363B847DC5355B47F035265679B
:105800009773FB4100BB772757778EF027039A18D1
:10581000FA819096E296D4CF7EADE5E5159FC1C89A
:1058200004256214AF5EF8D666F4839CBC5C6EC33C
:105830000402A7D5CAD4DDF179649F95A9790384C0
:105840000BAE58B23EF93D2B861FCFF251D289BA2A
:10585000DD59C520F09575ABBD6CA9AC36864B748F
:105860005B3AE3129654C0D89A3E0AA7DE1B84F630
:10587000AD5ECC949D7109A29B7C7529735067A382
:1058800078A69D11CF8B1A0E39E1CA8E803F322443
:10589000C495E0ADA05DC98BE082A7128626F4E036
:1058A0006082DBEB0B5B323BF77BC1664CBC37B3F2
:1058B0009D139C712BB6D64CBD5A0A8573C0D0F986
:1058C0007B456FFF5C89442AC3F2903F03CCF172A1
:1058D0002D27342B547A223F368E60515984B44799
:1058E000FAC068E8F75F8379ED1323A1A9E81E4F9A
:1058F000518AE517970C050B7E78242CB11142C80C
:10590000154FA82449E8C75CFA4854CEF7EBB50F09
:105910009555D619E51845D3F06B23F6D75DD70911
:1059200023487BCB72906D62647F4FD9BAA8828383
:10593000461D4F5318A2A1B43652BD5BFCCF0BF3EA
:10594000B48B0C23D4668D8173D430EB5376ACD4F6
:10595000E9FF0A7E25955C17DD8F4B439FDD9BC5D4
:105960008167DA8DD927453C0A2275AA0320FBB747
:1059700070FE0201C663F8BE6683DFD0596D5C78A5
:1059800049A5598C7EFE287E9A9C42A617E81AF9F2
:10599000185D7814D53CBB7DE4E89FB97BACAE576D
:1059A00007CFCEDEB4898B53841FCA0496085A45AC
:1059B0003B4819899A77305F9929B48272C4B2D270
:1059C0005BA005F9588983186E611AA9D8A82053DD
:1059D0000EF8ABBF496F8C9F5743E9166F9E243A70
:1059E000D156C6C0470634B841BAC024B32892473E
:1059F0002ECD5921200E3C2CA86A86D8973B1FB289
:105A000070941DFF6E6C7A190C94B44002C49A0A0B
:105A1000D0693BD87953299DC6C91871466E120FBB
:105A200007F0C68B89C5E54BCF291EBDEAE82926BC
:105A30003D55FFB16F6A2391584F877278C17EEC54
:105A40006739ED13BB268291A615CA6AE1B74D9D51
:105A5000FDE1D4E867876F2C7DD686AB8706BEB0A4
:105A6000F03DBA23DABF649F3D310C4BA143A3FB49
:105A70005EA36CF8CCD59DC1DEDD780BFA72152AD9
:105A8000FADF552EC2F7C2996C9D95AC7BAD1D50C7
:105A900068648335EB108AE84561B4F91139017601
:105AA000628EC1DF47D267B7AFE2F846BF8178297F
:105AB0004EB905AA907D63237F823F0C01131AF132
:105AC000DF6A35987AA3EB287A9981150BBB4AE9EE
:105AD0001B7E63F655CBE255EFE70B88FBE9A599F2
